:100000004D424E014D3448500005040001002200CD
:100010006000000000C000000000000000000000C0
:100020000000EEEE000000000000000000000000F4
:1000300001000005000000000000000000000000BA
:100040000200020100002A000000000000A80000D9
:10005000030002012A00300000A800000018000080
:1000600000380020ED020000000000000000000049
:100070000000000000000000000000000000000080
:100080000000000000000000000000000000000070
:10009000000000000000000000000000B5010000AA
:1000A000E1010000FD010000B9010000CD010000E8
:1000B00000000000002934D00123002210B488423F
:1000C0002CD301242407A14204D2814202D2090187
:1000D0001B01F8E7E400A14204D2814202D24900A8
:1000E0005B00F8E7884201D3401A1A434C08A0424B
:1000F00002D3001B5C0822438C08A04202D3001BE1
:100100009C082243CC08A04202D3001BDC082243F7
:10011000002803D01B0901D00909E3E7101C10BC1B
:100120007047002801D00020C04307B4024802A154
:100130004018029003BDC046D90000000029F0D04D
:1001400003B5FFF7B9FF0EBC4243891A1847C046F2
:10015000002941D010B4041C4C40A44601230022C5
:10016000002900D54942002800D5404288422CD3BE
:1001700001242407A14204D2814202D209011B01B9
:10018000F8E7E400A14204D2814202D249005B00B8
:10019000F8E7884201D3401A1A434C08A04202D320
:1001A000001B5C0822438C08A04202D3001B9C0861
:1001B0002243CC08A04202D3001BDC0822430028C3
:1001C00003D01B0901D00909E3E7101C6446002C89
:1001D00000D5404210BC7047002806D003DB002049
:1001E000C043400801E08020000607B4024802A195
:1001F0004018029003BDC046190000000029EBD052
:1002000003B5FFF7A7FF0EBC4243891A1847C04643
:100210007047C046FEE70000034B01225A70A0233E
:100220000022DB051A707047B4100020034B012236
:100230009A70A0230022DB059A707047B41000204A
:1002400008B5044B01221A70034B0022DA7700F044
:100250000BFD08BDB41000200800005038B5802503
:10026000ED052B79DBB2002B0CD130490B604B60D4
:100270002B89081C9BB28B608A680C30103107F008
:10028000FBF947E0012B0DD1284BD968002941D05B
:100290005A68186982423DDA5A68501C58602B7AB5
:1002A0008B5437E0022B30D1204CE368002B2AD04E
:1002B000226821698A420CDA22689B5C1BBAEB60D7
:1002C000A3682068C01880B207F032FA23680133AF
:1002D00017E0A2682368201C211CD2180C301031B2
:1002E00007F0CAF9E368002B0DD0A16822688A18CC
:1002F000A2601B781BBAEB60A06880B207F018FA06
:100300000123236006E0EB6004E0032B02D1074BDE
:1003100000225A60C0468023DB0501221A70C046C5
:1003200002221A7000221A7038BDC046E80400206C
:1003300080230222DB05FF321A600421024AFF31CA
:10034000118000221A70704706000040F8B5A02303
:10035000DB059B684A4A1F21DBB21160D12B0BD011
:10036000D02B01D80133DBB2A022D2059168FF2047
:10037000814319439160F1E70023424A42499A18A8
:100380008A4204D24149C95804331160F5E7404B11
:10039000404A191D043B934203D200221A600B1CF1
:1003A000F6E7EFF308823C4B191D043B9A4203D950
:1003B0003A4818600B1CF7E7FFF7BAFF384939488D
:1003C000053989B280B205F099F8374C374D0123D1
:1003D0005B4223716371A371E3712B1C3C331A7868
:1003E0002B1C3D331B781B02134398423FD107F06F
:1003F0002BF92F4B2F4918882F4A88420BD06E7D3E
:1004000018882B7D36023343984204D113889BB25F
:1004100023711B0A637113888B421BD0EE7DA87D6C
:10042000138836023043834214D100200423013B59
:10043000DBB2FF2B07D0214EEF18F65C3F79B742B5
:10044000F5D10120F3E7002804D013889BB2A371F3
:100450001B0AE371637922791B0213438B4206D096
:10046000E279A37912021A43124B9A4204D1144B37
:1004700002221A6062B6FEE700F08AF8F7E7C0468B
:100480002800005000000020E8040020349E0000F6
:10049000EC040020B0100020A8110020CDCDCDCD5F
:1004A00000C0000000000000BA100020C0BF000023
:1004B000FEA70000FFFF0000BEBF000000A8000074
:1004C00000E100E0014B18607047C0466411002055
:1004D000014B18687047C04664110020014B18603A
:1004E0007047C04668110020014B18687047C0462D
:1004F00068110020014B18687047C04600000020BA
:1005000038B5144C256805F07BFBE862256805F0DA
:100510008DFB2863256805F0A1FBA861256805F01F
:10052000D7FBE861256805F09DFC0B4A0B49126872
:10053000096828621078097C236841435961191CB5
:10054000D43102320A6002225A67C43303221A608D
:1005500038BDC04600000020681100206411002052
:1005600008B502F029FD021E05D10749A9230B7128
:1005700007F00AF8FEE7054B1B6803CB05F036F8D9
:10058000FFF7BEFF08BDC046F3050020D4040020DD
:1005900037B506F0D7FE6C460734207009F0C6F96F
:1005A00009F0F8F902F09CFCFFF7DAFF06F0CAFE4A
:1005B000051C0E2800D90E25E8B2034B8200D35843
:1005C000211C98472570F1E7FC0100200B4B00220D
:1005D0001B683220191DDA67043188676420C867F8
:1005E00080310220486001200A6088600A618A61C7
:1005F0009C330C310A601A607047C046000000202E
:10060000F7B5204D01912E680224311C9031AC4683
:100610000D1C0C3D2F68013C632F05DD00272F606A
:100620008F6001276740F7672F6801372F608D685B
:10063000954200D28A600F68012F07DD00250D600A
:100640000D610127351C883567402F600D68013525
:100650000D600D699D4200D20B610439002CD7D189
:1006600067463B68019DDA6F243292009A185268FF
:1006700002801A1C88321268263292009B185B682E
:100680002B80F7BD00000020F0B585B01E1C0AAB22
:100690001C88294B151C1B680290DA6803915200D4
:1006A000281C002109F016FA039A012393400193B4
:1006B000019A002A22D00298311C05F0A5FB1E4B9E
:1006C0001E491B681E4F1A6802200A705A684A7039
:1006D0009A680423CB7051230B713B688A709B6925
:1006E000013292009A1806F04FFF3B68281C996966
:1006F000002207F07FFB019B013BD8E7029B062B02
:100700000ED0002C0ED10720311C05F07DFB0C4BC8
:10071000321C1B689869196A07F02CF9041C01E067
:1007200080242402281C0399221C331C07F0A4FBFC
:10073000201C05B0F0BDC046D4040020EC0500200C
:1007400000000020F0B589B005910692079304904F
:1007500007F08EF8254B80791B6802905A699B69D7
:1007600005985A430021920009F0B4F9029F013F15
:100770007A1C2CD00498002105F046FB1B4B1E6808
:1007800072690192019B013B0393F0D3B469184B4A
:10079000059AE518039B6343ED18AD005519013C1C
:1007A00013D3B368019A5343E3180133069A9B00AD
:1007B00098582B6818182860002F04D10299FFF769
:1007C00079FC00042860043DE9E7039AD9E7079B18
:1007D000012B08D1074B049800211C6805F09CFCF4
:1007E000E8235B00E05009B0F0BDC046D40400200F
:1007F000FFFFFF3F0000002030B51E4D85B02B6885
:100800001A1CA4321178383A002901D00021117045
:100810001478002C1DD0196F00200191DA6B164955
:1008200002925B6B01AA039303234B707C235B4210
:10083000CB7010230B7106F0A7FE2B6800241A6FF3
:10084000596F8A4202DC01321A6710E01C670124EA
:100850000DE0DA6B5B6B0949019202930920642376
:1008600001AA0B71039406F08FFE2B681C67201CF5
:1008700005B030BD00000020880200208F0200205B
:10088000F0B591B004930690079106F0FDFF754B0B
:10089000061C5B689B78580602D5734B01221A70C0
:1008A00005F0CAFA714F724C3B68051C196858680C
:1008B0000A1821689868CB690832800092001818DD
:1008C000002109F007F9236806989A69191C1B6A28
:1008D0000090281D019038683431006806304000CF
:1008E00028180290049803F0F7FD3B6805909A6879
:1008F00091001A68236801324A439869002109F07F
:10090000E9F82068836D6830036008F075FB2368A0
:10091000B27A9869019500923A68191C12683433CA
:1009200004325200AD186031049A029504F09CF82C
:1009300006F0B6FF051C07F01BFC2B7B002B0CD030
:100940004C300378002B08D12268F6235B00D35C7F
:10095000012B02D0012004F06BFF3B6845495A6827
:1009600018684A709A68CB787F260870B3430220D3
:10097000802503436D422B43CB7053238A700B7148
:100980000132049B520008AC9A18012006F0FCFDCD
:1009900000212022201C09F09DF83B681868596846
:1009A0009A6820706170A2700533DB7F0499E37050
:1009B00063790220B3430132034352008A181D4376
:1009C000657100920022131C0120211C06F0A2FD7B
:1009D000254E3378002B01D102F086FA02F0B2FAEC
:1009E000FFF70AFF224C2368002807D09A685B6F44
:1009F000042002339A4233DC012031E0986905F08B
:100A000001FB2568281C291C6031343004F006F8ED
:100A100023686866586E05F053FA05F07BF8337862
:100A2000002B14D1059A002A11D1134BDA6B013A2D
:100A3000002A01D0DA630AE00422DA63236819226B
:100A40000092343306980799049A07F009F90220B6
:100A500004F006FF064B1868683008F0CDFA052050
:100A600011B0F0BDE4020020A4070020D40400204F
:100A700000000020EC050020FC010020F0B59400EF
:100A8000231C0A3385B0DB08DB006946C91A02AFB4
:100A90008D4602AA061C7A60101C0021221C09F057
:100AA00019F8231C0833DB08DB006946C91A8D4698
:100AB00002AD281C221C002109F00CF80C4C301C43
:100AC0002368196BDA6A603300910193291C7B68F3
:100AD00008F0B4FA301C02F0A1FA2368301CDA6A7C
:100AE0001B6B291C00937B6807F038FDBD46F7BDE2
:100AF0000000002070B50C1C151C1E1C07F06CFFBC
:100B00000B4B201C1B68D96A1A6B08F06BF8201C71
:100B100008F046FC201C08F05FF9291C321C201C40
:100B200008F0FCF9291C201C03F046FC70BDC046EF
:100B30000000002038B508F0B3FE051C012008F0C5
:100B4000C3FE041C281C04F05DFC201C04F066FCA1
:100B500038BD38B508F050FF08F0AAFE051C00208B
:100B600008F0B2FE041C281C04F04CFC002005F028
:100B7000F3F9201C04F052FC04F03CFE38BD10B523
:100B8000A4B08C22041C002101A808F0A3FF01A836
:100B9000211C08F003FA08F02DFA01A8211C02F02C
:100BA00037FB24B010BD000070B507F0E1FA2A4C05
:100BB0004C30236801781A79002902D151B2481CBF
:100BC00004D10025DD60AA4210D119E0D8685A6925
:100BD000904202DAD8680130D860012910D0DB6871
:100BE00093420DDB1D4B00221A7001251C49002089
:100BF0002B1C0E33021C0B7106F0C6FC23681D7102
:100C000023681A79002A03D1164A1268127804E080
:100C1000012A03D1134A126852781A60186805F045
:100C200005FCE62523686D00061C585905F022FCDA
:100C3000361A002E0ADD2368186805F0F7FB2368D2
:100C4000061C585905F016FC301A00E0012004F08B
:100C5000EFFD04F0F9FD70BD00000020F606002055
:100C6000F30500206811002008B5074BF6221B6829
:100C700052009A5C002A05D1E4225200995C0220BD
:100C800004F080FF08BDC04600000020F8B5071C36
:100C90000E1C151C1C1C9A420DD0074B1B681B19FF
:100CA000C933FF33587806F0C3FC381C311C2A1CAA
:100CB000231C06F095FFF8BD00000020F0B58DB0B4
:100CC00000AF3D1C2435041C0E1C0C220021281CE6
:100CD00008F000FF381C354906221C3008F0B8FE29
:100CE00008F08AFE04F0A6FB1C21A300C9196400C9
:100CF0005E51B8600E1900246B46315D7B60BB68A5
:100D0000F9600633DA7F69465200131C0833DB08AA
:100D1000DB00C91A8D466846002108F0DBFE391C4D
:100D20003A1C6B4618311632F86805F0F5FAFA6885
:100D30003D1C930018217A5E24355A517A6801349B
:100D40009546022CD8D119490326381C0631321C8D
:100D5000183008F07DFE164C01233A1CE370002089
:100D6000EB23211C18322371667006F00DFC7C23E6
:100D70005B42E3700020EC232A1C211C2371667067
:100D800006F002FC2A680B4B00209A420AD16B68DD
:100D9000934201D00121F960FA6A934201DD0223F6
:100DA000FB60F868BD460DB0F0BDC046109B00006A
:100DB00088020020FFFFFF7FF0B587B006F070FDCE
:100DC000051C07F0D5F99C4B826D13405A1E9341C8
:100DD000DEB206F0F3FA994C039023680022AC339C
:100DE000002E03D11A68FE2A01DC01321A60236842
:100DF0000022191CC0310A8018390A70D0331B78C0
:100E0000934216D006F0DAFA002801D0012033E030
:100E100023681A1CD1321278002A0AD0884901228C
:100E20000A70191CA4310224A73308700C711870C1
:100E3000FDE0002E59D12368191CA7310A78002A39
:100E40000AD00A78A83352B2022A00D001221A70BE
:100E500000230B700121E6E01F1CA43738781A1C10
:100E6000B03200280AD01C1CA8340120A533207001
:100E70000E703E701E7016600290D9E01168002955
:100E800009DD0139012901D011602EE01660A83377
:100E900003221A70C7E01A1CD43212681188694AFA
:100EA000914222D01A1CBC321188674A12685288BB
:100EB0008A421AD8654F3868427C181CAC300068EA
:100EC000904212DB05AA1180BE331B886049538013
:100ED00002234B70CB70301C15230B7106F054FBB2
:100EE0003A682368927CB0331A60584F3B68997D0A
:100EF000029100298AD1514C002E24D1226803335B
:100F0000B832DB7F12689A4215DB52491223301C3B
:100F1000321C0B7106F038FB22683868131CB4339E
:100F20001968043001311960C07F814203DB1E6003
:100F3000A8320223137022680023111CA631B83294
:100F40000B70136037E0236802981A1CB0321060EF
:100F500020321278002A2ED0191CBC31098805AA2B
:100F60001180BE331B883A49538002234B70CB70EB
:100F700019230B7106F008FB236839681A1CBE326E
:100F80001488888D183A84420DD2039800280AD11B
:100F90001278002A0FD1B83303311A68C97F8A4208
:100FA00009DA013206E001211170191CB831002262
:100FB0000A60B4331A60214C23681A1CD0321278AC
:100FC000002A35D12A7B002A2FD01A1CA43212788D
:100FD0000392002A2CD11D4D586B2F68B98BFA8BC8
:100FE0003B8B7F8B009706F0FCFB2D682368A98C58
:100FF000EA8C586B2B8D6D8D009506F0F2FB236803
:101000001A1CBE321188C20FCC1781426241191CD2
:10101000D2B2A5310A70002A0AD0002E08D0A4331B
:10102000012203991A70029102E0A5331A7002920C
:10103000029807B0F0BDC046FF00FF00000000208E
:10104000F4060020FFFF000068110020641100205A
:1010500088020020F3050020F0B591B000AFF863DE
:1010600004F0CAF9061C04F0DFF9F86104F0D0F9C5
:101070009D4BB8601B686846DC68231C0E33DB0898
:10108000DB00C01A85466D46BD637279A218131C39
:101090000E33DB085500DB00C01A2B1C0E33DB08B7
:1010A000DB0078638546C01AC11A85468D46F86212
:1010B0006846B8610021786B08F00CFD01214942B7
:1010C0002A1CF86A08F006FD88492A1CB86908F04D
:1010D00001FD221CB86BF96908F0BAFCFC6B002C0E
:1010E00011D1834CB379082023707379211C63706C
:1010F000A3707F235B42E370BA6BD223237106F0A7
:1011000043FAB379C7E0402500247D62BC62012226
:10111000B86B002105F0C6FA0320002104F074FE2C
:10112000714B73491B681D6858689A680423CB701B
:1011300051230B716F4B8A701B6801329B699200BF
:1011400048709A1802200D7006F01EFAB4793C63BC
:101150003C6B013C3C6200D28CE07379013BFB6349
:10116000FC6B013400D182E004F046F95E4A3D6B2D
:101170001268604B9268FC6B6A431B68A2189B69FB
:1011800001329200D1583C6A8DB27D614379FD6B8A
:101190006343BC69EB185800221C844662441588DE
:1011A0008CB27D602DB2A54205DC7D68601BFC6AB7
:1011B0006546605322E0F86A041C64443C610025E3
:1011C000645F013415D07D6BEC18257868B2F86047
:1011D000013001DA013503E0F868002809DD013D3E
:1011E00002235B421380BB6A257001339BB2BB6252
:1011F0002DE07D6BEC182578002D01D111800DE0DC
:101200006DB2681C06D17A6979683D69881A2880B0
:10121000002202E0012D01D1FF2222707C6BE11837
:101220000A7850B2002806DCFD6A6446285F013067
:1012300007D0002A05D1BC6B0132E3563E2B05DDF9
:1012400005E0BD6BEB56002B01DD013A0A707379A6
:101250003C6AFD6B63437C6BEB18FD69E15CEA5C07
:10126000FD6BBC6B8A18013DE254FD6378E73D6A73
:101270003D636DE71C4BBD6A1B68DA681B69D318B8
:101280009D4200DB2DE77B6A013BDBB27B62002BDA
:1012900000D03CE725E7013B0FD37279013AFAD33E
:1012A0007179BD6B594389186918BD68E8185E30BB
:1012B0000D78007828180870F0E7B86B002101223B
:1012C00005F0F0F9B379082023707379211C63705D
:1012D000A3707F235B42E370BA6B1D23237106F07A
:1012E00053F9BD4611B0F0BDD4040020FFFF00004B
:1012F000EC0500200000002010B5041C04F088F864
:1013000054300078434258412040FFF7A5FE10BDFD
:10131000F0B587B0041C019108F06EFB1C4E1D4B0C
:1013200000270493381CFE23311C03AA3371039455
:10133000059706F029F9184DE42229685200885CC7
:10134000211CFFF7BBFC154B041C1B68E421D8686B
:101350002B6849005A5C231C0199FFF797FC211C5C
:10136000022004F051FD2A68E4214900535C381C36
:10137000039303AAE623311C33710494059706F006
:1013800003F92B68E42252009C5407B0F0BDC0461C
:101390008F020020FFFFFF7F00000020D404002008
:1013A000F0B58FB000AFF960444E454934688D44C4
:1013B000F8235B006A46E2508D44FA235B006946DD
:1013C000F6253861E1506D00635D022B02D10023E8
:1013D000635502E005F0CCFF60553368394C5A5D27
:1013E000002A0FD121680A2088622820C862EA21D9
:1013F00049005A5408F09AFA08F0CCFAFFF7B0F80E
:1014000004F016FE04F014FE24686946E2699600B2
:10141000331C0A33DB08DB00C91AE2688D466B46D1
:10142000FB6153000833DB08DB00C91AD31DDB085E
:10143000DB00B9608D46C91A8D4679606846002187
:1014400008F048FBA46A6A46E5002B1CA400083398
:10145000D21A231C0833DB08DB0095466946D21AF2
:101460009546B9617A61F869321C002108F032FBB7
:101470002A1CB869002108F02DFB221C7869002184
:1014800008F028FBFB697A68B968BB6200237A62BE
:10149000FB627A69094B3962B9697A631A68F62383
:1014A00039635B00D25C084B9100CC583B1C386917
:1014B000F9682033A047BD460FB0F0BD0000002002
:1014C00028FDFFFFD40400203C02002010B5041CBE
:1014D00005F084FF05F036FFA042FBD008F000FACB
:1014E000FFF73EF805F0E6FD10BD0000F0B587B04F
:1014F000051CFFF71FFBFEF7F7FF314B041C1B68B1
:101500005B88039305F0E4FE002004F025FD04F061
:10151000EBFC2C4F3B6835331B78002B1DD02A4B3E
:1015200000261B6866805933197804A849000131E8
:1015300006F045F904F002FB244B05991A68E423F0
:101540005B00D35C3A68D218D27C01938218D2B285
:1015500000950498331C00F007FC04F0F7FAC0B2C1
:1015600006F066F8FEF7CCFF0120FFF7C5FE05F098
:1015700035FF05F03DFF052815D004D8002814D00C
:1015800003280AD806E006280AD0031C113BDBB268
:10159000022B0AD801F0FCF907E005F00BFC04E08F
:1015A00004F028F901E004F013F905F0CBFEA8429D
:1015B000DFD0FFF7CEFA039B638007B0F0BDC046D3
:1015C000681100206411002070110020000000202C
:1015D00010B5041C05F002FF0120FFF78DFE05F099
:1015E000B1FEA042FBD010BD10B5041C05F0F6FE04
:1015F00001F0CCF905F0A6FEA042FBD010BD10B55D
:10160000041C05F0EBFE04F09DFD05F09BFEA042DE
:10161000FBD010BD1FB5041C05F0E0FE104B02A866
:101620001B68593319784900013106F0C8F804F0F5
:1016300085FA0C4B03991A68E4235B00D35C0A4AD1
:101640001268D218D27C01938218D2B20094029808
:10165000022300F089FB05F075FEA042FBD01FBD00
:101660007011002000000020641100201FB5041C30
:1016700005F0B4FE104B02A81B68593319784900D5
:10168000013106F09CF804F059FA0C4B03991A68E2
:10169000E4235B00D35C0A4A1268D218D27C01931F
:1016A0008218D2B200940298012300F05DFB05F08D
:1016B00049FEA042FBD01FBD701100200000002099
:1016C0006411002010B5041C05F088FE02200021E2
:1016D00004F09AFB04F0FEF80120002104F094FBD2
:1016E00004F048FC05F02EFEA042FBD010BD10B562
:1016F000041C05F073FE002003F06AFF02200021A5
:1017000004F082FB04F0E6F80120002104F07CFBE9
:1017100004F030FC05F016FEA042FBD0012003F0DF
:1017200057FF10BD704710B5041C05F057FE05F0BB
:1017300009FEA042FBD010BDF0B58BB000AFB86180
:1017400003F05AFE06F094F85F4C6E4623689D68DD
:10175000DB687D625A00111C0E319B00C9080E33F4
:10176000C900DB08DB00761AB546F61A6D466846F6
:101770000021B5467D61FE6008F0ACF90220002131
:1017800004F042FB04F0A6F80120002104F03CFB29
:101790007E6A4E4A20681568B20052420368BA60F9
:1017A000321C5A439100F961B107711A79609107AF
:1017B000891A3A62013B23D344683E6A3219261CD7
:1017C0005E437618B400FE68920034193C61FC69EF
:1017D000A2420BD03C690426A418A446AC69764208
:1017E000A458B44466463460043AF0E7BE683A6AE6
:1017F000A419FC617C6A7E68121B3A628919D9E7D8
:10180000BC690B2C5CD10220002104F0FDFA04F02D
:1018100061F80120002104F0F7FA2B4B19682B4BDB
:1018200008681C687B6AB86143439A003A629A0769
:10183000D21A3A61FB61844666464A68013EB44664
:101840002ED365465543FE692148B3181218521924
:101850007E6938695200B2182D18FE68AD007519FE
:101860009B003D603E6AB3420ED03D68E818A56912
:1018700004380668E858301A0025565F864200DAB8
:101880001080043B023AEDE7BD6876193E627D6A3E
:10189000FE69761BFE617D683E6976193E61CBE785
:1018A0000C49B8697E23D2B25B4208704A708A70D4
:1018B000CB70012052237A690B7105F065FEA2E717
:1018C000BD460BB0F0BDC046D4040020000000208F
:1018D000FFFFFF7FEC05002010B5041C05F07EFD26
:1018E000201CFFF729FF05F02DFDA042F8D010BD08
:1018F00070B5037886B0041C012B1BD103F07CFD6E
:101900000E4D64682E6805F03BFDF2235B00F05439
:1019100004A805F047FD684605F038FD0F22201C9D
:10192000694608F095F82B682278E633FF331A7081
:1019300004F07EFB012006B070BDC0460000002010
:10194000F0B5354A007913688BB0F6210390490051
:10195000595C324ED433324F002902D13268023200
:1019600001E03A6848321A6004F0E8F82D496A4606
:101970001332012310704B70CB700020B1230B7118
:1019800005F002FE284B05A81B680024593319787E
:101990004900013105F013FF3A686B46DD7C1319ED
:1019A000DB7CFF225BB2ED181C4B1B685B79D31A02
:1019B0009D420EDD326807955379FF22D31A1B49E9
:1019C00008930020D22307AA09900B7105F0DCFDD3
:1019D000F0E7114BEAB21B6805980293039B069946
:1019E0000093E3B20193002300F0BEF9029A1319A9
:1019F000C933FF3301345870032CCDD1064A136824
:101A0000E42252009A5C9B18C933FF33587805F0E2
:101A10000FFE02200BB0F0BD000000206811002076
:101A20006411002088020020701100208F02002025
:101A3000007908B5002804D10120FFF75DFC0320E0
:101A400004E00138434243410520C01A08BD0000AC
:101A500070B5047A0668456805F016FF0420002C6E
:101A60000DD001239C4202D104F0E2FA0023044A83
:101A700070B21268291CD269FEF764FE052070BDA1
:101A800000000020F0B591B002AF06680579047B34
:101A900007F0B2FFF86105F0F7FEF860012C17D1EE
:101AA00004F0C6FAF86800236DB201783268281C89
:101AB0000093FEF7E9FD8C4B281C1C68E4235B00B7
:101AC000E15C04F029FBE6235B00E050032007E122
:101AD000864B381C1B682430593319780024490080
:101AE000013105F06CFEE2B2786AB96A013405F0A2
:101AF000DDFE032CF7D16DB23D61FD6832682978B7
:101B0000FD69002D3FD10095FB693869FEF7BCFDEA
:101B1000774B78491B68B86118681B797F224B7036
:101B20008B70CB780225934380222B435242134380
:101B3000CB70602308700B713268042005F024FD1F
:101B40006D4DB8692C68E08107F060FFB86107F05F
:101B500059FF211C031C201CBA690E30103106F0FD
:101B60006DF966497F20CB7802224A7083430222B6
:101B700013432A680340CB700E32F223F8690B71CD
:101B800005F002FD07E05C4B1B681B8A0093386977
:101B90000023FEF779FD0023FB62534BF8221B68FC
:101BA00052009A5801243A63FA2252009A587A63F2
:101BB0006D467D614E4D68462B68FA68DB685B00B8
:101BC0000833DB08DB00C01A854602A9B961117829
:101BD000494AE3B21068FA69043252008218D28886
:101BE0000092BA693869FEF74FFD2A68A500D368EC
:101BF000AC46BB600023B9688B4210DA381C6546DE
:101C00002C302858BD6959006D5A386030687D60A5
:101C1000455A78680133451B38684552EBE713682D
:101C2000344904200B701379BA694B708B707E2392
:101C30005B42CB7060230B7105F0A6FC7D6901341B
:101C4000AD46032CB4D1284DE42328685B00C35C67
:101C5000002B06D0264A31681268D068002205F0B1
:101C6000BFFF2C68E4235B00E15C386904F054FAA0
:101C70001F4EE6235B00E05033681E4C19681B7949
:101C80007F226370A370E378217093430220802148
:101C9000034349420B43E370F12328682371F8237F
:101CA0005B00C258211C002005F06EFC33687F22C7
:101CB00019681B7921706370A370E3780220934345
:101CC0008021034349420B43E370F22323712A68C6
:101CD000FA235B000020D258211C05F055FC05209A
:101CE000BD460FB0F0BDC0460000002070110020BE
:101CF000D4040020EC050020D80400208802002035
:101D0000031C10B59A680C1C00785968DB6800F059
:101D1000CDFB207010BDF0B5846887B007784668A9
:101D2000A56805910F22C168684607F091FE231C43
:101D3000381C311C2A1C00F027FE059B187007B0C8
:101D4000F0BDF0B50024251C85420CDA0E5B175B54
:101D5000B74200D916530E5B1F5BB74200D21E5329
:101D600001350234F0E7F0BDF0B59BB000AFFB6386
:101D70003B1C84331E78DA4B38651B6879655B79C8
:101D8000002559000131F964D649D21A0968BA23ED
:101D90000631C97FFA62B9643A1CD349281C5C3207
:101DA0000B71FE653D667D6605F0EEFBF86C6C46DA
:101DB0007C644400231C0833DB086946DB00C91A35
:101DC0008D466A46F86A6B002918D152F96C0135C4
:101DD0008D42F7DBCBB2C5493B644B700223CB701D
:101DE000002063230B7105F0CFFB231C786C0833B4
:101DF0008546DB08DB006946C91A8D46C91A684664
:101E00008D46B8626846C01A85466A4639637A6468
:101E10000021221C07F05EFE221C0021386B07F017
:101E200059FE0720311C03F06FFDFC6B012C12D012
:101E3000AF4BA0221B68D20558331878546980062E
:101E4000AC49C00EC002214001435161381C1978D1
:101E5000503005F0B4FCBC6CF86C64007C62444308
:101E60003C627C6AFC603B6A6C460833DB08DB0042
:101E7000E01A8546BC60C01A6C467863854600212E
:101E8000201C3A6ABC6307F025FE786BFF213A6A92
:101E900007F020FE0024924BBC641B68BC6C1B79CD
:101EA0009C4242DA6C467C60FC6A0025E4B2201C4D
:101EB0007C6103F050FE03F021FE03F01BFD7B6A02
:101EC00068460833DB08DB00C01A85466C463C6177
:101ED0002C1CF86C0134E617C30F84425E41F6B245
:101EE000002E06D179690819C0B203F034FE03F060
:101EF00005FE386D796D3A6903F0CAFF794BB96B0D
:101F00001B680633D87F7B6B5A194B193969FFF769
:101F100018FFFA68AD18002E02D103F0EBFCD8E7E9
:101F20007C68A546BC6C0134B5E70024251C6D4BCC
:101F30001B680633DB7FBB6400231A1CB96C8A4222
:101F40000ADAB86B51000619786B765A0019415AB3
:101F50000132761AF318F1E7FB653B1C386D796D99
:101F600001225C3304F0BEF9BA6AF86D6B00D052FE
:101F7000F968FA6C013564189542D8DB7A6C5E48D2
:101F80000023BC6A5900615A884204DDFC6A081CBF
:101F90001C19FC61BB6114888C4200D21180FC6C5E
:101FA00001330232A342ECDBFEF710FBFC6B012C89
:101FB00067D1BC69F86B63003C6B18537C6C1B5B8E
:101FC0000024BB63231C386B5A00815A002906D0B9
:101FD000786C815A0A1CA14200D2221C94B2F96C7E
:101FE00001338B42EFDB414D3A6C02266A70B82315
:101FF000291C00203A6BEE702B7105F0C5FA3B6C82
:10200000291C6B700020B9237A6CEE702B7105F0DF
:10201000BBFAFB6C69460733DB08DB00CA1A314B9D
:10202000954668461E687963B8640025796C6B0034
:10203000C85AB31DD97F4008FEF78AF882B2FF2341
:10204000FE2A00D8C3B2BA6C5355FB6C01359D42D1
:10205000ECDB2649386C01234870CB700020BD238F
:102060000B7105F091FA796BBA6B8D46FA651E49D2
:102070003A1C0020B7235C323C6678660B7105F091
:1020800083FA1A493C6C02234C700024201CBA6A63
:10209000CB700C7105F078FAF969B86939663A1CA9
:1020A0001149B223F8655C32201C7C660B7105F087
:1020B0006BFA05F047F9BC68A546FC6B002C1DD1F6
:1020C0000B4B1F221B6859331978A023DB051140E5
:1020D0005869084AC90202400A435A6116E0C046DC
:1020E00068110020800200208F020020880200205A
:1020F00070110020FF07FFFFFFFFFF7F0638C0B20F
:10210000012800D8AFE6FC6B012CD9D1F869C4B224
:10211000201C03F020FD201CBD461BB0F0BDC046B6
:10212000F0B585B0151C019007F066FC041C05F0A5
:1021300011F9061C05F042F9071C032D02D0002EF0
:1021400003D107E00125002E3DD0002005F00AF95B
:10215000012538E0012D03D0022D04D1301C00E010
:10216000281C05F053FA05F04BFA384E051C33686D
:10217000D0331A780523824224D003AC2370002880
:102180000CD005F03DFA02216070201C05F092F998
:1021900033680124D1331F70112308E005F030FAB1
:1021A00002216070201C05F085F92C1C122328499F
:1021B0000020021C0B7105F0E7F93368D0331D7065
:1021C000052500E01D1C07F017FCA04232D007F0E7
:1021D00013FC07F06DFB201C07F06AFB07F00CFCFA
:1021E000201C07F003FC07F0D5FB012D1FD0174E74
:1021F000E424336864001A5D002A09D0154B019964
:102200001B68D8680023FEF741FD336800221A5589
:1022100005F046FB0220002103F0F6FD03F05AFB17
:102220000120002103F0F0FDFEF7D0F902E00020CC
:1022300003F092FE05F0CAF8041C05F099FF03793B
:10224000A34200D00471281C05B0F0BD000000209E
:10225000F3050020D4040020F0B56E4D99B02A6833
:1022600002AF1368926839605200991C51430133E0
:102270005208396153430831C9080468664EC900E1
:102280006846401A85460133306802A95B00CB18C6
:1022900079612C2200213430BB6007F01BFC002147
:1022A0003A69786907F016FC381C002120221830A2
:1022B00007F010FC2B687F211A6858683A769A68F4
:1022C0007876BA760533DB7F0132FB767B7F92002E
:1022D0008B4304210B437B773368391C9B690220B5
:1022E0009A1800920022131C183105F013F9BB68EC
:1022F00020686168E26800937B69FEF7C1FAB86004
:1023000005287DD12E686946F36A79601A01131C8D
:102310000833C81A854602A97961081C002107F014
:10232000D9FBF26A78692169FEF7A8FB2B68684639
:102330009A6A0E235A43131C0833DB08DB00C01AC9
:10234000854602AD0021281C07F0C4FB636978694B
:10235000291C2269FEF7CEFB304B1B78002B03D1E2
:102360002169281C00F054FF07F092F9830007331D
:10237000DB08DB006946C91A264B8D461C6802AA99
:10238000A36AFA607B610E22013B5343ED18061CE1
:10239000043538617B69013B7B610FD300202B5EE4
:1023A000002B09DD3969FA68013988003961101894
:1023B000291D042207F04CFB0E3DEBE73D1C383590
:1023C00000212022281C07F085FB61682068A36893
:1023D000697011492870AB7009680534E27F096B98
:1023E0000133EA705B007E22CB1852426A7100937F
:1023F000F2B20320291CFB6805F08CF87A68954638
:1024000003F0E2FB03F0F4FCB8683B68BD461870CB
:1024100017B0F0BDD404002000000020A407002065
:10242000F0B51D1C9BB004230E93AB686F460F9351
:1024300002231393AB680024061C073701203C706D
:1024400002940394049405940690079608940994C2
:102450000A940B940C940D9410941194129514906A
:1024600015921696179118951993A20002AB2401A4
:1024700018190C4B391CD35898470B4B041C1A687D
:10248000F7235B00D15C012902D10021D15403E084
:1024900004F058FFB042E8D02869FEF770FB1BB08B
:1024A000F0BDC0464802002000000020F0B597B003
:1024B00000AF161CF9617B60386102F0BBFFE54D8F
:1024C000EC222B680024FF321C719C541C61B86004
:1024D00005F054FEE04BE14A796812681B68FC6322
:1024E0003C647C64F9643C657C65BE63BE641B8FA0
:1024F0005078FA2158438900FDF72AFE2C68F4230E
:10250000FA695B00E052396913788B4204D004F019
:1025100065FF3B69FA6913702B6800229A60D04A04
:102520001278002A03D1CF4A1278002A06D0A833A5
:1025300001221A703068F168FFF7F2FD05F072F8B9
:10254000C44CE421236849005A5C9B185B185A78F4
:10255000824201D05870A0E1C34D0020021CA62386
:10256000291C2B7105F010F878683168FEF71CFB08
:10257000BE4B381C391C9B6938302731984722687C
:10258000E4214900535CBA4AFB6200233B637B634E
:10259000E7231371111C3A1C0C202C3204F0F4FFB9
:1025A000AF4B1B78FB61002B00D0A0E0AD4B1B783C
:1025B000BB61BB68B96906337B61002900D0DCE0F0
:1025C0006B467969FB60C97F4A00131C0833DB083E
:1025D000DB00F9616946C91A8D466846B96907F09A
:1025E00079FA2268E4235B00D05C391C3A1C6B4604
:1025F00028322A3103F090FEF869694605F092FA14
:102600002168E4225200885C03F034FEBA69282174
:102610007B5E7A6396493A1C051C2C32FB62386358
:10262000E8230C200B7104F0AFFF2A22BB5E904917
:10263000FB62BB693A1C7B630C20E9232C320B71D3
:102640003D6304F0A1FF21682823FA5E081CBC301A
:10265000BE312B1CFDF7D4FF2368B9691A1CBC32AC
:102660001288BE33FA621B88814A3B63F1231371DF
:102670007963111C3A1C2C320C2004F085FFFEF704
:102680009BFB04F0AFFF7B4C2070002801D004F0CE
:10269000AFFF22786F4B002A08D01A68111CD03186
:1026A0000978002902D1A832012111701B68A822E3
:1026B0009A563068F168FFF733FD6E4B041C1A78A8
:1026C000788D002A0CD05A780132D2B251B2012949
:1026D00006DD002200B231685A70FEF719FE00E0F4
:1026E0005A70052C00D1AAE02723DC55A7E0236807
:1026F00064219868FDF782FD0A1E05D1D5231620B6
:10270000291C2B7104F040FF524B1A68536C126C59
:102710005B42934200DA131CBB8500246B46FB61CD
:10272000BB6869460633DA7F5200131C0833DB08A6
:10273000DB00C91A8D466846002107F0CBF9391C29
:102740003A1C6B46E0B22A31283203F0E5FD013431
:10275000798D3A1C63002C329952FB699D46032CFB
:10276000DCD1454904234B707E235B42CB7016209D
:10277000EC230B7104F008FF63E06A46FA6004F092
:102780004BFF7B696946DA7F051C5200131C083336
:10279000DB08DB00C91A8D46B961081CF96907F02E
:1027A00099F92268E4235B00D05C391C3A1C2A3179
:1027B0002832BB6903F0B0FD2168E42252008B5C33
:1027C000FA69FB622A217B5E7A632949101C3A1C54
:1027D0003B632C32FF230B7104F0D6FE2368E42107
:1027E00049005A5CAA421ED0244B31681B68D86845
:1027F0002B1CFEF74BFA0220291C03F005FB226874
:10280000E4214900535CFA6919497A63101C3A1CA7
:10281000FB622C32E6230B713D6304F0B5FE2368A6
:10282000E42252009D540B4BA8221B6830689A5634
:10283000F168FFF775FC052801D02723D855F96802
:102840008D460F4B1A680F4B9A421DD003F07AFC4D
:10285000FEE7C0460000002064110020681100203F
:10286000A4070020A3070020F30500204802002051
:102870008F020020FC04002088020020D4040020E5
:10288000A4110020CDCDCDCD174B184A1B689968F7
:10289000914202D09A6801329A602722D35D124C8D
:1028A000052B0CD004F064FD2368F62252009A5CDC
:1028B000824213D00121F7228A4099540EE004F09D
:1028C00057FDF62321685B00CB5C8342EAD104F01C
:1028D00039FD3A69904200D130E6E3E72723D85D1D
:1028E000BD4617B0F0BDC04600000020FFFFFF7FCF
:1028F000F0B5A1B00192052214929A6800241592B5
:10290000019A0125061C6F4604A81D911B490F372B
:10291000089509900C9511951695189306251B920C
:102920001E931F903F23201C221C3C700A940B9482
:102930000D960E940F941094129413941794199565
:102940001A941C960B7104F01FFEA20008AB240120
:1029500018190B4B391CD3589847041C04F008FD78
:10296000084B1A68F6235B00D35C834203D104F062
:10297000E9FCB042E9D021B0F0BDC046F30500202B
:10298000680200200000002000207047704700000F
:10299000F0B5A9B000AF786502F04CFD786102F0A7
:1029A0002BFDDA4B69461C68386466682268700043
:1029B0007243921953000833DB089200DB00C91AF6
:1029C000131C0A33DB088D46DB00C91A38656846DC
:1029D00078648D46B963081C002107F07BF86368B2
:1029E00022689D005A43D3189A00131C0A33DB084F
:1029F000DB006846C01A85466B46FF21FB6207F084
:102A000069F860682368B8625843B96A6A4643182F
:102A10000733DB08DB00D21A796D9546F86101397E
:102A200068460022B60078637962FA64162910D8E5
:102A30000123B74A8B40134206D1B64A134208D04D
:102A4000B54B1B68323302E0B34B1B6834331B7841
:102A5000FB643B6DF86CB6085B08AD0801383E625C
:102A6000BB61FD60F863FA6B013200D19CE0796ACA
:102A7000022904D97B6D113B012B00D990E0022083
:102A8000002103F0C1F902F025FF0120002103F02D
:102A9000BBF99E4BA14A1E681568A14A33681268AB
:102AA0003C6EFB653A613B633B6B013B3B6574D31A
:102AB0007468013C611C6DD03A6BB368A9695343DB
:102AC000E31801337A6D9B005858032A32D004DC96
:102AD000012A06D0022A13D0EBE77B6D113B012BB4
:102AE000E7D879690B1938339A783B69296A9200DB
:102AF00057331B785258DA40801AC343DB1718400B
:102B00003A6D3B6AB96B5343E3189B005958BA6B53
:102B100040189850FB6B002BCBD1396DBB694B43F0
:102B2000E3185B00F96CBB64FDF7C4FABA6C7B6C0C
:102B3000D052BEE7396D3B6A4B43B96BE218920045
:102B40005258BA64824200D2B864B96CBA6BE318C6
:102B50009B0099503B6DFA68F96A5A43A3189B0091
:102B60007A605A589446824200D984467B68F86A53
:102B7000E118890062460A50B86C7F21831AFD2B48
:102B800001D85B08D9B27B6B386D1A19BB6A434315
:102B9000D1548EE73A6D3A6386E7386D3C66F86546
:102BA000F96B0139F9635EE77B6C0021FB63574BDE
:102BB0001A221B6818691E68F8645D680533DB7F9C
:102BC000381C64303B6306F085FF3A6C05236421B2
:102BD000CB5553796520C35593796621CB53537AEE
:102BE000386C6822D353837A7A6D6A21CB53032AD7
:102BF00000D197E004DC012A14D0022A15D0A0E00D
:102C00007B6D112B00DA9CE0122B18DD132B00D00A
:102C100097E0FA69786B8118002203F043FD0023E6
:102C20003B637FE0786C00F0C1F9786C00F0BFF98D
:102C3000381C00211A22643006F04CFF81E0786DC8
:102C400011280AD1691E3C1C002201233965B96292
:102C50003E646034FA627B6309E0701E3C1C012113
:102C600000223864B8623D655C34F9627A63FE65BF
:102C7000FB6D591EF964F965002B33D03D663A6E41
:102C8000531E3B66002AF3D0F86CF96ABE694218FD
:102C9000386A4243786BC1188A18B96B9200505851
:102CA000F96C3A6A4E434A4384469A18B86B9200CC
:102CB00012582168B86A9E19760081420EDA614680
:102CC000FA208B1A8000891858434910002900DC2B
:102CD0000121FDF73DFA7A6CB052D0E7786C002301
:102CE0003352CCE77A6D786C112A02D100F061F989
:102CF00001E000F05FF9381C643000211A2206F070
:102D0000E9FE00233E6CFB641CE0C046D4040020B6
:102D100004004000030003006411002000000020B4
:102D200070110020786B0021F863381C64301A227F
:102D300006F0D0FE796D032906D1F86B00F038F962
:102D400002E03D65022301E03D6501233A6D3C1C34
:102D50008034F96C6270627921717F21386B8A430B
:102D600013438022E0705242381C391C13436431F3
:102D70001A22863063712670A57006F069FE201C49
:102D8000F96B04F03DFBBD4629B0F0BDF0B5504CE9
:102D900087B00668406800AF2568F423BE6078609D
:102DA0005B003960E95A2869FDF728FA494B396117
:102DB0001B6898695A69410001324A43131C083361
:102DC000DB08DB006946C91A8D466E46301C0021BF
:102DD0007E6106F07FFEE9697A68786905F088F817
:102DE000F86004F05DFD2368F5223B4D52000021A0
:102DF000995429689446CE6B4268B24203DB0E6C4C
:102E000081688E4205DA181C012178300170604615
:102E10001954F968EC26FF3601290FD19955081C81
:102E200002F006FD02F0D5FE02F0F4FF2268E42372
:102E30005B00D15C022002F0F9FF3EE060461B5CC3
:102E4000002B06D1254B78681B6879695A7805F004
:102E500019F9216800238B5502F0BBFE02F0DAFF5E
:102E60002A682368F421363249001278595A3E699B
:102E7000891AB14201DD964220DC196991421DDDBB
:102E80003E69002E08D102F025FD2068E4235B0096
:102E9000C15C022002F0B8FF2B683E6936331B7814
:102EA0009E420ED123681A1C78321278002A04D16F
:102EB000BE689A6903CE04F03FFF2368783300228E
:102EC0001A703E680523BD46337007B0F0BDC0469A
:102ED00000000020D40400206411002068110020AC
:102EE00008B504F083F908BD134B10B51B685A6B85
:102EF000002A03DDD96B5218D10F0BE000218A4262
:102F000008D10E4909680624085FDC6B0121844260
:102F100000DB111C6C33197004F0B6FC084B1B78F5
:102F2000002B03D096230371142302E05A2303716C
:102F30000723837110BDC0460000002068110020E7
:102F40006207002010B505F0F9F8164B164A1B6809
:102F5000596B0A2914DD041C8A342488A1420FDA33
:102F60006424883061430088DC6B6043C14207D52C
:102F7000191CD0310978002902D11168013100E013
:102F8000002111601068EA214900032803DD0120B7
:102F90005854002010605A5C002A02D06C33002282
:102FA0001A7010BD00000020A8070020704770476D
:102FB000704770477047000008B502F095FF02F0B7
:102FC00049FB02F0F3FA02F0A7FA0F4B1B681A7ADA
:102FD0000E4B1B68DC33002A01D0022200E00322E2
:102FE0000B491A6000230B700A49A0220B700A4992
:102FF000D2050B709363D36B9B0E9B06D36362B6B3
:1030000003F0E8FB08BDC0467411002080020020D8
:1030100029000050280000502A00005038B5051C37
:10302000FDF768FA041C05F089F8EA235B00E35C0D
:10303000002B27D0144B00211B68DB6A013B07D310
:103040001A01AA180820125E002AF7D10121F5E71B
:103050000E4B1B685A6B002A14D1D86B002811D173
:10306000EC22520000290CD09958FE2901DC0131D4
:1030700099509B58052B05DDEA2300225B00E254A2
:1030800000E0995038BDC046D40400200000002064
:1030900070B5051C0C1C161C04F0D4F9002802D0D5
:1030A00001280AD02DE00E225643AD19EA88FF23ED
:1030B000FE2A00D8D3B2637123E00E227243AA180D
:1030C000D188FF23FE2900D8CBB263710B250A23D8
:1030D000D35655570926ED1A08239657D356F61A94
:1030E000B54207DD281C0521FDF732F84519A57109
:1030F000E67106E0301C0521FDF72AF88619A67155
:10310000E57170BDF7B5041C04F060F9012842D1E7
:103110006378A1781A07120D89181B09E2781B023F
:103120000091D318002500990AB21B49685A011C66
:1031300017318A422CDC2E398A4229DB17491EB20C
:103140006A316F5A391C17318E4221DC2E398E427A
:103150001EDB400080180321FCF7FAFF7F0082B2DB
:1031600001900321B8190092FCF7F2FF00996678EC
:103170000FB20F2283B23F121740964319B20912C1
:103180003E43324009011143019A6170A270E07020
:103190000235EA2DC7D1F7BD609C0000E09C00001D
:1031A000F7B5019004F012F901282BD1164B1B68DA
:1031B0001D6A013DEDB2FF2D24D00E246C43019A0F
:1031C00014190422A35E002BF3DD104EE08833684F
:1031D0001A1C02CA143304F015FB0422A35E071C58
:1031E00000933368E0881A1C02CA143304F00AFB07
:1031F000009B0A37181AC3179B0F181880103F1826
:10320000A780D6E7F7BDC046D40400209411002063
:10321000F0B5BA4B8DB01A6802900191583212780D
:10322000B74D52B2B74C012A55D128882821FCF756
:1032300085FF88B2029980000B8823524B882018A2
:10324000438006F095F92A882823272A00D8131CE2
:10325000013B9B000132E318211FAB4C2A80002563
:103260002F1C261C8B4211D000201A5E964200DDD6
:10327000161C974200DA171C02201A5E944200DDE9
:10328000141C954200DA151C043BEBE704F06AFFBE
:103290009B4B1B88272B2BD9BE1BF11776184E4052
:1032A0004230082E14DC2C1BE217A41854400823CB
:1032B000082C0EDD032E0BDC019B029900229A5E86
:1032C0000023CB5ED318DA0FD318029A5B10138059
:1032D000012303700CE004F045FF0021061CA0222E
:1032E000201C06F0F7FB00232B80423601233370AD
:1032F0000298FFF755FF04F0ABF8844B1B78002BC6
:1033000067D07E48036858331B785BB2012B60D1CD
:1033100004F05CF801285CD07D4B69461B8806A848
:103320000B837C4B07AC1B884B8306F021F902987A
:10333000038823804388201C638006F019F96846BF
:103340000221635E1A22825E9A1A0A2A05DC6F4AFB
:1033500000231370704A13703BE00025192BF6DD33
:103360006D4B1B789D42F2DA694A6B00D25A08AC69
:103370002280684A201CD35A0126638006F0F8F8A0
:1033800009A80378802252421A43DF231A404023BF
:103390001A4310239A430F239A4301210A430270D0
:1033A000A657477862882188E4781E409F4364B21C
:1033B0003E43334024011C43322344708170C27069
:1033C0000371013504F04EF804F060F804F040F8A1
:1033D000C6E70121029C0391504B039D1B68013DF0
:1033E0001B6A9D4200DB4AE1019A08AE1388301C3B
:1033F00033805388738006F0BBF8002D0ED1484B04
:103400002C211A68FF318A4204DC012152181971FB
:103410001A6003E01D60DD801D811D710420235EA4
:10342000002B00DCE4E0238807AE33806388301C87
:10343000738006F09DF83A4B0022B75E1889D98850
:1034400084460220325E0492002D18D109B2C91BB5
:1034500007310E2913D8614604980AB2121A0732AE
:103460000E2A0CD81A79002A09D02E4A1268D032B6
:103470001278002A03D101229A721D6002E0284BC3
:1034800000229A721D4B8A211B6889005B199C4699
:103490000B1C63449B795BB2002B18DD204B9A7A9E
:1034A000002A14D00621585E03214843C019C617CC
:1034B000B60F301807AA8010108008201B5E5943F1
:1034C000049BC918CB179B0F59188910518007AA64
:1034D00008AB10881988049005910220175E02211C
:1034E0005B5EFF1AFA176346BF18403357401A78DD
:1034F0000D4B1B68002A19D1413318E0DC04002071
:10350000B8100020C2100020FFFF0000A10700201B
:103510008C07002078070020A0070020D40400209A
:1035200000050020000000209411002042331E7886
:1035300003F04CFF012800D1642601980423C35EE8
:10354000002B0CDDB7420ADA049905980AB203B2DF
:10355000D31AD9175B184B40B34200DA82E009AEA8
:103560003378802252421A43207BDF231A40012302
:10357000184040231A43102300019A4303990F2354
:10358000024319409A430A43327007AA1088777899
:103590008446012010565188D27818409F43384302
:1035A00052B2034012011A437270301C6246B2706C
:1035B000F170FFF7A7FDA288131C12B2FF2A00DDED
:1035C000FF232A1C0298311C3371FFF761FD301C68
:1035D00003F048FF019B04229A5E304B1B685D1983
:1035E0004035002A01DD012300E000232B7034E088
:1035F000019A0423D35E002B34DD09AD0C22281C74
:10360000002106F067FA264B9A7A012A03D1DA885C
:1036100032801B8973802A78402003990F2302434C
:1036200019409A430A432A70012608AA96576F78D0
:1036300051881088D2781E409F4352B23E43334097
:1036400012011A43164B6A70A8700022D880281CF9
:10365000E9709A72198103F005FF238801980380AD
:1036600063884380A388019A03999380E388101CA0
:1036700001310830D38003910E340190ACE6074B42
:103680001B681A1C58321278191C4C3159330A70B5
:103690001A7003F0FBFE0DB0F0BDC046DC04002044
:1036A00000050020F0B5C14BA7B01A68F6231190B1
:1036B00008915B00D35C0B93BD4B0B9C1B6809937B
:1036C000BC4B1B681B6A0693012C03D1BA4B1B68C9
:1036D000E53302E0B94B1B6838331B78069E0E9326
:1036E0000E235E43119F0024BF19069A04960C977F
:1036F0003B1C05940A940E3B013A0BD3D988059ED6
:103700008E4200DA05910427D95F0A9C8C42F2DAD6
:103710000A91F0E7A94B01211B681A1C4E3212785E
:1037200091401A1C4F3212785033891A1A788B1A2A
:10373000DBB2069A1793541E0394002A00D1E5E0E9
:10374000039E0E247443119F3C190420235E002B1A
:1037500000D1D9E0994B0B9F1B681A1C4332167895
:10376000002F04D11A1CE08802CA14330CE00B9F0E
:10377000012F0CD1904BE0881B681A1CFC32116899
:103780005A1C1133FF32FF3304F03CF8051CFCF7E0
:10379000B1FEEA235B00C25C884B002A05D01A68A0
:1037A00029321278954200DA151C1A68131C44332A
:1037B0001B78002B01D1642349E00998331C84460F
:1037C0007F4884446146497B0D9100291FD104271D
:1037D000E65F64217143099FC32080000791391877
:1037E0001F1C6F430798B8420FDDAE420DDC724FCD
:1037F0008E683F6801368E6086373F78BE4206D1BC
:10380000012667467E730D9800E000208860099FBE
:103810006B483E18717B002913D00427E15FC32059
:10382000099F8C4680003918AC4508DD88680E9FDA
:1038300001308860B84204D10020707300E000209D
:103840008860099E5E4FF119497B0029B3D0099E1B
:10385000039F8820F1198000091808790426A15FC8
:10386000002803D00E9F40B2B84220DC64204843B9
:103870006B4398420EDB131C40331B78059EE08897
:1038800073439B11984205DBD36B0A9F7B439B11CB
:10389000994223DA03990023E380A3800A31099C2B
:1038A00089008422920061188B50A31813E02832FB
:1038B000127844486A434143534399420EDA0399CC
:1038C000099E0A3189008422002392007118E38046
:1038D000A3808B50B3185A68013A5A60039F002F97
:1038E00012D1394B1868092800DD1F60089E1A683C
:1038F0000024345F35489100089F0C5002243C5F3F
:10390000334801320C501A60039A14E7099D84264B
:10391000069FB600AB19089C5A60089DFA00A418CF
:10392000083AAA180892049A119E0E3AB218059203
:1039300002320392069AD8196B3252009A18043256
:103940001392069A1330733252000A90D8199B18BA
:10395000391C0833013912930C234B43D1300790A3
:1039600084200D94089F8000099C1B180237E318DF
:103970000B971593069D013D069501D200F0FAFCC8
:103980000C9D0C9F0A3D0026AB5F0E3F0F95002B50
:1039900001D100F079FC0A9C0E9A2378063201339B
:1039A000DBB259B2914215DC237017E00000002011
:1039B000DC040020D4040020981100209411002081
:1039C0000F03000010270000080700203407002024
:1039D0000C0700200E9B0A9D04332B700A9E0023C7
:1039E000F356012B07D1059C089D2388039E2B804D
:1039F00033880B9C23800A9D00242C57012C63DD07
:103A0000A01C0321FCF7FAFBCEB21496022C45D180
:103A1000D04B089C1868D04B0022A25E19680B9E00
:103A20004C69096905684910511A40680023F35E22
:103A3000CE170138891900027140401A7F2809DD2C
:103A400064101C1BE017013D24182D0244402D1B5F
:103A50007F2D13DC059C039D0020205E0021695E04
:103A6000801AC91A04F088FF0B2807D9089E059C04
:103A700033880B9D23802B88039E33800323013BD7
:103A80001CD3159D059C5A00AA182088111C5A3178
:103A9000039E0880318860321180F0E7069D06237E
:103AA0006B43089CC918099E2288AC4B49007118C9
:103AB0000B9CCA5222889C239B00CA52059D039EE0
:103AC0002D8836881D951C96A54B1B681A1CA232A2
:103AD0001278012A00D08CE0A3331B78069C9C420C
:103AE00000DB86E09F4B1B68D0331A78002A00D099
:103AF0007FE0994C059D23680021695EDE6D039D82
:103B0000714309141E6E1E910021695E069DD0202E
:103B10007143684309141B180A9E1F912092219239
:103B2000181C00226C30B25620A91EAB01F02CF9F3
:103B3000236882205B1980001A181179092901D89D
:103B4000013111710A9C0022A256012A05D1822559
:103B5000AD005B191A7100229A7100240699342075
:103B6000D02560434D437C4E40193268211C10180B
:103B70006C301EAA01F066FAA20022AB0134D050CC
:103B8000042CEBD13468391C60196C3020AA01F088
:103B9000D1FB336890215D1998356868069DFF3127
:103BA0005A19884216D98226B600911908790A282E
:103BB00010D8897900290DD158331B785BB2012BBD
:103BC00008D1089F059C3B880B9D23802B88039E72
:103BD0003380E1E28227BF00D319634A1979126862
:103BE000383212780132914200DCD5E201229A711A
:103BF000D2E20A9D00242C57012C00DCCCE2032CDD
:103C000000DC20E2069F06267743149D099EEB19EF
:103C10005B00F318514E1097281C9F5B0430032162
:103C200004931897FCF7EAFA109D099F4919490077
:103C30009C23049D79189B00ED5ACB5A8F5B1995F4
:103C40009C46042C0ED1059C089D0020205E00237C
:103C5000EB5E039CC01AC117401848400022A25EC8
:103C60000B9D0DE0059C139D0020205E0023EB5E64
:103C7000039CC01AC11740180022A25E129D484042
:103C80000023EB5E079CD31AD9175B184B40C01872
:103C90002278354B1B68002A06D056331B88984281
:103CA00009DC0023237006E058331B88984202DBAE
:103CB000079D01232B702B4B1B681693D0331B7869
:103CC000002B02D0079C00232370284B1B68991FF0
:103CD00000D5D91C089D264B8900CB580022AA5E2E
:103CE000D21A141CA923A9345B009C4216D8214B7C
:103CF0001B78012B12D1204C2588204CA5420DD1D8
:103D00001F4C2468282C09DD0B9D00242C5F1D4DC1
:103D10004959641A944201DD079C2370079D2B7852
:103D2000002B00D0C7E0169BD0331A780E4B002A28
:103D30002CD0039F144A0021795E914226DD1A6837
:103D4000131C52331B885432128859085B185108CF
:103D5000521821E0D4040020DC0400206A02000094
:103D60009811002000000020941100200807002076
:103D700034070020600700205C070020FFFF0000E0
:103D8000000700200C070020B80B00001A68131C65
:103D9000523354321B881288802100924A0003F06B
:103DA00020FDC74B041C1F78002F38D0C54A12686D
:103DB000D0321278002A06D0023FFAB20A271A70CF
:103DC0004743062305E0033FFAB2282747431A700A
:103DD0001423059D9A1A0021695E049D1741A85F6E
:103DE000E7190B1ADA179E185640B446039E049B37
:103DF0000025755F9C26B6009A5FAD1AEA17AD18CC
:103E000055406544221C2B1C05F04CFC059C3A1CBB
:103E10002080049CA05F039E0021715E45E0AA4AB9
:103E20001368002B20DD191C09391160142242434C
:103E3000059D049F1D21CB1AB85F0021695E1A41C0
:103E40000B1A9446DA179B185340039D049A9C263C
:103E5000B6000027EF5F955F7D1BEF17ED197D40E2
:103E60005D196346E21815E0059D049F0021695E17
:103E7000B85F039E0B1ADA170025755F049F9C2616
:103E80009B18B6005340BA5FAD1AEA17AD185540FB
:103E90005D19221C2B1C05F005FC059F221C388097
:103EA000049FB85F039E0021715E2B1C05F0FAFB96
:103EB000039F3880A3E0189C199DA1B2CF1B3FB28D
:103EC000AAB2FB0F6046DF19131A1BB2059CDD0F67
:103ED000EB180025645F5B100494039C7F100025A1
:103EE000645F1A931B94CB19049C1BB2E31ADD1771
:103EF0001A9C5B196B4012191B9D12B2AA1AD0179B
:103F0000121842409B180024802B01DD1C1C803CB1
:103F1000149803210530FCF771F9109D6B4B49197A
:103F2000099D490069181D682B1C4F331B7810939D
:103F30002B1C50331878189B1AB2179B53439C467E
:103F40008B5F109E73436646F218049B199E434391
:103F5000D2182B1C51352D784E336F431B781F41DF
:103F60001A41D21937B2179E77439C26B600895F53
:103F7000109E4E43BE191B9F78431A9F36187D43EF
:103F80001E411D41169B7519D0331B785842434181
:103F90000220C01A4E4B197888421CD10021101CF7
:103FA0008E22197052000499231C05F07BFB454BAF
:103FB000059E1B683080D033039F1B780021795EFB
:103FC000281C2322002B15D08E22231C05F06AFB0F
:103FD000039D288013E0101C8E2204995200231C9C
:103FE00005F060FB059E039F30808E220021795EE4
:103FF000281C5200231C05F055FB039C20800D9BC0
:104000000F9E043B0021715E0025585F2F4D431A1F
:104010002F68DC171B1963403A22BA5E05F042FB99
:104020000F9E0D9B0C9C3080023B083C1888218819
:104030002B683A27DA5F431ADD175B196B4005F0EE
:1040400031FB208013E0059E089F0022B25E002312
:10405000FB5E059CD3185B10039D0B9E2380002202
:10406000AA5E0023F35E039FD3185B103B80069C7F
:10407000002C00D090E0134B1B68D0331B78002B32
:1040800028D00B9D039E0022AA5E0023F35ED31A64
:104090000933122B3DD8089F059C0022BA5E0023ED
:1040A000E35ED31ADD175B196B400A2B31DD044B3D
:1040B0001A780632D2B21A70062A2AD9062227E0C6
:1040C000E007002000000020F806002094110020E6
:1040D000600700200B9E039F0022B25E0023FB5E60
:1040E000D31A0433082B14D8089C059D0022A25E25
:1040F0000023EB5ED31ADE179B197340052B08DDF6
:104100009D4B1A780932D2B21A70142A01D914229E
:104110001A700B9F039E00243C5F0025755F631B94
:10412000DF17DB197B40052B0CDD089E059F002265
:10413000B25E0023FB5ED31A2C33582B02D88F4B70
:1041400014221A708E4E8F4B30681B684700186817
:10415000A0210138376000028900FBF7F9FF281819
:10416000844219DC01231F43874B37601A68092AF0
:1041700000DCF0E000221A601968844A844B2C1B92
:10418000002900D0E9E0059D089E0020285E00215E
:10419000715E411A11601C600A9C0023E3560E9D5B
:1041A000AB4210DD0F9E0022B25E002A0BDD0D9A9D
:1041B000043A0027D25F002A05DD1D9D139C1C9F39
:1041C000129E25803780734A1268383211788B42EC
:1041D00038DC059D039E2B8822AC23803388201C6D
:1041E000638005F0C5F90A9F0023FB56012B02D11D
:1041F000694B00221A700220235E632B02DC069CAE
:10420000002C0BD0654B1B78002B16D0614B1B6824
:1042100038331A78604B1B789A420EDB5F4B0122D1
:104220001A705D4B119D1A782C885D4851000C5214
:104230006C885C4801320C521A7001230F9E5B425D
:10424000338018E0584B1B685833197801311970C6
:10425000524B197800290ED0099F8420800039180C
:10426000097D127849B20132914202D14F4A0121AF
:10427000117000221A70099C8425AD00069E6319F6
:104280009B1900229A7743E00A9F0022BA560E9C9F
:10429000A24239DD0D99043900254A5F002A37D042
:1042A000354A099E13708427414ABF00069D13605A
:1042B000F2195419A07F0130C0B2A077354C40B23A
:1042C000246839342478A04202DD0A9E337013E05A
:1042D000089F059C3B880B9D23802B88039E0F9F86
:1042E00033800B883B800D9B023B19880C9B083B5D
:1042F0001980536801335360244A00231360244A11
:1043000013602C4A136003E00A9C079D23702B70F6
:104310000D9E0A9F079C083E013F013C0C9D0D9697
:104320000A97089E059F07940B9C0E3D083E0E3F82
:10433000083C0C950896039D139E05970B94129FBD
:10434000159C0E3D023E023F0C3C039513961297BE
:104350001594FFF70FFB01320DE7059F089D002024
:10436000385E0021695E1668411A1F687118116075
:104370003C1910E727B0F0BDE0070020FC06002044
:104380005C070020D40400208411002004070020D2
:104390000007002094110020A0070020A2070020A1
:1043A0008C07002078070020DC040020A1070020F3
:1043B000F80600200807002008B5FFF773F908BDCC
:1043C000F0B58FB0059007910A920B930024404BF3
:1043D0001B68DB6A9C4278DA059F2301FB180820E2
:1043E0001B5E002B6FD0079FA300FB180327DF572E
:1043F00008979B78013F5BB206930497089F049847
:1044000001370997B8425EDC069E013E069B0133E8
:104410009E4255DC2E4B04991B6801319A680A9F15
:104420005143481C80193D5C013D47D3DB6A9D42E6
:1044300044DAAC4242D0079FA300DB5F254F400027
:104440003F687F8EBC46149FC05B834236DC069F6C
:104450006046C91943430131149F4900C95B9B1150
:104460008B422BDA099F7A43B2180132149F520013
:10447000D25B934222DAA54202DB2B1C251C1C1CBA
:10448000059821010DAF41180A31381C042205F0AE
:10449000DFFA059A29015118381C0A3103F0EAFEA7
:1044A00000970A9F231C01970B9F05980297149F62
:1044B000079903972A1C03F0FBFE2C1C0236A5E784
:1044C000049F023799E7013481E70FB0F0BDC04681
:1044D000D404002094110020F0B5CD4B99B0109277
:1044E00000221A700C1C179005F086FAC94BCA4AB4
:1044F0001B6811689E7AEA22119652008A5C071C9A
:10450000002A04D19E790C9608201E5E05E0C34B5C
:104510001B681E7A0C960A201E5EC14DC1492B688D
:1045200010981A6808960A709A685E688A70013254
:1045300004239200CB708218512302204E700B711D
:1045400003F022F80023A21DD3770232D3777F260F
:10455000631DDE77E31DDE772B6819685B68013920
:10456000013BDBB21393AC4BC9B21A68F6235B0074
:10457000D35C012B07D0AC4B04371B687F00DF19DD
:10458000FF880D9702E080231B020D93A74A0023AA
:104590001360A74A49B21360A64A04931360A64A5F
:1045A00001931360A54A0A931370A54A07931370E9
:1045B000A44A059313709A4A1568984A126814928F
:1045C000A14A12681592944A12680B92914A126895
:1045D0000692002900DA0EE1139B4E005AB2012325
:1045E0008B4000270E930F960997002A00DAFAE015
:1045F000AB68481C4343D318109E0133149F9B00A3
:104600009B593E7B002E14D00D9EE4277343DE138E
:104610000B9B7F00DF5DB4239B007B436F689C4650
:104620004F43159BD7199C446346DF5D3B1C734386
:104630009B116F684F43D7197E001E9FF65F0427BA
:10464000F31A0B9EF757012F08D109267642F61868
:10465000052E03D87D4E37705F10DB1BAE68179FA9
:104660004643961901367600F353032B02DD099871
:10467000013009900B9ED0363678002E06D00C2BD8
:1046800012DD019E0E9F3E43019605E0062B0BDDD9
:1046900001980E9E304301900E2B05DD049F0126EC
:1046A00096403743049702E0002B00DA80E006983A
:1046B0000C268657B34215DB27689E1BBE19266061
:1046C00066690C2701366661407B069E40B28446CF
:1046D000F7576068634501DCDF1B01E06646F71BA6
:1046E000C7196760002B23D0514E3768FF18376019
:1046F000002A04D14F4E3068C018306011E0112AF2
:1047000004D14D4E3768FF1837600AE0012A01D105
:104710004B4E02E0102A04D14A4E37789F4200DA0D
:104720003370132904D1454E37789F4200DA337035
:10473000E068834204DDD6B2CFB216961297E360EA
:10474000119EB3421BDB261C08361F27F7579742E2
:1047500000DAF277E61D1F27F757974200DDF27760
:10476000A61D1F27F7578F4200DAF177661D1F2716
:10477000F7578F4200DDF177079F01370797209E9B
:104780005700F65B98B20297B44684440390209F8A
:10479000029866463E520F981F9F1F9E3F5A0398ED
:1047A000BC4684440F9F6046F053059EF61817E000
:1047B000132903D11D4E3768FF18376006980E265F
:1047C0008657B34206DCA7689E1BBE19A660A66981
:1047D0000136A6612069834200DA2361059EF61A3C
:1047E0000596013A01E7099F092F02DD0A98013079
:1047F0000A900139EDE6084B04221B689A56012AFB
:1048000032D1124D124A2978002923D111702BE0A0
:104810006107002088110020000000209011002076
:10482000D4040020EC050020D804002074070020E8
:10483000700700206C070020680700206307002035
:1048400065070020640700208C110020F506002079
:10485000F606002011780131C9B21170042901D97E
:104860000521117000222A700199002918D01A1C04
:10487000D0321278002A16D1019EE022120396420D
:1048800001D103210CE0019FC0221203974201D104
:10489000022105E0019880221203904210D10121EB
:1048A0004F4A11700CE00199802212039142F6D018
:1048B000C02212039142EBD0E02212039142E0D0D9
:1048C000049E80229202964206D1464A1168153112
:1048D000142900DD142111600A9F032F02DD424AD2
:1048E000012111701A1CD0321278002A2ED11A6CB4
:1048F000083A0B2A2AD8586B2C2827DC996C0E29E9
:1049000024DC3A4A11683A4A0B39FF3991421DD8E2
:10491000384A1268322A03DC374A1268322A15DD17
:10492000364A1268053211DADB6C002B0ED1344B9B
:104930001B780A2B0AD8334B1B780B2B06D8324B2B
:104940001B780B2B02D8314B01221A702F4B1A788F
:10495000012A0DD1254A1268C72A09DC254A1268A6
:10496000132A05DC244A1268132A01DC00221A707B
:10497000274B05981B680125D968FBF7E9FB2549FA
:104980007C235B42221CCB70E06176231C32281C06
:104990000B714D7002F0F8FD079EA21D26621F21CB
:1049A000631D51561F229A561B4B1B68914201DB17
:1049B0001D7301E000221A73169F129E231C2833D8
:1049C0005E701F70E7680C9E0120B74205DA23690C
:1049D000089FD80FFA179F425041C0B219B0F0BDDE
:1049E00060070020F8060020610700207007002003
:1049F000090400006C0700206807002074070020ED
:104A0000630700206507002064070020620700207C
:104A1000D404002088020020D80400200E4B09682E
:104A20001A68F6235B00D35C0C4A1268D07A4843BC
:104A30008011002B01D1937A04E0012B05D1084BA2
:104A40001B68DB79984200DA181C064B1B78012B97
:104A500000D10D207047C0460000002088110020C2
:104A60009011002061070020F0B58FB01C1C14AB22
:104A70001B780C920D93A74B0A901A680791032399
:104A8000D3562026F61A0223D3567600F61AA24BE6
:104A900076101B780896A14D012B17D1A04B1B68EF
:104AA000D0331B78002B11D12B682322F6B2197852
:104AB0001B790092019202966268159804F01AFE22
:104AC0002B68322219791B78009215E02B68907AB6
:104AD0001978089F1B790090D27AFEB20192029653
:104AE0001598626804F006FE8A4A2B6812681979E4
:104AF000107A1B780090527A01920296169862689A
:104B000004F0F8FD874B1B78012B1DD1844B1B68EB
:104B1000D0331B78002B17D1804F089D3B68EEB235
:104B2000462519781B7900950195029615986268BB
:104B300004F0E0FD3B68169819791B780095019503
:104B40000296626804F0D6FD079FFB7A787A0B9391
:104B50007F233A7AB97A3B72BB72704B09901E6818
:104B6000002008917872F87252B2049009994BB201
:104B70009A424DDC159F089D51007F186BB2BC46D0
:104B80000B98551C41B28B4240DCB1680C9F6943C5
:104B9000591801314800C05F169F590079180989DA
:104BA0000D9F411A604600890691091AB9421CDD21
:104BB000079FFF7A7FB29F4201DA079FFB72079F30
:104BC000BF7A7FB29F4201DD079FBB72079F7F7A4A
:104BD0007FB2974201DA079F7A72079F3F7A7FB2CE
:104BE000974204DD079F3A7201E0002904DD049832
:104BF000884202DA049100E00021B7687D435D1924
:104C000001350A9FAD00E9510133B9E72A1CADE730
:104C1000434B049A079D1B682A60D0331B78002BF6
:104C200004D1404B1B78002B59D141E03E4B1B680F
:104C3000012BF6D1E768122FF3DD231C29331B78F3
:104C40001A1C0E3A032AECD8344A5BB215680233B8
:104C5000286884466345E4DAAA6801335A43211C74
:104C6000283100268E570A9F9619B600BE1937685C
:104C7000F817800FC0198010306000268E570A9FE9
:104C80000136B618B600BE193768F817800FC0197C
:104C90008010306009780A9F49B202318A18920068
:104CA000BA181168C817800F411889101160D1E730
:104CB0001A481E4903680A9F1A685D680A709A6854
:104CC0007C238A7001325B429200CB70BA18832336
:104CD00005204D700B7102F057FC0FB0F0BD0F4B6B
:104CE000196800230C68A342E2DA8868013358434C
:104CF0000A9F013080003D182A684430D60FB21850
:104D000052102A6038180268D50FAA185210026093
:104D1000E9E7C0469C11002061070020D404002070
:104D20000000002062070020F0060020EC050020B3
:104D3000114B70B5444201209C421BDC201C0F49E2
:104D4000FBF706FA0D49421C0D1C5543661BF31771
:104D5000F6185E400A4B4000C05A52007043094E9C
:104D6000AD19641BE51764196C40D55A6C430019E2
:104D7000FBF7EEF970BDC0466F110100102700006F
:104D80001A9B0000F0D8FFFFF0B50F1CAC49D3B060
:104D90000E680490A436012A25D11C685868049B2B
:104DA0000021FA221A63013100221C60D8605A6087
:104DB0001A619A605A619A61DA611A625A629A6259
:104DC000DA6234330429ECD1049DC8232A1CDB00A9
:104DD0000432AB61EB64AB65D367883213609360D8
:104DE00093625363D3630024A20000239219181C1A
:104DF0001A255D4304994D192D6BD15A023369432D
:104E00004018082BF4D1FA218900FBF753F93853E5
:104E10000234082CE8D10AA80021102204F05AFE1E
:104E2000002534236B4304980EA9C3181B6B002480
:104E30000693EB00F31805932B0159180791059A77
:104E4000069B105B395B5843FBF734F90799630005
:104E50002822C850D21869465258283310180234F4
:104E60005850082CEBD10135042DDAD11EA80021B1
:104E7000D0220EAD002604F02DFE20AC079506963C
:104E80000023049A1E1C181C079F1568F95810333C
:104E90004D434019D568343269437618402BF3D11D
:104EA000069F6946BB0028335D58271C291CFBF769
:104EB0004FF9083F3860291C301CFBF749F9069E62
:104EC0006060002E35D00023049A1E1C181C079F1A
:104ED000F958576810334F43C01917693432794372
:104EE0007618402BF3D1291CFBF732F9271F3860C5
:104EF000291C301CFBF72CF9069EA060012E18D04F
:104F00000023049A1E1C181C079FF9589768103339
:104F10004F43C0195769343279437618402BF3D187
:104F2000291CFBF715F9291C2060301CFBF710F930
:104F3000E060069D079E01350436069534340796D9
:104F4000042D9DD126AC0027BA000EABD0180192DB
:104F50000023049A9C4606930793059308930993AC
:104F6000C1589569069E4D43AC44D56910334D43F5
:104F70007619156A06964D43079E7619556A079667
:104F80004D43059E7619956A05964D43089E761900
:104F9000D56A08966943099E343276180996402BE3
:104FA000DED101990AA80D586046291CFBF7D0F8FC
:104FB000261C083E3060002F1BD0291C0698FBF7EA
:104FC000C7F8261F3060291C0598FBF7C1F8606000
:104FD000012F0ED0291C0798FBF7BAF8291C206076
:104FE0000898FBF7B5F8291CA0600998FBF7B0F802
:104FF000E06001373434042FA6D1049B00211EAA9F
:105000008D58521856689768D0681D605E601569A3
:1050100056699F609769D8601D615E619F61D06924
:10502000156A566A976AD26A3431D8611D625E6227
:105030009F62DA623433D029E1D153B0F0BDC0466B
:1050400098110020F0B5B74B91B0041C94461B6832
:10505000012912D007DC00291BD1C4339F881D7899
:105060000297DB8814E002290DD0032911D1C43343
:105070001F8ADD7802975B8A0AE0C4331F895D7856
:1050800002975B8904E0C4339F899D780297DB898E
:105090000693012D61D0002D4DD0022D7BD1A76844
:1050A000636820681911DB1908977A110A936769F8
:1050B00023690918E0688A181911DB1909180D927B
:1050C0000B937A11A36A8A180C92DE0FE26AF61823
:1050D0007110206AD60FB61876100997C718BF1935
:1050E0000197A069E7693F18206A0397C70F3F1827
:1050F00003987F10C719E0693F18606A3F1801984C
:105100007F180397C70F3F1803987F10C71904979C
:10511000606AE7693F187818216A676A4018F918C9
:10512000C018C91880199B18891803900E9107930D
:10513000029BD6183BE02768A0690D97E7682E1CF4
:105140000C97029F07953F1804970E9501950395BC
:1051500009950B9508950A9529E0676820683B1129
:105160000A9727691B18E0683A111218E0690C9237
:10517000A269616A0D930B97029B4700BF18002636
:105180007F184018C918049703900E91079601964E
:10519000099608960BE0002607960E960196039650
:1051A000049609960B960C9608960A960D966746F5
:1051B0003F680D983F1A60464368029704980C9F19
:1051C000DB1BC7173F0F05933F18069B3F11FF18C6
:1051D000391C8001FAF7BCFF039906908801391C3D
:1051E000FAF7B6FF019A0F90391C9001FAF7B0FF59
:1051F0000D9B06999A02029B4B43D3189B12236086
:105200000A9B0F999A01029B4B43D3181B019B12D7
:105210006360089B0C999A01029B4343D3181B01BE
:105220009B12A3608A02059B06994B43D2189212E7
:10523000E2600B9A0F999301059A4A439B181B0150
:105240009B122361099B06999A01059B4343D3183E
:105250001B019B1263618023049ADB005B1A5A4393
:10526000D117890D8A189212A261002D05D1E5612E
:1052700025626562A562E56239E0039A5A43D11757
:10528000890D8A189212E2610F9A03995242514392
:1052900004920E9A8C469202111C61440392CA1722
:1052A000920D9446614489126162022D1BD10199CD
:1052B000019A4B43D917890DCB189B122362049B8B
:1052C00007995A438B02D318DA17920DD318019A13
:1052D000B6025043301AC617B60D30189B12801212
:1052E000A362E06203E000232362A362E362029A06
:1052F000059B52435B43D3180B4A934205DC642061
:105300005843391CFAF724FF00E008484010404297
:10531000FFF70EFD064B391C5843FAF719FF11B081
:10532000F0BDC0469811002014AE4701FFFFFF7F7B
:1053300010270000F7B50024051C0191171C0093ED
:10534000261C009962003B5B8858FA2158431A23B7
:105350006343EB1818638900FAF7ACFE0234861930
:10536000082CEED100242F19386B311CFAF7A2FE5D
:10537000002801D0386301E001233B633434D02C92
:10538000F1D10024201C261C221C2B6B2968013221
:1053900059430818E9689E19594334350C19042AF1
:1053A000F3D1311CFAF7D4FE311C051C201CFAF78E
:1053B000CFFE041C002D01D0002806D10949002091
:1053C000FA23021C0B7102F0DFF8074B01991B68EE
:1053D0005A6E9B6E55435C432D1424140D804C80F3
:1053E000F7BDC046F3050020DC040020014B186027
:1053F0007047C04674110020014B18687047C046C2
:1054000074110020014B18607047C04670110020D5
:10541000014B18687047C04670110020014B18609E
:105420007047C0466C110020014B18687047C04699
:105430006C110020014B18687047C04680020020A4
:105440008D23013B002B01D0C046FAE7044B10220C
:105450001B78DBB21807C00F134018437047C046D3
:105460002B0000500F4BF7B518261E700E4BA027CF
:105470001E70FFF7E5FFFF050B4B01AC00252C3735
:1054800060701D703E70FFF7DBFF064B20703D70B3
:105490001D7023786278181C50404000134003436D
:1054A000D8B2FEBD2A0000502D00005010B50D4BA3
:1054B00000201B78AA2B12D10B4B1C780B4B64B22B
:1054C00018780B4B40B219780A4B20181A780A4BFF
:1054D00049B21B7840188018C01A43425841C0B2E4
:1054E00010BDC046500002005100020052000200F0
:1054F0005300020054000200550002008023DB022A
:105500000022188059809A80C046024B188880B2C9
:105510007047C04606000400154BC0229200985800
:105520001449014099509958FF208143402001437C
:105530009950985810490140802000040143995027
:10554000985880210002000A09060143995002225E
:105550001A6001221A60082104221A601960FC33C3
:1055600000215960054B19690A431A617047C0460A
:1055700000E100E0FF00FFFFFFFF00FF00ED00E0A3
:1055800013B5094A042413780021DBB21C430191AE
:105590000198F421FF31884205DC1370C046147075
:1055A00001990131F3E713BD0D00005082B00022D4
:1055B000019201AB55221A70392252429A7001228F
:1055C000DA70019AA023DB059A6102B070470000EF
:1055D0000122A023DB051040020603499869084018
:1055E000104398617047C046FFFFFFFE37B50124A6
:1055F0000C400A193F25013001AB2840D2B2187087
:105600000231501C05400919052041438905890DC7
:10561000023259809200090A11435D70D970019AD3
:10562000A023DB05DA61196A014A0A401A6237BD14
:10563000FFCFFFFF0002064B000A0138002258602E
:105640009A6005221A60C0461A68D103FCD57047DB
:1056500010E000E0F0B5534F85B03B681A1C5032A3
:1056600015780232196D127853331E780F23140700
:10567000994312092D0701922D0F0B1C80222B43F9
:1056800052001343484A0395484D1340484A2B4063
:1056900048491340240F0B400199220413430A0583
:1056A00045493607360F0B40009613433206434EEA
:1056B000029433401343424AA024E4051340E360BC
:1056C000FFF75EFF3B68E26851331B781540DB064D
:1056D0009B0FDB021D43E560E26880239B001343C0
:1056E000E360E26880239B011343E360029C039D17
:1056F000FFF7DCFE002813D0324F882039781E34A3
:10570000C9B2FAF725FD39784443C9B28820FAF7BF
:105710001FFD0F3545431E3C00230F3D9C4203DB1C
:10572000231E0F2B00DD0F230F22954200DD151CD9
:10573000A024E4051F491A40E36812040B401343F8
:10574000E360EB43E268DB171D400F239A431D40E3
:105750001543E560E368F022934380221343E3603E
:10576000E368154A18481340E360E3683340E36098
:10577000FFF760FFE26880235B051343E360009955
:10578000E2680B0616401E43E6601048FFF752FF22
:10579000019B09491A05E3680B401343E36005B018
:1057A000F0BDC04670110020FFF9FFFFFFE7FFFFCB
:1057B000FFDFFFFFFFFFF0FFFFFF0FFFFFFFFFF027
:1057C000FFFFFFEF54000200FF0F0000FF6F00001B
:1057D000064A074B12680120DC32126819789040A3
:1057E000021C0A43D2B21A707047C04680020020E1
:1057F000290000500549064B09681A78DC31096810
:105800000120884082431A707047C0468002002001
:1058100029000050044B1878044B1B68DC331B68CC
:1058200018410123184070472900005080020020D1
:10583000044B82B0019001AA188092789A7002B04D
:105840007047C04624000050034B00221A70034BDF
:105850000122DA777047C046B410002008000050DB
:10586000054B1B5C002BFBD0A023DB059968034A8A
:105870000A409A607047C046B4100020FFFFF9FF4D
:1058800072B6084B1B5C002B03D1C04630BF62B61A
:10589000F6E762B6A023DB059968034A0A409A60DE
:1058A0007047C046B4100020FFFFF9FF72B6074BE7
:1058B0001B5C002B02D1C04662B6F7E762B6A0239C
:1058C000DB059968024A0A409A607047B4100020CC
:1058D000FFFFF9FFA023DB055A680121120E58686B
:1058E0009143034A090602400A435A607047C04682
:1058F000FFFFFFFE08B5A0230120DB055870FFF76E
:10590000AFFFFFF7E7FF08BDA02370B5DB05041E5E
:10591000042C09D005280FD1474A11680A1CE0322F
:10592000E4311268096815E0434A1068021CE83245
:10593000EC301268006803E0404A1068426C806CEA
:1059400058613F485E69405C7F2108403D498004C2
:10595000314001435961A023DB051A611E691F23F1
:105960001E40FFF7A3FD00280AD0374B8820197886
:105970000436C9B2FAF7ECFB46430023043E03D4D5
:10598000331E1F2B00DD1F23A022D205108A1F21EA
:105990000B40884303431382032C1AD005DC012CEF
:1059A0001FD012DC002C10D01EE0052C09D004DB27
:1059B000062C12D0072C14D016E01F4B1D68F035B2
:1059C00012E01D4B1D68F3350EE01C4B1D6855356C
:1059D0000AE01A4B1D685B3506E0174B1D68F6356B
:1059E00002E0164B1D685835A023DB05596928785D
:1059F0003F22104091430143596168781F215D693E
:105A000008401249C002294001435961104964000D
:105A100009680C19211C9A31087859681040914383
:105A2000014359609B34217858680A401102094AA1
:105A300002400A435A6070BD7411002070110020AA
:105A4000549B0000FFFF03FE54000200FF07FFFF0E
:105A500080020020FFC0FFFF234BF7B51A68234BDD
:105A60001B6858331B785B069B0E0193931DD97FEF
:105A700000234D005519581E5B18002B27D05318D2
:105A80001B1826331B788024D3185E78A023DB05EF
:105A90005F68E4033C435C60019CB6062404009408
:105AA0005F68B60EBC46124F64462740009C2743F1
:105AB0005F60C046243676004400F65A2C19B43490
:105AC00026805E680B4C34405C60031CD3E7931D5A
:105AD0000949DB7FB4324B700223CB700F20B02317
