:100000004D424E014D3448500005040001002200CD
:100010006000000000C000000000000000000000C0
:100020000000EEEE000000000000000000000000F4
:1000300001000005000000000000000000000000BA
:100040000200100100002B000000000000AC0000C6
:10005000030010012B00300000AC00000014000071
:1000600000380020ED020000000000000000000049
:100070000000000000000000000000000000000080
:100080000000000000000000000000000000000070
:10009000000000000000000000000000B5010000AA
:1000A000E1010000FD010000B9010000CD010000E8
:1000B00000000000002934D00123002210B488423F
:1000C0002CD301242407A14204D2814202D2090187
:1000D0001B01F8E7E400A14204D2814202D24900A8
:1000E0005B00F8E7884201D3401A1A434C08A0424B
:1000F00002D3001B5C0822438C08A04202D3001BE1
:100100009C082243CC08A04202D3001BDC082243F7
:10011000002803D01B0901D00909E3E7101C10BC1B
:100120007047002801D00020C04307B4024802A154
:100130004018029003BDC046D90000000029F0D04D
:1001400003B5FFF7B9FF0EBC4243891A1847C046F2
:10015000002941D010B4041C4C40A44601230022C5
:10016000002900D54942002800D5404288422CD3BE
:1001700001242407A14204D2814202D209011B01B9
:10018000F8E7E400A14204D2814202D249005B00B8
:10019000F8E7884201D3401A1A434C08A04202D320
:1001A000001B5C0822438C08A04202D3001B9C0861
:1001B0002243CC08A04202D3001BDC0822430028C3
:1001C00003D01B0901D00909E3E7101C6446002C89
:1001D00000D5404210BC7047002806D003DB002049
:1001E000C043400801E08020000607B4024802A195
:1001F0004018029003BDC046190000000029EBD052
:1002000003B5FFF7A7FF0EBC4243891A1847C04643
:100210007047C046FEE70000034B01225A70A0233E
:100220000022DB051A70704700110020034B0122E9
:100230009A70A0230022DB059A70704700110020FD
:1002400008B5044B01221A70034B0022DA7700F044
:1002500059FD08BD001100200800005038B5802568
:10026000ED052B79DBB2002B0CD130490B604B60D4
:100270002B89081C9BB28B608A680C30103107F008
:10028000B5FB47E0012B0DD1284BD968002941D09F
:100290005A68186982423DDA5A68501C58602B7AB5
:1002A0008B5437E0022B30D1204CE368002B2AD04E
:1002B000226821698A420CDA22689B5C1BBAEB60D7
:1002C000A3682068C01880B207F0ECFB23680133F4
:1002D00017E0A2682368201C211CD2180C301031B2
:1002E00007F084FBE368002B0DD0A16822688A1810
:1002F000A2601B781BBAEB60A06880B207F0D2FB4B
:100300000123236006E0EB6004E0032B02D1074BDE
:1003100000225A60C0468023DB0501221A70C046C5
:1003200002221A7000221A7038BDC0462004002034
:1003300080230222DB05FF321A600421024AFF31CA
:10034000118000221A70704706000040F8B5A02303
:10035000DB059B684A4A1F21DBB21160D12B0BD011
:10036000D02B01D80133DBB2A022D2059168FF2047
:10037000814319439160F1E70023424A42499A18A8
:100380008A4204D24149C95804331160F5E7404B11
:10039000404A191D043B934203D200221A600B1CF1
:1003A000F6E7EFF308823C4B191D043B9A4203D950
:1003B0003A4818600B1CF7E7FFF7BAFF384939488D
:1003C000053989B280B204F01FFE374C374D012346
:1003D0005B4223716371A371E3712B1C3C331A7868
:1003E0002B1C3D331B781B02134398423FD107F06F
:1003F000E5FA2F4B2F4918882F4A88420BD06E7D83
:1004000018882B7D36023343984204D113889BB25F
:1004100023711B0A637113888B421BD0EE7DA87D6C
:10042000138836023043834214D100200423013B59
:10043000DBB2FF2B07D0214EEF18F65C3F79B742B5
:10044000F5D10120F3E7002804D013889BB2A371F3
:100450001B0AE371637922791B0213438B4206D096
:10046000E279A37912021A43124B9A4204D1144B37
:1004700002221A6062B6FEE700F082F8F7E7C04693
:100480002800005000000020200400205CA4000090
:1004900024040020FC10002048110020CDCDCDCD3B
:1004A00000C000000000000004110020C0BF0000D8
:1004B000FEAB0000FFFF0000BEBF000000AC00006C
:1004C00000E100E0014B18607047C0460C110020AD
:1004D000014B18687047C0460C110020014B186092
:1004E0007047C04610110020014B18687047C04685
:1004F00010110020014B18687047C0460000002012
:1005000038B5114C256805F055F9A862256805F045
:1005100055F9E862256805F055F96861256805F028
:1005200055F9A861256805F069F908492368096843
:100530001A1CE8320E31E861116002221A67D033CA
:1005400003221A6038BDC0460000002010110020B0
:1005500008B502F077FE021E05D10749A9230B71E9
:1005600007F0D4F9FEE7054B1B6803CB04F0C4FD8C
:10057000FFF7C6FF08BDC0466F0500200C04002031
:1005800037B507F055F86C460734207009F096FD32
:1005900009F000FE02F0FAFDFFF7DAFF07F048F875
:1005A000051C0E2800D90E25E8B2034B8200D35853
:1005B000211C98472570F1E7380100200F4B3221AC
:1005C0001B680022D9676420191D9A670431886767
:1005D000CA6702208031086001204860181C012190
:1005E000943049420160826001618261A83304381D
:1005F0000160826001611A607047C04600000020FF
:10060000F7B500AF3960786005F0A8FB83000A33C6
:10061000DB08DB006946C91A8D46041C684605F0F4
:10062000A5FB63000833DB086D46DB00EA1A95463C
:10063000684605F0B9FB00226E46111C013C06D34A
:10064000A300EB58C9186300F35AD218F6E72C4CF4
:10065000022025682B1C8C331C1C0C3C266801389E
:10066000632E0ADD002626600126B44676429E608F
:1006700000261E6166464640AE6726680136266043
:100680001C698C4200D219619E688E4200D9996023
:100690001C68012C09DD1B4E00241C609E611C623D
:1006A00001262C1C08344640E6671C681E6A01348B
:1006B0001C60964200D21A629C69944200D99A61E9
:1006C000043B0028C8D10E4E7C6833683E68996FA1
:1006D000BD468A009A18111C983190320968126838
:1006E0008A1A22801A1C0832D26F92009B181A1C98
:1006F000A832A03312681B68D31A3380F7BDC046F6
:1007000000000020FFFF0000F0B585B01F1C0AAB01
:100710001B78151C01910393041C04F0EFFB1E4B86
:10072000281C1B680021DA68920009F0D3FD019EA5
:10073000002E0CD0201C05F079F9184B281C1B68E2
:10074000391C5A69002307F04BFB013EF0E7002CEF
:100750000FD1124B1B685F69DB69029305F018F833
:10076000061C05F01FF80299031C321C381C07F008
:100770001FFA281C0021019A07F086FB039B012B1E
:1007800008D1002C06D1054B201C1D6805F080FA0D
:10079000EC35286005B0F0BD0C04002000000020FE
:1007A000F0B589B0059106920793049007F0E2F93D
:1007B000234B80791B6802905A699B6905985A43BC
:1007C0000021920009F086FD029F013F7A1C2BD088
:1007D000049805F02BF91A4B1E6872690192019B6F
:1007E000013B0393F1D3B469164B059AE518039BBB
:1007F0006343ED18AD005519013C13D3B368019A5A
:100800005343E3180133069A9B0098582B68181835
:100810002860002F04D10299FFF74CFC00042860E7
:10082000043DE9E7039AD9E7079B012B06D1064B64
:1008300004981C6805F02CFAF034206009B0F0BD73
:100840000C040020FFFFFF3F0000002030B5214DC9
:1008500085B02B681A1CCE321178663A002904D173
:10086000191CB0310978002901D0002111701478C9
:10087000002C1DD0D96E002001919A6B164902926E
:100880001B6B01AA039303234B707C235B42CB7049
:1008900010230B7107F03AF82B680024DA6E196FF9
:1008A0008A4202DC0132DA6610E0DC6601240DE0E7
:1008B0009A6B1B6B0949019202930920642301AAD8
:1008C0000B71039407F022F82B68DC66201C05B03E
:1008D00030BDC04600000020C0010020C70100203C
:1008E000F0B593B004AF3A61F86007F04FF96C4E81
:1008F00069463368B8601C68796004346400221C5F
:100900000832D208D200881A5A688546043252004A
:10091000131C0833DB08DB00C01A04AD854604A9AC
:100920007961081C002109F0D5FC221C281C00213B
:1009300009F0D0FC5B4CF86823685A69191CDB6924
:100940000090281D01907869303104300290386998
:1009500003F0FAFB336838609A6891001A682368DC
:1009600001324A435869002109F0B4FC2068436D04
:100970006430036008F0A8FBBA682368127B5869EA
:10098000019500927A69191C02925C313A69303300
:1009900003F054FD7B689D4607F004F9051C07F041
:1009A0001FFC2B7B002B0CD074300378002B08D15C
:1009B00022683023FF33D35C012B02D0012004F0E6
:1009C000B7FC336838495A6818684A709A68CB7817
:1009D0007F250870AB4302208024034364422343F5
:1009E000CB7053238A700B7101323B6952009A1805
:1009F000012006F08BFF381C00212022183009F05E
:100A000069FC3368186859689A6838767976BA76D6
:100A10000533DB7F3969FB767B7F0220AB430132F4
:100A2000034352008A181C437C77391C0092002231
:100A300001201831131C06F02FFF02F0ABFB02F06F
:100A4000C7FBFFF703FF002826D1164C236858691F
:100A500005F094F82568281C291C5C31303003F01F
:100A6000CFFC23682866186E04F0E6FF04F04AFE07
:100A70003A68002A07D12368F8681A1C30321B68CC
:100A8000396907F0FDF8022004F080FC206864302A
:100A900008F01AFB052000E00420BD460FB0F0BDB1
:100AA0000C0400200000002068050020F0B5940030
:100AB000231C0A3385B0DB08DB006946C91A02AF84
:100AC0008D4602AA061C7A60101C0021221C09F027
:100AD00001FC231C0833DB08DB006946C91A8D467C
:100AE00002AD281C221C002109F0F4FB0C4C301C28
:100AF0002368D96A9A6A5C3300910193291C7B6848
:100B000008F004FB301C02F0CFFB2368301C9A6A0B
:100B1000DB6A291C00937B6807F066FDBD46F7BDC4
:100B20000000002070B50C1C151C1E1C07F0B8FF3F
:100B30000B4B201C1B68996ADA6A08F0B5F8201C78
:100B400008F096FC201C08F0A9F9291C321C201C76
:100B500008F046FA291C201C03F066FA70BDC04656
:100B60000000002038B509F055FA051C012009F0F5
:100B700065FA041C281C04F0A9F9201C04F0B2F941
:100B800038BD38B509F040FB09F04CFA051C0020CF
:100B900009F054FA041C281C04F098F9002004F011
:100BA00097FF201C04F09EF904F0A4FB38BD10B59B
:100BB000A4B08C22041C002101A809F08BFB01A821
:100BC000211C08F04DFA08F077FA01A8211C02F068
:100BD000DBFB24B010BD0000F8B5071C07F000FBDC
:100BE000444E34682379002B02D0012B2CD065E0D1
:100BF000414A211C1268EC310D68011D1278C96F41
:100C00002260002905DC21693C4B994202D023690E
:100C1000013323610A214A43236993424EDD0830A0
:100C2000C36F002B4AD1221C74321370391CA26985
:100C30000420FFF7B5FD04F0D3FB012004F0F6FE1D
:100C400004F026FD01232CE02B4B1F687B782360EA
:100C5000231CF0331D682069198B0130FFF7CEFA91
:100C6000002906D12369002B03DD231CEC331B680C
:100C7000ED18231CFF33DB7A012B04D0231CE43353
:100C80001B88002B05D03B782360EC3425680023BB
:100C900007E02269194B9A4210D02369013323617E
:100CA0000CE031680022081CFF30C2720B710A612F
:100CB00013490E33101C0B7106F028FE33681868B8
:100CC00005F0B2F8041C281C05F0D2F8241A002CF8
:100CD00009DD3368186805F0A7F8041C281C05F026
:100CE000C7F8201A00E0012004F022FB04F042FBC8
:100CF000F8BDC0460000002010110020FFFFFF7F5C
:100D00006F05002008B5084B30221B68FF329A5C43
:100D1000002A08D11B790420012B02D0002B02D11C
:100D2000022004F05BFE08BD00000020F0B587B093
:100D300006F038FF071C07F053FA031DDA6FA44BC7
:100D4000002A07D188300468621E9441E4B2002C66
:100D500005D000E001241A680021B83205E01A68C5
:100D6000B8321168FE2901DC013111601B680021D5
:100D70001A1CCC3215881180183A029511708C42D9
:100D800004D094490968C97C002958D0181CB33094
:100D90000178C9B2002908D003785BB2022B00D0D9
:100DA00001231370002303700EE11E1CB03635784A
:100DB000002D09D0012515701A1CB132BC33017009
:100DC00031701170196000E1002C38D1191CBC3150
:100DD0000D68002D08DD013D012D01D00D602EE0D4
:100DE00003230C601370F0E01A1CE83212681188BB
:100DF000794A914223D01A1CC8321188774A126866
:100E0000D2898A421BD8734D2868027C181CB830DE
:100E10000068904213DB05AA1180CA331B88704911
:100E2000538002234B70CB70201C15230B7106F0EE
:100E30006DFD674B2A681B68527CBC331A60654E97
:100E40003368987C002800D0BEE0614D002C22D190
:100E50002A689B7FC43212689A4214DB61491223CC
:100E6000201C221C0B7106F051FD2A683068131CEF
:100E7000C033196801311960C07F814203DB1C60F7
:100E8000B432022313702A680023111CB231C43219
:100E90000B7013603DE02B681A1CBC3210602A32C4
:100EA0001278002A35D0191CC831098805AA11808A
:100EB000CA331B884A49538002234B70CB701923D5
:100EC0000B7106F023FD2B683268191CC8310D88A0
:100ED000908B1639854214D2181CCA300588108DA3
:100EE00085420ED2908D029D85420ADA097800294A
:100EF0000FD1C4331968927F91420ADA0131196027
:100F000007E001220A70191C0022C431C0330A60B4
:100F10001A602F4E3268131CE6331B78002B53D116
:100F20003B7B002B4ED0131CB0331D78002D4BD1D2
:100F3000284F106B3B683A689B8A118B9C463B6834
:100F4000528BDB8A0093634606F0CEFD3B6803902C
:100F50009B8C32689C463B68106BDB8C3A68118C2A
:100F6000528C0093634606F0BFFD33681A1CC832EA
:100F70001188039ACA33914207DA1A88824204DA46
:100F80003A680298528D904210DB05AA11801B88A6
:100F90001349538002234B70CB70002017230B7131
:100FA00006F0B4FC33680122B1331A7033681A1C9E
:100FB000B1321278002A07D0002C05D0B0330122BC
:100FC0001A7002E0B13213700125281C07B0F0BD81
:100FD000000000200C110020FFFF00001011002075
:100FE000C00100206F050020F0B58FB000AF78631E
:100FF00003F066FF061C03F07BFF386103F06CFF13
:101000009F4B78601B686846DC68231C0E33DB0846
:10101000DB00C01A85466D463D637279A218131C29
:101020000E33DB085500DB00C01A2B1C0E33DB0827
:10103000DB00F8628546C01AC11A85468D46786283
:10104000684678610021F86A09F044F901214942B3
:101050002A1C786A09F03EF98A492A1C786909F045
:1010600039F9221C386B396909F0F2F87C6B002CD5
:1010700011D1854CB379082023707379211C6370DA
:10108000A3707F235B42E3703A6BD223237106F097
:101090003DFCB379CBE040250024BD61FC6100211B
:1010A0000122386B05F026F9032004F0BFFC744BD5
:1010B00075491B681D6858689A680423CB705123D2
:1010C0000B71724B8A701B6801325B699200487029
:1010D0009A1802200D7006F019FCB479BC62BC6A43
:1010E000013C3C6200D291E07379013B7B637C6BF5
:1010F000013400D187E03D6A73797C6B6B437D6975
:10110000E3185B005A5B624B9A4278D003F0D8FE3A
:101110005E4BBC6A1A685A4B7D6B1B6852699B68B0
:101120006343EB1801339B003C6AD25A43797869D8
:101130006343EB185D00AC46011C61440C883C60C5
:10114000944204D87D6A101B6446285323E07D6ACC
:101150002C1C6444251CFC6000242C5F013415D039
:10116000FD6AEC18257868B2B860013001DA013503
:1011700003E0B868002809DD013D02235B420B80D3
:10118000FB69257001339BB2FB612CE0FD6AEC1812
:101190002578002D01D10A800CE06DB2681C05D1C4
:1011A0003968FD688A1A2A80002202E0012D01D1E7
:1011B000FF222270FC6AE1180A7850B2002806DC8F
:1011C0007D6A6446285F013007D0002A05D13C6B58
:1011D0000132E3563E2B05DD05E03D6BEB56002B5F
:1011E00001DD013A0A7073793C6A7D6B6343FC6AE6
:1011F000EB183D69E15CEA5C3C6B8A18E2547D6B5C
:10120000013D7D6373E73D6ABD6268E71C4BFD6984
:101210001B68DA681B69D3189D4200DB29E7BB69AC
:10122000013BDBB2BB61002B00D038E721E7013B7B
:101230000FD37279013AFAD371793D6B594389180A
:1012400069187D68E8185F300D78007828180870F4
:10125000F0E7386B0021012205F04CF8B379082043
:1012600023707379211C6370A3707F235B42E3704A
:101270003A6B1D23237106F049FBBD460FB0F0BD4C
:101280000C040020FFFF0000680500200000002083
:10129000FEFF000010B5041C03F01EFE5430007861
:1012A000434258412040FFF79FFE10BDF0B5454E28
:1012B0008DB000AF35683024B8607960FF342B5DA5
:1012C000022B02D100232B5502E006F0C7F9285566
:1012D00032683D4D135D002B10D129680A208862C9
:1012E000F4322820C862137008F0E8FE08F052FFBC
:1012F000FFF72EF904F058FC482216E006F046FCF1
:101300000026067008F00EFF2B6803CB03F0F4FEF6
:10131000FFF7F6F82B6802221A620A229A62282244
:10132000DA621E611A685B685A439200131C0A3322
:10133000DB08DB006846C01A85466B46FB602B68FD
:10134000186859689D6A414389000A31EE00C9084E
:10135000C9006846331C401AAD000833C11A2B1C63
:101360000833DB08DB0085468D463860C91A6846BD
:1013700078618D463961F868002108F0ABFF321CB6
:101380007869002108F0A6FF2A1C3869002108F0BE
:10139000A1FF00237B627B693868BB62094BF8615F
:1013A000F96838691B683962F8621A5D074B910069
:1013B000CC583B1CB86879681C33A047BD460DB0BB
:1013C000F0BDC046000000200C0400207401002085
:1013D00010B5041C06F0BEF906F02AF9A042FBD0B5
:1013E00008F046FEFFF7B4F805F0D8FF10BD000086
:1013F00070B5051CFFF7B6FBFFF776F8224B041C0F
:101400001B68DE8906F0DAF8002004F061FB04F0C6
:1014100027FB1E4B1B6831331B78002B04D00020A8
:10142000E081291C00F0FEFA04F090F9C0B206F049
:10143000B9FAFFF765F80120FFF72CFF06F08AF9EB
:1014400006F092F9052815D004D8002814D00328F6
:101450000AD806E006280AD0021C113AD2B2022AA3
:101460000AD801F007FC07E005F0BAF904E003F040
:1014700041FF01E003F02CFF06F0DAF8A842DFD0CC
:10148000FFF77FFBE68170BD101100200C110020DA
:1014900010B5041C06F05EF90120FFF7FBFE06F014
:1014A000C7F8A042FBD010BD10B5041C06F052F9DD
:1014B00001F0DEFB06F0BCF8A042FBD010BD10B579
:1014C000041C06F047F904F0F7FB06F0B1F8A0425F
:1014D000FBD010BD10B5041C06F03CF90220211C05
:1014E00000F0A0FA06F0A4F8A042FBD010BD10B5A1
:1014F000041C06F02FF90120211C00F093FA06F0DD
:1015000097F8A042FBD010BD10B5041C06F022F9DC
:10151000002004F08BFA04F0E9FA06F089F8A04202
:10152000FBD010BD10B5041C06F014F9002003F028
:10153000D5FD002004F07AFA04F0D8FA06F078F825
:10154000A042FBD0012003F0C9FD10BDF0B5A3B04F
:1015500002AF386106F0FEF8002008F04FFE08F0F8
:1015600019FE002004F0B4FA5C4C694623685D68FB
:1015700018681B694543EB180733DB08DB00C91A01
:101580008D4602AAFA6103F09BFC03F0B1FC03F064
:10159000A3FCFB695D19181C291C7D6104F01EFC6D
:1015A00023686C465A681B69D3189B000A33DB0812
:1015B000DB00E41AA54602ACBC6106F0CBF8381C8F
:1015C00000212022203008F085FE444C2020236892
:1015D000012519681A79C15521202221C255CA5501
:1015E0000533DB7F25202322D355C35D7F22934320
:1015F000FA692B43C1190B7000920022131C0420BE
:10160000053906F049F979692A1CF86904F072FE77
:10161000002004F00BFA2568B8696E682B69B400E5
:101620009B199C462E4B04191968BC600023634526
:101630000CDA9A00B34203DACC69B869A45802E024
:101640004C6AB868A45884500133F0E73C1C40341D
:10165000201C0021202208F03DFE2968AB68217083
:101660006670A3700535EA7F7F26E27062790425F3
:10167000B2432A4362711A4A013312689B005269CD
:10168000211CD3180022203400930220131C06F0E2
:1016900003F9201C0021202208F01CFE01232370E6
:1016A0000E4B211C1B6810201A7905336270A27042
:1016B000DB7FBA69E3706379B3431D4365710092C0
:1016C0000022131C06F0E8F805F0B2FF3C69A042C6
:1016D00000D174E7BD4621B0F0BDC0460C04002027
:1016E0000000002010B5041C06F034F805F0A0FF3F
:1016F000A042FBD010BD0000F0B58BB000AFB861C8
:1017000003F0DEFB06F036FA584C6E4623689D68FF
:10171000DB687D625A00111C0E319B00C9080E3334
:10172000C900DB08DB00761AB546F61A6D460021C3
:101730006846B5467D61FE6008F0CCFD002004F0EF
:1017400075F97E6A4A4A20681568B20052420368F9
:10175000BA60321C5A439100F961B107711A79607D
:101760009107891A3A62013B23D344683E6A3219D1
:10177000261C5E437618B400FE68920034193C6162
:10178000FC69A2420BD03C690426A418A4466C69EB
:101790007642A458B44466463460043AF0E7BE6822
:1017A0003A6AA419FC617C6A7E68121B3A62891944
:1017B000D9E7BC690B2C55D1002004F037F92B4B2D
:1017C00019682B4B08681C687B6AB86143439A0010
:1017D0003A629A07D21A3A61FB61844666464A68C1
:1017E000013EB4462ED365465543FE692148B318E1
:1017F000121852197E6938695200B2182D18FE6805
:10180000AD0075199B003D603E6AB3420ED03D6845
:10181000E818656904380668E858301A0025565FEC
:10182000864200DA1080043B023AEDE7BD68761983
:101830003E627D6AFE69761BFE617D683E697619AF
:101840003E61CBE70C49B8697E23D2B25B42087097
:101850004A708A70CB70012052237A690B7106F0AE
:1018600055F8A9E7BD460BB0F0BDC0460C040020FA
:1018700000000020FFFFFF7F6805002010B5041C5A
:1018800005F068FF201CFFF737FF05F0D1FEA042EE
:10189000F8D010BDF0B5037887B0041C012B34D10B
:1018A00003F00EFB1A4E071C6468356805F0E4FE71
:1018B000FF35687104AD281C05F018FF684605F077
:1018C000E1FEFE37201C69460F2208F0C1FCBB89EF
:1018D000002B03D01A0A237162716B803368217860
:1018E0009A1DFF321170FF33049A58796B6805F026
:1018F000AFF93368FF339C796408201C05F0EEF9DA
:10190000201C05F033FB04F04FF9012007B0F0BDB7
:101910000000002008B5416803780A4A0A481268A6
:101920000068E8320E301060002B03D0C9B20020EE
:1019300000F078F803F00AFFC0B206F033F8022096
:1019400008BDC0460000002010110020007908B535
:10195000002804D10120FFF79DFC032004E001389A
:10196000434243410520C01A08BD000070B5047A07
:101970000678456806F00AF9002C06D00123012CF0
:1019800006D104F011F9002302E00123042400E051
:101990000524044A70B21268291C9269FEF700FF00
:1019A000201C70BD00000020F0B5037A85B00568EA
:1019B00006790293077B06F0E9F805240390012FCE
:1019C00002D104F0F1F80324039B2A685978AB682C
:1019D000029D70B20095FEF797FE201C05B0F0BD89
:1019E000031C10B59A680C1C00785968DB6800F07D
:1019F0001FFB207010BDF0B5846887B0077846687B
:101A0000656805910F22C168684608F021FC231C17
:101A1000381C311C2A1C01F061F8059B187007B0B6
:101A2000F0BD0000F0B5CB4C9DB000AFF86320686E
:101A30007960407C43000133FB65786303F076FEF8
:101A4000236878665B7CFF22D31A984200DD7B66B0
:101A5000786E7C6B041B3C636C4603F06FFEBC65C8
:101A6000FC6D684665002B1C0833DB08BA4CDB00B4
:101A7000C01A012363707C235B423A1C8546E370E5
:101A8000211CB1230020643223716E4605F03EFF15
:101A90000023211C3C6B5A001819FC6D0133B05215
:101AA000A342F7DB0223CB70321CE4B26323002095
:101AB0004C700B717C6405F029FF2B1CBC6D083346
:101AC000A546DB08DB006846C01A8546C01A6C468E
:101AD0008546BC65386404F041F9F861012003F0E3
:101AE000B7FC00212A1C386C08F0F4FBB86D00210B
:101AF0002A1C08F0EFFBFC6D6846A400231C0A3387
:101B0000DB08DB00C01A8546C01AFC6278626C46AE
:101B10008546C01A8546BC626C46BC61FC69A4005F
:101B2000BC600024FC640021FA6AB86A08F0D2FBA9
:101B3000786AFF21FA6A08F0CDFB0024854BBC646B
:101B40001B68BC6C1B7C9C4251DA3C6B0026E4B2E7
:101B5000201C7C6103F0FFFD03F0C8FD03F06EFC68
:101B6000BC697D6A3C62BC6AF86D0136F217C30F2E
:101B700086425341DBB23B61002B06D1796988195B
:101B8000C0B203F0E8FD03F0B1FD6B46FB60BB683B
:101B90006A460A33DB08DB00D01A85466A467A6556
:101BA00004F0E4F80020031CFA69934205DA796D29
:101BB0009A008A5801338018F6E72368984200D9C2
:101BC00020602968884200D2286003F02BFC3A6A22
:101BD000043501C23A62FB6838699D460434002826
:101BE00002D103F02BFCBFE7BC6C0134A6E7002553
:101BF0005A4E2C1CB96A7A6AA300C858D358C01A26
:101C0000864204DD3B6B061CE318BB633C658542E2
:101C100000DA051C03F006FCB96DFA6D63000134AF
:101C2000C8529442E6DB281C03F0FCFB494B1B68BE
:101C3000DB89984206DAFC6B012C03D07C6EBC6316
:101C40007C6B3C65FEF7BAFCFC6B012C21D13A6C35
:101C50000023BC6D5900615A1088884200D211805F
:101C6000FC6D01330232A342F3DB3C6D63003C6C3C
:101C70001A5BFC6C131CA24200D2231C36499BB297
:101C80007C6CFB64002002234C70CB7008713A6CB2
:101C900019E0F86B304C022808D1796C042300203D
:101CA0006170E3702071211CBA6927E0281C03F0E1
:101CB000B9FB7A6C80B2F864627002230020BA6DBE
:101CC000E3702071211C05F021FE3C6D6823DC537C
:101CD000BC6B6A20C4533C6D6E216300BC6D6C20EC
:101CE0001B5BFC6CC353CC531B4904234B70022376
:101CF000CB703A1CB2230B710020683205F006FE4F
:101D0000174E3C6D32686300111CE831BC6D0968E8
:101D10001B5B09888B4227D9002925D008F074FA6B
:101D2000041C08F09BF9C379051C002B06D0012088
:101D300005F02CFE3368E8331D6027E0002C25D128
:101D4000084B1B689B7C002B20D1012005F012FE64
:101D50001CE0C04610110020C0010020FFFFFF7FE3
:101D6000000000200C110020E7321278002A0DD06C
:101D70000E4C2068C2899A4208D9002005F006FE60
:101D80000B4B22681B680E32E8331A60FC6B002C88
:101D900006D1BC6BE0B203F0DEFCBD461DB0F0BD69
:101DA0007B68063B012B00D8BDE6F2E7101100204E
:101DB00000000020F0B585B000920391029008F079
:101DC00023FA061C05F0A6FC071C05F0ABFC724DBF
:101DD00001902B681A1CE4321278BA4220D0002FEE
:101DE00008D06E4900203B23021C0B71022605F02F
:101DF0008DFD10E00199052400290DD167493C2390
:101E0000381C3A1C0B7105F081FD2B68E6331E78F7
:101E1000731E9E41F6B201242B68E4331F701DE04F
:101E20001A1CE532127801998A4216D0002906D18F
:101E3000E6331E78731E9E41F6B23A2301E0392341
:101E4000022656490020021C0B7105F05FFD2B682D
:101E5000019AE5331A70012400E0052405F0F0FB37
:101E6000071C05F04FFC009B032B02D0002F03D171
:101E700007E00124002F36D0002005F0E9FB012403
:101E800031E02B68E4331F88002F2CD10099012901
:101E900002D0022904D00EE0009805F06BFD0AE0A4
:101EA000381C05F067FD2B68E7331B78002B02D048
:101EB000381C05F06BFD05F057FD2B68071CE63359
:101EC0001B7883420FD0002802D01123012601E0A5
:101ED0001223061C31490020021C0B7105F016FD6F
:101EE0002B68E6331F7008F08FF9B04238D008F045
:101EF0008BF908F097F8071C301C08F093F8009055
:101F000008F082F9301C08F079F908F043F9244B05
:101F10001B68DB7C002B0FD0012C0DD0009B3A1CE2
:101F2000563256330298039905F07EFF002003F0E5
:101F30007DFDFEF743FB06E02B680020CE331870D2
:101F400003F0C6FD0124002005F020FD2B680021D0
:101F50001A1CE7321170134AE83312680E321A6005
:101F600008F052F908F07AF8C379002B08D005F090
:101F700007FD2B68E7331A78824201D018700124DC
:101F800005F0D8FB051C06F02BF90379AB4200D015
:101F90000571201C05B0F0BD000000206F05002079
:101FA0000C11002010110020F0B51D1C9BB0042363
:101FB0006F460E936B680024061C073701203C70A7
:101FC0000294039404940594069007960894099447
:101FD0000A940B940C940D940F93109411941295F1
:101FE0001394149015921696179118951993A200B0
:101FF00002AB240118190C4B391CD35898470B4BD2
:10200000041C1A6898235B00D15C012902D10021CD
:10201000D15403E005F00CFBB042E8D0E868FEF7CD
:10202000C6FD1BB0F0BDC0468001002000000020AE
:10203000F0B55C4F8FB001933B68151C1A1C00244F
:10204000FF321C71D4721C61061C009106F0CEF8A0
:10205000554B01991B680794089409940B910C94B3
:102060000D9406950A959A895878FA21504389006B
:10207000FEF76EF8009A3C681378FE346081B34234
:1020800003D005F067FB009B1E703B6800229A603E
:1020900005F082FC041C03F059FBA04206D0201C72
:1020A00003F059FB03226B46DA7257E03F490020E8
:1020B000A623021C0B7105F029FC0198FEF78CFD8C
:1020C00039686C46081CC830CA31FEF799FA384B9B
:1020D00038491B6802205B680B344B700423CB70BB
:1020E0005B230B713B68DA6905F010FC3B683249F1
:1020F0001A1CC83212880C2003921A1CCA32128889
:10210000CC3304921B8803AA059301230B7105F0BD
:10211000FDFB3968294A0879211C8300D318000186
:1021200006AA10189B6998473B68B4229A562868FB
:10213000A968FFF73FFE052800D02070204B1A68E1
:10214000204B9A4202D003F0B7FDFEE73B681E4ADF
:102150009968914202D09A6801329A606C460B34B9
:102160002378052B0CD005F079FA3B683021FF313C
:102170005A5C824212D0012198228A4099540DE083
:1021800005F06CFA3A683021FF31535C8342EAD1A2
:1021900005F04EFAB04200D17AE7E4E720780FB0BC
:1021A000F0BDC04600000020101100206F05002087
:1021B0000C040020C0010020C70100208001002085
:1021C00044110020CDCDCDCDFFFFFF7FF7B5434CAF
:1021D000151C236801911A1CB1321278061C002AC2
:1021E00023D01A1CE6321278002A1ED11A1CCE32D5
:1021F0001178002919D1B0331B78002B15D1012398
:10220000137002F069FE071C02F05AFE3A1C031C10
:1022100056325333301C019905F006FE03F0D2FB11
:10222000022003F0DBFBFEF7C9F923681A1CCE324B
:102230001278002A4FD01A1C294F0020B03210709B
:102240003A680190126A011C013A0ED30E265643D9
:10225000B446AC446646B688002EF5D036B201319D
:10226000B042F1DA301C0192EEE71A1CE632127825
:10227000002A13D1012911DD05F0B2FF012304303A
:10228000C3673B681B6A013B0AD3019EB342FAD085
:102290000E225A430021AA189180F4E7002904D0A5
:1022A00023680022D4331A6008E01A1CD432D033D9
:1022B00011681B68994201DC013111602368191C07
:1022C0001A1CD431D03209681268914205DDB0334E
:1022D00001221A7001E0D4331A60F7BD000000201B
:1022E0000C040020F0B5764D99B02A6802AF13684F
:1022F000926839605200991C514301335208396188
:1023000053430831C90804686E4EC9006846401A34
:1023100085460133306802A95B00CB1879612C2215
:1023200000213030BB6007F0D5FF00213A697869A1
:1023300007F0D0FF381C00212022183007F0CAFF18
:102340002B687F211A6858683A769A687876BA7648
:102350000533DB7F0132FB767B7F92008B430421C8
:102360000B437B773368391C5B6902209A18009213
:102370000022131C183105F08FFA2068A1687A69D1
:10238000BB68FEF7ADFAB860052800D086E02E687D
:102390006A46F36A7A601A01131C08336946C81A40
:1023A000854602A97961081C002107F093FFF26AB3
:1023B0007869E168FEF77AFB2B6868469A6A0E2313
:1023C0005A43131C0833DB08DB00C01A854602ADF4
:1023D0000021281C07F07EFF23697869291CE26828
:1023E000FEF7A0FBFEF7A2FC374B1B68DB7C002B43
:1023F00004D12068A1682A1CFFF7E8FEE168281CC8
:1024000000F0C2FF07F08EF983000733DB08DB0022
:102410006946C91A2A4B8D461C6802AAA36AFA604B
:102420007B610E22013B5343ED18061C04353861D5
:102430007B69013B7B610FD300202B5E002B09DD04
:102440003969FA680139880039611018291D042298
:1024500007F0FEFE0E3DEBE73D1C38350021202243
:10246000281C07F037FF61682068A3686970154968
:102470002870AB7009680534E27FC96A0133EA70DD
:102480005B007E22CB1852426A710093F2B20320A5
:10249000291CFB6805F000FA7A68954603F072F98A
:1024A00003F090FA02F09CFF012003F0BFFA03F062
:1024B000EFF8B8683B68BD46187017B0F0BDC0466D
:1024C0000C040020000000200C110020F0B5A1B089
:1024D0000192052214925A6800241592019A01254E
:1024E000061C6F4604A81D911B490F3708950990DB
:1024F0000C9511951695189306251B921E931F9007
:102500003F23201C221C3C700A940B940D960E94C1
:102510000F94109412941394179419951A941C966E
:102520000B7105F0F3F9A20008AB240118190B4B4D
:10253000391CD3589847041C05F090F8084B1A68CA
:102540003023FF33D35C834203D105F071F8B042EE
:10255000E9D021B0F0BDC0466F050020A0010020E9
:1025600000000020174BF0B51B6885B01E689B6803
:10257000B41C5B005C4300AF221C5B08FB600832AC
:10258000114BD208B86079601868D2006946891A80
:102590008D462C220021303007F09CFE221C68461C
:1025A000002107F097FEFA68731C534301336D4610
:1025B0005B006A46EB18B8687968FEF791F9BD468A
:1025C00005B0F0BD0C04002000000020F0B595B06F
:1025D00002AFF8613B1C786E6C331B7804780E1CDC
:1025E000BA613B60BD4D002C00D0F6E01378082B9B
:1025F00018D103F0D9FA2B6805209A69F969231CD0
:10260000FEF7CEF803F0D0FA3268B3680121062055
:102610000094FEF779F803F0C7FAB96905220C7047
:102620007A614DE268467860052003F0FFF9AC4B13
:1026300068461B689A6951005A6901324A43131C63
:102640000833DB08DB00C01A854602A9B960081C04
:10265000211C07F03FFE2B68FA699969B86805F0FC
:102660006DFCF860386105F09DFA9E4B42681B686E
:10267000AC4659688A4203DB99688368994208DA54
:1026800063461A680123111C7431FF320B701372F8
:1026900005E02B681A1C7432FF3314701C728F4CC7
:1026A00023681A1CFC32FE3359891068FDF7A6FD19
:1026B000796105F07BFDF968012911D12268E030CC
:1026C000131CFF33DC7900780021A04201D8D971B6
:1026D00002E00134DC7139617432012313700EE0C1
:1026E00023680022FF33DA711B7A934207D17E4BB5
:1026F000F8691B68B96833331A7805F0EDFC774A3E
:102700003869136800241A1CFF321472734D0128B3
:1027100015D103F049FA062003F088F93A69796E79
:10272000BB696E480A701C700368704974331C7072
:10273000201CA323221C0B7105F0E8F848E0694A2D
:10274000191C1268FE31D27849897869891A814248
:1027500001DD90421ADC191CFC310968914215DD3B
:102760007969914215D174331C78002C0DD103F096
:102770001BFAB3683268062000940121FDF7C4FFFC
:102780002B68FC331C6003F00FFA2B6874330022B3
:102790001A702B685649FC331A688A4201D00132FC
:1027A0001A6004F0BBFD04F057FD4F4B1B68333338
:1027B000187802F0C9FD002002F0E8FD386802F048
:1027C000CAFF04F06DFD02F099FBBA6EC4300260DE
:1027D0007B6805209D46786172E1434B1B68598FE9
:1027E000343379601B78BB60BA682B68101C1A60A0
:1027F00002F0AAFD062003F0F1F83068B168FFF797
:10280000B1FE7861052800D05AE1354C684625684C
:102810003860E96A0A01131C0833C01A854602A908
:10282000F960081C002107F055FDEA6AF868F168B4
:10283000FEF73CF9236868469A6A0E235A43131C34
:102840000833DB08DB00C01A854602A9F961081CC1
:10285000002107F03FFDF868F969F2683369FEF777
:1028600061F9FC6900251E4B1B689B6A9D4211DAC9
:10287000F268EB00D3182288A11C1A806288201C01
:102880005A80E2880135DA80A2880E349A8006F0F8
:10289000A1FEE8E7BB69396E1A78F86906F06EFFA9
:1028A000B969421ED2B208700C4B012A03D81A68CB
:1028B0000021FC325160032809D007281AD00128D2
:1028C00000D0FBE01B680022FC335A60F6E0386E53
:1028D00007F054FA041E1BD00DE0C0460000002093
:1028E0000C040020101100200C1100206F050020A6
:1028F000FFFFFF7F182404F0B9FE734B1B681B6CAD
:1029000018400123A3401840431E98414042044010
:102910007A68B868FA2150438900FDF719FC6B4EBC
:10292000051C33681A1CFF325279022A07D1FC3386
:102930005B68834203DDB86908230370002405F057
:1029400035FC396E381C0B6824301A88BA845B88D1
:10295000FB8406F06DFE3368FF335A79022A2AD1D0
:102960009B795A071FD5182C1DD1381C283004F02C
:10297000BDFEB98D24203B5EFA8D99421DDA388D5B
:102980000918994219DD26217B5E9A4215DA798D64
:1029900052189A4211DD012004F09AFEB88CF98C8D
:1029A00004F08AFE7AE09A0705D51A2C03D101209B
:1029B00004F074FE72E0002C70D1444B1B681A1CAA
:1029C000FF3251790122022905D1191CFC314968D5
:1029D000A94200DC0022B8690178082952D1D2B29C
:1029E000002A4FD004F0AEFE002830D00224381C5C
:1029F000221C3749203007F02BFC381C211C2030CA
:102A000004F014FF052004F041FF381C00212022AF
:102A1000283007F05FFC396E28220B7B2D21D3551F
:102A20002923DC55CB5D7F2293432A20C4551C43C8
:102A300080235B421C433B6ECA191B681470391C0F
:102A40000022009305202831131C04F025FF02F01A
:102A5000B9FF012002F06CFC786E00241B4B04705F
:102A60001B68201CFC335C601C6004F017FE201CFB
:102A700004F02EFE1749A223201C221C0B7104F027
:102A800045FF18E0FC335A6813498A4201D00132ED
:102A90005A6002F097FF02F075FE0CE02822022136
:102AA0002923D019D155DC5504F0C0FE02F08AFF6D
:102AB000012002F03DFC3868854601E0002427E74C
:102AC0007869BD4613B0F0BD0C1100200000002055
:102AD00010A300006F050020FFFFFF7FF0B5EBB0F3
:102AE000099370AB1B7808929A075B07DB0F06937C
:102AF0006B46D20F2E3300240F1C07921C70051C4E
:102B000002F0DEF902F0FAF9031CC4331B68061C5C
:102B1000059305F06BFB6B462F33182214A8211C7C
:102B20001C7007F0D7FB1AAB14934D4B1A68FF3299
:102B30005379022B10D192791A420DD0494BFA20C9
:102B40001B6880001B8F584303F092F902F0F0FBE2
:102B500002F010FC02F016FE43490020A223021CE2
:102B60000B7104F0D3FE3B78AB4202D004F0F2FDCF
:102B70003D703C4A3A4B12681B68333211781A1C7C
:102B8000FE324900518100229A6004F005FF041CC6
:102B900002F0DCFDA04204D0201C02F0DCFD042485
:102BA00035E0059914AB00936A46213B2E32019320
:102BB00002910023099903900898FFF707FD0CAFD5
:102BC000041C381C04F05EFD079A70AB50001A78A4
:102BD00002218A43069902430420890082430A4362
:102BE000049139781A7006231A400B409A420ED08D
:102BF00010AF381C04F046FD194B1A683B78FF32C1
:102C000093715A079B07D20FDB0F06920793144F5D
:102C1000164A3B689968914202D09A6801329A60DC
:102C2000052C0CD104F01AFD3A683023FF33D35C35
:102C3000834206D104F0FCFCA842A6D001E0042C9B
:102C400004D0059AC436326002F00AFF6B462F3377
:102C50001B78002B01D002F0B5FE201C6BB0F0BD3C
:102C6000000000200C1100206F050020FFFFFF7FF7
:102C700070470000F0B5A7B000AFF86402F020F98B
:102C8000D74B69461C68B8636568226868006A4368
:102C9000521953000833DB089200DB00C91A131CD9
:102CA0000A33DB088D46DB00C91AB8646846F8634E
:102CB0008D463963081C002107F00CFB636822680D
:102CC0009E005A43D3189A00131C0A33DB08DB001A
:102CD0006846C01A85466B46FF217B6207F0FAFA08
:102CE0006068236838625843396A6A464318073374
:102CF000DB08DB00D21AF96C954678610139684629
:102D00000022AD00F862F9617A64162910D8012317
:102D1000B44A8B40134206D1B34A134208D0B34B96
:102D20001B682E3302E0B14B1B6830331B787B6489
:102D3000BB6C786CAD085B08B6080138BD613B61BF
:102D4000FE6078637A6B013200D189E0F96902296B
:102D500003D9FB6C113B012B7ED8002002F066FEEC
:102D60009F4BA34A1E6815683368BC6D7B65BB62C8
:102D7000BB6A013BBB646CD37468013C611C65D0C9
:102D8000BA6AB36869695343E3180133FA6C9B006C
:102D90005858032A2AD004DC012A06D0022A0BD074
:102DA000EBE7FB6C113B012BE7D8E969A3005B580B
:102DB000C01AC343DB171840BA6CBB69396B534365
:102DC000E3189B0059583A6B401898507B6B002BC6
:102DD000D3D1B96C3B694B43E3185B00796C3B641E
:102DE000FDF768F93A6CFB6BD052C6E7B96CBB696A
:102DF0004B43396BE218920052583A64824200D237
:102E00003864396C3A6BE3189B009950BB6CFA68D4
:102E1000796A5A43A3189B007A605A5894468242B2
:102E200000D984467B68786AE118890062460A50B6
:102E3000386C7F21831AFD2B01D85B08D9B2FB6A5D
:102E4000B86C1A193B6A4343D15496E7BA6CBA621C
:102E50008EE7B86CBC657865796B0139796371E789
:102E6000FB6B00217B635E4B1A221B6818691E688E
:102E700078645D680533DB7F381C5C30BB6207F02B
:102E800029FABA6B05235C21CB5553795D20C355D4
:102E900093795E21CB53537AB86B6022D353837AF4
:102EA000FA6C6221CB53032A00D18AE004DC012AA8
:102EB00014D0022A15D09DE0FB6C112B00DA99E0AA
:102EC000122B18DD132B00D094E07A69F86A811870
:102ED000002203F00FFA0023BB6272E0F86B00F0EF
:102EE000ABF9F86B00F0A9F9381C00211A225C300C
:102EF00007F0F0F97EE0F86C11280AD1691E3C1C3D
:102F000000220123B9643962BE6358347A62FB62DD
:102F100009E0701E3C1C01210022B8633862BD64C8
:102F200054347962FA627E657B6D591E79647965E5
:102F3000002B33D0BD65BA6D531EBB65002AF3D09C
:102F4000786C796A3E694218B8694243F86AC118D8
:102F50008A18396B92005058796CBA694E434A43CB
:102F600084469A18386B920012582168386A9E1964
:102F7000760081420EDA6146FA208B1A80008918A9
:102F800058434910002900DC0121FDF7E1F8FA6BF4
:102F9000B052D0E7F86B00233352CCE7FA6CF86BF1
:102FA000112A02D100F04BF901E000F049F9381C78
:102FB0005C3000211A2207F08DF90023BE6B7B6480
:102FC00019E0F86A00217863381C5C301A2207F097
:102FD00081F9F96C032910D1786B00F02FF90CE01E
:102FE0000C04002004004000030003000C1100202A
:102FF00000000020BD64022301E0BD640123BA6C1F
:103000003C1C7834796C6270627921717F21B86AD6
:103010008A4313438022E0705242381C391C134308
:103020005C311A227E3063712670A57007F010F9AA
:10303000201C796B04F0A0FBBD4627B0F0BDC04654
:10304000F0B54F4B85B01B6800AF9A6939600168D5
:103050004568796051005A6901324A43131C0833AC
:10306000DB08DB006946C91A8D46F960081C00219F
:1030700007F030F9434CF86823682A1C996904F07A
:103080005DFF414EB860012822D102F051F9256858
:10309000BA682B1CFF33DA7233682869DB78BB60AF
:1030A0002B1CFE335B89191CFB60FDF7A7F8BA687F
:1030B0008A4209DCFB6828699B1AF968BB60FDF746
:1030C0009DF8BA688A420DDC743501232B7009E043
:1030D0003368281C5A78F96804F0FEFF2368002240
:1030E000FF33DA72FDF722FE2368FF33DB7A002B11
:1030F00007D002F047FB02F065FC002002F096FCCE
:1031000037E002F03FFB02F05DFC02F069F90120BC
:1031100002F08CFC02F0BCFA25682B1CFE335989A6
:103120002869FDF76BF8F960002907D12B69002B9E
:1031300004DD02F055F9F86802F078FC25682B1CD4
:10314000FE3359892869FDF759F83368DB789942CD
:103150000FD12B698B420CDD2B1C74331E78002E93
:1031600007D179680868696904F0DEFD2368743363
:103170001E703A680523BD46137005B0F0BDC04609
:103180000C040020000000201011002008B504F0FD
:10319000A3F908BD0C4B10B51B681A6B002A03DDA0
:1031A000996B5218D10F0BE000218A4208D10749D0
:1031B00009681224085F9C6B0121844200DB111C0A
:1031C0006833197010BDC0460000002010110020A7
:1031D00010B504F0EBFF164B164A1B68196B0A2951
:1031E00014DD041C84342488A1420FDA6424823064
:1031F000614300889C6B6043C14207D5191CE631CE
:103200000978002902D11168013100E00021116024
:103210001068191CF431032803DD01200870002018
:1032200010600A78002A02D0683300221A7010BD9C
:10323000000000206C060020704770477047704700
:103240007047000008B502F00BFC01F083FF01F0AD
:1032500033FF01F0E7FE0F4B1B681A7A0E4B1B6819
:10326000FC33002A01D0022200E003220B49DA617C
:1032700000230B700A49A0220B700A49D2050B707B
:103280009363D36B9B0E9B06D36362B603F0CCF8BB
:1032900008BDC0461C110020B801002029000050C4
:1032A000280000502A00005038B5041CFDF722F910
:1032B000051C04F07BFF291CF4310B78002B24D073
:1032C000124B00221B68DB6A013B07D31801201850
:1032D0000825405F0028F7D10122F5E70C4B1B6859
:1032E000186B002811D19D6B002D0ED1F833002AE8
:1032F0000AD01A68FE2A01DC01321A601B68052B0D
:1033000003DD00230B7000E01A6038BD0C040020C0
:103310000000002070B5051C0C1C161C04F04EFAB1
:10332000002802D001280AD02DE00E225643AD1904
:10333000EA88FF23FE2A00D8D3B2637123E00E226D
:103340007243AA18D188FF23FE2900D8CBB263713B
:103350000B250A23D35655570926ED1A08239657ED
:10336000D356F61AB54207DD281C0521FCF7F0FEFE
:103370004519A571E67106E0301C0521FCF7E8FE51
:103380008619A671E57170BDF0B5AF4B8FB01B68A3
:1033900003909E68DF68069604971E695F6905962C
:1033A000079700919F6904F00FFAA84B01261B684C
:1033B000E5331B780296002B5AD00026009D039C13
:1033C00002960196A24B019E1B681B6A9E424FDA31
:1033D0002B880AA803806B88438006F029F9042013
:1033E000235E002B3EDD238809AE33806388301CCA
:1033F000738006F01DF90021735E069A9A420ADA7C
:103400000498984207DD0221725E059E964202DA18
:10341000079E964224DC04202A5E002A1DDD8D4A88
:10342000019E12689420921980001218127A52B2EA
:10343000012A12DD069EF21B9A420EDA049EF21950
:103440009A420ADD09AB059E02201B5EF21B9A42DE
:1034500003DA079EF2199A4202DC0023A38001E0FE
:1034600001260296019E0835013601960E34A9E721
:103470000127039D01970024754B1B681B6A9C4222
:1034800000DB3AE1009E0AA83388038073884380FA
:1034900006F0CEF8002C0ED16F4B2C211A68FF31AC
:1034A0008A4204DC0121521819711A6003E01C6081
:1034B000DC801C811C710427EB5F002B00DCCFE05B
:1034C0002B8809AE33806B88301C738006F0B0F80F
:1034D000614B0020375E1A89D98804920222B05EBF
:1034E0008446002C17D109B2C91B07310E2912D806
:1034F000049E32B2121A07320E2A0CD81A79002A08
:1035000009D0524A1268E6321278002A03D1012209
:103510009A721C6002E0504B00229A724D4B96202A
:103520001968800009190B189B7A5BB2002B17DD14
:10353000494B9A7A002A13D006201E5E0320464388
:10354000F619F717BF0FBE1909AAB610168008267C
:103550009B5F58436044C3179B0F1818801050801E
:103560000AAB09AA6831178818885E8809783B4B2E
:10357000BC4652881B68002901D1413300E0423328
:10358000009F19780423FB5E002B11DD36B213B2C5
:103590009B1BDE179B1973408B4209DA674600B20A
:1035A0003BB21B1AD8171B1843408B4200DA94E039
:1035B000029E002E00D190E00BAE3378802149426C
:1035C0001943287BDF231940012318404023194366
:1035D00010230001994301430F23019F994339436D
:1035E0003170614608B27778001218409F4311B2DB
:1035F0000912384303400901F270AA88194363464F
:10360000B370131C12B27170FF2A00DDFF23311C4E
:10361000221C03983371FFF77DFE301C04F0DEF8A6
:103620000C4B009E1B680422B25E1B196833002AF3
:1036300001DD012200E000221A702B88009F3B80F0
:103640006B887B8049E0C0463811002000000020D4
:103650000C04002014040020340400203411002045
:10366000009F0423FB5E002B37DD0C220BA80021FA
:1036700006F030FE274B9A7A012A04D1D9880AAA8B
:1036800011801B8953800BA8037840210F22019ED3
:103690000B43934341783343037091430AAB0127B3
:1036A000DF571E888C465988DB7817405BB21B01B8
:1036B000049363461F43049B17403B434370154BE1
:1036C0000022DE8086709A721981C17004F086F83B
:1036D0002B88009E33806B887380AB88009E019A94
:1036E000B380EB88371CF38001320F2308371A4070
:1036F00001340E3500970192BEE6074B1B681A1D78
:10370000D26F191C743108330A70DA6704F07AF842
:103710000FB0F0BD3404002014040020F0B5B54B08
:10372000A1B01A6830230F901091FF33D35C0D9332
:10373000B14B0D9C1B680893B04B1B681B6A03932D
:10374000012C03D1AE4B1B68E13302E0AD4B1B688B
:1037500038331B78039D0E930E235D430F9F002487
:103760007F19039A0A950B973B1C02940C940E3B0D
:10377000013A0BD3D988029D8D4200DA02910427C9
:10378000D95F0C9C8C42F2DA0C91F0E79D4B012141
:103790001B680F9F1A1C4E321278039D91401A1C11
:1037A0004F3212785033891A1A78013D8B1ADBB2E6
:1037B00012930A9B04950E3BFB181C1C0593039B5C
:1037C000089D91270933BF00EA199B00049DD31877
:1037D000043409930695069F013700D1C7E00027FE
:1037E000E35F002B00D1BAE0864B0D9F1B681A1CCB
:1037F00043321578002F04D11A1C608802CA143392
:103800000BE00D9F012F0BD17D4B60881B681A1CAC
:10381000F8320D331168FF33043204F076F9061CD8
:10382000FCF768FEF4300278764B002A05D01A685F
:1038300029321278964200DA161C1A68131C443397
:103840001B78002B01D1642349E02B1C6E4F089D8F
:10385000EF191397787B1490002820D10021675E20
:1038600064217943D02080008C4629181D1C7543A3
:10387000AC4512DDB74210DC8D68AC460125AC4486
:1038800067468F605E4F3F6880373F78BC4506D102
:1038900013984573149D8D6001E000208860089F97
:1038A00059483D18697B002913D00027E15FD020DB
:1038B000089F8C4680003918B44508DD88680E9F43
:1038C00001308860B84204D10020687300E0002015
:1038D0008860089D4C4FE919497B0029B3D0089DA9
:1038E0009127BF00E919069D4819057D0027E05F73
:1038F000002D03D00E9F6DB2BD4220DC64214143F8
:10390000734399420EDB131C40331B78029D618880
:103910006B439B11994205DBD36B0C9F7B439B113F
:1039200098421CDA099D089F912000238000638043
:1039300023802B603B185A68013A5A600FE0283206
:103940001278324D724368435343984207DA099D17
:103950000023638023802B604B68013B4B60069FF4
:10396000099D013F043D06970E3C099533E7089CED
:103970009125AD00049E63190022039F5A609A1995
:103980001432109C0F9D06920A9EFA00A218029211
:10399000AA190C3A0392049A049F6C3252009A18A6
:1039A00004320D92049A9120743252009B1808330D
:1039B0000C930C237B438000089C1B18E3180F9387
:1039C000049F013700D127E30B9E0B9D0A3E002781
:1039D000F35F0E3D0A950996002B00D1ACE2069CE0
:1039E0000E9A237806320133DBB259B291420FDCD2
:1039F000237011E000000020140400200C040020BB
:103A0000381100203411002043030000102700006B
:103A10000E9B069D04332B70069E0023F356012B4C
:103A200009D1059F029B3A88083B039C1A80029BA0
:103A30002288063B1A80069E00257557012D65DDFC
:103A4000A81C0321FCF7DAFB029CCFB21197083CBB
:103A5000022D45D1CB4B029D1868CB4B0021625EF5
:103A600019680368063D9C460026AB5F4E690969EC
:103A700040684910511ACF170138C919000279401E
:103A8000401A7F280ADD76109E1BF0176746013F1B
:103A900036183F024640BF1B7F2F11DC059E039F57
:103AA0000020305E0021795E801AC91A04F0C8FF38
:103AB0000B2805D92388059C23802B88039D2B8008
:103AC0000323013B1CD30F9F059E5A00BA18308870
:103AD000111C5A31039C0880218860321180F0E764
:103AE000049D06236B43089EC9182288A74B4900F2
:103AF0007118CA52029B063B1A88A9239B00CA521E
:103B0000059F039C3F88248817971694A04B1B6839
:103B10001A1C9C321278012A00D095E09D331B7844
:103B2000049D9D4200DB8FE09A4B1B681A1CE63215
:103B30001288002A00D087E0CE331A78002A00D0FD
:103B400082E0914C059E23680021715E181C903024
:103B50000068039F4143181C0914943018910068B1
:103B60000021795E1A924143D02068430914069DD2
:103B700019911B92A03000221818AA561AA918AB46
:103B800000F04CFD2368049E90279B19BF00DA19B2
:103B90001178092901D801311170069C0022A25622
:103BA000012A05D19025AD005B191A7000229A7088
:103BB0000024049F3420D02660437743724DC019FF
:103BC0002968A030081818AA211C00F085FEA20060
:103BD0001CAB0134D050042CEBD12A68A037D0198B
:103BE0000A991AAA00F0F0FF049A2B680132564392
:103BF000049C9021F058FF311A19884215D990255C
:103C0000AD00511908780A280FD8897800290CD1FD
:103C10000433DB6F012B08D1029B059E083B1B88F8
:103C20003380029B063B1B886BE1902080001318B9
:103C3000594A19781268383212780132914200DC00
:103C400061E101229A705EE1069C00256557012D15
:103C500000DC58E1032D00DC3FE1049F06267E4393
:103C6000119F4A48BC19089F64003C19205A03213F
:103C7000079011980430FCF7C1FA89194900A9236B
:103C800079189B00E05A414ACB5A8F5A10909C46B3
:103C9000042D16D1029B059D083B0020285E0021C3
:103CA0005B5E039DC01A029BC2178018063B504002
:103CB00000215B5E0022AA5ED31ADA179B185340DC
:103CC00013E0059D0020285E0D9D0023EB5E039D03
:103CD000C01A0022AA5E0C9DC1170023EB5E40189B
:103CE000D31A4840D9175B184B400499089D2B4ABA
:103CF000C0186B189B181978274A002906D011683C
:103D000056310988884208DC002105E011685831E5
:103D10000988884201DB012119701B78002B3FD1F3
:103D200012688021131C5432128852331B8800926F
:103D30004A0003F0D9FE154F059D061C0021695E5F
:103D4000E05F039F0B1ADD175A196A4000257D5F5B
:103D5000A927BF009446E25FAD1AEA17AD18554097
:103D600065442B1C321C05F0E7FC059B321C1880B7
:103D7000E05F039C2B1C0021615E05F0DDFC039DD0
:103D8000288086E00C040020140400209E0200001D
:103D9000381100200000002034110020160300001C
:103DA000079C109DA1B2CF1B3FB2FB0FDF197F1004
:103DB000AAB213976746D31B1BB2059CDD0FEB1805
:103DC0000025645F039F5B100A94139C14930020EA
:103DD0003F5E0B190A9D149C15971BB2EB1A121922
:103DE000159DDF1712B2DB19AA1A7B40D717D2191B
:103DF0007A409B180024802B01DD1C1C803C11980C
:103E000003210530FCF7FAF9844B079A1F68089DD7
:103E100089193B1C4F3349001E78691810B25D7830
:103E20007F4A129B58438B5E7343C0180A9B6B43B7
:103E3000C0183B1C4E331A78513710410790109828
:103E40003B7807B212984743A9208000095E4E4391
:103E5000BE19159F14997D437519139E59437343D9
:103E6000079F1141134115418022F8186D18231C3A
:103E70000A99D20005F060FC059E039F30808022E5
:103E8000231C0021795E281CD20005F055FC039C00
:103E90002080029B099E043B0021715E0025585F33
:103EA0005E4D431A2F68DC171B1963403A22BA5E35
:103EB00005F042FC099E029B0B9C3080023B083CB3
:103EC000188821882B683A27DA5F431ADD175B19B7
:103ED0006B4005F031FC208015E0029B059E083BFD
:103EE0000022B25E0027DB5F059CD3185B102380A5
:103EF000029B039D063B0022AA5E00269B5FD3180F
:103F00005B10039F3B80069C0023E3560E9DAB4253
:103F100000DC7CE0099E0023F35E002B67DD029B42
:103F2000043B0027DB5F002B61DD179D0D9C169F76
:103F30000C9E258037805AE0069F0022BA560E9CC0
:103F4000A24230DD0299043900254A5F002A32D0AE
:103F5000089E9127BF00049DF2195419A07F0130DB
:103F6000C0B2A0772D4C40B2246839342478A042E6
:103F700002DD069E33701EE0029B059F083B1B88F6
:103F8000039C3B80029B099D063B1B8823800B887A
:103F90002B80029B023B19880B9B083B19805368BE
:103FA0000133536007E0089F049C1E4D069E3A199A
:103FB000521933701370049E069F013E029C059DAA
:103FC00004960B9E013F083C0E3D0E3E0697029460
:103FD000039F0D9C05950B960C9D0F9E0E3F023C7A
:103FE000023D0C3E03970D940C950F96E8E4089C57
:103FF0009125AD0063195A6801325A60089C9125D9
:10400000AD00049E63199B1900229A77D3E7012320
:10401000099E5B423380F1E721B0F0BD34110020EE
:104020009E0200001603000008B5FFF777FB08BDED
:10403000F0B58FB0059007910A920B930024404B86
:104040001B68DB6A9C4278DA059F2301FB18082075
:104050001B5E002B6FD0079FA300FB180327DF57C1
:1040600008979B78013F5BB206930497089F0498DA
:1040700001370997B8425EDC069E013E069B01337C
:104080009E4255DC2E4B04991B6801319A680A9FA9
:104090005143481C80193D5C013D47D3DB6A9D427A
:1040A00044DAAC4242D0079FA300DB5F254F4000BB
:1040B0003F687F8EBC46149FC05B834236DC069F00
:1040C0006046C91943430131149F4900C95B9B11E4
:1040D0008B422BDA099F7A43B2180132149F5200A7
:1040E000D25B934222DAA54202DB2B1C251C1C1C4E
:1040F000059821010DAF41180A31381C042206F041
:10410000A7F8059A29015118381C0A3104F0F8F86B
:1041100000970A9F231C01970B9F05980297149FF5
:10412000079903972A1C04F009F92C1C0236A5E70D
:10413000049F023799E7013481E70FB0F0BDC04614
:104140000C04002034110020F0B595B00F920C1C27
:104150001390FCF7BDF9FCF7C7F9A14B07261B68C4
:104160001A7B0996062A00D809929E4A1268F432F0
:104170001278002A05D11F7A08970A27DE5F079672
:1041800006E0994B1B681E7A08960A201F5E079767
:10419000964D97492B680F9F1A685E680A709A6857
:1041A00004238A7001329200CB70BA185123022086
:1041B0004E700B7103F0AAFB0023A21DD3770232CD
:1041C000D3777F26631DDE77E31DDE77854B1B6883
:1041D0000A93E5331B78002B09D129680C930A68F0
:1041E0004968013A0139C9B2D2B20B9104E00E20FC
:1041F00001210B9010220C91794B00261B682D6831
:1042000005937C4B52B21B6806960D937A4B019630
:104210001B6811930C9843B29A4200DAA8E00B9FF6
:10422000500079B20E90002900DA9FE0AB68571C6D
:104230005F43059B01377F18BE0002971B780F9FD5
:10424000F059002B16D030230A9EFF33F65C012E66
:1042500005D12E680D9F4E43BF18BE5D04E06E6809
:104260000D9B56435B189E5D331C4343119E36697C
:10427000734318136B681A9F5343CB189B00DE5986
:10428000330C1B1A0298139E4700BB53059F002B4B
:1042900058DB0E26BE57B34213DB20689E1B8619DF
:1042A00026606669381C013666610F26BE570E27E8
:1042B000C7576068B34201DCDF1B00E0F71BC7197A
:1042C0006760E768BB4204DDCEB2D7B212961097A2
:1042D000E360099EB3421BDB261C08361F27F757F5
:1042E0008F4200DAF177E61D1F27F7578F4200DD76
:1042F000F177A61D1F27F757974200DAF277661D60
:104300001F27F757974200DDF277069F0137069780
:104310001C9E4F00F65B98B20297B446844403900B
:104320001C9F029866463E520E981B9F1B9E3F5A4A
:104330000398BC4684440E9F6046F053019EF618D5
:10434000019611E01026BE57B34206DCA0689E1B02
:104350008619A660A6690136A6612669B34200DA0D
:104360002361019FFF1A019701395CE7013A51E788
:104370001E4B01981B680125D968FBF7E9FE1F4910
:104380007C235B42221CCB70E06176231C32281C0C
:104390000B714D7003F0BAFA069EA21D26621F2112
:1043A000631D51561F229A56134B1B68914201DB25
:1043B0001D7301E000221A73129F109E231C2833E4
:1043C0005E701F70E768089E0120B74205DA236916
:1043D000079FD80FFA179F425041C0B215B0F0BDE9
:1043E0002811002000000020301100200C040020C3
:1043F000680500202C11002010040020C0010020BE
:104400000B4B09681A683023FF33D35C094A1268E2
:10441000507B48438011002B01D1137B04E0012B1A
:1044200005D1054B1B68DB79984200DA181C7047F0
:10443000000000202811002030110020F0B597B0B6
:104440001E1C5D4F1CAB1B780A923A6806900C1C30
:104450000B93032151562020411A02201056490087
:10446000091A4910554DC9B205912B68907A1978EF
:104470001B790090D27A05980192029072681D987B
:1044800005F0F2FC38682B687268067A19791B7897
:104490000096407A059E019002961E9805F0E4FC75
:1044A000002124220DA805F015FFA3687F22180A19
:1044B000190C00260C932272A27240B25AB249B271
:1044C0001B162F686672E672059007910893049692
:1044D0000598824251DC1D9D5300EB180993079B00
:1044E000089E501CB34246DCB9680A9D41435918E6
:1044F00001314E00755F5900AC461E9D6646691835
:104500000989761A0999B4460E896546A91B0B9E3E
:10451000B14213DD0B2565579D4200DAE3720A258F
:1045200065579D4200DDA37209256557954200DA63
:10453000627208256557954200DD2272CD1F072D56
:1045400008D80DADED5C0126AC46B44466460DAD11
:10455000EE5401E0002904DD049D8D4202DA04914D
:1045600000E00021BE68069D7043181801308000ED
:1045700041510133B4E7021CAAE70CA80DA9069A21
:1045800000F080FB0D4E0E493368049D5A6825608B
:1045900018684A709A68069D8A707C2301325B42D3
:1045A00092000870CB70AA18832305200B7103F0CA
:1045B000ADF917B0F0BDC0463C1100200C0400203E
:1045C00068050020114B70B5444201209C421BDC61
:1045D000201C0F49FBF7BCFD0D49421C0D1C554327
:1045E000661BF317F6185E400A4B4000C05A520093
:1045F0007043094EAD19641BE51764196C40D55A18
:104600006C430019FBF7A4FD70BDC0466F1101009B
:104610001027000012A30000F0D8FFFFF0B50F1C18
:10462000AC49D3B00E6804909E36012A25D11C688F
:104630005868049B0021FA221A63013100221C6091
:10464000D8605A601A619A605A619A61DA611A6296
:104650005A629A62DA6234330429ECD1049DC82389
:104660002A1CDB000432AB61EB64AB65D367883294
:104670001360936093625363D3630024A20000230A
:104680009219181C1A255D4304994D192D6BD15AA6
:10469000023369434018082BF4D1FA218900FBF753
:1046A00009FD38530234082CE8D10AA80021102251
:1046B00005F010FE002534236B4304980EA9C3189F
:1046C0001B6B00240693EB00F31805932B0159187C
:1046D0000791059A069B105B395B5843FBF7EAFC90
:1046E000079963002822C850D218694652582833C7
:1046F000101802345850082CEBD10135042DDAD1B2
:104700001EA80021D0220EAD002605F0E3FD20AC4E
:10471000079506960023049A1E1C181C079F15680F
:10472000F95810334D434019D5683432694376182F
:10473000402BF3D1069F6946BB0028335D58271CE8
:10474000291CFBF705FD083F3860291C301CFBF7CE
:10475000FFFC069E6060002E35D00023049A1E1CCC
:10476000181C079FF958576810334F43C019176931
:10477000343279437618402BF3D1291CFBF7E8FC3F
:10478000271F3860291C301CFBF7E2FC069EA06046
:10479000012E18D00023049A1E1C181C079FF958DC
:1047A000976810334F43C0195769343279437618EC
:1047B000402BF3D1291CFBF7CBFC291C2060301CBB
:1047C000FBF7C6FCE060069D079E013504360695A2
:1047D00034340796042D9DD126AC0027BA000EABC9
:1047E000D01801920023049A9C46069307930593E0
:1047F00008930993C1589569069E4D43AC44D56909
:1048000010334D437619156A06964D43079E761967
:10481000556A07964D43059E7619956A05964D4350
:10482000089E7619D56A08966943099E343276182F
:104830000996402BDED101990AA80D586046291C23
:10484000FBF786FC261C083E3060002F1BD0291C7D
:104850000698FBF77DFC261F3060291C0598FBF7A6
:1048600077FC6060012F0ED0291C0798FBF770FCC5
:10487000291C20600898FBF76BFC291CA060099894
:10488000FBF766FCE06001373434042FA6D1049BAB
:1048900000211EAA8D58521856689768D0681D606E
:1048A0005E60156956699F609769D8601D615E6199
:1048B0009F61D069156A566A976AD26A3431D861A5
:1048C0001D625E629F62DA623433D029E1D153B057
:1048D000F0BDC04638110020F0B5B74B91B0041CB4
:1048E00094461B68012912D007DC00291BD1BE3376
:1048F0009F881D780297DB8814E002290DD00329D8
:1049000011D1BE331F8ADD7802975B8A0AE0BE337D
:104910001F895D7802975B8904E0BE339F899D788B
:104920000297DB890693012D61D0002D4DD0022D19
:104930007BD1A768636820681911DB1908977A1181
:104940000A93676923690918E0688A181911DB1945
:1049500009180D920B937A11A36A8A180C92DE0F34
:10496000E26AF6187110206AD60FB6187610099709
:10497000C718BF190197A069E7693F18206A039714
:10498000C70F3F1803987F10C719E0693F18606A86
:104990003F1801987F180397C70F3F1803987F109F
:1049A000C7190497606AE7693F187818216A676A2F
:1049B0004018F918C018C91880199B188918039055
:1049C0000E910793029BD6183BE02768A0690D97CC
:1049D000E7682E1C0C97029F07953F1804970E95C9
:1049E0000195039509950B9508950A9529E0676847
:1049F00020683B110A9727691B18E0683A111218C2
:104A0000E0690C92A269616A0D930B97029B4700C3
:104A1000BF1800267F184018C918049703900E91FC
:104A200007960196099608960BE0002607960E96C3
:104A300001960396049609960B960C9608960A968C
:104A40000D9667463F680D983F1A60464368029787
:104A500004980C9FDB1BC7173F0F05933F18069B5D
:104A60003F11FF18391C8001FBF772FB0399069078
:104A70008801391CFBF76CFB019A0F90391C9001DF
:104A8000FBF766FB0D9B06999A02029B4B43D318DA
:104A90009B1223600A9B0F999A01029B4B43D318E8
:104AA0001B019B126360089B0C999A01029B434374
:104AB000D3181B019B12A3608A02059B06994B43E6
:104AC000D2189212E2600B9A0F999301059A4A4309
:104AD0009B181B019B122361099B06999A01059B58
:104AE0004343D3181B019B1263618023049ADB00AC
:104AF0005B1A5A43D117890D8A189212A261002DB0
:104B000005D1E56125626562A562E56239E0039A37
:104B10005A43D117890D8A189212E2610F9A0399AC
:104B20005242514304920E9A8C469202111C6144E7
:104B30000392CA17920D9446614489126162022D54
:104B40001BD10199019A4B43D917890DCB189B12A0
:104B50002362049B07995A438B02D318DA17920DEC
:104B6000D318019AB6025043301AC617B60D301842
:104B70009B128012A362E06203E000232362A3621F
:104B8000E362029A059B52435B43D3180B4A93425C
:104B900005DC64205843391CFBF7DAFA00E00848CA
:104BA00040104042FFF70EFD064B391C5843FBF7FF
:104BB000CFFA11B0F0BDC0463811002014AE470145
:104BC000FFFFFF7F10270000F7B50024051C0191AF
:104BD000171C0093261C009962003B5B8858FA2141
:104BE00058431A236343EB1818638900FBF762FAF2
:104BF00002348619082CEED100242F19386B311C91
:104C0000FBF758FA002801D0386301E001233B6329
:104C10003434D02CF1D10024201C261C221C2B6BF8
:104C20002968013259430818E9689E1959433435F7
:104C30000C19042AF3D1311CFBF78AFA311C051C2C
:104C4000201CFBF785FA041C002D01D0002806D19A
:104C50000A490020FA23021C0B7102F057FE084B90
:104C60001B681A1C98329C3312681B6855435C43BE
:104C7000019A2D14241415805480F7BD6F0500206F
:104C800014040020F0B5574B93B000AFB962196817
:104C9000161C4A6838640868131C43435B000833D9
:104CA000DB08DB006C46E41AA546F8633B6C6846FB
:104CB0007863DB783C6C5BB27B62A478550064B2AD
:104CC00094463C63FD62221C786A824258DCB86AD2
:104CD000835C082B52D93C6C0023E3566046584352
:104CE0000125655710187C6B40003D622018002597
:104CF000F861BD633D6AAB4240DC0624002B09D05D
:104D00008868584380188000345830184568806897
:104D1000641924188868013378615843801880002A
:104D2000355830186419F860FD6B8068013DB86033
:104D300020185C1EAC4211D07C695D1C6543AD1827
:104D4000AD00BD61755940197864B8697C6C35183F
:104D50006868AD6824187C64641900E0841DF868F4
:104D600045680320684304190D204443FD69B86B6E
:104D700024122C52FC6A0019B863BBE70132A3E786
:104D80006246D3079A1A3B6BBA633D6C0322AA565C
:104D9000934223DCBC6AE25C082A1DD93D6C0022E8
:104DA000AA5664465443B86B7D6B2418E41864001B
:104DB0002C197C640020FD6A3C6C40190125655764
:104DC000AA4209DC8D68013255437C6C5D190135BE
:104DD000245AAD00AC51EEE70133D6E7BD4613B01F
:104DE000F0BDC0460C040020F0B5304F85B00190F6
:104DF00038680A1C031CFF3302905E790B1C1433C5
:104E000003930023022E2AD1029CFF34A47934425A
:104E100025D01478012C07D10D7D651BE8172D18BE
:104E20004540072D0DD108E0052C12D10D7D641BE6
:104E3000E01724184440012C07D1541A0E2C12DD1F
:104E400013E05578002D06D00DE05478002C0CD0DE
:104E500009E0022C07D0033C012C06D803E01078AF
:104E60000C7DA04201D00133DBB2039D0132AA4286
:104E7000C8D10022022B15D80198012303700B7DA5
:104E8000591EC9B2062901D8094A525C3868FF3058
:104E90004179022906D18079084203D0063B022BD2
:104EA00000D81A22101C05B0F0BDC046000000203A
:104EB00022A30000014B18607047C0461C1100205F
:104EC000014B18687047C0461C110020014B186048
:104ED0007047C04618110020014B18687047C04643
:104EE00018110020014B18607047C04614110020B3
:104EF000014B18687047C04614110020014B186818
:104F00007047C046B8010020F7B50E4B19688B7981
:104F10005F1E15D34A79013A10D34D79561CAC1C4B
:104F2000019401242540019C65195D437419064DC7
:104F3000A40064192568C5402560ECE73B1CE7E741
:104F4000F7BDC0461C110020004000508D23013BDE
:104F5000002B01D0C046FAE7044B10221B78DBB2CD
:104F60001807C00F134018437047C0462B0000506D
:104F70000F4BF7B518261E700E4BA0271E70FFF7BB
:104F8000E5FFFF050B4B01AC00252C3760701D7051
:104F90003E70FFF7DBFF064B20703D701D702378DD
:104FA0006278181C5040400013400343D8B2FEBD45
:104FB0002A0000502D00005010B50D4B00201B782A
:104FC000AA2B12D10B4B1C780B4B64B218780B4BED
:104FD00040B219780A4B20181A780A4B49B21B784C
:104FE00040188018C01A43425841C0B210BDC04694
:104FF0005000020051000200520002005300020063
:1050000054000200550002008023DB0200221880B9
:1050100059809A80C046024B188880B27047C046BB
:1050200006000400154BC022920098581449014014
:1050300099509958FF208143402001439950985836
:105040001049014080200004014399509858802164
:105050000002000A09060143995002221A60012247
:105060001A60082104221A601960FC33002159607B
:10507000054B19690A431A617047C04600E100E018
:10508000FF00FFFFFFFF00FF00ED00E013B5094A3E
:10509000042413780021DBB21C4301910198F42110
:1050A000FF31884205DC1370C0461470019901314C
:1050B000F3E713BD0D00005082B00022019201AB56
:1050C00055221A70392252429A700122DA70019ADE
:1050D000A023DB059A6102B0704700000122A023E3
:1050E000DB051040020603499869084010439861A7
:1050F0007047C046FFFFFFFE82B0002201920122EE
:105100000A40891801303F2201AB1040C9B2187023
:10511000481C023102408900D9705A70019AA023BC
:10512000DB05DA61196A024A0A401A6202B0704766
:10513000FFCFFFFF0002064B000A01380022586033
:105140009A6005221A60C0461A68D103FCD57047E0
:1051500010E000E0F0B5534F85B03B681A1C5032A8
:1051600015780232196D127853331E780F23140705
:10517000994312092D0701922D0F0B1C80222B43FE
:1051800052001343484A0395484D1340484A2B4068
:1051900048491340240F0B400199220413430A0588
:1051A00045493607360F0B40009613433206434EEF
:1051B000029433401343424AA024E4051340E360C1
:1051C000FFF764FF3B68E26851331B781540DB064C
:1051D0009B0FDB021D43E560E26880239B001343C5
:1051E000E360E26880239B011343E360029C039D1C
:1051F000FFF7E2FE002813D0324F882039781E34A2
:10520000C9B2FAF7A5FF39784443C9B28820FAF742
:105210009FFF0F3545431E3C00230F3D9C4203DB9F
:10522000231E0F2B00DD0F230F22954200DD151CDE
:10523000A024E4051F491A40E36812040B401343FD
:10524000E360EB43E268DB171D400F239A431D40E8
:105250001543E560E368F022934380221343E36043
:10526000E368154A18481340E360E3683340E3609D
:10527000FFF760FFE26880235B051343E36000995A
:10528000E2680B0616401E43E6601048FFF752FF27
:10529000019B09491A05E3680B401343E36005B01D
:1052A000F0BDC04618110020FFF9FFFFFFE7FFFF28
:1052B000FFDFFFFFFFFFF0FFFFFF0FFFFFFFFFF02C
:1052C000FFFFFFEF54000200FF0F0000FF6F000020
:1052D000064A074B12680120FC32D26919789040C7
:1052E000021C0A43D2B21A707047C046B8010020AF
:1052F000290000500549064B09681A78FC31C96934
:105300000120884082431A707047C046B8010020CF
:1053100029000050044B1878044B1B68FC33DB69F0
:10532000184101231840704729000050B80100209F
:10533000044B82B0019001AA188092789A7002B052
:105340007047C0462400005007B500F06DFD064BC5
:10535000019001AA188092789A70044B00221A706A
:10536000034B0122DA7707BD240000500011002012
:1053700008000050034B00221A70034B0122DA7719
:105380007047C046001100200800005072B6084B5C
:105390001B5C002B03D1C04662B630BFF6E762B695
:1053A000A023DB059968034A0A409A607047C0460B
:1053B00000110020FFFFF9FF72B6074B1B5C002BAA
:1053C00002D1C04662B6F7E762B6A023DB05996852
:1053D000024A0A409A60704700110020FFFFF9FF5F
:1053E000A023DB055A680121120E58689143034A35
:1053F000090602400A435A607047C046FFFFFFFE9D
:1054000008B5074B1B681A1C5732127858331B78A3
:105410005200013250439940FAF79AFE08BDC04647
:105420001811002008B5044B1B685A33197849003D
:105430000131FFF7E5FF08BD1811002008B5A023D2
:105440000120DB055870FFF7A1FFFFF7C9FF08BD7A
:10545000F7B5A026041CF605042808D005280ED1AF
:105460005A4B1B681A1CE4321768E83305E0574BA7
:105470001B681A1CEC321768F0331B6821E0544B90
:105480001B685F6C9B6C7361FBF734F8E730037843
:10549000002B17D004F0B8FE04F0E0FD81787F22E5
:1054A00011408904019171690B1C4A490B40019913
:1054B00019437161C178474B0A40716992040B40EE
:1054C00013437361A023DB051F611E691F231E4068
:1054D000FFF772FD00280AD03F4B88201978043668
:1054E000C9B2FAF735FE46430023043E03D4331E07
:1054F0001F2B00DD1F23A022D205108A1F210B4085
:10550000884303431382032C34D005DC012C2DD0B7
:1055100013DC002C11D030E0052C0AD005DB062C62
:105520002BD12A4B1D68FA3527E0284B1D68F4352E
:1055300023E0264B1D68F7351FE0FAF7DBFF031C5D
:10554000CE331B78002B03D0204B1D68533514E05D
:10555000E7300378002B05D004F056FE04F07EFD02
:10556000051D0AE01A4B1D68563506E0184B1D68EC
:10557000593502E0164B1D685C35A023DB055969DF
:1055800028783F22104091430143596168781F21D8
:105590005D6908401149C002294001435961104921
:1055A000640009680C19211C9A3108785968104068
:1055B0009143014359609B34217858680A40110295
:1055C000084A02400A435A60F7BDC0461C11002039
:1055D00018110020FFFF03FE54000200FF07FFFF29
:1055E000B8010020FFC0FFFF244BF7B51A68244B19
:1055F0001B6859331B785B069B0E0193131C4933C0
:10560000197800238D005519581E5B18002B27D0E0
:1056100053181B184A331B788024D3185E78A023B4
:10562000DB055F68E4033C435C60019CB606240430
:1056300000945F68B60EBC46124F64462740009C3B
:1056400027435F60C046243676008400F65A2C1942
:10565000C83426605E680C4C34405C60031CD3E7A1
:10566000131C493309491B78C8324B700423CB7093
:105670000F20B0230B7102F049F9F7BDB8010020EB
:1056800018110020FFFFC0FFFFFFBFFFC001002077
:10569000F7B5FFF7A9FF134B00241D682B1C4933F6
:1056A0001E78731C9B005B420093B300EB180193C0
:1056B000009B043C9C4208D0019B01211F19C83764
:1056C0003868FFF79DFE3860F2E707492A1C04237B
:1056D000CB70C832B0230F204E700B7102F016F958
:1056E000F7BDC046B8010020C0010020044B0022D5
:1056F0005A70A023DB055A7001221A707047C04609
:1057000000110020A023DB059968064A0A40802189
:1057100089020A439A60044A0021917001229A701A
:105720007047C046FFFFF9FF00110020024B1B68C5
:10573000C03318687047C046B8010020024B1B6890
:10574000C03318607047C046B8010020A023DB05B5
:105750009868C0B2704730B5A023DB059B68DBB208
:1057600083420ED001DA013300E0013BA022D205D2
:105770009568FF211C1C8D430C40291C214391601E
:10578000EEE730BD08B50020FFF700FE08BD0000C1
:10579000034B1B6857331878400001307047C046F0
:1057A00018110020024B1B68583318787047C04608
:1057B0001811002000487047001000500048704742
:1057C000002000500048704700400050084B012066
:1057D0001B685B799A1C0340D318064A12689532FD
:1057E000107801385843044B8000C0187047C046F9
:1057F0001C110020B801002000400050074B012080
:105800001B685B799A1C0340D318054A12689132D1
:1058100010785843034B8000C01870471C110020BB
:10582000B801002004400050F0B585B000AFFAF791
:1058300061FE5F4B1988031CCC331A888A181A80C2
:105840005C4B1B681A78BB6053B2042B27D15A4BB0
:105850001C68231CF6331B78FB60FFF7B7FF02229E
:10586000561EB44600D2A0E06379013B15D365799A
:105870000121AE1C0D40711951430131CD18AD000D
:105880007D60BD68EE185E3636787D6889198900BE
:105890000958FE68F1402950E7E76246E0E7052B2A
:1058A00021D1454B1C68231CF9331B78BB60FFF7E3
:1058B0008DFF0423591EF96077D36279013A10D322
:1058C0006179551C7D6001258E1C29407118594352
:1058D0007D68BE686D18AD0045192968F1402960E2
:1058E000ECE7FB68E6E7002A45D0022B0BD1CE306F
:1058F0000378002B03D0304B1B68553338E02F4B17
:105900001B68583334E0032B03D12C4B1B685E33E8
:105910002EE0012B27D16D467D60FFF76FFF264BF0
:1059200069461B68061C5C79A5002B1C0A33DB0842
:10593000DB00C91A8D466B46FB60013C0BD3B9688E
:105940000B195E331B789B009859FFF76BFDFA68C3
:10595000A300D050F1E72A1C301CF96804F078FC51
:105960007D68AD4607E0062B05D1134B1B68FC3361
:105970001878FFF7C9FA114B1B6855331B78002BB9
:1059800013D00D4B1A685379013B0ED35179012581
:105990008C1C294061189479581C6143084E4018AA
:1059A0008000801900210160EEE7BD4605B0F0BD22
:1059B00070000050B80100201C11002018110020B8
:1059C0000040005008B5A0230120DB055870FFF708
:1059D000DDFCFFF705FDFFF727FF08BD70B5041CD0
:1059E000104E114D11D10120FFF732FD3368012215
:1059F0001A70A023DB056C705C701A70FFF7E2FF71
:105A0000FFF7EEFCFFF744FE0224201CFFF720FD09
:105A1000336800221C70A023DB056A705A700122D3
:105A20001A7070BDB80100200011002008B5FFF702
:105A3000D5FFFFF7C7FF08BD10B5A023DB051C6A23
:105A40000005064A000D010422400A431A621A6A40
:105A5000120B12031043186210BDC046FFFF00F086
:105A600073B5174BA0221B68D2059168D96C4C33D3
:105A700091601C78FFF7A0FA124D002812D0124B4B
:105A8000124A1B7812782E6852B25BB20092201C28
:105A90001021D12202F028F82B68C4363060C433BC
:105AA0001B68E418002C01DA002402E0FF2C00DD62
:105AB000FF242B68E0B2C0331C60FFF74CFE73BDBF
:105AC00018110020B801002053000200520002000B
:105AD00008B5002801D0012801D100F0A5FCFFF78E
