:100000004D424E014D3448504801040001000000AB
:100010006000000000C000000000000000000000C0
:100020000000340100000000000000000004000097
:1000300001004801010026000004000000980000B3
:100040000200040127002B00009C000000140000A7
:10005000030004012C002F0000B00000001000007D
:100060000038002021020000000000000000000015
:100070000000000000000000000000000000000080
:100080000000000000000000000000000000000070
:10009000000000000000000000000000550000000B
:1000A00057000000450100006D00000081000000C5
:1000B00000000000FEE7034B01221A70024B0022F1
:1000C000DA7770470000002008000050034B01223F
:1000D0005A70A0230022DB051A7070470000002030
:1000E000034B01229A70A0230022DB059A7070470F
:1000F000000000208D23013B002B01D0C046FAE711
:10010000044B10221B78DBB21807C00F13401843B2
:100110007047C0462B0000500F4BF7B518261E70D5
:100120000E4BA0271E70FFF7E5FFFF050B4B01AC40
:1001300000252C3760701D703E70FFF7DBFF064B0B
:1001400020703D701D7023786278181C504040006C
:1001500013400343D8B2FEBD2A0000502D000050CA
:100160000023036030B50B601312012B13D104235D
:10017000013B10D3084DD4B25D5D641BF8D4074A2F
:100180009D001268AA58002A05D012190260044A7C
:10019000D35C1C1B0C6030BDCC030000C803000006
:1001A000D003000070B58022D2051379DBB2002B9A
:1001B00019D1294C6360A360284B1289261C251C89
:1001C0001B6892B210361435E260301C291C002BDB
:1001D00006D098472169002932D1E268301C291CD9
:1001E000FFF7BEFF2CE0012B0CD11B4B1869002838
:1001F00026D099685C69A14222DA4C1C9C60137A73
:1002000043541DE0022B16D1134C2369002B17D049
:1002100060686169884213DA1B5C1BBAD360104BBB
:100220001B68002B03D0E268101880B298476368FF
:100230000133636004E0032B02D1074B00229A6074
:10024000C0468023DB0501221A70C04602221A70C4
:1002500000221A7070BDC046000000203800002047
:100260003400002080230222DB05FF321A600421C3
:10027000024AFF31118000221A70704706000040C8
:10028000F0B5A023DB059B68534A1F218DB0DBB27C
:100290001160D12B0BD0D02B01D80133DBB2A022BF
:1002A000D2059168FF20814319439160F1E74B4BE0
:1002B0004B4A191D043B934203D200221A600B1CC7
:1002C000F6E7FFF7CFFF474A8023DB021A80464A52
:1002D0000027093A92B25A809F80C046434ADE887E
:1002E000434D10685268434C0A922A8809ABB6B253
:1002F0001A8123625E810990FFF70EFFA023DB05C0
:10030000DA7C03AB1A7034214D225A7099705A71FD
:1003100048214522D9709A7150219A221971D871B9
:100320006362520005AB0597A3611A8007AB0122F7
:100330000797E3615A70304B0697DA892F4B08977D
:100340005F882F4B211C1B8828310B70211C1B0A36
:1003500029310B702B4901235B420B702A482B4932
:1003600003700B702A48211C2E312F3403700B7040
:1003700023702B889E4229D1264B9A4226D0BA421E
:1003800024D1254EF7899F4220D0F689B446234ECA
:100390007788BC451AD1224FF889984216D0FF8938
:1003A000EB889F4212D1174B17481A70120A7388B4
:1003B0000270164A9BB2164813701B0A0370EB8832
:1003C0009BB20B701B0A237000F052F8154B0222EF
:1003D0001A6062B6FEE7C046280000500400002004
:1003E0003C0000200004000000C00000F0BF00003E
:1003F000F8BF00000000002000040000FC9B00008B
:10040000FE0300002A0000202B0000202C0000200A
:100410002D000020FFFF0000009C0000FCAF00004A
:1004200000B0000000E100E0180000202030407023
:1004300008080C08FFFFFFFFFFFFFFFFFFFFFFFFA4
:10044000FFFFFFFFFFFFFFFFFFFFFFFFFFFFFFFFBC
:10045000FFFFFFFFFFFFFFFFFFFFFFFFFFFF340175
:100460004D344850434F5432000000000000480112
:10047000F0B5C9B002AF03F06CFE05F0EFFAF86119
:1004800008F08CFE08F0BAFE09F0F2FB00F0C6FDA1
:10049000C94ACA4B1A60CA4ACA4B1A6005F0DEFA4A
:1004A000F862052800D1B5E216D8022800D171E221
:1004B00007D800282BD0012800D15EE2FD6AFD613B
:1004C000ECE7FE6A032E00D195E2042EF6D105F08A
:1004D0004BFB02F053FD98E2FD6A092D00D1B0E21A
:1004E0000AD8062D00D19EE2082DE7D105F03CFB8D
:1004F000012002F01BFA9FE2FE6A0B2E00D1B5E24A
:1005000000D2A7E20C2ED9D105F02EFBC0E205F0F7
:10051000BBFA041E18D00128D0D1AB4B02221B68B5
:10052000391C1E6A1D69FE60FE6A1A6254311E6122
:10053000301C3F23321C8E80BD607E650B7105F040
:100540008DFBBE627C62A8E00124012C02D0022C4B
:100550000BD08BE0002002F0E9F903F00DFAC0B2F5
:1005600005F0CAFB022002F04BF8974B6D461B6862
:1005700000215E681C681B697443E3189B000A3302
:10058000DB08DB003E1CE81AD83685461422301CF6
:100590003D6208F07BFF3B1C7A1C8833FF325A60B7
:1005A000143A9A60391C283ADE601A617C31143A98
:1005B000864E4A60143A8A60326802AD5361844BB9
:1005C000A4001B682C1991611560BC6254602D3326
:1005D0001A7869465200131C0833DB08DB00C91A7D
:1005E0008D4602AB181C00217B6208F04FFF281CCF
:1005F000B96A00F043FEF869002801D005F0B4FAAA
:10060000744B00221B681A6005F070FB041C03F099
:10061000B3F9A04204D0201C03F0B3F902241CE07B
:10062000796A3A1C00913B1CB96A88327C33281CD9
:1006300001F0BCFE674B68491B68041C1A688A42BB
:1006400001D001321A60002807D105F01DFA0028F8
:1006500003D105F003FA0028D6D0326800231360D6
:100660005360536193613D6AFB61AD4605F00CFA3E
:10067000002800D022E705F0F1F9002800D164E756
:100680001CE7022E0FD005F0FFF9012800D06DE124
:1006900005F0E4F9002800D068E17E6A012EF0D16F
:1006A000022001F0ADFF484B6D461A687D6010686E
:1006B00056681169704343189B000A33DB08DB005E
:1006C000ED1A391C3B1CEC334C31596004399960EC
:1006D0000439D960AD4604393D1C19613C3584317B
:1006E0004D60043D8D609569526902AE6A43920087
:1006F0000A32D208D2006D46AD1AAD463E6202AE55
:10070000AAB07E6102ADD826AAB0F55102AADC25B6
:10071000EA512E4A3E6A1268800053612D4B301810
:100720000024506091617C6416601A68B861131CE3
:10073000FC321268F8331B6800927869396ABA692A
:1007400006F028F8FD69A54201D005F00DFA002059
:10075000391C5C31A223021C8C80FC650B7105F0F6
:100760007DFA1C4B1B681C6000246D463D6105F042
:10077000BDFA7D1C3B1CFF358833061C3A1C00204B
:1007800018606B615860B032104B6A60143AAA600E
:100790001B68203AEA602C3AF8672A611D613865C7
:1007A00003F0EAF8F861B04218D0301C022503F0DB
:1007B000E8F87D62BDE0C046BD5C00003800002066
:1007C000395D000034000020F804002040000020C3
:1007D000780E00203C000020FFFFFF7F002C63D13B
:1007E000C64B6D461B683D609E695A6971000132B7
:1007F0004A43131C0833DB08DB00E81A854602ADC8
:10080000211C281C08F042FEB96ABD4E08290DD1F2
:100810003268131CFC321268F8331B680092786946
:10082000396ABA6905F0B6FFBC623AE0042003F009
:1008300077FA3368281CF83319687A6906F030F8BB
:10084000061E012E10D1052003F06AFA391C64310E
:10085000A323201C221C00258C807C660B71341C79
:1008600005F0FCF9BD621CE0A64E291C33687869CE
:1008700039331A7806F0ECF833683833187803F017
:1008800080F803F095F833683933187802F060FE89
:10089000201C02F095FEF86903F073F803F0ACF841
:1008A0007C623E68B5463CE0964B01241B683A33B7
:1008B0001878934B1B68FC33586102F049FE052001
:1008C00003F006FA3B1CC4330093386AB9692A1C4A
:1008D000283300F0D1FF7862002822D1381CD830AC
:1008E000B96A07F033FFB862032804D0072800D0A4
:1008F000D3E0182605E0381CD83008F0F9F8061EB9
:100900000AD005F0CFF80124731E221C9A40104033
:10091000D84000D1C1E0D3E003F0CEF903F0AAF84B
:100920000124774B78491B681A688A4201D001324A
:100930001A60764D00222B681A613E69B5467E6AC0
:10094000964208D105F0A0F8012804D105F086F8F8
:10095000002800D109E72A6800231360536013615F
:10096000536193617D68FB61AD468CE6634BFE6825
:100970001B68BD681E621D61A0E505F0F5F805F075
:100980006DF80128FBD008F0E5FB00F047FB04F010
:100990004DFE93E500F00EFF5C4B1B68586900F0BC
:1009A00035FF04F093FF05F0DFF805F0F7F80328B2
:1009B00012D006D801280CD0022815D101F0BAF8BF
:1009C00012E005280ED00AD306280DD102F092FDC0
:1009D0000AE000F075FF07E001F03CF904E004F0E4
:1009E0004FFC01E002F074FD05F038F80228DCD07D
:1009F00000F0F2FE62E505F0B7F8012001F000FE1C
:100A000005F02CF80328FBD058E505F027F804285A
:100A1000FBD053E505F0A8F800F068FA05F01EF8E1
:100A20000528FBD04AE505F09FF803F0C7FB05F069
:100A300015F80628FBD041E505F010F80828FBD092
:100A40003CE505F091F804F065FA05F007F809288F
:100A5000FBD033E505F088F8002003F061F903F0DE
:100A600063FA04F0FBFF0A28F6D027E505F07CF8CE
:100A7000002002F034FC002003F052F903F054FA95
:100A800004F0ECFF0B28F6D0012002F028FC15E55D
:100A900004F0E4FF0C28FBD010E5BE6A082E00D05D
:100AA0003AE703F009F9012002F047FD391C002460
:100AB0006C31A2238C80FC660B71201C221C19E077
:100AC00002213420C155381C352234300025D6553A
:100AD00004F050FF03F0F0F8201C02F02EFD281C5B
:100AE00004F0DAFF391C74310E238D807D670B71A1
:100AF000281C2A1C05F0B2F813E7C046F8040020B1
:100B00003C000020780E0020FFFFFF7F4000002007
:100B1000F8B51C4D7146281C764603F0F6FB1A4CBE
:100B2000276802F0EDFFF0373860276802F0ECFF2D
:100B3000F4373860276802F0EBFFF8373860276831
:100B400002F0EAFFFC373860276803F037F8FC371B
:100B50007860276803F00CF9FC37B8600B4A0C4842
:100B6000126800682368007C1478191C6043FC310B
:100B700008618721023289005A50281C311C03F079
:100B8000DBFBF8BDB10A00003C0000207C0E002019
:100B9000780E0020014B18607047C046780E002088
:100BA000014B18687047C046780E0020014B186052
:100BB0007047C0467C0E0020014B18687047C04645
:100BC0007C0E0020014B18687047C0463C00002096
:100BD000014B58687047C0463C00002038B51D4C9A
:100BE0007146201C754603F090FB1B4BE2211B68ED
:100BF000002249005A50EC2001214942400019507E
:100C0000F02040001A50E82040001A50F320400025
:100C10001952F52040001A52E02040001A50EA20F4
:100C200040001950EE2040001A50E62040001A50B3
:100C3000F22040001952F42149005A52E42149009F
:100C40005A50DE2149005A50201C291C03F074FB25
:100C500038BDC0467D0B00003C00002038B5114C6B
:100C60007146201C754603F050FB0F4B201C1B687F
:100C70009A68002A02DD1969CA420BD40B4A11682E
:100C80000B4A2C3112680C783432117800228C42D5
:100C9000524100E00122FF33291C5A7503F04CFB3E
:100CA00038BDC046FD0B00003C0000204000002085
:100CB000780E0020F0B5304F73468BB07146381C6B
:100CC000019303F022FB2D4D82222B689200995C48
:100CD0001A1CFF32002904D1F6214900595C002971
:100CE00001D000215175547D002C27D01A1CFC32F4
:100CF000D26903A907921A69002408929B6807AA7F
:100D0000099303234B708B707C235B42CB700126CD
:100D10001023201C8C800E700B7104F09FFF2B6839
:100D2000FC33DA69022A02DC9219DA611DE0DC6127
:100D3000134B1B682C331C70341C16E01A6905A970
:100D400007929B680920089301230B7002234B70C4
:100D50008B707C235B42CB7007AA64238C800B7161
:100D600004F07CFF2B68FC33DC61381C019903F034
:100D7000E3FA201C0BB0F0BD550C00003C00002035
:100D80004000002038B5054C75467146201C03F024
:100D9000BCFA291C201C03F0CFFA38BD250D000039
:100DA00038B5054C75467146201C03F0AEFA291C77
:100DB000201C03F0C1FA38BD410D000038B5054CC8
:100DC00075467146201C03F0A0FA291C201C03F074
:100DD000B3FA38BD5D0D000082B0F0B589B0109C4B
:100DE000151C0F930693029407900E1C119C02F0A1
:100DF000EFF947793B4B04978279964207D11B68FC
:100E00000021FC331A68AB00D05A03910CE01A6839
:100E1000354BF8321968731C896812684B43EB181C
:100E200001339B00D05A03960499714349194A0033
:100E3000A4182388069E0193019F7318874203D844
:100E4000C61B029FBE521CE0029EB61805960027E4
:100E5000F65F013610D01F787EB2B446013601DA53
:100E6000013703E06646002E06DD013F1F700223B6
:100E70005B42238001202FE0069F79180F78002F16
:100E800001D120800CE07FB27C1C05D1019E059F22
:100E9000301A3880002002E0012F01D1FF200870B5
:100EA0001978039C049E079F48B274437D1900285B
:100EB00005DC029EB25E013208D0002906D12A5715
:100EC00000203E2A08DC0131197005E02A57002A6B
:100ED00001DD01391970002009B0F0BC08BC02B076
:100EE0001847C0463C000020F8040020F0B57146C9
:100EF0008DB075464548049503F007FA02F068F98D
:100F0000029004F0BDFF424B42491C6809688020F2
:100F10000391226840490006561E009621D363685B
:100F2000013B1CD3A668039F5643F8373F689E19C0
:100F300001360197B600039FB4469E00BE191D36C8
:100F4000FF360596019E6546AF59059D2E68BF1B6D
:100F5000B84200DA381CB942E2DD391CE0E7009AF9
:100F6000DAE76F4601233B7602237B76BB767C2350
:100F70005B420A900B910020FB7606A954230AAA33
:100F8000B8833B7704F06AFE214D234E2B68802501
:100F90001B6900960193DCB21E4B2D061B68039360
:100FA000013CE4B2FF2C17D0039E0298FC36376850
:100FB0000597417A019808F0FDF9B368059EA700EE
:100FC0008900BA59CB58D31A9D4200DA1D1C009FE4
:100FD0009F42E5DD0093E3E708A901230B7002239C
:100FE0004B708B707C230A955B42009D0020CB7078
:100FF0000AAA6B2388800B950B7104F02FFE03481F
:10100000049903F099F90DB0F0BDC0468D0E0000B3
:10101000F80400203C000020FFFFFF7F37B5114C93
:101020007146201C754603F070F905F08BFD02F047
:101030000BFF021E07D16946A923888000900B711F
:1010400004F00CFEFEE7084B1B6803CB02F054F9DA
:1010500005F090FDFFF75CFD291C201C03F06CF9E6
:1010600037BDC046BD0F0000F8040020F0B589B0C0
:1010700000AF74463861F9607D487146BA607C60A3
:1010800003F043F903F0F6F883000A33DB08DB00D2
:101090006D46ED1AAD46041C281C7D6103F0F2F884
:1010A00063000833DB08DB006E46F61A301CB546D9
:1010B00003F004F96F4BE2211A6849005058632885
:1010C0000CDD002353500120EC21490040425050D8
:1010D000F02149005350DE2149005350E2235B00C8
:1010E000D1580131D150E02149005358632B0DDD17
:1010F000002353500120EA21490040425050EE2184
:10110000490053500121DE238B40D150E0235B0086
:10111000D1580131D150E82149005558012D0CDD3D
:10112000002353500120F321490040425052F52141
:1011300049005352E42149005350E8235B00D15841
:101140000131D150E6214900505801280DDD00231E
:1011500053500120F221490040425052F4214900ED
:1011600053520121E4238B40D150E6235B00D15838
:1011700000250131D15001233B763F4B1D321B68C6
:10118000391C1B79FF327B76BB760423FB76022069
:101190005B231831BD833B7704F060FD2B1C2A1CB8
:1011A000013C08D37D69A100695852186100715A49
:1011B0005B189BB2F4E72F4E0021306878617C69A0
:1011C000F0266518760076193468944200D23260B1
:1011D000D935FF352E68964200D92A60F52464007F
:1011E00005192E889E4200D22B80F3246400051935
:1011F0002E889E4200D92B8004390C1C02380834FA
:10120000DDD11C4DDE222B6852009A58EE2192004F
:10121000EA209A1840004900515812583E698A1A2B
:101220003280E42252009A58F4215200F2209A1897
:1012300040004900515A125AFC688A1A22800E4A0C
:10124000BD6812685268910068185B180021043963
:10125000013A05D35C181D344658FF342660F6E782
:101260000348796803F068F8BD4609B0F0BDC04690
:101270000D1000003C000020F8040020F0B573467B
:1012800085B0061C0D1C25487146039303F03DF8FC
:10129000234C00212368301CDA68920008F0F6F82D
:1012A000236800211A69281C920008F0EFF804F066
:1012B000D5FD009044781B4F002C0ED0002002F08A
:1012C0002FFD3B68301C1A1CF832FC3312681B6877
:1012D000291C05F025FA013CEDE73B681A1CFC339C
:1012E0005B68F8321768019302F0F8FB029002F095
:1012F000FFFB0199031C029A381C04F0C7FD009BF8
:10130000291C5A78301C04F05DFF201C02F008FDF7
:101310000248039903F010F805B0F0BD1D1200005B
:10132000F80400203C000020F0B591B002AF7546F3
:10133000F860B9609C4871467D6002F0E6FF04F0F9
:101340008DFD9A4B38611A686846136892689E1C36
:101350005200564301335208311C53430831C90827
:10136000C900401A8546013302AD5B00FD61EB18F0
:101370008F4D904C7B61F8692B6879699860206883
:10138000D960BA610021DC22083008F07FF8321CF5
:101390000021F86908F07AF82368F8681A1C191C0B
:1013A000F832FC3312685B6800900831F86905F088
:1013B0005BF82368061C1A1CF83210682A683D691D
:1013C000191C2D7B9268E4310833009507F006FC68
:1013D0002368BD68191CFC331A689B6800950831A6
:1013E000786904F091FF25680643291C281CE43124
:1013F000F6B208303E6104F04DFF6F4AE8352368CD
:10140000126828600C20115E5D6B8D420EDC0E2090
:10141000115E9D6B8D4209DB1020115EDD6B8D42EC
:1014200004DC1220125E1B6C93421FDA00233B8601
:1014300030210123CB5504F043FB002816D104F0E2
:1014400095F9002812D05B4B1B681B68FF2B00DD51
:10145000FF23381C312202213030D35504F08AFAA0
:10146000564802F0A5FF01F065FFE4E74F4E20204B
:101470003368212219680224C15558682221D055A9
:101480009A6880235B42234323200025CA55C35515
:1014900024215323BD840132CB55FB695200391CF2
:1014A0009A180120203104F0D9FB32680121137C05
:1014B0002820C15529202A21C355CB5580235B42C2
:1014C00023432B22D3552C206D23391CBD85283175
:1014D000C3557A69012004F0C1FB336830211A68D2
:1014E0003120CA5559683222C15598683321D055E8
:1014F0005A1DD27F3520CA551B693422D355C35D8E
:101500007F2293438021494223430B43C219137026
:10151000BB69F86901335B00C318391C0120303105
:101520002A1C00932B1C04F065FBFFF797FBFFF7C9
:10153000C1FBA8422AD11F4C2368F833186802F077
:101540005DFD2368E833186802F02CFC02F0F0F926
:101550003D69002D0FD12368F9691A1CFC3308324C
:101560005B69F86804F00EFD2368B868FC335A69BB
:10157000796904F063FD022002F022F8786905F031
:10158000B5FB20680024EC3006F054FD084B002227
:101590001B6805489A60DA60796802F0CDFE201C6D
:1015A000BD460FB0F0BDC046C9120000F8040020CF
:1015B000400000203C0000207C0E0020102700008E
:1015C000F7B5274E7146301C754602F09EFE05F0B9
:1015D000CBFA244CE430236801781A1CFF32927A4B
:1015E000002902D151B2481C04D100275F60BA42E1
:1015F0000FD11BE01A1CFC3258681269904202DAC3
:10160000586801305860012910D05B6893420DDBA7
:10161000012700223B1C69460E33101C8A80009271
:101620000B7104F01BFB2368FF339F7223681A1CA5
:10163000FF32927AFC33002A03D10B4A12681278E7
:1016400004E0012A03D1084A126852785A615869A5
:1016500001F07EFF301C291C02F06EFEF7BDC04673
:10166000611500003C0000207C0E0020F0B595B014
:1016700002AF74460E1C786271464C483A627C6038
:1016800002F043FE04F0FCFBF86005F06DFA6C46D6
:1016900092B03C6002AC92B0FC6102AC8AB0BC611A
:1016A00002AC90B07C6102AC8AB002ADB86088B088
:1016B00000214022F8693C6107F0E8FE0021402249
:1016C000B86907F0E3FE00212022786907F0DEFE0A
:1016D00000214022386907F0D9FE02AC281C002105
:1016E000202207F0D3FE201C0021202207F0CEFE8E
:1016F000FA69BB6992B03A637A697B633D643B697E
:1017000002ADBA6300214022281CFB637C6407F011
:10171000BDFE274C381C22682C30131CF03319688E
:10172000E43204331B6800922A1C06F0A5FC2368EF
:10173000381C1A1CF032F43311681B682C300096E8
:101740002A1C05F0FDFF381C2C30796A321C3B6ADC
:1017500006F03AFA2368786A1A1CF032F4331168FA
:101760001A6806F047FB786A311C06F00BFC3C68EF
:10177000786AA546311C3A6A05F0E6FABB680B4C5C
:10178000E4331B78002B0AD1FA681379002B06D0BA
:1017900004F07AF9012802D0012001F0CEFE201CCD
:1017A000796802F0C9FDBD4613B0F0BD0D1600000A
:1017B0003C00002038B5074C7146201C754602F0ED
:1017C000A4FD07F097FC01F009FD291C201C02F084
:1017D000B3FD38BD5517000038B50B4C7146201CC1
:1017E000754602F092FD07F03BFD07F08BFC01F01F
:1017F000F5FC002002F08AFB01F07CFE291C201C75
:1018000002F09AFD38BDC04679170000F0B5194CBA
:10181000B1B073467146071C07AE201C1425019316
:1018200002F073FD2A1C301C002107F02FFE2A1C39
:1018300002A812AD002107F029FE281C0021282251
:1018400007F024FE26AB02AA391C0CA80D931CAB92
:101850000E9310920F96119505F0C4FA05F0F6FA62
:101860000CA805F0B9FB201C019902F065FD31B010
:10187000F0BDC046AD170000F7B5754601950F4D98
:101880000E1C071C7146281C00921C1C02F03DFD1A
:10189000311C381CFFF748FD061E03D0201CFFF743
:1018A000B5FF04E00098211C089AFFF7DFFE281C12
:1018B000019902F041FD301CFEBDC0461918000020
:1018C000F0B599B000AF7446714696487C6002F05E
:1018D0001CFD954C6D46236819685B680A1C5A43C9
:1018E000D3185B000833DB08DB00ED1A8F4B520086
:1018F0001B6856084900AA184908DD611A62AD46FE
:101900007D653964BE6301F063FC2168F8638C680F
:101910003D6C3C63827A437A7C6D5343DBB27B64DB
:101920004B686A005D1E554356426519BE62FD64F0
:101930000020013B0ED3FD6C0A6845193D65013A54
:1019400005D35400251C3C6D00266653F7E7BC6A9E
:101950000019EEE77C6CBD6B013C7E6D6419640080
:101960003419FC616C00221C023AFB693C62B2181B
:10197000934203D000211980023BF9E73D6B7E6C56
:10198000AB005B423B617B6CBC6B01335B007D6CED
:101990005B4276007B61BE6163197E6D5B00F3186C
:1019A0001E247B627C63002002F0BAF95E4B604A21
:1019B0001D6812686E68FA62321C013A3C6C520073
:1019C0006243BD637D6D3E65AA18BA64FE64FE6C19
:1019D000013EFE6430D3BE6B3A6B3368FD6C5A43F4
:1019E000FC6C0135A400AD185B00BC60AD00FB6071
:1019F0000024FE68B4421AD0FB6AFA6AFC33F8325B
:101A00005B68BE6812689B59525900209A4200DDFB
:101A1000D01AB96C0E5B07214942861907F074FC95
:101A2000BA6C361816533E690234AD19E1E7BC6C46
:101A3000BD6A6419BC64CAE73D4B00241B68FB64A3
:101A40007E69023CB4421BD0BD69FA6B2E19FD6C55
:101A50007600FC352868B864517A786C07F04AFC47
:101A6000AB68C9B2BD6C89007259CB587E6AD31A73
:101A7000DA43D2171340325B9B10D3183353DFE79E
:101A80007C6B013C7C63002C8DD13D6A7E6D023DF8
:101A9000FC697519AC4207D00021605E1E2107F079
:101AA00033FC023C6080F5E73C6D013C3C6513D3A0
:101AB0003E6D3B6CBD6B73432C687E6D651EED18EF
:101AC0006D007519013CEFD30021685E1E2107F0FF
:101AD0001BFC023D6880F5E7FFF754F9124D5826CC
:101AE0002B68592118681A791B69F0555C26F35543
:101AF0007E235B425D20C3555A24381CCA55E255EB
:101B0000796D00245B255830EC5503F045FE074BFA
:101B100004481B687968DC611C6202F00DFCBD465C
:101B200019B0F0BD61180000F8040020400000204A
:101B30003C000020F0B58BB000AF744671464148C0
:101B40007C6002F0E2FB01F043FB3F4C6D462368F2
:101B5000002044CB724393195B000833DB08DB00A1
:101B6000ED1AAD46291CFD61384D52002B687600F8
:101B7000D9615108B96169468A181A6202F0D0F831
:101B8000334A21681268760876000B683A6172421F
:101B9000FA605A1E5643FA6900209619BE605C1E10
:101BA0007C6116D3BC684A682418A446013A0CD359
:101BB0008E683D695E43F83596192D680136B6008A
:101BC0007559540066463553F0E7FA687B6980180A
:101BD000E5E7BD691E4A0B69FE696C00106834199F
:101BE0009A00043A013B06D3051CFC352D685900C8
:101BF000AD586552F5E7FFF7D3F8134C202523685D
:101C000021211E681A791B69EE552426F3557E237F
:101C1000CA555B4222242521381CE255CB550024AD
:101C2000F96923252030EC5503F0B6FD074D054832
:101C30002B687968DC611C6202F07EFBBD460BB04C
:101C4000F0BDC046D51A0000F80400204000002076
:101C50003C000020F0B591B000AF744671468F484B
:101C6000BC6002F052FB01F0B3FAFEF799FF8C4B17
:101C7000F8621C686846656826687D626E43721962
:101C8000D31D5200DB080832DB00D208C01AD20094
:101C90008546801A69466D46BE628546C01A814BEC
:101CA000BE6A3D636D4685461B68FD616D46BD613C
:101CB0008D1959629D62E268081C002107F0E6FB5D
:101CC00022690021281C07F0E1FBE2680021684638
:101CD00007F0DCFB301C22696844002107F0D6FBCA
:101CE0007C6A63005B087B6173005B08FB60FB6AD6
:101CF00035331B787B637D6B694C002D00D1A8E0E8
:101D0000002002F00DF8684A2068126843683A61C2
:101D1000013B52D30468611EFAD385683A696C436B
:101D2000F8321C1912680134A400A6587A69FD69BA
:101D30004A439A185200545FB446A41BFF2C02DD9C
:101D4000FF227A6003E0E543ED1725407D60FA6AE3
:101D5000BD6937321278EE183A623D6A7A6A4A43B0
:101D6000AC420DDDB45C0134E4B2B454FE6A64B23A
:101D700036363678B44217DB3E6B7D68F41812E0D5
:101D8000FC6AB65636342478A6420DDA3E6B7D687E
:101D9000F418A65CB54200DA351CA554BC690025D0
:101DA000E2187C6A4C4315557A69FD694A439A18D2
:101DB0005200664656530C1CADE703693A4AFC686C
:101DC00010685A1E1219FD6952008446AA18013B78
:101DD0003BD36146FC31096898004058FF243862C3
:101DE000396A0026905F401AFF2802DCC443E417DA
:101DF0000440F96ABD6937310978BE6A3961A919A9
:101E00003D69A8420DDDC85C0130C0B2C854F96A12
:101E100040B236310978884213DB3D6BA919CC54A6
:101E20000FE0F86ACE5636300078864209DA3E6B0B
:101E3000BD6A7019C65CB44200DA341CC454002078
:101E4000C8543E6A023A5680C1E77C6B013C7C6311
:101E500051E7FEF7B3FF2368382618681A791B6923
:101E6000F0553C20C35539217F23CA555B423D21A3
:101E7000381CCB553A24396B3B263830E255F555A2
:101E800003F08AFC074B05481B68B9685D629D62D8
:101E900002F052FABD4611B0F0BDC046F51B00007D
:101EA000F8040020400000203C000020F0B57346FC
:101EB00091B0041C0E1CB3487146059302F025FA3C
:101EC00003F0DEFF049004F04FFE2278AE4B002AB0
:101ED00008D1B2300278511E8A41D2B20292002A51
:101EE00008D001E001200290FA2218680021520077
:101EF000815007E01968FA2252008858FE2801DC58
:101F0000013088501B68F822002152009954029930
:101F1000002904D09D4A1268127D002A65D0F02164
:101F2000FF315A5C081CD2B2002A0AD0595CF82250
:101F300049B25200022900D00121995400221A54BA
:101F40008DE1F62040001C5C002C0CD00124F8250B
:101F5000A5405C555A54EE21FF311A545A54FC21C5
:101F6000A1405A507CE1029A002A3ED1FC256D0026
:101F70005C59002C0ADD013C012C01D05C5134E09D
:101F80000298F82258510321520063E187229200FF
:101F90009A5811887E4A914227D081229200995AFC
:101FA0007C4A126852888A421FD8784C2068427C4A
:101FB000FA2040001858904217DB0EAA118076498B
:101FC00002985B5A06A95380029B8B8001230B70F9
:101FD00002234B708B70CB7015230B7103F03EFE08
:101FE000694B22681B68927C5A51684C2568E87CD2
:101FF000002800D033E10299634F002900D08CE023
:102000003C68664BE35C002B5CD02B1C2C331B78AC
:10201000002B57D084230E919B00E3580393812318
:102020009B000398E25A43009A532B1C2D331978D6
:1020300002984B00F618031C994206D05A00B21AB7
:10204000023A128801338018F6E707F05DF90E9026
:10205000EA8B85239B00904202DAE258013200E0CD
:102060000022E2502A1C2E321278E35893421BDDE4
:102070007C2308A900255B420124CB70281C162371
:102080000EAA8D800C700B714C708C7003F0E6FD05
:102090003D4B84221B6892009D50852292009D50EA
:1020A000281C03F01DFEDBE02B1C2D331A7803994E
:1020B0008423013A9B00914202DA0A1C013200E0BB
:1020C0000022E250FE2201355200EB7FA2589A42D4
:1020D0001ADB00240AA91223201C221C8C800A94DB
:1020E0000B7103F0BBFD3B68802292002748995892
:1020F0000068013199500230C07F814204DB9C505E
:10210000F8220221520099541F4BF7211B68490005
:1021100000225A54FE2149004CE03B68FC22520048
:1021200098501F4A9A5C002A45D08126B600995BD8
:102130000EAA194D11805B5B0CA9538001230B7013
:1021400002234B708B70CB70192388800B7103F0C6
:1021500085FD22683B68D08B9C5BF7214900844257
:1021600020D25C5B508D84421CD2595C002922D164
:10217000FE21490001325858D27F90421BDA0130CB
:10218000585018E04D1E00003C000020780E002042
:10219000FFFF00007C0E0020060200001B02000072
:1021A0001A02000001225A54FE21490000225A500E
:1021B000802189005A502E4D2E4A2B689A5C002AA5
:1021C0004DD104980279002A46D0F62252009C5C38
:1021D000002C44D1284E98683768798BBA8BFB8ADB
:1021E0003F8B009703F0F4FD36682B68718CB28C3E
:1021F000071C9868F38C368D009603F0E9FD2B6878
:10220000812292009E5AEE25FF351C49BE4202DA19
:102210005A5A824213DB08AA16805B5A0EA95380D1
:102220000223002001264B708B70CB70172388800F
:102230000E700B7103F012FD0D4B1B685E550C4BBD
:102240001B685A5D002A0AD00299002907D0012193
:10225000F6228A40995403E0EE21FF315A540124BA
:102260000748059902F068F8201C11B0F0BDC0467F
:102270003C0000201A020000780E00200602000038
:102280004D1E0000F7B575460195434D7146041C7F
:10229000281C02F03AF8414EEE223368FF329A5C75
:1022A000002A24D03E4A9A5C002A20D18222920041
:1022B000995C00291BD1F62149005D5C002D16D1E7
:1022C0000121995400F090FF071C00F081FF354A6E
:1022D000031C12685D3303CA3A1C9B3203F0F0FE04
:1022E00001F0EAFC281C01F0F3FCFEF777FC3368F0
:1022F000822292009A5C002A45D0F62200205200E9
:102300009854294A00901668011C326A013A0CD38D
:10231000E56857007D5B002DF8D001312FB2C9B2BE
:10232000B842F3DA381C0092F0E71D4A9A5C002AA2
:102330000ED101290CD901222270326A013A09D347
:10234000009EB242FAD0E76851000020C853F5E77A
:10235000002903D083220021920005E0832292000D
:102360009958032901DC01319950832292009A582F
:10237000032A0BDD82220021920099540121F622CA
:102380008A40995402E0832189005A5002480199F9
:1023900001F0D2FFF7BDC046252200003C0000201E
:1023A0001A02000040000020F8040020F0B5A3B09D
:1023B00002AF7546B861F96189487146BD607A61BE
:1023C0000025FB6001F0A1FFA6232420391C203149
:1023D0002A1CBD84C355281C3D6203F03FFCFFF757
:1023E000EFF8281C01F074FC7E4E7F4A336881218F
:1023F000890058189918FC335A68FEF737FE33687D
:10240000812292009A5A3C1C68342280764A282005
:102410009B5A2921022263800123C355CA552A20D1
:102420002B21C255CA552C22391CBD850C20D355F1
:102430002831221C03F012FC6C4B30201B68312227
:102440001968C15558683221D0559A683320CA5549
:10245000591DC97F1B69C1553421CB553520042333
:10246000C35533680132F8331B6892009A18391C3F
:102470000092022030312A1C2B1C03F0BBFBB869F0
:10248000F969FEF751FFB861A84203D07869FFF7F8
:10249000BDF986E06D468CB03D6102AD8CB07D60CB
:1024A00002AD8AB03D603E1C02ADFD6154363D1C5C
:1024B0004035B9691422301C06F0E8FF281CB969C0
:1024C000142206F0E3FFB9692822F86906F0DEFF5E
:1024D000474B78681B6839682561FD696060A160B9
:1024E000E6606561201C1C617969FA68FFF7BEF837
:1024F0009822201CD159FFF7D9FC3E4B1B681B7D4D
:10250000002B02D1201CFFF7BDFE3C1C6834201CB0
:1025100004F062FD25786C46AB000733DB08DB0076
:10252000E41AA54602AC7C612E1C1224786F035F6E
:10253000002B09DD7A69013EFB6FB00061001018C5
:102540005918042206F060FF023CA31CEED1274B71
:1025500039211B6838245A681868CA559A68E055AA
:102560003A24E2550533DB7F3B20C3557E235B4293
:102570003D20C3551B4B01321B685200F4331B68CE
:1025800000249A183C21CC550092391C7B69032009
:1025900038312A1C03F02EFB154B1B681C613C696B
:1025A000A54601F089FB01F065FA0E4B1A68F82385
:1025B0005B00D05600F0EAFB041E00D1BC690E4B54
:1025C0001B681A680D4B9A4202D001F0F7FDFEE736
:1025D0000348B96801F0B0FE201CBD4621B0F0BD33
:1025E0004D2300003C00002006020000F8040020FB
:1025F00040000020780E0020A00E0020CDCDCDCDD3
:10260000F0B59BB002AF74467146F860C248BC603A
:1026100001F07BFE00F0DCFD061C00F0F1FDB8616E
:1026200000F0E2FDBD4B6D461C687861E368002157
:102630001A1C0E32D208D200AD1A2269AD460E32F3
:10264000D208D2006846801A02AD85467D6202AD8E
:10265000BD6272799A18131C0E33DB08DB00C01AB6
:1026600053000E33DB08DB008546C01A02AD8546F9
:10267000C01A3D6202AD854602A8F861386A06F0CC
:1026800005FFE1687279281C521801215200494265
:1026900006F0FCFEE3687279F869D2185200A0498E
:1026A00006F0F4FE7B69BD6599331D78E268786AAF
:1026B000002D0BD0B96906F0A7FEF0252269BC6990
:1026C000AD00B86A611906F09FFE07E0291C06F00C
:1026D000DDFE2269B86A291C06F0D8FE40240025D8
:1026E0003C61FD62B96A786A02F09EFB032001F04A
:1026F00017FB8A4D00202B6838871A6858683421E8
:102700003524CA55E0559A6804243723DC55854C96
:1027100051233820C35523683621F833CA551B6826
:1027200001329200391C9A180220343103F096FAD3
:1027300001233C20C3552B6800221B7C4021CA5337
:102740003D213E22CB55D35504253F23DD55402066
:102750005A23C3552368391CFC331A6802203C31C4
:1027600003F07CFAB479013C631C33D07579013DE8
:102770006A1CF8D07379F9696343EB185B005A5A05
:10278000694B9A42F3D03A6A58237A607A65F965C0
:10279000DB19694605CB05C1211C7B68786A2A1CB8
:1027A000FEF71AFB002803D0FB6A01339BB2FB62E1
:1027B0007B69386A99331A7873796343EB18002A76
:1027C00004D0C15CB869C25C8A1800E0C25C796A56
:1027D000CA54CCE7F479013C601C37D0B1797379E5
:1027E000FD694B43E3185B005A5B4F4B9A42F2D0B2
:1027F0003D6A58207D607D65C019FD698446FD6590
:102800006846624628CA28C0221C7B68B86AFEF760
:10281000E3FA002803D0FB6A01339BB2FB627B69B9
:10282000727999331878B1793D6A4A432B19002897
:1028300008D0BD69F0212819890040189A5C0378F6
:10284000D31800E09B5CBD6A2B55C4E7334BFC6A90
:102850001B68DA681B69D3189C4206DA3B69013BA6
:10286000DBB23B61002B00D03CE7FD68022D3FD07E
:10287000786AB96A02F0D8FA002448207C64C4530C
:10288000B3794421CB557379472045224625D3554A
:10289000EB55C35D7F2101258B4380222B435242A0
:1028A0001343C35548211D23CB55391C7A6A082090
:1028B000443103F0D3F9391C4C31FC648C800D7029
:1028C000F3797F224B708B70CB78082093431D43A4
:1028D00080235B421D43BA6A1E230B71CD7003F047
:1028E000BDF90D48B96801F027FDBD4619B0F0BD2E
:1028F000B379013BBCD37279013AFAD371797D691E
:1029000059437C6A8918E8186118A4300C7800785B
:1029100020180870F0E7C046A1250000F804002048
:10292000FFFF00003C000020FEFF0000F0B5A5B056
:1029300000AF72467146B861C348BA6001F0E5FC69
:10294000C24C23689B68BB635B0001333B6501F0AD
:1029500003F82368FF229B68F865D31A984200DDCC
:10296000FB65F86D01F000F8396D68464D002B1CD1
:102970000833DB08DB00C21A9546786500246846F8
:102980006421CC530123B864602261206221D355B5
:10299000C355CB557C235B426322D3556420B123BE
:1029A000391C3A1CC35560315C32201C03F056F9C7
:1029B000F96DBA6B8B1A9BB2396D8C4205DAB86C23
:1029C0006200191981520134F6E700246C22C8B262
:1029D000D4530126682369216A22C855D055DE5593
:1029E000F86402236B20391CC3556831201CBA6C73
:1029F00003F034F92B1C796D08338D46DB08DB00BE
:102A00006A46D21A9546D21A694695467963FA62A1
:102A100001F030FC7861301C00F020FE211C2A1CE3
:102A2000F86A06F033FD211C786B2A1C06F02EFD97
:102A3000386D69468000031C0A33DB08DB00C91AC5
:102A40008D46C91A7B69F8619B006846B8628D465D
:102A50007962FB60BC640021FA69B86A06F016FD71
:102A6000786AFF21FA6906F011FD00207865774B3E
:102A7000786D1B685B6898424FDAB96BFA6DC9B222
:102A8000501AC0B2396300F07CFF00F045FF00F03F
:102A9000DBFD7D6ABC6A0026386D0136F217C30F74
:102AA00086425341DBB2FB63002B08D1396BFA6DD0
:102AB000701A8018C0B200F064FF00F02DFFFB68B0
:102AC00068460A33DB08DB00C11A8D466B46386165
:102AD000181C7B6401F0D6FB00231A1C79698A421A
:102AE00005DA786C9100415801325B18F6E72268EC
:102AF000934200D923602868834200D22B60396951
:102B0000FA6B8D4604350434002A02D100F09CFD96
:102B1000C2E77B6D01337B65A9E700214C4D7965E8
:102B20000C1C3A6D944219DABA6A796AA300D0583B
:102B3000CB58C01A854206DDFA6DB96BA3185B1A33
:102B40003B62051C3C647A6D824200DA786500F0D5
:102B50006FFD796B6300C8520134E2E7786D00F0D5
:102B600067FD3A4B1B685B88984206DABB69012B0C
:102B700003D0F86DB96B38623964364DDE232C68AA
:102B800000265B00E650E02332225B00E250E223A5
:102B900064225B00E250E4235B00E650396CE623DC
:102BA00002225B00E25091407A6AE8238A585B0077
:102BB0000120E050101C7A60396300F039FDEA23EF
:102BC0005B00E050B96A3B6B2C68585800F030FD50
:102BD000EE235B00E05001212B68F32252004942B2
:102BE0009952F52252009E52BA69012A34D1FA6AEA
:102BF000331C396D8B4209DA786B5900415A1088C1
:102C0000884200D2118001330232F2E73A6CF86A4E
:102C100053001A5AB96C131C8A4200D20B1C9BB287
:102C20007021BB640123CB557422FB6C0020D05370
:102C300072217122D355CB5573220223391CD355EF
:102C40007031FA6A19E0C046CD2800007C0E0020E1
:102C5000FFFFFF7F3C000020786D00F0E9FC391C8D
:102C600080B278310222B864F86C0123CA707A6BA2
:102C7000487088708E800B70301C02F0EFFF386C4B
:102C80008823D8533A6A7B6B8A214400CA531C19A3
:102C9000BA6C23888E21CA538C20391C8031C353CF
:102CA00004234B708B70002502233A1CCB70281C28
:102CB000B223883201268D800E700B7102F0CEFF98
:102CC0002388264C8720226880001058018899426A
:102CD0001DD206F0C5FA051C06F020FA03787865C7
:102CE000002B09D0301C02F0FBFF7E6D236887218A
:102CF000023689005E501CE0002D1AD1184B1B686B
:102D0000DB7C002B15D1301C02F0DEFF11E01549F1
:102D1000525C002A0DD0144E306842889A4208D97D
:102D2000281C02F0DDFF3268236887210232890007
:102D30005A50BA69002A0AD13B6AD8B200F021FE83
:102D40000A48B96801F0F8FABD4625B0F0BD02F0B6
:102D500085FE082800D17EE6EEE7C0463C00002054
:102D6000780E00201B0200007C0E0020CD28000001
:102D700038B5054C75467146201C01F0C6FA291C71
:102D8000201C01F0D9FA38BD112D0000F0B5734CAC
:102D900072468DB07146071C201C039201F0B5FAF3
:102DA00006F05EFA061C02F0B5FE6D4B862219682D
:102DB00092008A5C051C1C1C002A22D1694BC95C4C
:102DC00081421ED000280BD06B469A826946392377
:102DD0000B75101C04A90492022602F03FFF0DE0BF
:102DE00006A93A232A1C888006900B7102F036FF50
:102DF0005D4B2268D65C731E9E41F6B2236859492A
:102E00005D5402F033FE019002F068FE032F03D000
:102E1000019A002A04D108E0019B0125002B43D030
:102E2000002002F02BFE01253EE0862321689B0056
:102E3000CB5A019D0293002B36D1012F02D0022FD5
:102E400004D00EE0381C02F03FFF0AE0029802F0C6
:102E50003BFF464B2268D35C002B02D0029802F065
:102E60003FFF02F02BFF404D2168071C4B5D002205
:102E7000834218D0904209D008A91123101C8A80DF
:102E800008920B71012602F0E9FE08E00AA913235B
:102E90003A1C88800A900B7102F0E0FE3E1C22680A
:102EA0005755002500E0151C06F0DAF9B04231D084
:102EB00006F0D6F906F026F9071C301C06F022F9B8
:102EC0000190301C06F0C6F906F098F9284B1B68F3
:102ED000187D00280ED0274B3A1C1B689B3203CB71
:102EE000019B9B3303F0ECF8002000F019FFFDF785
:102EF00075FE02E001F00AF80125002002F0F0FE64
:102F000023681A4A002199541B4A1168872202310A
:102F10009200995006F0A4F906F000F90378002B0E
:102F200008D002F0D7FE2268104BD15C814201D05C
:102F3000D054012502F00AFE041C03F015FE0379AB
:102F4000A34202D00471FFF713FF02F0F1FD034822
:102F5000039901F0F1F9281C0DB0F0BD2D2D0000F2
:102F60003C000020190200001A0200001B020000B1
:102F7000780E0020400000207C0E0020F0B599B0B3
:102F800000AF7546714681483D6001F0BEF9804C46
:102F9000092123687F4E1A1C6D3212784A43191C8E
:102FA0006B3109789B7952189B09D318FB6200F0AA
:102FB0000FF9236800201A1C6F329B7912789B0945
:102FC000D318BB6201F0FEFEB5446D46A2B0FD61B0
:102FD0006D46A2B0BD610A266D467D617E637D6B44
:102FE000F86A05217A6BADB23D610F2602F0DEF87A
:102FF000B86A05217A6B02F0D9F83E633D6BF86A36
:1030000005213A6BADB27D60002602F0DDF8B86AAA
:1030100005213A6B02F0D8F8FE63FD6B052000260F
:10302000684302F0F1F8BE637E623E62584E0223AE
:10303000306805210370F86A00F078FE564B574D52
:103040001B680A229B68F96953432A680633F832E1
:1030500012689B00D45ABA6B7B6A8C5224B21B193B
:103060007B62336801221A70B86A052100F05EFEA7
:103070002B68BE6BFC335B683D6A5B690236E41A01
:103080002D1980233D62BE639B009E42CED12B1240
:10309000FE6B7D690021AB537D6A002200232C1258
:1030A000FE69705A0231001B404300B2B860C0177D
:1030B000F8608020BD68FE6880005219734181422B
:1030C000EED1FE6B1B06120ABD6971001A4302366F
:1030D0006A50FE63082EA0D13D694026F5537D68F5
:1030E00042260024F5534C26F4534A230226DE558B
:1030F0000121482049228023C155D6555B42391C05
:103100003A1C33434B25201C48314032EB5502F02A
:10311000A5FD01225021CA55802154204942042591
:10312000C4530E4352205322391C5123C555D65542
:10313000201C50317A69DD5502F090FD5C23DC5390
:1031400059218023CD55012058265A225B42391C33
:10315000F055D5555B261D43201C5831BA69F555ED
:1031600002F07CFD3D6B03353D63422D00D045E709
:103170007E6B01367E63102E00D030E7034839683D
:1031800001F0DAF8BD4619B0F0BDC0461D2F0000B1
:1031900028030020F8FBFFFFF80400203C0000207B
:1031A000014B18687047C04664020020014B586804
:1031B0007047C04664020020014B98687047C046C3
:1031C00064020020014B18607047C046880E002042
:1031D000014B18687047C046880E0020014B1860EC
:1031E0007047C046840E0020014B18687047C046E7
:1031F000840E0020014B18607047C046800E0020EE
:10320000014B18687047C046800E0020014B1868BB
:103210007047C0462803002010B50D4B00201B78D6
:10322000AA2B12D10B4B1C780B4B64B218780B4BAA
:1032300040B219780A4B20181A780A4B49B21B7809
:1032400040188018C01A43425841C0B210BDC04651
:103250005000020051000200520002005300020020
:1032600054000200550002008023DB020022188077
:1032700059809A80C046024B188880B27047C04679
:103280000600040013B5094A042413780021DBB2B8
:103290001C4301910198F421FF31884205DC137031
:1032A000C046147001990131F3E713BD0D000050C1
:1032B00082B00022019201AB55221A70392252428B
:1032C0009A700122DA70019AA023DB059A6102B09C
:1032D0007047A023DB059869C001C00F7047012229
:1032E000A023DB05104002060249986908401043FC
:1032F00098617047FFFFFFFE82B000220192012219
:103300000A40891801303F2201AB1040C9B2187041
:10331000481C023102408900D9705A70019AA023DA
:10332000DB05DA61196A024A0A401A6202B0704784
:10333000FFCFFFFF0002064B000A01380022586051
:103340009A6005221A60C0461A68D103FCD57047FE
:1033500010E000E0F0B5564E87B0356805AC943506
:103360000427291C201C3A1C06F04EF82B7801215A
:103370001B071B0F0393AB7803981A07120F0292D7
:10338000FB40227801930F239A4302432270627814
:1033900001980A4302218A43BA43C7210A40627056
:1033A000A278010102989A4302431A400A43ED7839
:1033B000A270E2782D079A43131C2D0F10222B4385
:1033C0009343E3700599A024E405E160FFF75AFFF9
:1033D0003368E16895331A78364BD206920FD202E1
:1033E0000B401343E360E26880239B001343E360D8
:1033F000E26880239B011343E360029C039EFFF776
:103400000BFF002813D02C4F882039781E34C9B206
:1034100005F07AFF39784443C9B2882005F074FF7B
:103420000F3646431E3C00230F3E9C4203DB231E07
:103430000F2B00DD0F230F22964200DD161CA02467
:10344000E405E1681A401D4B12040B401343E3608E
:10345000F343E268DB171E400F239A431E401643D6
:10346000E660E368F022934380221343E360E3685D
:10347000134E144F3340E360E36813483B40E3606E
:10348000FFF758FFE26880235B051343E360E368BE
:103490002D061F402F43E7600C48FFF74BFF019AB2
:1034A0001305E26816401E43E66007B0F0BDC04653
:1034B000840E0020FFE7FFFF54000200FFFFF0FF33
:1034C000FFFF0FFFFFFFFFF0FF0F0000FF6F000087
:1034D000064A074B12680120DC32126819789040C6
:1034E000021C0A43D2B21A707047C046280300205B
:1034F000290000500549064B09681A78DC31096833
:103500000120884082431A707047C046280300207B
:1035100029000050044B1878044B1B68DC331B68EF
:10352000184101231840704729000050280300204B
:10353000A0230122DB055A707047044B82B0019032
:1035400001AA188092789A7002B070472400005047
:1035500007B500F009FF064B019001AA1880927888
:103560009A70044B00221A70034B0122DA7707BDD0
:1035700024000050000000200800005007B500F0B3
:1035800017FF064B019001AA188092789A70044B9D
:1035900000221A70034B0122DA7707BD2400005085
:1035A0000000002008000050034B00221A70034B5B
:1035B0000122DA777047C046000000200800005062
:1035C00072B6084B1B5C002B03D1C04662B630BFFD
:1035D000F6E762B6A023DB059968034A0A409A60C1
:1035E0007047C04600000020FFFFF9FFA023DB0565
:1035F0005A680121120E58689143034A0906024095
:103600000A435A607047C046FFFFFFFE08B5074BEC
:103610001B681A1C9C3212789D331B7852000132B1
:103620005043994005F070FE08BDC046840E00204E
:1036300008B5044B1B689F33197849000131FFF727
:10364000E5FF08BD840E002008B5A0230120DB059E
:103650005870FFF7B5FFFFF7C9FF08BDF7B5041EA7
:10366000042C0BD15C4B1B681A1CA4321268A833C3
:1036700001921A68A023DB055A6129E0574B042206
:103680001F6801A8391C883105F0BEFE391C8C3139
:103690000422534805F0B8FEFDF794FA514BA026DA
:1036A000C35CF605002B13D005F0DAFD05F036FDFE
:1036B000077971697F224C4B17401940BF04394389
:1036C000716141790A40716992040B40134373613F
:1036D000A023019ADB051A611E691F231E40FFF714
:1036E0009BFD00280AD0414B882019780436C9B2C6
:1036F00005F00AFE46430023043E03D4331E1F2B6D
:1037000000DD1F23A022D205108A1F210B40884311
:1037100003431382022C16D007DC002C13D0012C9B
:1037200032D12E4B1D689E352EE0042C07D028DBAD
:10373000052C29D1284B00241D68AF3524E0264BE9
:103740001D68AC3520E0FDF73DFA82239B00C35C89
:10375000002B04D1F6235B00C35C002B03D01E4B6F
:103760001D685D3510E01F4BC35C002B05D005F0D4
:1037700077FD05F0D3FC851D06E0184B1D689B35D1
:1037800002E0164B1D68A135A023DB055969287896
:103790003F22104091430143596168781F215D69C0
:1037A00008401349C002294001435961114964008E
:1037B00009680C19211C7731087859681040914329
:1037C000014359607834217858680A4011020A4A46
:1037D00002400A435A60F7BD880E0020840E002084
:1037E000140000501B020000FFFF03FE5400020003
:1037F000FF07FFFF28030020FFC0FFFF294BF0B5A4
:103800001A68294B85B01B689E331B785B069B0E9C
:103810000193931DD97F00238D005519581E5B1805
:10382000002B27D053181B1826331B788024D3185D
:103830005E78A023DB055F68E4033C435C60019C89
:10384000B606240400945F68B60EBC46174F644663
:103850002740009C27435F60C046243676008400E2
:10386000F65A2C198C3426605E68114C34405C602A
:10387000031CD3E76F460293BB8101233B72931D68
:10388000DB7F7F217B72BB72FB7A8C328B430421FE
:103890000B43FB720F20B02302A93B7302F0DEF949
:1038A00005B0F0BD28030020840E0020FFFFC0FFFC
:1038B000FFFFBFFFF0B585B0FFF7A0FF154B002558
:1038C0001E68B31DDC7F631C9B005B420093A3005A
:1038D000F3180193009B043D9D4208D0019A0121F9
:1038E00057198C373868FFF791FE3860F2E76A465F
:1038F00000239381012313720423D372B0235472E3
:1039000094721373321C8C320F2002A902F0A6F9B4
:1039100005B0F0BD28030020044B00225A70A023FC
:10392000DB055A7001221A707047C0460000002063
:10393000A023DB059968064A0A40802189020A43D0
:103940009A60044A0021917001229A707047C04623
:10395000FFFFF9FF00000020024B1B680833D86FFF
:103960007047C04628030020024B1B680833D86705
:103970007047C04628030020A023DB059868C0B22A
:10398000704730B5A023DB059B68DBB283420ED0C5
:1039900001DA013300E0013BA022D2059568FF2146
:1039A0001C1C8D430C40291C21439160EEE730BD67
:1039B000A023DB059968802252020A439A60996825
:1039C000094A0A409A609A68120112099A60D968F5
:1039D000064A0A40DA60D968054A0A40DA60D968BE
:1039E000044A0A40DA607047FFFFFFF0FFFEFFFF66
:1039F000FFDFFFFFFFFFFFEF1B4B10B51A68012130
:103A0000131C92331878A023DB059C6808401749E3
:103A10000004214001439960933210789C68144956
:103A20000007000921400143996011789A6809094B
:103A30001201090712090A439A60D96880225200CC
:103A40000A43DA60D968802292010A43DA60D968B1
:103A5000802252050A43DA60C923013B002B01D0C2
:103A6000C046FAE710BDC046840E0020FFFFFEFFEF
:103A7000FFFFFFF010B5A024E405A36800201B01A0
:103A80001B09A360E268124B1340E360E268114B2C
:103A90001340E360FFF794FD0F4B1B6893331A78D4
:103AA000A36812091B0112071B091343A360E268F4
:103AB00080235B001343E360E26880239B01134390
:103AC000E360C923013B002B01D0C046FAE710BDDB
:103AD000FFFEFFFFFFDFFFFF840E0020034B1B688C
:103AE0009C331878400001307047C046840E002097
:103AF000024B1B689D3318787047C046840E002027
:103B000000487047001000500048704700200050E7
:103B10000048704700400050074B01201B685B794C
:103B20009A1C0340D318054A12686632107858432D
:103B3000034B8000C0187047880E00202803002027
:103B400004400050F7B51B4B051C1C68A3795F1E91
:103B500015D36279013A10D36079561C811C01910A
:103B6000012108400199081858433118124889006A
:103B700009180868E8400860ECE73B1CE7E7FFF736
:103B8000CBFFA37A002201339C466346013B9C464F
:103B90000FD3617A96000191861900230199994209
:103BA00005D09F00F1590133E940F151F6E7521871
:103BB000EBE7F7BD880E002000400050074B0120C6
:103BC0001B685B799A1C0340D318054A126872324D
:103BD00010785843034B8000C0187047880E0020AF
:103BE0002803002004400050F7B52F4B1D682A78A9
:103BF00053B2042B1DD12D4B19680B1CAE331F780B
:103C000002235E1E4FD34A79013A10D34C79551CDA
:103C1000A01C019001200440019804195C4328195C
:103C2000234C800000190468FC400460ECE7331C5E
:103C3000E7E7002A37D0022B13D1FCF7C3FF82231A
:103C40009B00C35C002B04D1F6235B00C35C002BFC
:103C500003D0164B1B685F3322E0164B1B689D3365
:103C60001EE0032B03D1134B1B68A33318E0012B79
:103C700011D1FFF7A3FF0D4B061C1B685C79013CBB
:103C800011D32B193A331B789B009859FFF7D0FCBE
:103C9000A300F050F3E7052B05D1044B1B68B133AB
:103CA0001878FFF74FFFF7BD28030020880E00208B
:103CB00000400050840E002008B5A0230120DB0541
:103CC0005870FFF77DFCFFF791FCFFF78DFF08BDF3
:103CD00070B5041C104E114D11D10120FFF7BEFC30
:103CE000336801221A70A023DB056C705C701A70B7
:103CF000FFF7E2FFFFF77AFCFFF7DCFD0224201C50
:103D0000FFF7ACFC336800221C70A023DB056A704F
:103D10005A7001221A7070BD280300200000002094
:103D200008B5FFF7D5FFFFF7C7FF08BD08B5A0230B
:103D3000DB05011C58683F2211409043084358603E
:103D400059685868114001310A401102064A024080
:103D50000A4306495A6000224A705A7001221A70BA
:103D6000FFF7AAFF08BDC046FFC0FFFF000000200C
:103D7000094B01211A685379D0799A1C0B40D3184A
:103D8000064A013012686A3212785343C018044B55
:103D90008000C0187047C046880E0020280300200D
:103DA0000040005010B5A023DB051C6A0005064A40
:103DB000000D010422400A431A621A6A120B120310
:103DC0001043186210BDC046FFFF00F0194B73B5D9
:103DD0001C68A0239034211C0422DB0516489B6834
:103DE00005F012FB2478FFF717FA144D002812D0C3
:103DF000134B144A1B7812782E6852B25BB20092B1
:103E0000201C1021D12201F0E3FF2B68883630609E
:103E100088331B68E418002C01DA002402E0FF2C30
:103E200000DDFF242B68E0B20833DC67FFF7A9FD53
:103E300073BDC046840E00200800005028030020F7
:103E4000530002005200020008B5FFF7BFFFFFF762
:103E500081FAFFF72DFA234BC0229200985822498D
:103E6000014099509958FF208143402001439950C7
:103E700098581E49014080200004014399509858E9
:103E800080210002000A0906014399500121022203
:103E90001A6008201960042119601860144B002072
:103EA0005860144B186901431961134B1B68197A48
:103EB000124B1B68DC33002900D1032210491A6021
:103EC00000230B700F49A0220B700F49D2050B7015
:103ED0009363D36B9B0E9B06D36362B600F096FA96
:103EE00008BDC04600E100E0FF00FFFFFFFF00FF4C
:103EF000FCE100E000ED00E0880E00202803002037
:103F000029000050280000502A00005008B5002861
:103F100001D0012801D100F079FAFFF757FFFFF730
:103F200019FAFFF7C5F908BDF0B5214B13211B683D
:103F30000224DA7A0023133AD2B291425B41E41AA6
:103F4000A023DB0558693F22596810408022D20324
:103F50000A43A3B05A60411EA023C9B2DB0502AADE
:103F6000FF2910D05F683F26124D0E4036043D40B9
:103F700035435D60C046251C24356D005D5B4B00FC
:103F8000D5520139E8E75C680B4921405960694620
:103F900000238B8001230B70022348708870CB7044
:103FA0000320B3230B7101F059FE23B0F0BDC046CE
:103FB000880E0020FFFFC0FFFFFFBFFF10B5A0204D
:103FC000C00544694906E401E409214341617F21B8
:103FD0000A4044699104074A22400A430649426163
:103FE00000224A70427001220270002B01D0FFF7BC
:103FF00063FE10BDFFFF03FE00000020F7B5041CA8
:1040000002F0A0FD124B1A6800235068411C019178
:10401000019D16689D420CDB976801367E4399002E
:104020008C469E1900216546B6006151013331511D
:10403000EEE701239E420ADB956800215D43AF0055
:104040002D180135AD00395101332951F2E7F7BD83
:10405000F8040020044B054900221A6059609A6058
:1040600005221A607047C04610E000E0FFFFFF0025
:1040700010B5A023DB059C6899680C4BC9B21B687E
:10408000E40388331B68E40F591AFF31E6235943D0
:104090000134074BA040C918041C064805F034F948
:1040A000C1B2201C05F030F910BDC0462803002025
:1040B0005C5D000040420F00014B00221A60704717
:1040C00010E000E030B50D4D0D48AB6885B0C01A6A
:1040D0000193FFF7CDFF02A9012300240B704B7061
:1040E0008B7004230190CB70201C6F2301AA8C805D
:1040F0000B7101F0B3FD2C6005B030BD10E000E0A5
:10410000FFFFFF00A023DB05D87CC0B270478023EF
:10411000DB0500BA09BAD8601961704737B5051CCC
:104120000424291C221C684605F06EF92919221C5A
:1041300001A805F069F9009980230ABADB05DA6065
:1041400001990ABA1A6137BD40BA80B2704700BA05
:1041500070470023114A12499A188A4204D2114921
:10416000C95804331160F5E70F4B104A191D043B81
:10417000934203D200221A600B1CF6E70C4B0D4A47
:104180001360EFF308820433191D043B9A4203D9EC
:10419000094818600B1CF7E77047C0463C00002038
:1041A0000C050020E095000010050020780E00208E
:1041B000C40E0020A00E0020CDCDCDCDF0B5294DF0
:1041C00089B029482C6800F0F3F8FFF7B3F800260F
:1041D000264FBC4222D280373B1B2027832B00DC9A
:1041E0009F1002A9FAB2012300204A708A70BF1002
:1041F000221C0B70CB70888001F030FD231C3A1C10
:10420000013A08D3002E04D119491868884200D019
:104210001E1C0433F4E7BF00E419D9E72B6804A996
:10422000F31A0025019304230124CB70281CA72333
:1042300001AA8D800C704C708C700B71843701F06A
:104240000DFD06A90420C870A823BE1B281C01AAC6
:104250008D8001960C704C708C700B7101F0FEFC1F
:1042600009B0F0BDA00E0020801A060080370020A3
:10427000CDCDCDCD024B1B680633D87F7047C046ED
:104280002803002070B5051CFFF798FC0A4B1C683A
:10429000A31DDB7F9A00AD180022511ED218002A00
:1042A00009D0E218521826321278920016588A0065
:1042B000AE500A1CF1E770BD2803002030B50B4B4F
:1042C0001B689A1DD27F94001C195300C01800234C
:1042D0000133D11A013107D09D00651B8C3559007F
:1042E0002D6849424552F3E730BDC04628030020FF
:1042F000A02382B080B2DB05D88502B07047A0232E
:10430000DB05D88D82B002B0704770B5051CFEF792
:1043100053FF0468061C013C08D37268E300D318FD
:104320001A68AA42F7D15B689847F4E7014B013D50
:104330001D6070BD8C0E002070B5051CFEF73CFFA3
:104340008468061C013C08D3F268E300D3181A689D
:10435000AA42F7D15B689847F4E7024B013D1D6024
:1043600070BDC0468C0E002038B5A023DB059968CF
:104370009D680C4B041C1B680B4888331B68ED03BD
:10438000C91AC943E623C9B25943084BED0FC918EE
:1043900004F0BAFF044B01355843211C284104F0B6
:1043A000B3FF38BD2803002040420F005C5D0000D1
:1043B00038B5A023DB0599689C680A4B051C1B686F
:1043C000094888331B68E403C91AC943E623C9B204
:1043D0005943064BE40FC91804F096FF68430134B3
:1043E000204138BD2803002040420F005C5D0000E2
:1043F000002801D0133907E0122902DD262902DD49
:104400001239491000E000E0081C7047F0B5E24B9B
:10441000B1B01B680293DC79002C00D187E15333E3
:104420001B780021133BDBB21322081C9A4248413F
:10443000C4B20594022609AC361A1422201C05F0D9
:1044400025F8029D6F7A02982B1ABB4210DA2B1CBA
:10445000533319780598FFF7CBFF132800D9CBE326
:10446000235C0135B34200DBC6E301332354EAE7A2
:10447000CA4B00251B68291C049363331D70049BE1
:10448000882266331D700EA805F000F8291C14223E
:10449000201C04F0FBFFC24B0EA8196844224431D3
:1044A00004F0B2FF022E04D11FA80EA9442204F08A
:1044B000ABFF0025029C0395029D6B7A671B0134BC
:1044C0009F4234DA231C52331D780598291CFFF7CC
:1044D0008FFF09AA115C6E118C4606961121664663
:1044E0007143069E0EAB89191F2635400631012601
:1044F0008900AE40351CCE583543CD50049D3F2336
:10450000E919061C1E40583106968F796646B5019A
:10451000069E9F433E431E4063460133039F2E4346
:10452000DBB28E7113549F42C6DA0393C4E7049B37
:10453000039E0027F6B2653306961E700497029715
:104540000597954B059E1A68937A9E4200DBA1E081
:10455000059C1319583319780123081C20381D1C99
:1045600083408D409801039CAC468009002C18D0F4
:10457000013C442363430EAD00265E55EB181D1C21
:104580001F2905DC5F6A66461E62BB0E9B0606E0BD
:104590001E626F6A8301BE0E9B09B60633436B62CF
:1045A000E4E77E4B527A1968231C934210DAC8184C
:1045B000583085794426A806AD097543049F800EBE
:1045C000281801370EADFF18281807710133ECE7E2
:1045D000734B049E1B68B6181A1C46324533177875
:1045E0001D78FF06AD060496FF0EAD0EFEF714FE15
:1045F000002813D06B4E882031780137C9B204F0FF
:1046000083FE31784743C9B2882004F07DFE02352D
:104610004543013F023D0026781C03D03E1E1F2E5D
:1046200000DD1F263F2D01DD3F2502E0EB43DB17B8
:104630001D40029944274F435B4ABF1803998C429F
:104640001EDA4422111C61430EAB5918301C1F2383
:1046500018400790887801349843031C0798034357
:104660008B70281C3F231840079048789843031C00
:10467000079803434B70381C04F0C6FE4437DDE74F
:10468000CB43029C059DDB170B40E41801350294D7
:10469000059556E7414B029F1C68FBB2211C643113
:1046A0000B70CB70069D00238B7105310D70517A14
:1046B0000EAA8B420FDAE018583085794426A806F6
:1046C000AD097543049F800E28180137FF18121892
:1046D00017710133ECE7029F44237B439A1A1AAE09
:1046E00004920025039FBD4218DA44276F430EA8A9
:1046F000C719786A0021820E920639627A62301CEC
:10470000142204F0C3FE0499284A01358818801940
:10471000391C442204F078FE4436E3E7FB43DB1700
:10472000029D3B40EB186834039323700DE01B4D52
:10473000211C28680422633004F0A8FE2868211C8C
:104740006730042204F0A2FE0394134B00211C687E
:104750001322E37A0E1C133BDBB29A424E41F7B2AE
:10476000059709A802271422BF1B04F08FFE667963
:10477000251C2B1BB3421BDAE97A0598FFF738FE9C
:10478000132800D938E209AB1A5C0135BA4200DBC4
:1047900032E201321A54ECE7880E00202803002090
:1047A000840E00205400020000800050D07F005092
:1047B000A24D03982E680122331C6B331870DA70F7
:1047C000002188220EA804F061FE0021142209A80D
:1047D00004F05CFE9A4B0EA81968442204F014FE03
:1047E000022F04D11FA80EA9442204F00DFE0027B9
:1047F000251C04972F1B0697637901359F423CDAED
:10480000AF7A0598391CFFF7F3FD09A9095C0EABD7
:104810000291029A44215143091859182A1B0A711E
:10482000791109AA0791115C11225143079A89183D
:104830008A1D1F210F4001219200B9400F1CD15841
:104840000F43D750069F3F23F219011C029F1940C6
:104850000691BF0151780797069F99430F43079927
:104860001F40029B0F4357700133049FDBB209AA1C
:1048700013549F42BEDA0493BCE7049C6D36E4B245
:1048800001250694347002956E4A029B1668013B1E
:10489000B279934200DB81E0F6182836F2790121E3
:1048A000101C20380E1C814096408901049DB4469E
:1048B0008909002D18D0013D44246C43029F0EA8A5
:1048C00027540419201C0026266220304768BE0E9B
:1048D000B60646601F2A02DC60462062E9E78C01CA
:1048E000A40926434660E4E7554A12685478D31871
:1048F000C833A4061E78A40EFEF78EFC002812D042
:10490000514F882039780136C9B204F0FDFC39785E
:104910004643C9B2882004F0F7FC02344443013E08
:10492000023C711C03D0351E1F2D00DD1F253F2CBE
:1049300001DD3F2402E0E343DB171C40039E039F9D
:10494000079644267E4341483618039F0798391A34
:10495000049FB9421EDA442251430EAB59188F7896
:104960001F239F43281C18403B1C03434F788B7028
:104970003F239F43201C18403B1C039F03434B7065
:104980003B2F00DD38E1301C013704F03DFD44369B
:104990000397DAE7029C0134029475E7274B039DE5
:1049A0001C68029F221CEBB26C321370D370231C64
:1049B000069DFFB272331F70013B1D7009A80021D4
:1049C00014220297002504F061FDA31DDD777379A1
:1049D0009D423DDA7319DF7A0598391CFFF708FD0F
:1049E00009AB1B5C0493002B0BD1A31DD97F4A1C80
:1049F0006118DA770731EBB20EAACB7701331118C1
:104A00000B710EAB1A1812796119944601225242A9
:104A1000944462463A310A7079111F2217400631D8
:104A2000012294468900BA40171CCA5865441743AE
:104A3000049ACF50624409AB1A54C8E728030020F7
:104A4000840E0020880E00205400020000800050D8
:104A5000D74B1B685C78A406A40EFEF7DDFB00288C
:104A60000AD0D44B882019780234C9B204F04CFC27
:104A700044430023023C03D4231E3F2B00DD3F238D
:104A80000EACA2781F218A436178A2703F22914325
:104A9000666A1340029D0B436370B30E25709B063C
:104AA000002563621AA8291C1422256204F0EEFC7A
:104AB000039F3B2F00DD9FE044207843BE49442202
:104AC00040180137211C04F09FFC0397BB4F03984B
:104AD0003E68C7B2331C70331F700D3B1B78321C0D
:104AE0007732311C137057706F3109780B3A51735C
:104AF000311C7B3197730B701278331C7C33301C64
:104B00001A707D30022204F07FFCAD4B13221B682B
:104B1000291C0293DB7A201C133BDBB29A426941C9
:104B2000CAB206920222521A331C73330492012233
:104B3000DA701F70291C882204F0A8FC291C14229A
:104B400009A804F0A3FC0299201C6031442204F05F
:104B50005BFC049D022D04D11FA8211C442204F0FB
:104B600053FC029C00270497029F029DE71B0597B8
:104B70006B7901349F4238DAA57A0698291CFFF731
:104B800037FC09A90F5C44217943029A0EAB09183E
:104B90005918A21A0A71691109AA0791115C112208
:104BA0005143079A89188A1D1F210D400121920047
:104BB000A9400D1CD1580D43D550059D3F237219B6
:104BC0005178051C99438C46B9011D4005916146F9
:104BD0000D431D40059B01371D435570FFB209ADC4
:104BE0002F54049DBD42BFDABDE7331C049E7533CC
:104BF00000271E70029701E00020D7E0049A002AE7
:104C000014D0013A442151430EA84118CE6A002025
:104C10004D6A08628862B00E8006CB78AC0EC8621E
:104C20002020A40603434C62CB70E8E7644B029A51
:104C30001C68A7790597029D059E531BB34249DA6C
:104C4000029D5110631B9B182F33187801231F1CE2
:104C50008740BC46071C1940203FEEB20791BB407D
:104C6000049906961F1C002932D0013944234B4376
:104C7000029D0EAE01359D55069DF318079E6DB23F
:104C80000195B54210D01F2804DC1E6A65463543E5
:104C90001D62E8E75D6A2E1C3E43B601AD0EB60903
:104CA000AD0635435D62DEE71F2804DC9E6A65467B
:104CB00035439D62D7E71D1CDB6A3B439B019B0983
:104CC0000193EB6A9E0E019BB6063343EB62CAE783
:104CD0000132B0E7364B61341B6825789B19C83325
:104CE000AD061F78AD0EFEF797FA002813D0314CB1
:104CF000882021780137C9B204F006FB21784743A8
:104D0000C9B2882004F000FB02354543013F023D53
:104D10000024781C03D03C1E1F2C00DD1F243F26DE
:104D20003F2D02DCEE43F6172E40039D039F0595B1
:104D300044257D4320482D18039F0598391A049F68
:104D4000B9421FDA442251430EAB59188F781F2302
:104D50009F43201C18403B1C03434F788B703F231C
:104D60009F43301C18403B1C039F03434B703C2F58
:104D700000D141E7281C04F047FB039F443501376D
:104D80000397D9E7029C01340294022C00D035E746
:104D90000A4B039D1B68EAB2191C7431181C0A7077
:104DA000733000788033C8721A70012031B0F0BDC2
:104DB000840E0020540002000080005028030020D0
:104DC000880E0020F8B5164D061C2B6800246333AE
:104DD0001F782B68E1191A1C643212780134914251
:104DE00009DAE319442058430E4B311CC018142231
:104DF00004F04CFBEDE76B331F7800242B68E219BD
:104E00006C331B7801349A4209DAE3194420584381
:104E1000044B311CC018142204F038FBEEE7F8BD37
:104E200028030020EC7F0050F0B5374B85B01B689D
:104E300002901A1C039163321578344A00201168DD
:104E4000041C8A7A94422BDA021C4F7A161ABE424C
:104E50001FDA9E195836B679B7090096EF1944261D
:104E60007E432B4FB4463E1C009F66440196BE060F
:104E7000039FB60EB446BE5C3F2E00DD3F26F6B261
:104E80000096019E0132371C6744009E30373E7009
:104E9000DBE7181C6530007801342D18101CD0E7B2
:104EA0001A1C6B32147800208A79904229DA002289
:104EB0004D790195AA421EDA9E187678B709E7194E
:104EC000039744273D1C039FB6067D43AC46104D17
:104ED000B60E2F1C019D674445430397029FBF18E0
:104EE0007D5D3F2D00DD3F25039FEDB2BE193036BD
:104EF00035700132DCE71A1C6D3212780130A418CB
:104F0000D2E705B0F0BDC04628030020880E00207F
:104F100000800050F0B5A24B95B01C686846A3799C
:104F2000627900AF5A43131C0E33DB08DB00C01A52
:104F300093000E33DB08DB008546C01A6D468546BC
:104F4000FD616D463D61E3792726191C0E319B00FA
:104F5000C9080E33C900DB08401ADB008546C01AB9
:104F60006D468546BD6100216D46F869FD6004F01F
:104F70008DFAA379627900215A433869920004F0CE
:104F800085FAE2790021B86904F080FAE279F868DC
:104F90009200002104F07AFA0023F3552722D05D15
:104FA0007F4E3E2800D9C8E0FFF70CFF0020FEF737
:104FB000B7FE2721C95D30687961002283799A4262
:104FC00035DA00234179541C8B422EDA161C4E43ED
:104FD0009E198D1CBE600126AC4631406144614380
:104FE0008919C9188D006F493E696D182D687D605B
:104FF000BD68AD00A9597D68A94214D27D69FE69DA
:10500000B9687554417901258E1C0D4075196C43A2
:1050100051430134E418634EA400A41924685918BC
:105020003D6989004C510133CCE7221CC6E7FEF7ED
:1050300073FD5B4B27261B68F65D002278613B60A1
:10504000BE607A603D687E68AB7A9E421CDAFE687C
:10505000940035197E69111C3419002338685A18D8
:10506000407A83420CDA9A00A858A658B04205D27A
:10507000BE69B8687618F054A658AE500133EDE713
:10508000796801317960DDE7012529212A22002490
:10509000CD55D55528202B23391C3A1CC555DD5537
:1050A0002C261D23201C28312732BC85F35500F007
:1050B000D5FD3B4E3C633368BC869A793020C2559F
:1050C0005B7931211A1CCB552A400233D318332087
:1050D0003222D355C25D7F218A430420024333210B
:1050E000CA5531499B0051223420C2555A18391CE7
:1050F000201C303100F0B2FD33683822BC63BC871D
:10510000D555DB793B2039253A26F355EB55C35D60
:105110007F218B4304221343C519391C2B70201C9B
:105120005A2338313C267A69F35500F097FD272041
:10513000C35DC11901330B7030E7391C40310024C5
:1051400033683C648C809A797F250A705B79FA69B0
:105150004B708B70CB780820AB4301252B43CB7071
:105160001D230B7100F07AFD391C48313368BC6493
:105170008C800D70DB797F264B708B70CB78BA6991
:10518000B3431D4308201E230B71CD7000F066FD54
:10519000F869B969FFF748FEBD4615B0F0BDC046D5
:1051A000880E002000400050044000504423584323
:1051B000044B111CC018C2780F2319409A430A43AC
:1051C000C27070470080005038B5051C141CFEF7F3
:1051D00023F8002808D00A4B882019780234C9B275
:1051E00004F092F84443023C44206843054A3F23BC
:1051F000801802781C409A431443047038BDC0469E
:10520000540002000180005010B5041CFEF704F8A1
:10521000002808D0084B882019780434C9B204F05B
:1052200073F84443043CA023DB05198A1F22144071
:1052300091430C431C8210BD5400020030B50F4B4B
:105240001B689979884203DA1B182833D87914E04F
:105250005A798D18411AA84202DA5B18D87A0CE004
:105260009C7A8A1A2D19A84203DA9B1858331878A9
:1052700003E0141B1B195033D87830BD880E002072
:10528000F0B5D44DA024E405A3682B6897B05979F4
:105290009A7900AF8A18597A9B7A5218D3181A1C37
:1052A0005A437B62D31DDB08DB006846C01A854683
:1052B0006B46FF217B6104F0E9F8FF20FFF778F8E7
:1052C000C54B69461B1A786ABB60C000031C0E33CD
:1052D000DB08DB003861C91A786A8D466B468000AE
:1052E0003B62031C0A33DB08DB00C91A00220023DF
:1052F0003A637B63F860F961E268B84B8D4613400E
:10530000E3602B685C79B34B013C1B68621C14D0D2
:105310001B19381CD97A5030202204F057F83D6D03
:1053200058207A6DAB00C019C3180121283B914069
:105330000A1C19680A431A60E5E79C79A54B013CF1
:105340001B68621C15D01B192833381CD9795030C2
:10535000202204F03BF83D6D58207A6DAB00C01957
:10536000C3180121283B91400A1C19680A431A609E
:10537000E4E75C7A974B013C1B68621C15D01B1953
:105380005033381CD9785030202204F01FF83D6D7E
:1053900058207A6DAB00C019C3180121283B9140F9
:1053A0000A1C19680A431A60E4E79C7A013C621CF3
:1053B00017D0884B381C1B6850301B19583319788C
:1053C000202204F003F83D6D58207A6DAB00C0191F
:1053D000C3180121283B91400A1C19680A431A602E
:1053E000E4E77D69BD610025FD62FD6A786A85425A
:1053F00000DBDEE000213A69386A04F047F8A024B7
:105400000021FA68F86904F041F8E40500232363F9
:10541000636B9B0E9B0663633D6BA563786BB86201
:10542000E36B86019B0EB6099B063343E36364205E
:10543000FEF7BEFFFDF77EFFF86AFFF7FFFEC1B281
:10544000381C4830202203F0C1FF396B7A6BFB6CAB
:10545000B963FA63BA6C0121994058200B1CC0193A
:1054600091004118081C203802689A430260B86C09
:10547000131C00280AD028390A6853409A01636B2C
:1054800092099B0E9B061343636301E06B40236309
:10549000A024E405A563E36B0A209B0E9B061E4334
:1054A000E663FEF785FFFDF745FFE26B8023DB0433
:1054B0001343E363B96BBA6A4D40A563FB6B5A4073
:1054C000E36B92019B0E92099B061343E363FEF785
:1054D000C1FDFD6BBE6B3B6AAC460124404ABD6812
:1054E0009168A94214DB3F4A654610685268304013
:1054F0002A405D68954203D3F0D11D688542EDD204
:10550000FD69DA60A2009860A95001340833E5E72C
:10551000FEF7D2FDA023DB05D96B334A0A40DA63DC
:10552000012C3ED0651E386AED004519013C002C67
:1055300037D02B1C083B1A6829685B6891436A685E
:105540007E6A9A43A30039647A64013EBB62FA6AB8
:10555000964224D0301CFFF771FE011C381C5030DD
:10556000202203F033FF7B6D0122386D9A405821D1
:10557000131CC91982008A18183A12681A420CD0F2
:10558000BB6AFA691720D25840425043174BC018E3
:10559000FEF76EFDB96900118855013ED7E7083D59
:1055A000C4E7FD6A786A0135FD62BD692D18BD61E9
:1055B0001BE7C3B2381C5030037043708370002364
:1055C000C370037179690123437100F0E5F8BD46AA
:1055D00017B0F0BD880E0020FFFFFF00FFFF0FFF98
:1055E00010E000E040000050FFFFFFFBE9FFFF1666
:1055F000014B18607047C046940E0020014B18689C
:105600007047C046940E0020014B18607047C0469A
:10561000900E0020014B18687047C046900E002085
:10562000014B18687047C0462C030020F7B5334F74
:1056300073467146381C0193FEF767FEFBF7B0FA1C
:10564000009001F07FFA061CFDF7C2FD2C4D1022E0
:10565000041C0099286803F0D7FE32882B68381C98
:105660001A74120A5A74B2889A74120ADA74254AA1
:1056700012680532D27F002A03D0A2791A756279A6
:1056800002E062791A75A2795A75E2799A751E4A12
:105690006B6812881A70120A5A701C4A52889A70E3
:1056A000120ADA701A4A52881A71120A5A71194A81
:1056B000D2889A71120ADA71174AAB68920A1A7084
:1056C000164A920A5A70164A920A9A70154A920A13
:1056D000DA70154A920A1A71144A920A5A71144AD7
:1056E000920A9A71134A0199920ADA71A023DB0592
:1056F000DA7C6B691A70FEF71FFEF7BDCD5500000E
:1057000030030020F8040020FE030000FC9B000092
:10571000FCAF0000F8BF0000000000000004000023
:1057200000040000009C0000009C000000B000008D
:1057300000B0000000C00000F7B50A4C7146061C1E
:10574000201C7546FEF7E1FD074A694681CA81C102
:105750006B46B600F658201C291CFEF7EDFD301CE8
:10576000FEBDC046D9560000C894000070B5084C74
:105770007146201C7646FEF7C8FD064B201CDB69EF
:10578000311C5D78EDB2FEF7D7FD281C70BDC04618
:105790000D57000030030020F8B5144D041C0F1CF9
:1057A000281C71467646FEF7B0FD114BFF215A6A60
:1057B000117010499C620F60A0782778596B47439D
:1057C00020793F1860794006400E78430860986958
:1057D000A0210170D969281C1378FF2B02D10B7806
:1057E000022BF9D0311CFEF7A7FDF8BD3957000098
:1057F000300300203006002038B50D4C7146201CC7
:105800007546FEF782FD0B4AD1694B780A49DBB237
:105810000B72012B05D0022B05D1936901225A701E
:1058200001E0FDF755FE291C201CFEF785FD38BD63
:1058300099570000300300203006002038B50D4C89
:105840007146201C7546FEF760FD0B4BDB68002B94
:105850000BD00A4ADBB2106C7F211940483201702C
:10586000937001335370FFF7C7FF291C201CFEF70C
:1058700063FD38BDDD5700003006002030030020F6
:1058800070B50F4C7146201C7546FEF73EFD0D4B62
:10589000261C1B7A0C4C012B05D0022B05D1A269CA
:1058A0000023537001E0FDF725FE236C7F211A7859
:1058B000301C8A431A70291CFEF73EFD70BDC0469D
:1058C000215800003006002030030020F7B5254E97
:1058D0007346301C71460193FEF717FD224C0025DC
:1058E000224E337A012B07D0002B25D0022B24D156
:1058F0001F4B9B695D7820E0FDF70CFE051C002C1A
:105900000CD1FDF7F7FD2E23FF33013B002B01D017
:10591000C046FAE7FDF7DCFD134C0BE0124A944257
:1059200008D0002806D12E23FF33013B002B01D0E5
:10593000C046FAE7013C00E01D1C0D4FFA695378A0
:10594000327A9A4206D0FFF79BFFFB69074A5B78E1
:10595000137201E0002DC3D102480199FEF7ECFC5F
:10596000F7BDC0466D580000FFFF00003006002064
:1059700030030020F7B5164D7346071C0E1C281C7B
:1059800071460193FEF7C1FCFFF7A0FF114C802286
:10599000236C52421978606C0A431A70391C321C0D
:1059A00003F032FD236CF6B218787F229043311C4D
:1059B0001140021C0A431A704834A670FFF71CFFFE
:1059C000FFF784FF281C0199FEF7B6FCF7BDC0461F
:1059D0001559000030030020F8B5FBF7E1F801F09D
:1059E000B1F8FDF7F5FB1A4C051C666B03F07AFB6A
:1059F0007060FFF71BFE174B1B681888E36B020AE9
:105A00005A711871FFF798FEE26BC6B296712B6857
:105A1000EF790136FF1801374743381C00F0E9F9E8
:105A20003A1C0021051C206403F030FD231C483380
:105A3000013500225E7065649A7003F04DFB064BE1
:105A40005860A023DB059A7CE36C1A70F8BDC04651
:105A500030030020940E002030060020024BDB694A
:105A60001878C0B27047C04630030020024BDB6993
:105A70009878C0B27047C04630030020014BDB6904
:105A80009870704730030020024BDB69D878C0B2B1
:105A90007047C04630030020014BDB69D870704767
:105AA00030030020014BDB69586870473003002049
:105AB000024BDB695A6858607047C04630030020CB
:105AC000024BDB69187AC0B27047C0463003002031
:105AD000014BDB691872704730030020024BDB6911
