:1000000000A0000000050000F296000000000000C3
:1000100000000000000000000000000000000000E0
:10002000801878FFE4B8200118F6D8F99000007F16
:10003000007E07E4F0A3DFFCDEFA7581200230D1F8
:10004000CBEFCBEBD3940F5020748B2B121465E0C5
:100050007017748B2BF582E4340212110024A6F57C
:1000600082E43402F5831220222200022A7E7F05D8
:100070001238F512102012325F90022A7401F00239
:100080002F4F000231FE25E025E02414F582E434F0
:1000900003F583E0F8A3E0F9A3E0FAA3E0FB900303
:1000A00020E0FCA3E0FDA3E0FEA3E0C39BFBEE9AEF
:1000B000FAED99F9EC98F82275F00212205F75F0CC
:1000C00099E0FCA3E0FDEFA42445F582E5F03400BF
:1000D000F58322EF2466FFEE34FEFE7C007D0A12DB
:1000E0001F487D32121F5AEF249AFFEE3401FEEBB7
:1000F00075F002A42427F582E5F03400F58322751B
:10010000F00212205FE0FCA3E0FD75F099EFA4245B
:1001100057F582E5F03400F583EE75F00202205FBA
:10012000F5837401F0900320E0FCA3E0FDA3E0FE62
:10013000A3E0FFEB25E025E02275F002EBA4241BF1
:10014000F582E5F03400F583E0FCA3E0FDEB75F00B
:1001500002A42415F582E5F03400F5832275F099A8
:10016000EEA424A8F582E5F03400F583E5822FF5AE
:1001700082E43583F583E4F075F099EEA424B1F5BB
:1001800082E5F03400F583E5822FF582E43583F5CE
:100190008322E0FEA3E0FF9003DAE0FD75F002A405
:1001A000247BF582E5F03400F583EE8FF0121FE535
:1001B00075F002EDA4247BF582E5F03400F583228E
:1001C000EF2424FFEE34FAFE7C007D0A121F487DE6
:1001D0001E121F5AEF24DCFFEE3405FEEB75F00211
:1001E000A42421F582E5F03400F58322F583E4931D
:1001F000FC740193FD75F002EFA42404F582E5F090
:100200003402F583ECF0A3EDF09003C7E0229003F5
:10021000C7E0FF75F099A42469F582E5F03400F594
:100220008322E025E024EEF582E4341CF583E49398
:10023000FE740193FFE4FCFDC3022011F583E493F7
:10024000FC740193FD75F002EFA4229003C6E0FE5A
:1002500075F099A42433F582E5F03400F583EF7549
:10026000F00202205F9003DAE0FD75F099A4248D7E
:10027000F582E5F03400F583229003DA75F099E019
:10028000FFA42457F582E5F03400F5832274309002
:100290002EC9F0902E4E22E04401F0E4900014F0BC
:1002A000900310229003DA75F099E0FFA42433F54F
:1002B00082E5F03400F58322F0A3F0A3F0A3F0A3CD
:1002C000F0A3F0A32275F002EBA4241BF582E5F065
:1002D0003400F58322C3E0FDEF9D7480F86E982210
:1002E0009003C7E025E024C9F582E43403F58322B6
:1002F000E0FEA3E0C39DFFEE9C22E0FEA3E0FFD35F
:1003000022E0FCA3E0FD75F099227404F0902EC366
:1003100074C0F0A322F583E0FCA3E0FD75F0022297
:100320002410F582E43402F58322F090033EE05479
:10033000F0F022F583E4F07F0122CBEFCBEBD394F6
:10034000032275F002A424FEF582E5F03401229028
:1003500003DAE0FF2413F582E43402F583227416F5
:100360002EF582E43402F583229003E2E0FF24A814
:10037000F582E43400F58322ECF0EDA3F09003DB8A
:10038000E004F0229003DDE0FEA3E0FF229003DA18
:10039000E0FF75F09922E04406F09000147401F03B
:1003A00022EE8FF0121FE575F09922EB25E024AEC6
:1003B000F582E4341EF58322EF25E024CFF582E4B4
:1003C0003403F58322900013E0FF9003C7E0C39F3E
:1003D00022240AF582E5F034022274222EF582E40A
:1003E0003402F5832275F099A424A8F582E5F0344F
:1003F0000022E0FCA3E0FDEC541F22E4F0A3F07522
:10040000F00222F074B12FF582E43400F58322C3A8
:10041000EF94F6EE6480947F22900221E064012242
:10042000E4F0A3F075F09922E49003BEF090022A64
:100430007402F022E490021AF09002FAF022242DC5
:10044000F582E5F03400229003DAE0FD75F09922A0
:10045000F074172EF582E43402F583E4F022E0FC18
:10046000A3E0C3941EEC6480948022E0FF9003C953
:10047000E0FEEFC8EEC80822A42459F582E5F03466
:1004800000F583E022F582E43402F58322F582E46C
:100490003402F58322F582E43402F58322F582E406
:1004A0003403F58322F582E43403F58322F582E4F4
:1004B0003402F58322F582E43400F58322F582E4E8
:1004C0003402F58322F582E43403F58322902EC5AD
:1004D000E4F0902ECDF0A3F022F582E43402F5830F
:1004E00022940AEE648094802275F002EC02205F70
:1004F000E0FEA3E0FF7C0022E0FCA3E0FDC3EF9D53
:10050000FFEE9C22F0ECA3F0EDA3F022902EC6F0BB
:10051000902EC57401F022EEA42457F582E5F03444
:1005200000229003DBE0FF9003DAE022E0FEA3E08C
:10053000FFC322F090021BF09002FBF022EEF0A32A
:10054000EFF09003BEE0229003DAEFF0121322F5F1
:1005500083E0FEA3E07803CEC313CE13D8F9900353
:10056000E1F0E4A3F09003DCF09003DBF09003DB18
:10057000E0FFC39409400302170AEF9003DF7009FC
:100580007408F0A37406F080077408F02407A3F041
:10059000121259C083C0829003DBE0FED082D08368
:1005A0001210981210F91212D09003DDF0A3EFF0A0
:1005B00012132FE0601A75F099EF121194C083C0E6
:1005C000829003DBE0D082D0831210FAE4F0A3F033
:1005D00012136412397C9003DF1212B550431213C8
:1005E00064121427121194C083C0829003DBE0FCD4
:1005F000D082D0831210FA121381121193EC1210D0
:10060000FA1212DA940FEE6480948040030216828C
:10061000C3EF94F1EE6480947F40030216D102167A
:10062000AD12136412397C9003E11212B55004A389
:10063000E004F0121364C394FAEE6480947F5006D1
:100640009003DCE004F01213F960030216D11239B2
:100650007C9003E01212B5501E12136D1210A7C049
:1006600083C0829003DBE0FED082D0831210DFECE7
:10067000F0A3EDF00216D112136412142712119494
:10068000C083C0829003DBE0FCD082D0831210FADA
:10069000121381121193EC12123F1212DA1214C1CA
:1006A0004026121427121194C083C0829003DBE00D
:1006B000FCD082D0831210FA121400ED12126112D3
:1006C00014C9E475F00180261213EF502412136D43
:1006D000121194C083C0829003DBE0FED082D083ED
:1006E0001210FAE4F0A3F01210EA74FFF5F0121FF2
:1006F000E5121259C083C0829003DBE0FED082D0A5
:10070000831210981210F91212D0FE9003DAE01240
:1007100011F3C083C0829003DBE0D082D08312103B
:10072000FAEEF0EF12135B02154D1213F9703890C8
:1007300003DAE0FF24221213BDE0702B74222F1283
:1007400013BD7401F0E49003DBF012136D1210A7D7
:10075000C083C0829003DBE0FED082D0831210DF22
:10076000121358E0B409E39003DCE0C3940440376B
:100770009003DAE0FF1237AE9003DAE0FF1235BEE5
:10078000EF602CE49003DBF012136D1210A7C0830E
:10079000C0829003DBE0FED082D0831210DF121300
:1007A00058E0B409E380089003DAE0FF12392290A0
:1007B00003E2E0C39404403712132FE07031123784
:1007C000889003DAE0FF123586EF602BE49003DBBC
:1007D000F012136D1210A7C083C0829003DBE0FEFD
:1007E000D082D0831210DF121358E0B409E32290B4
:1007F00003DAE0FF12391322122414E49003C7F045
:10080000900013E0FF9003C7E0C39F4003021A5912
:10081000E0FF1212C4E4F0A3F0121398E4F0A3F086
:100820009003D5F0A3F0A3F0A3F0A37409F0EF7048
:1008300003021A501220979003C7E0FF121527E415
:100840009003C8F09003C8E0FFC394094003021965
:10085000891213F960069002FDE0601A900014E01E
:100860007014900310E0700E9003C7E01211F312A1
:10087000123EE4F0A3F09003C8E0FF700302198079
:100880009003C7E0FE1211F312123EE0FCA3E0C396
:100890009406EC64809480501C75F099EE1211F669
:1008A000C083C0829003C8E0D082D0831210FAE4E3
:1008B000F0A3F080461211EEC083C0829003C8E01E
:1008C000FED082D0831210FAE0FCA3E0C3940AECBD
:1008D00064809480502575F099EFA42469F582E531
:1008E000F034001210F7C083C0821214D07D0212BF
:1008F0001FAFD082D083EEF0A3EFF09003C7E0FFEC
:1009000075F099121458FCA3E0FD121398EC8DF0C9
:10091000121FE51211EEC083C0829003C8E0D0829E
:10092000D0831210FA1212E1EF121458FEA3E02D38
:10093000FFEE3CFE9003C7E0FD1212C4121381EDDE
:100940001211F6C083C0829003C8E0D082D0831217
:1009500010FA12150C9003D6E09FEE6480F8900315
:10096000D5E064809850129003C8E0FD9003D5EE66
:10097000F0A3EFF09003D9EDF09003C7E01211F36C
:10098000C083C0829003C8E0D082D0831210FAE006
:10099000FEA3E0FF9003D8E02FF09003D7E03EF0F5
:1009A0009003C8E004F00218249003D5E0FAA3E015
:1009B000FBC39003D8E09BF09003D7E09AF01214A9
:1009C000D07D07121FAF9003D7EEF0A3EFF0C3EB7B
:1009D0009FFFEA9EFED3EF9402EE64809480403144
:1009E000A3E06409602B1212C0C083C082E0FEA3A2
:1009F000E0FF9003D51214D8D082D083F0A3EFF09B
:100A00009003D7E0FEA3E0FF1212C0EE8FF0121F9A
:100A1000E59003C7E0FF1212C4E0FCA3E0FDEF1273
:100A2000112EECF0A3EDF09003C7E0FF121399E054
:100A3000FCA3E01212241212AAECF0A3EDF0900332
:100A4000EAE0602C9003C7E0B4010F12112EE0FF22
:100A5000A3E09002E2CFF0A3EFF09003C7E0B4026E
:100A60000F12112EE0FFA3E0900227CFF0A3EFF0CA
:100A70009003C7E004F00217E0E490021CF022E4C7
:100A80009003C8F09003C8E0FFC394094003021C20
:100A9000DEEF902EC87014E0545FF0A3746AF090FB
:100AA0002EC3744AF0A37401F0800EE044F0F0907D
:100AB0002EC37480F0A37407F09003C8E0901CE587
:100AC00093902ECAF0E49003C7F0900013E0FF90DB
:100AD00003C7E0FEC39F4003021CD574FE2E121410
:100AE000B9E0FF9003C9F0E4F5E2EFC39408503B8E
:100AF00074151214ECC083C08212144B8002C333ED
:100B0000D8FCD082D083F0902ECD7401F0C083C089
:100B100082E0FFC8EEC8088002C333D8FCD082D080
:100B200083F0902EC074C1F0021C549003C9E024DD
:100B3000F8F074161214ECC083C08212144B8002B9
:100B4000C333D8FCD082D083F0902ECE7401F0C095
:100B500083C082E0FFC8EEC8088002C333D8FCD04F
:100B600082D083F0902ECB74F4F0EEB40310902E6C
:100B7000C97420F0902EC37480F0A37409F0EE6461
:100B800006706E9003C8E0FFB401028059EFB40212
:100B9000028044EFB4030D12126D74841212EC74CF
:100BA00008F0804DEFB404028017EFB4050F742CE9
:100BB00012126F7488F0902EC37420800FEFB40669
:100BC0001212126D7424F0902EC374C0F0A3740935
:100BD000F0801EEFB4070B12126D1212EA7407F0C8
:100BE000800FEFB4080B12126D74881212EC7406A9
:100BF000F0EE640770789003C8E0FFB4010E1212A3
:100C00006D74881212EC7407F0021C4EEFB40202ED
:100C10008042EFB4030712126D7484804BEFB4046A
:100C200002801BEFB40513902EC9742CF0902E4E49
:100C30007488F0902EC37420800FEFB40612121245
:100C40006D7424F0902EC374C0F0A3740AF0801E5B
:100C5000EFB4070B12126D1212EA7408F0800FEF56
:100C6000B4080B12126D74881212EC7409F0902EF5
:100C7000C074C2F0E4FFFE900001742EF0A3E4F013
:100C80009003C7E024FE1214B9E09003C9F0E5E236
:100C900020E20B0FBF00010EEF64C84E70D953E283
:100CA000FB1214AD9003C9E0FD75F002A4FFAEF095
:100CB000900002E02FF0900001E03EF0ED901D1E4C
:100CC00093FF900001E475F002121FFB85F082F59E
:100CD000831212E1EF12128CC083C0829003C8E02D
:100CE000D082D0831210FAECF0A3EDF09003C7E0AD
:100CF00004F0021AAA9003C8E004F0021A649002F9
:100D00001C7401F0223F3F3F3F3F3F3F3F3F0032D7
:100D1000003203E8012C0258006402580004001E4F
:100D2000000A000A000F0064000A000C000C00001A
:100D300000000000000000000001000001010D0E95
:100D40000F030405060708090A000C0B0102003214
:100D50000032003200320032003200320032003203
:100D600000320032003200320032003200320037EE
:100D700000370037003700370037003700370037BB
:100D800000370037003700370037003700370028BA
:100D90000028002800280028002800280028002813
:100DA0000028002800280028002800280028002DFE
:100DB000002D002D002D002D002D002D002D002DCB
:100DC000002D002D002D002D002D002D002D006484
:100DD00000640064006400640064006400640064F3
:100DE00000640064006400640064006400640069DE
:100DF00000690069006900690069006900690069AB
:100E00000069006900690069006900690069005AA9
:100E1000005A005A005A005A005A005A005A005A02
:100E2000005A005A005A005A005A005A005A002D1F
:100E3000002D002D002D002D002D002D002D002D4A
:100E4000002D002D002D002D002D002D002D00C89F
:100E500000C800C800C800C800C800C800C800C852
:100E600000C800C800C800C800C800C800C800CD3D
:100E700000CD00CD00CD00CD00CD00CD00CD00CD0A
:100E800000CD00CD00CD00CD00CD00CD00CD00BE09
:100E900000BE00BE00BE00BE00BE00BE00BE00BE62
:100EA00000BE00BE00BE00BE00BE00BE00BE002DE3
:100EB000002D002D002D002D002D002D002D002DCA
:100EC000002D002D002D002D002D002D002D00FAED
:100ED00000FA00FA00FA00FA00FA00FA00FA00FA42
:100EE00000FA00FA00FA00FA00FA00FA00FABB0170
:100EF0000689828A83E0225002E722BBFE02E322B7
:100F000089828A83E49322BB010CE58229F582E57C
:100F1000833AF583E0225006E92582F8E622BBFEFB
:100F200006E92582F8E222E58229F582E5833AF591
:100F300083E49322BB010689828A83F0225002F760
:100F400022BBFE01F322F8BB010DE58229F582E503
:100F5000833AF583E8F0225006E92582C8F622BBE1
:100F6000FE05E92582C8F222EF8DF0A4A8F0CF8C0F
:100F7000F0A428CE8DF0A42EFE22BC000BBE0029CA
:100F8000EF8DF084FFADF022E4CCF875F008EF2F80
:100F9000FFEE33FEEC33FCEE9DEC984005FCEE9D3D
:100FA000FE0FD5F0E9E4CEFD22EDF8F5F0EE842059
:100FB000D21CFEADF075F008EF2FFFED33FD4007BA
:100FC000985006D5F0F222C398FD0FD5F0EA22C260
:100FD000D5EC30E709B2D5E4C39DFDE49CFCEE30CE
:100FE000E715B2D5E4C39FFFE49EFE121F5AC3E487
:100FF0009DFDE49CFC8003121F5A30D507C3E49F7B
:10100000FFE49EFE22C5F0F8A3E028F0C5F0F8E565
:1010100082158270021583E038F022A3F8E0C5F053
:1010200025F0F0E582158270021583E0C838F0E8FB
:1010300022EB9FF5F0EA9E42F0E99D42F0E89C45E4
:10104000F022ECF0A3EDF0A3EEF0A3EFF022A882E3
:101050008583F0D083D0821220451220451220458E
:10106000122045E473E493A3C583C5F0C583C8C5C6
:1010700082C8F0A3C583C5F0C583C8C582C822A4B1
:101080002582F582E5F03583F58322EF4E6012EF7D
:1010900060010EEDBB010B89828A83F0A3DFFCDEC9
:1010A000FA2289F05007F709DFFCA9F022BBFEFC09
:1010B000F309DFFCA9F0229003DAEFF09003DE746D
:1010C00012F0E49003DBF09003DBE0FFC3940940EF
:1010D00003022255EF603D1213F97038121284C0DA
:1010E00083C0829003DBE0FED082D083121098127E
:1010F00010F9ECF0A3EDF09003DAE012124AC0838D
:10110000C0829003DBE0D082D0831210FAE4F0A317
:10111000F002224C9003DAE0FF75F0991210A7C09C
:1011200083C0829003DBE0FED082D0831210FA12DB
:1011300012E1EFA42433F582E5F034001210F71227
:1011400012D0FE9003DCF0A3EFF012397C9003DEA6
:101150001212B540030221DD1215021213C512113D
:1011600065E0B401189003DA12122E1212E1EE12A9
:1011700010A712123EECF0A3EDF00222259003DC42
:10118000E0FEA3E0FF121245C083C0829003DBE0C3
:10119000FCD082D0831210FA121381ED12124D127C
:1011A00014C91212DA1214C14023121245C083C0AE
:1011B000829003DBE0FCD082D0831210FA1214007C
:1011C000ED1210A71214C9E475F001802A1213EF72
:1011D00050739003DAE0FF12124AC083C08290037A
:1011E000DBE0FED082D0831210FA1214001210A697
:1011F0001210F974FFF5F0121FE502222512128475
:10120000C083C0829003DBE0FED082D083121098AE
:101210001210F9ECF0A3EDF09003DA1211F1C08393
:10122000C0829003DBE0FED082D0831210FA121449
:101230003E401275F099EF1213C8F583E5822E1225
:10124000116A7401F0121502FE1213C5121165E045
:1012500064017018121158E004121157E0D394057C
:10126000400A9003DBE0FF12113DE4F09003DBE065
:1012700004F00220A7229003C7747EF0E4A3F0904C
:101280000013E0FE9003C8E0FFC39E400302240564
:10129000123666EF60031214149003C8E0FA1213BA
:1012A00000E060030223139003C8E0FF1213221230
:1012B00012F5EF1210D3E0FEA3E0C39DEE9C404C6C
:1012C0009003C8E09003C7F01213007401F090027D
:1012D0001AE004F09002FAF09003C8E0FF2416121E
:1012E00013417401F01239409003C8E0FF12394FE6
:1012F0009003C8E0FF1238209003C8E0FF12386C5A
:101300009003C8E01213347401F08012CFEACF12B8
:10131000362EEF60099003C8E0121334E4F0900316
:10132000C8E0FF12369EEF70030223FCE490021B1C
:101330000223F79003C8E0FF75F002A41213B11264
:1013400012F5EF1210D3E0FEA3E0C39DEE9C500314
:101350000223C19003C8E09003C7F0123446EF7037
:10136000030223FCE4FF9003C8E0FE75F09912101D
:10137000A712123E1212E11214F712123CECF0A363
:10138000EDF00FEFB409DF9003C8E0121300E4F0B2
:10139000900014E0FF7009900310E0700302241322
:1013A000EF6010900310E0600A12127B12130A44DF
:1013B00005802A900014E06010900310E0700A127B
:1013C000127C12130A44018014900014E07064909F
:1013D0000310E0605E12127B12130A4404F0C28A0A
:1013E000229003C8E0FF121300E4F012396D90035D
:1013F000C8E0FF1237FA9003C8E0FF12395E90038D
:10140000C8E0FF1238469003C8E024161213417456
:1014100001F090021BE004F09002FBF09003C8E0A2
:1014200004F002225F9003C7E0FF90021FE06F60AC
:1014300002EFF022E49003DBF0A3F09003DF7405E9
:10144000F02405A3F0122D59E49003DAF09003DAAA
:10145000E0FFC39409400302253975F002EF121230
:10146000611212F71210A61212D0FE9003DDF0A343
:10147000EFF012397C9003DF1212B550209003DC9C
:10148000E004F0A31211721212DA1214C140030226
:1014900024D21213EF400302250E0224F59003DD3F
:1014A0001212DA940BEE6480948040069003DBE025
:1014B00004F01213F9707712397C9003E0D3121202
:1014C000B6401D9003DAE0FF75F0021210A7E0FCB1
:1014D000A3E0121224121262ECF0A3EDF002250E2A
:1014E0009003DD1211721212DA9464EE648094801B
:1014F00040189003DAE0FD75F0021211941213DB2C
:10150000ED121261E475F0018021C3EF949CEE644A
:1015100080947F50199003DAE0FF75F00212119465
:101520001213DBEF12126174FFF5F0121FE5900346
:10153000DA75F00212125F1212F71210A61212D010
:10154000FE9003DAE075F0021211F6EEF0A3EFF070
:101550009003DAE004F002242D9003DBE0C394044E
:10156000400280349001041225C49404EE648094F7
:1015700080402B90019D1225C49404EE64809480D9
:10158000401C90006BE0FEA3E0FF12397CC3EF9497
:1015900003EE6480948040069002217401F0900371
:1015A000DCE0C394064037900221E06031E4FF1292
:1015B00037D4E4FF1235F6EF6029E4900221F09071
:1015C00003E1F0900013E0FF9003E1E0FEC39F50C1
:1015D000121213BAE4F09003E1E004F080E5E4FFB6
:1015E00012393122E0FEA3E0FF12397CC3EF22CB97
:1015F000EFCB1212A5E0FEA3E0FF12112DE0FCA339
:10160000E0FDC39FEC9E50030226B9E42DFFEC34AD
:1016100004FE1212A51214D81211BBEEF0A3EFF0C3
:101620001212A5E0FEA3E0FF12112DE0FCA3E0C31F
:101630009FFFEC9E1210CEEEF0A3EFF012138BE49E
:1016400093FE740193FF1210CFE0FCA3E0FDD39F43
:10165000EC9E405812138BE493FE740193FFC3ED8C
:101660009FFFEC9EC313FEEF13FF12138B740193C5
:101670002FFFE4933E1210CE12151D640360030287
:1016800026F5EBB4010F1210D0E0FFA3E090022585
:10169000CFF0A3EFF0EB6402707B1210CFE0FFA35A
:1016A000E0900324CFF0A3EFF00226F51210CF1242
:1016B00014D07D63121F480D121F5A1210CF12153D
:1016C0001DB4030BEBB40107E4900225F0A3F0EB8B
:1016D00064027041900324803912112DE0FEA3E0D2
:1016E000FF1212A5E0FCA3E0C39FEC9EC394047517
:1016F000F002EB50121210D3E4F0A3F01211BC74FC
:1017000004F0A3E4F0800E1210D3E4F0A3F0121161
:10171000BCE4F0A3F0EB640170441210CF1212DAB3
:10172000949AEE940140081210B3EEF0A3EFF01279
:1017300010CF1213D2900348F0EDA3F01211BC1297
:1017400012DA94DCEE940540081211A0EEF0A3EF3B
:10175000F01211BC1213D290034CF0EDA3F0EB6425
:101760000270441210CF1212DA949AEE94014008DB
:101770001210B3EEF0A3EFF01210CF1213D29003B9
:101780004AF0EDA3F01211BC1212DA94DCEE9405CB
:1017900040081211A0EEF0A3EFF01211BC1213D208
:1017A00090034EF0EDA3F0229003C2E06006900398
:1017B000BEE004F09003BEE0B4010BE49003C2F07D
:1017C0009003BEE004F09003BEE0B40320D3900287
:1017D00026E09464900225E09400500E900325E0EA
:1017E0009464900324E0940040031214089003C111
:1017F000E0640170589003C7F01213A5400302285B
:10180000E3E0FF25E0244EF582E4341D1211CCFF05
:1018100025E0242EF582E4341D12121C1213261228
:1018200011E2FF25E0246EF582E4341D12121C1231
:1018300013B11211E2FF25E0248EF582E4341D126B
:10184000121C12141E1211E204F00227D990033C5C
:10185000E0640170589003C7F01213A5504CE0FFEC
:1018600025E0244EF582E4341E1211CCFF25E0243D
:101870002EF582E4341E12121C1213261211E2FFFE
:1018800025E0246EF582E4341E12121C1213B112EC
:1018900011E2FF25E0248EF582E4341E12121C12A0
:1018A000141E1211E204F00228390228E3E4900326
:1018B000C7F01213A5504CE0FF25E024CEF582E4DA
:1018C000341D1211CCFF25E024AEF582E4341D1244
:1018D000121C1213261211E2FF25E024EEF582E419
:1018E000341D12121C1213B11211E2FF25E0240E56
:1018F000F582E4341E12121C12141E1211E204F0BE
:10190000022892900200A3E0900342F090033FE08F
:10191000B4AA031232BF900359E07011A3E0B410CF
:101920000CE4900359F0A37410F012331C22E4FE6F
:10193000900013E0FFEEC39F4003022A7B12133E88
:10194000E064016003022A7774102E121302E0FC97
:1019500060030229C3EE6401703D12130B9002FB79
:10196000E0FD6401701B9002FAE090033EB40109AF
:10197000E0440912127A04801512127712151380AE
:1019800016ED90033EB4020BE0440512127A1214D5
:10199000308004121277F0EE64026003022A7012A3
:1019A000130B9002FBE0FD6401701C9002FAE090C2
:1019B000033EB40106121376E48021E044041212BF
:1019C0007A121513022A70ED90033EB40205E0442A
:1019D000058003E04404F0E4900014F0900310F05C
:1019E000022A70EC64016003022A70EE6401704FF9
:1019F00012130B9002FAE0FFB4020B90033EE04496
:101A00000A1213798013EF6401702690021BE09094
:101A1000033EB4010C121376E490031012143080CC
:101A20001EE04402121379E4900310F012141580A2
:101A30000E90033EE04402121379E4900310F0EE9E
:101A40006402704C12130B9002FAE0B4021390037C
:101A50003EE0440AF09003107401F0900014F0800E
:101A60002F90021AE06401701C9002FBE090033E8C
:101A7000B40105E044098013E0440812127A04F02E
:101A8000121414800B90033EE0440812127A04F002
:101A900012133EE4F0C28A0E0229107F0422C0E035
:101AA000C083C082C0D0E8C0E0E9C0E0EAC0E0EB9B
:101AB000C0E0EFC0E0D2AFE5DB30E415E5DB30E1BC
:101AC00002802290033DE5DFF09003BFE4F0022B9B
:101AD000D1E5DB30E505900339803EE5DB30E12CD4
:101AE000E5DB30E0119003C31236D91236E2121E44
:101AF000E7F5DF022BD19003C0E064016003022B05
:101B0000D1308A03022BD1D28A022BD19003BFE0BD
:101B1000700DA3E5DFF09003BF7401F0022BD190AC
:101B200003C0E090311693FFB4FF0F90033DE5DF53
:101B3000F09003C0E004F0022BCBEF640F702F9005
:101B400003C31236D99003C0E0FF123700540F12BE
:101B50001F149003C31236D99003C0E0FF04F012A3
:101B60003700FFE5DF54F04F121F14022BCB900318
:101B7000C31236D91236E2E5DF121F269003C0E009
:101B8000FF64147044E5DFB42025900336E0600460
:101B9000E4F0800B9003C27401F09003BEE4F09077
:101BA00003C17401F090033CE4F090023C04F0E5C2
:101BB000DFB410159003C2E4F09003BEF090033C34
:101BC000F09003C1F090023CF0EFB4161EE5DFB4D4
:101BD000200B90033C7401F09003C1E4F0E5DFB406
:101BE000100990033CE4F09003C1F090033BE00443
:101BF000F075DBFFD0E0FFD0E0FBD0E0FAD0E0F9F9
:101C0000D0E0F8D0D0D082D083D0E0327F0512343B
:101C1000CDEF600AE4900336F07F051238F59002AC
:101C20002AE024FE601814601E147003022CE324C2
:101C3000036003022D5812140DE49002F9F0900293
:101C40002A7403F0022F4F121A5F90021CE07003F7
:101C5000022CBC9002F9E004F0E49003C6F090007E
:101C600013E0FF9003C6E0C39F5071E4FF12122BF4
:101C70001212E11214F712123CECF0A3EDF0121262
:101C80002B1212E1EE1210A712123EECF0A3EDF0AF
:101C90000FEFB409D89003C6E0FF1210D0E4F0A310
:101CA000F0EF1211BD7404F0A3E4F0EFB40110E4FE
:101CB000900348F0A3F090034C7404F0E4A3F0EF19
:101CC000B40210E490034AF0A3F090034E7404F0C1
:101CD000E4A3F09003C6E004F0022C3E9002F9E089
:101CE000C394035003022D58900012747EF0E490C8
:101CF000021DF09002F9F07F0E12390490022A744E
:101D000004F0229003BEE0B4020B7403F07F0412CF
:101D100038F51210209003BEE0B403107F04123493
:101D2000CDEF60087F041238F51214081233FF1249
:101D30001A5F1233FF90021CE0603D1217D8E49046
:101D400003C6F0900013E0FE9003C6E0FFC39E5070
:101D50001912336B1233B59003C6E0FF1225CF1270
:101D600033FF9003C6E004F080D9123709122256DF
:101D700012290E90022AEFF0229003E57402F0E49B
:101D80009003E2F09003E2E0FFC394094003022EC7
:101D90009975F0021210A6E0FCA3E01212241212B0
:101DA0008D1212D0FE9003E3F0A3EFF012397C9075
:101DB00003E51212B54003022E3A121349E0B401B2
:101DC0003075F002EF1211F6E0FEA3E0C3941EEEB0
:101DD000648094804003022E679003E2E075F00275
:101DE00012128C75F0021210A1ECF0A3EDF0022E8D
:101DF000679003E3E0FEA3E0FF9003E2E0FD75F0EF
:101E00000212124DEE8FF0121FE575F002ED121264
:101E10004D1212DA9402EE6480948040189003E22E
:101E2000E0FD75F00212124D1213DBED1210A7E463
:101E300075F0018020C3EF94FEEE6480947F5047DC
:101E40009003E2E0FF75F00212124D1213DB121044
:101E5000A674FFF5F0121FE5802D9003E275F002E5
:101E600012128A1212F71210A6ECF0A3EDF09003F2
:101E7000E2E0FF75F0021211F612143E400974A858
:101E80002F1213507401F09003E2E012134EE0B4ED
:101E9000011E9003E2E0FF24B11213E7E0041213E5
:101EA000E3E0D394054009121349E41213E3E4F08C
:101EB0009003E2E004F0022D6422E49003C8F0FFF6
:101EC0009003C7F0EF14601E14603514604C14606A
:101ED0005B240470749003C97401F0A3742FF0A301
:101EE0007458F0022F231236D6900001121EE7FE1E
:101EF000D3941F40031236EF121ECE6E704B8043F8
:101F00001236D6900002121EE7FED394064003124A
:101F100036EF121ECE6E703180291236D690000335
:101F2000121EE7FE121ECE6E701F80171236D6905C
:101F30000004121EE7FE648B60031236EF121ECE01
:101F40006E70069003C7E004F00FEF6405600302B3
:101F50002EA49003C7E0B40504A37401F09003C855
:101F6000E0FD6007900352E0547FF0CFEDCF227E7A
:101F7000027F107D007B017A00791512206B1234EC
:101F80008CE490022FF0122788E4FE900013E0FF0B
:101F9000EEC39F5079E4FF75F099EE12119412127E
:101FA0003E121400EEA4249FF582E5F034001211D5
:101FB00065E4F075F099EEA4248DF582E5F0340027
:101FC00012123CE4F0A3F012113DE4F00FEF6409AB
:101FD00070C5CFEECF1239221239311213BAE4F0A4
:101FE00012394012395E12394F12396D74102E12A7
:101FF0001302E4F012133EE4F0900219747EF0E450
:10200000A3F0A3F09002FAF0A3F00E022F6BE4907D
:102010000221F090021F747EF0900012F0E4900212
:102020001EF022758A50538AEF9003E87411F090E5
:1020300003E77422F09003E97433F075997F759A81
:1020400080E4FFFEC29600000020970ED2960000AA
:10205000003097069003E87487F00FBF00010EEF81
:10206000640A4E70DF7590FF75993F759AC0E4FE63
:10207000FF3096032097069003E77487F00FBF00A8
:10208000010EEF640A4E70E9E4F5AD75AEC875AFA8
:102090001DF5AC75800C7589FF75913E75991FF51E
:1020A0009675931CF59BF595F592F59AD28AC2899F
:1020B0009003EA04F02202354DE493A3F8E493A3DD
:1020C0004003F68001F208DFF48029E493A3F8547A
:1020D00007240CC8C333C4540F4420C8834004F4FD
:1020E00056800146F6DFE4800B0102040810204010
:1020F00080903196E47E019360BCA3FF543F30E5AD
:1021000009541FFEE493A360010ECF54C025E06084
:10211000A840B8E493A3FAE493A3F8E493A3C8C552
:1021200082C8CAC583CAF0A3C8C582C8CAC583CA43
:10213000DFE9DEE780BE0F000000FFFF00000000C7
:10214000FFFFFFFFFFFFFFFFFF0000000000000098
:10215000000000000000000000000000000000007F
:10216000000000000000000000000000000000006F
:10217000000000000000000000000000000000005F
:10218000000000000000000000000000000000004F
:10219000000000000000000000000000000000003F
:1021A000000000000000000000000000000000002F
:1021B0000000000000004102F90041022900410234
:1021C000FC004100140041031000410335004100B0
:1021D00000004202250000420324000041023C00AE
:1021E00041022F0041022B004102FD004103BF00CC
:1021F0004103C00042033700004103390041033B63
:102200000041033A0041033D104103C2004103BEB7
:1022100000410336014103C10041033C0000C0E01E
:10222000C0F0C083C082C0D0E8C0E0ECC0E0EDC028
:10223000E0EEC0E0EFC0E0D2AF900229E004F0C3CE
:10224000940A4021E4F0900320E0FCA3E0FDA3E029
:10225000FEA3E02401FFE43EFEE43DFDE43CFC90EF
:102260000320122022D0E0FFD0E0FED0E0FDD0E03D
:10227000FCD0E0F8D0D0D082D083D0F0D0E0329043
:102280002EC0E4F0902ECB74F4F0902F58E0540F51
:1022900024F0902EC8F0902ECC7448F0902EC97483
:1022A00028F0A3743FF0902E407481121298F0A38E
:1022B000F0A3041212987402F0A3F0902EC67414C6
:1022C000F0902EC17490F0A37401F0A37480F0A379
:1022D0007407F043E3101238AF900013EFF0229030
:1022E00003C87410F0A3E4F0A3743FF0A374FFF0EC
:1022F000E4FDFCF9758A10538AEF0000009003C8D2
:10230000E0FEA3E01236F6FF69F90DBD00010CBC3A
:102310002FEBBDFFE89003CAE0FEA3E0F5828E83B9
:10232000E49369700890033F7405F08005E490031E
:102330003FF0758A50538AEF000000227F007E1024
:10234000E4FDFC9003C8F0A3F0758A10538AEF00F7
:102350000000EF1236F6FB9003C9E02BF09003C8A3
:10236000E03400F00DBD00010CED7003EC64307042
:10237000E19003C8E0FCA3E0FDEC900359F0EDA36D
:10238000F0758A50538AEF00000022CBEFCBEB7040
:1023900013121119E0900396F012112DA3E090038F
:1023A000971214E4EB64017013121119E090038E7C
:1023B000F012112DA3E090038F1214E4EB6402706D
:1023C00013121119E0900392F012112DA3E0900363
:1023D000931214E4229003EAE060439002E21215A3
:1023E0000C9458EE941B500EEF9488EE9413400614
:1023F0009003E97487F090022712150C9470EE9404
:1024000017500EEF94A0EE940F40069003E97487E6
:10241000F0E49003EAF09003E9E0900346F02290A4
:10242000022BE024FE6011146025240370373088ED
:102430003490022B7402F02220882A90022B74031D
:10244000F09002FD7401F07F0E1239040237377FDD
:102450000E12350DEF600E7F0E123904E490022B40
:10246000F09002FDF0229003C9EFF0E0FF2411127A
:1024700014A5E0603490023CE06401700EEF12108D
:1024800066901CF412120E4020800F9003C9E012D7
:102490001066901CFA12120E400F9003C9E024112E
:1024A000F582E43403121313227F00227E007F8022
:1024B0007D007B017A03793E12206B90033E740508
:1024C000F0A3F0E4A3F090035074ABF090035274C7
:1024D00030F09003E8E0900344F09003E7E09003CD
:1024E00045F09003E9E0900346F0022E9A9003C76E
:1024F000EFF0C3940F5033E0FF248B121465E060BB
:1025000029EF25E025E024A6F582E43402121071BB
:102510009003C7121202400F9003C7E0248BF5828C
:10252000E43402121313227F00227F00229003C79B
:10253000EFF0C3940F5033E0FF243D12146DE060C0
:1025400029EF25E025E0244FF582E43402121071D2
:102550009003C7121202400F9003C7E0243DF5829A
:10256000E43402121313227F00227F00227520011F
:1025700053A87F12300312376143A88012104E1205
:1025800038E3758DE0123892EF24E0600A24107071
:102590000AC283C2828004D283D282122788438DEA
:1025A00020122BEC80DF9003E3EFF0E0FF24E41235
:1025B0001475E06026EF25E025E024E7F582E43499
:1025C00002121071901CF212120E400F9003E3E001
:1025D00024E4F582E43402121313227F00229003D4
:1025E000E3EFF0E0FF242612147DE06026EF25E003
:1025F00025E02429F582E43403121071901D0012A5
:10260000120E400F9003E3E02426F582E434031217
:102610001313227F00229003E2EFF0E0FF24011267
:102620001485E06026EF25E025E02404F582E434FB
:1026300003121071901D0212120E400F9003E2E07F
:102640002401F582E43403121313227F0022900345
:10265000C9EFF0E0FF242C12148DE06026EF25E096
:1026600025E02430F582E43402121071901CF0123F
:10267000120E400F9003C9E0242CF582E4340212BC
:102680001313227F00229003C9EFF0E0FF2403120E
:102690001495E06026EF25E025E02406F582E43479
:1026A00000121071901CFC12120E400F9003C9E032
:1026B0002403F582E43400121313227F00229003D6
:1026C000C9EFF0E0FF244C12149DE06026EF25E0F6
:1026D00025E0249AF582E43402121071901CFC1259
:1026E000120E400F9003C9E0244CF582E43402122C
:1026F0001313227F00229003C9E0FBA3E0FAA3E0BA
:10270000F9229003C0E0FF04F08F827583002290CD
:1027100003C87401F0222DF582EE3CF583E4932288
:10272000E92FF9E43AFA021ECEE4FFFE900013E02E
:10273000FDEEC39D501BEF1210D01212F7EE1210D7
:10274000D3E0FAA3E0D39DEA9C4003CFEECF0E8006
:10275000DB900220EFF022CBEFCBEBD3940F502095
:10276000743D2B12146DE07017743D2BF582E43428
:1027700002121100244FF582E43402F58312202264
:10278000229003C37401F0A37403F0A3743EF0E439
:10279000F5DA75DA4043DA2075D74075DA5843A97F
:1027A0000875B80875F8082212131A502074E42B23
:1027B000121475E0701774E42BF582E434021211E0
:1027C0000024E7F582E43402F5831220222212135A
:1027D0001A502074262B12147DE0701774262BF5E6
:1027E00082E434031211002429F582E43403F583D2
:1027F0001220222212131A502074012B121485E089
:10280000701774012BF582E434031211002404F5CF
:1028100082E43403F5831220222212131A5020740A
:102820002C2B12148DE07017742C2BF582E43402DB
:102830001211002430F582E43402F58312202222A2
:1028400012131A502074032B121495E0701774039E
:102850002BF582E434001211002406F582E43400E2
:10286000F5831220222212131A5020744C2B1214BA
:102870009DE07017744C2BF582E434021211002491
:102880009AF582E43402F5831220222212131A50A0
:102890002074112B1214A5E0701774112BF582E42B
:1028A00034031211002414F582E43403F58312205A
:1028B0002222E4FD900339E0601190033EE0FE54D3
:1028C000F0FDEE540FF0E4900339F0CFEDCF22127B
:1028D00014ADFFFEEE901D0E93600974FE2F1214CE
:1028E000B9EEF00F0EEEB410EB2290032012202E62
:1028F000000000007E007F0F7D007B017A02793DA1
:1029000002206B75B28E75B6F9E4F5B743B2014398
:10291000AA010238CAEFD3940F5008748B2F1214F7
:1029200065E4F022EFD3940F5008743D2F12146D1C
:10293000E4F022EFD39403500874E42F121475E4EA
:10294000F022EFD39403500874262F12147DE4F084
:1029500022EFD39403500874012F121485E4F0225F
:10296000EFD394035008742C2F12148DE4F022EF4F
:10297000D39403500874032F121495E4F022EFD37C
:1029800094035008744C2F12149DE4F022EFD3945A
:1029900003500874112F1214A5E4F022EE30E7075B
:1029A000C3E49FFFE49EFE22000000000000000040
:1029B0000000000000000000000000000000000017
:1029C0000000000000000000000000000000000007
:1029D00000000000000000000000000000000000F7
:1029E00000000000000000000000000000000000E7
:103010000000000000000000000000000000005060
:00000001FF
