:1000000000600000001400008306000000000000F3
:1000100000000000000000000000000000000000E0
:1000200078FFE4B8200118F6D8F99000007F007E30
:1000300007E4F0A3DFFCDEFA75817402351F122598
:1000400048122D019001747401F022023F2774AA16
:100050007583F5758255A574557583FA7582AAA5C1
:1000600074A57583F5758255A52200022A1E90405D
:100070007FE493FF64326003EF7002002253A87F95
:100080000080FD0223FB1217CA902EC27492F090DA
:100090002EC774011216F67402F022023F24E709FB
:1000A000F608DFFA8046E709F208DFFA803E888228
:1000B0008C83E709F0A3DFFA8032E309F608DFFA60
:1000C0008078E309F208DFFA807088828C83E30984
:1000D000F0A3DFFA806489828A83E0A3F608DFFA5E
:1000E000805889828A83E0A3F208DFFA804C80D2AC
:1000F00080FA80C680D4806980F28033801080A628
:1001000080EA809A80A880DA80E280CA803389827F
:100110008A83ECFAE493A3C8C582C8CCC583CCF02B
:10012000A3C8C582C8CCC583CCDFE9DEE7800D89D2
:10013000828A83E493A3F608DFF9ECFAA9F0EDFBD9
:100140002289828A83ECFAE0A3C8C582C8CCC58321
:10015000CCF0A3C8C582C8CCC583CCDFEADEE8807A
:10016000DB89828A83E493A3F208DFF980CC88F0EC
:10017000EF60010E4E60C388F0ED2402B40400501D
:10018000B9F582EB2402B4040050AF232345822347
:100190009008CE73EF8DF0A4A8F0CF8CF0A428CEF9
:1001A0008DF0A42EFE22BC000BBE0029EF8DF08442
:1001B000FFADF022E4CCF875F008EF2FFFEE33FE30
:1001C000EC33FCEE9DEC984005FCEE9DFE0FD5F067
:1001D000E9E4CEFD22EDF8F5F0EE8420D21CFEAD70
:1001E000F075F008EF2FFFED33FD4007985006D56E
:1001F000F0F222C398FD0FD5F0EA22C2D5EC30E729
:1002000009B2D5E4C39DFDE49CFCEE30E715B2D500
:10021000E4C39FFFE49EFE120986C3E49DFDE49CB7
:10022000FC800312098630D507C3E49FFFE49EFEDD
:1002300022C5F0F8A3E028F0C5F0F8E58215827039
:10024000021583E038F022BB010A89828A83E0F537
:10025000F0A3E022500687F009E71922BBFE07E36E
:10026000F5F009E3192289828A83E493F5F0740199
:100270009322BB0110E58229F582E5833AF583E0FC
:10028000F5F0A3E0225009E92582F886F008E6227D
:10029000BBFE0AE92582F8E2F5F008E222E5832AAE
:1002A000F583E993F5F0A3E99322BB010789828ADC
:1002B00083020A11500B09C5F027F7C5F01937F76B
:1002C00022BBFE0D09F8E325F0F3C5F019E338F37E
:1002D00022F889828A8374019325F0C5F0F8E493AB
:1002E0003822BB010DC58229C582C5833AC5830268
:1002F0000A115011C58229F808E5F026F618F5F024
:10030000E58236F622BBFE11C58229F808E225F007
:10031000F5F0F218E23582F222F8E58229F582E55D
:10032000832AF58374019325F0F5F0E4933822BB1A
:10033000010A89828A83F0E5F0A3F0225006F709CA
:10034000A7F01922BBFE06F3E5F009F31922F8BB6A
:100350000111E58229F582E5833AF583E8F0E5F0BD
:10036000A3F0225009E92582C8F608A6F022BBFEB8
:1003700009E92582C8F2E5F008F22275F0087582D5
:1003800000EF2FFFEE33FECD33CDCC33CCC582331F
:10039000C5829BED9AEC99E58298400CF582EE9B24
:1003A000FEED9AFDEC99FC0FD5F0D6E4CEFBE4CD42
:1003B000FAE4CCF9A88222B800C1B90059BA002DDC
:1003C000EC8BF084CFCECDFCE5F0CBF97818EF2F95
:1003D000FFEE33FEED33FDEC33FCEB33FB10D703C4
:1003E000994004EB99FB0FD8E5E4F9FA227818EF6D
:1003F0002FFFEE33FEED33FDEC33FCC933C910D7CC
:10040000059BE99A4007EC9BFCE99AF90FD8E0E4D8
:10041000C9FAE4CCFB2275F010EF2FFFEE33FEEDAE
:1004200033FDCC33CCC833C810D7079BEC9AE8997E
:10043000400AED9BFDEC9AFCE899F80FD5F0DAE460
:10044000CDFBE4CCFAE4C8F922EB9FF5F0EA9E423A
:10045000F0E99D42F0EC6480C864809845F022EB9E
:100460009FF5F0EA9E42F0E99D42F0E89C45F022BB
:10047000E8600FECC313FCED13FDEE13FEEF13FF6A
:10048000D8F122ECF0A3EDF0A3EEF0A3EFF022A858
:10049000828583F0D083D082120C86120C86120CD7
:1004A00086120C86E473E493A3C583C5F0C583C8A4
:1004B000C582C8F0A3C583C5F0C583C8C582C8225C
:1004C000A42582F582E5F03583F58322EC8EF0A435
:1004D000CCC5F0CCCDF8EFA4CEC5F02DFDE43CFCAE
:1004E000E8A42EC8C5F03DFDE43CFCEFA4FFE5F018
:1004F00028FEE43DFDE43CFC22EF4E6012EF60017B
:100500000EEDBB010B89828A83F0A3DFFCDEFA22A9
:1005100089F05007F709DFFCA9F022BBFEFCF309C4
:10052000DFFCA9F022208A0302103E90017AE070DD
:1005300002A3E0600302103E12172F600302103E78
:100540009001D2E070449001BD1215BFFFAEF09053
:1005500001AB1215BFD39FE5F09E400302103E127F
:1005600015BC1215D3F9E5F08FF0120B0F12165DC2
:10057000E490021BF0A3F090017C12161E12177972
:1005800090017E1217B9F56F8003756F0075701EAC
:10059000E4F5B2F5BA90021FE0F55BA3E0F55CC2AA
:1005A0000930060302102D758D20438D20758D8036
:1005B00043AA08D2AF758B02758EAF20062412179E
:1005C0002F701F200C1CE5DB20E217758AC4200C5D
:1005D0000DE5DB20E2087587030000008006D209E4
:1005E0008002D209758B11758A5053AAF7D39001F6
:1005F00079E09490900178E09401400EA3E024709B
:10060000F0900178E034FEF08007E4900178F0A3E8
:10061000F0123C64900055E075F003A4902EC3F0F6
:10062000A3E4F0A3F012162C53997F120866121758
:1006300010902EC0E030E2F9902EC0E4F0902E022F
:10064000E0F571A3E0F5724389021216324380028D
:1006500012170D902EC0E030E2F91217DBF522A33D
:10066000E0F523E42572FFE5713424FEC3EF952302
:10067000F525EE9522F524D3E5259488E5249437D5
:100680004006752437752588902EC4E4F043998080
:1006900090020FE524F0A3E525F0C3E55C9525FF66
:1006A000E55B9524FE122DD08E5D8F5E1217F5400E
:1006B0000302101DAE24AF257C007D14120CAC1279
:1006C00017FF7FE07E817D027C009002C81215E258
:1006D000FBD3120C3F9002C840171216CD94E0FFD6
:1006E000EE9481FEED9402FDEC9400FC1217FF8065
:1006F00007120C6F00000000E47F607EEAFDFC90B2
:1007000002C81215E2FBD3120C3F400A9002C81235
:100710000C6F0000EA601215BCFFAEF07C007D0992
:10072000120CAC9002C81215E27B0A12163912178D
:10073000FF9001D2E0702DAE5BAF5CFC7D0912161C
:100740004DE4FCFDEB2525FFEA352412167FE47B02
:100750000A1216458E5B8F5C9002C81215CD1216D8
:100760002602101D9002C8A3A3E0F9A3E0FF9001A8
:10077000A81215D71216269001AE1215BFFFAEF0C3
:100780009002C81215DFFBD3120C3F500302102D4C
:100790001215AB121721FEC3EF9574EE957350033B
:1007A00002102D9001AB1215BFFFAEF07C007D0250
:1007B000120CACC8ECC8EDC0E0EEC0E0EFC0E01237
:1007C00015AB121721FEE4FCFDD0E0FBD0E0FAD01F
:1007D000E0F9EB2FFFEA3E12167FE47B0312164589
:1007E0009001AB1215D7121728900222E0604E122A
:1007F000173640499001AB1215BF121721FE122D7A
:10080000D09002CCEEF0A3EFF09001AB1215BFFF39
:10081000C312160F501012176C400B1215D4F9E4C6
:1008200075F005120A8A9001AB1215BF12160D4021
:100830000CD312176C40061215D41217EC20090DB8
:100840001217F5500812172F7003020D8190022124
:10085000E0041216E11215ED9001D57401F022901A
:10086000012BE0FBA3E0FAA3E09002C9F9E0FF75D9
:10087000F002A4F58285F083120A52FDACF09001DB
:100880002EE0FBA3E0FAA3E0F9229002C8E0FF7596
:10089000F002A4F58285F083020A529002C8E0FBC0
:1008A000EF240CFFEE34FEFE7C007D0A1209747DFD
:1008B00032120986EF24F4FFEE3401FEEB25E0242A
:1008C0000AF582E43401F5832290019FE0FFED24D4
:1008D00007F582E43CF583EFF022EF75F002A4F512
:1008E0008285F08322C201C204745B2BF582E4345A
:1008F00001F583E4F074612BF582E43401F5832281
:100900002475F582E43401F583E075F002A42440F7
:10091000F582E5F0342EF58322746A2FF582E434F3
:1009200000F583E0FEEF25E0242CF582E4342EF57B
:1009300083E49324C0F582E4342EF583EEF0229014
:1009400002CDE0FD25E02449F582E43401F583225F
:100950009002DAE0FCA3E0FD2407F582E43CF58395
:10096000E090019FF054F0FFF0229002C9E025E0F2
:10097000244FF582E43401F583229002CDE0FF2478
:1009800058F582E43401F583E004F074582FF582C1
:10099000E43401F583229002CBE0FEA3E0FF900156
:1009A00050E02FF090014FE03EF0E0FEA3E0FFD3D7
:1009B00022F0EF25E025E024A7F582E4343EF5831C
:1009C000E49322F582E43AF583EFF022E0FEA3E01F
:1009D0002DFFEE35F0CDEFCDFF9002DAE0FAA3E087
:1009E000FB22F090019104F0E490010CF0A3F0A33D
:1009F000F0A3F022E0FF9002DAE0FCA3E022241A48
:100A0000F582E43EF583229002DAE0FEA3E0229034
:100A100002C9E0245EF582E43401F58322745B2B85
:100A2000F582E43401F58322F583E493FC740193A9
:100A3000FDEF25E02274622BF582E43401F583E4B6
:100A4000229002CAE0FEA3E0FF2274222FF582E486
:100A50003401F5832225E02410F582E43401F58386
:100A600022E4900165F090019822C3E0FDEF9D74AF
:100A700080F86E9822902EC07402F022EC8DF00265
:100A80000B2E25E02404F582E43401F583E5F0F033
:100A9000A322F0C201C204E4900166F0900199F033
:100AA00022F582E43401F583E022120A27FFAEF03A
:100AB00090012B22FDACF090012B22A3F0A3740136
:100AC000F0A322C39DFFE5F09CFE229002C9E0FD49
:100AD0007F05229002C9E0FD7F0422E4F0A3F0909C
:100AE000012B22F5ABF5AD7589FF7599FF22E0FE6C
:100AF000A3E0C394B4EE9400222416F582E43401FA
:100B0000F58322241CF582E43401F583229002C887
:100B1000E004F022120A27C39FFFE5F09E2212157F
:100B2000ABFDACF0D39FEC9E40349001AE1215BFEC
:100B3000FFC3ED9FFFEC95F0FED3EF9430EE94757C
:100B4000400D9002CA7475F0A37430F00213811244
:100B500015B61217219002CAF0A3EFF080431215C8
:100B6000BCFFAEF09001AE1215BFFDACF0C39FFF0D
:100B7000EC9EFED3EF9410EE9427400C9002CA74C2
:100B8000D8F0A374F0F080121215BCFFC3ED9FFEE5
:100B9000EC95F09002CAF0A3CEF0E49002CAF0A364
:100BA000F09001D2E06046121604D39400EE648007
:100BB0009480401A9001C01215BFFDD3EF9DEE95B1
:100BC000F0400B90017EE4F0A37464F0801BD3909E
:100BD000017FE0940090017EE09400400C9001AB16
:100BE0001215BF9002CA1216A5D20B800D90018279
:100BF00012161E7A0079501215F1D39002CBE094B0
:100C0000009002CAE0648094805003021581E0F9EC
:100C1000A3E0FF9001AB1215D7121626121604128C
:100C200017E5E47BB87A88F9F8C3120C29500A90CA
:100C300002CA7488F0A374B8F0D3900181E09400E4
:100C4000900180E09400500790001BE0B4201E1239
:100C50001604C39496EE648094805011EF9400EED5
:100C60006480948040477D0A12174580403000140C
:100C7000121604C394A0EE6480948F50057D321246
:100C8000174580299001D2E07023C39001D4E094ED
:100C90000A9001D3E09400500EA3E004F070159088
:100CA00001D3E004F0800DE49002CA8004E49001D6
:100CB000D3F0A3F09001D2E070030215609001829E
:100CC000E07002A3E060030215601216041217E53B
:100CD000E5532FF553E5523EF552E5513DF551E50B
:100CE000503CF5500555E55570020554C3E559943F
:100CF000D0E5589407402AAE54AF55CBEFCB12162F
:100D00008DAF53AE52AD51AC50120B978E568F57DC
:100D1000E4F553F552F551F550F554F555F558F500
:100D200059D3E5579400E5569400403012160495C7
:100D300057EE9556501AC3EF9557FFEE9556FEC3E2
:100D4000EF9478EE94005008121797E4F55A800C4F
:100D5000E55AC394055005121797055A9001B4122D
:100D600015BFFFAEF07D0F12164B1216041217E5D9
:100D7000EB7B101216399001B41215D7F9EE800FE3
:100D80009002CAE0F9A3E0FF9001B41215D7C98F11
:100D9000F0120B0F9001B41215BF24A8FFE5F080EC
:100DA0001D9001AB1215D712169E9001B41215D7E3
:100DB00012169E9002CBE024A8FF9002CAE0346194
:100DC000F99001B11215D7121626229001AEE0FB60
:100DD000A3E0FAA3E0F9120A27FFAEF09001A8E021
:100DE000FBA3E0FAA3E0F9020A279001D6A3A3E04F
:100DF000F9A3E0FF9001AEE0FBA3E0FAA3E022E458
:100E0000FCFDE0F8A3E0F9A3E0FAA3E0227A007980
:100E1000647E007F0B7D007B00020CD9A3F0A374DD
:100E200001F0A3229002CAE0FEA3E0FF22D3FF90CC
:100E30000226E09F900225E095F022A3F0A3740320
:100E4000F0A374E8F022C98FF0020B0F43AB0253FA
:100E500089FD5395FD5396FD222FFFEA3EFEE93DA5
:100E6000FDE83CFCE4FAF9F8020B977C00120CACAC
:100E7000C8ECC8C9EDC9CAEECACBEFCB227F087A4D
:100E80000179D67E007D007B01020CD9E50A25E0C0
:100E90002426F8E6FE08E622F9EB2FFFEA35F0FEFD
:100EA000ED39FDEC38FC22A3E0FEA3E0FBCAEECA5C
:100EB000E4F9F822D3EF9414EE6480948022F9E4EC
:100EC000F5F0020B0FFFE5F0F0A3EFF022E50D25A2
:100ED000E02413F582E43402F583E0FEA3E0FF2270
:100EE000900227E0FCA3E0FDC3EF9DFF22E0FCA3FE
:100EF000E0FDA3E0FEA3E022900223F0A3F0A3F024
:100F000022F07E007F057D007B007A00795F020C75
:100F1000D9902EC07402F0902EC4E4F0A322902E3B
:100F200042E0FEA3E0FF7C007D14020974123EEA59
:100F3000902EC07419F022E4F50EF50DF50CF50BAA
:100F400022C39FFFE5F09E22F9EE8FF0020B0F9077
:100F5000001BE0642022900225E0FEA3E0FFD39472
:100F600000EE9400227C001209DB9002CAEEF0A38E
:100F7000EFF022AB0EAA0DA90CA80BD3020C3F90E8
:100F800002CBE094329002CAE09400229002CDE0BD
:100F900094649002CCE0940022E4900180F0A3F0ED
:100FA0002290020FE56AF0A3E56BF02225E02426EB
:100FB000F8A60F08A610229002CAE556F0A3E5573E
:100FC000F022F9746175F0A8020B0F90003A7410CA
:100FD000F022E4F0A3F0A3F022F0A3F0900184F05B
:100FE000A3F022E4F0A374C8F022902EC07402F0A3
:100FF00022FEEF2401FFE43EC31322902EC0E4F052
:10100000902E1EE022EE3395E0FDFC22F974FF7570
:10101000F0FB020A8AC3E55E9570E55D956F22904C
:1010200002C8020C63E4FB1210D5E0640160030205
:101030001A3A1211FDE0FA60030218EEEB64017037
:1010400067121130BF2003D38001C34005E4900133
:101050009FF0900199E0FF6401701C900198E0906E
:10106000019FB4010AE04409F0C201D2048025E0E6
:101070004401121272802EEF6402701E900191E002
:1010800060071210D5E4F0800B90019FE04405F05A
:10109000C201C204121215F0800B90019FE04401BE
:1010A000F0C201C2041210A9EB6402704D1211309B
:1010B000BF2003D38001C34005E490019FF090015D
:1010C00099E0FF6401701C900198E090019FB401C9
:1010D0000AE04406F0D201C204801CE0440412126B
:1010E000728014EF90019FB40205E044058003E094
:1010F0004404F0C201C2041210A9900191E0600200
:10110000E4F0900184E4F0A37464F0021A2DEA6420
:10111000016003021A2DEB640160030219C412116D
:10112000E72407F582E43E12113EBF2003D380017D
:10113000C34005E490019FF0900198E0FF640270C5
:10114000499001A0E0FCA3E0C394B4EC9400400EED
:10115000900194E0FCA3E094B4EC9400501FC20111
:10116000C2041211FDE4F0745C2BF582E434011228
:1011700010D1E4F01212151211C20219BB90019F96
:10118000E0440AF0D201D204803FEF6401704C9039
:10119000019412118A943CEE9400401BEF94B4EE3B
:1011A000940050139001A01212CE500B1210C5E4FF
:1011B000F01212421211C2900166E090019FB40138
:1011C0000EE04406F0D201C204121215F0800CE0C9
:1011D0004402F0D201C204121241F090019F121198
:1011E000D41210AFEB64027064121130BF2003D32D
:1011F0008001C34005E490019FF09001A012118A84
:10120000943CEE9400401BEF94B4EE940050139085
:1012100001941212CE500B1210C5E4F09001651229
:1012200011C2900165E064017020900199E0900185
:101230009FB4010AE04409F0C201D204800CE044EA
:1012400008F0C201D204121241F01210A91210D5F6
:10125000E4F0900191E07002C28A0BEB640360033A
:101260000218077F04229002C9EFF09002CC7408A4
:10127000F02405A3F012105E9002C912106D121234
:101280009412106175F002EF1210721212A3900204
:10129000CAF0A3EFF0122DD09002CC12124A4003F4
:1012A000021B079002C9E0FF1211F3E0600AEF127F
:1012B000114EE4F0A3F0800C12122112114AEE8FAD
:1012C000F0120A1112114A12118A940FEE648094DE
:1012D0008040199002C9E0FD12114EE4F0A3F01213
:1012E000105EED1210BBE475F0018021C3EF94F1A4
:1012F000EE6480947F50199002C9E0FF12114EE411
:10130000F0A3F012105E1210BA74FFF5F0120AC2C8
:101310009002C9E0FD242212122DE4F07F04123D58
:10132000581212AB021BCE9002C9E0FF2422121207
:101330002DE0704812122A7401F0121221122DD0E1
:10134000C3EF9432EE64809480503190012B1210E0
:10135000619002C9E012106FFBAAF01212217C000A
:101360007D031209DBC3EB9FFFEA9EFE12105E9025
:1013700002C9E01210BBEE8FF0120B2E12122112D6
:101380002DD09002C9E0FD121235E0FAA3E0D39F00
:10139000EA9E4026745E2D1211F5E070239002C97A
:1013A000E07F051234611212AB1232A5EF60111208
:1013B000103F1210BA12125C80061212AB123D5886
:1013C000C39002CBE094F89002CAE06480947F500E
:1013D0001A1212B31234611212B31232A5EF601155
:1013E00012103F1210BA12125C80061212B3123D94
:1013F0005812105E9002C912106D121294121061F0
:1014000075F002EF1210721212A3900134121061E3
:101410009002C9E01210BBEE8FF0020B2E90022951
:101420001215E2FBE9C0E0EAC0E0EBC0E09001C3C6
:101430001215BFFFE4FCFDD0E0FBD0E0FAD0E012D3
:101440001678900229120C6390022EE004F07006C8
:1014500090022DE004F090022FE07002A3E0600300
:10146000021DA49002291216CDFFEEC0E0EFC0E0ED
:10147000121687D0E0FFD0E0FE120B9790022912DF
:101480000C63900229A3A3E0FFA3E0900227CFF012
:10149000A3EFF0A3120C6F0000000090022D1217B2
:1014A000B2A374C8F0900178E07002A3E060030278
:1014B0001DA49001D2E07003021D36900223E0FECD
:1014C000A3E0FF4E7022900227E0FDA3E0900223EC
:1014D000CDF0A3EDF09001AB1215BFFD900225E514
:1014E000F0F0A3EDF0021D1F1216C0EE9CFE122DAF
:1014F000D09002351215D7121728900222E07026DC
:101500009002351215BFC39432E5F09400500F904D
:1015100001AB1215BFFF9002251216A68021900282
:10152000227401F080199002351215BFC39402E5B0
:10153000F09400500AE41216D8A3F0900222F0E4CE
:10154000900231F0A3F090023BF09002381215D7D0
:1015500012169E021DA4900231E0FEA3E0FF4E7021
:1015600012900227E0FDA3E0900231CDF0ED1216BB
:101570001B80511216C0EE9CFE122DD09002381224
:1015800015D7121728900233E07002A3E07035904F
:1015900002381215BFD39419E5F09400400C900264
:1015A000337413F0A37488F0800BE490023BF09046
:1015B000023312161E900227E0FFA3E0900231CF03
:1015C000F0A3EFF09001D2E070091216D8A3F090CA
:1015D0000222F0229002C8747EF0E4A3F09002C9C7
:1015E000E0FDC394034003021F0A7F021232A5EFFD
:1015F0006004121241F09002C9E0FF245B12120055
:10160000E06003021E96EFB4010F12109DE0FFA3ED
:10161000E09001A0CFF0A3EFF09002C9E0B4020F78
:1016200012109DE0FFA3E0900194CFF0A3EFF090A3
:1016300002C9E0FF25E01212D9E0FCA3E0FDEF12A1
:10164000109DE0FEA3E0C39DEE9C40449002C9E0E3
:101650009002C8F0245B1212007401F0900165E062
:1016600004F0900198F09002C9E0FD24611210D8B6
:101670007401F0E4FF121F51121F511234619002E5
:10168000C9E0FD7F081234611211EF7401F080127D
:101690009002C9E0FDE4FF1232A5EF60051211EFE0
:1016A000E4F09002C9E0FD7F011232A5EF6072E420
:1016B000900166021EFC9002C9E0FF25E01212E3D1
:1016C000E0FCA3E0FDEF12109DE0FEA3E0C39DEE61
:1016D0009C40399002C9E0FD9002C8F07F081232A8
:1016E000A5EF603D90012BE0FBA3E0FAA3E09002A0
:1016F000C912104C1210BA12125C121F1924611276
:1017000010D87401F0900166E0048010121F1924B3
:10171000611210D87401F0900166E004F090019914
:10172000F09002C9E004F0021DBD9002C8E0FF90F5
:101730000170E06F6002EFF0229002C9E0FD245BCF
:10174000F582E43401F583E4F07F08123D589002FD
:10175000C9E0FDE4FF1234619002C9E0FD7F01128F
:101760003D589002C9E0FD7F011234619002C9E04A
:1017700022123D589002C9E0FD7F0222E4F50BF5EC
:101780000CF50DF50E1216F1F053997FF50A1208BB
:101790006612162C121710902EC0E030E2F9902E2F
:1017A000C0E4F0438902121632438002902E02E018
:1017B000FEA3E0250CF50CEE350BF50B12170D9082
:1017C0002EC0E030E2F91217DBFEA3E0250EF50E85
:1017D000EE350DF50D050AE50AC3940340B04399B3
:1017E00080902EC5E4F0250CFFE50B3424FEC3EFFA
:1017F000950EF510EE950DF50FD3E5109488E50FD5
:1018000094374006750F37751088900209E50FF080
:10181000A3E510F0A3E50DF0A3E50EF0AF10AE0FB9
:101820001237BD90020FEEF0A3EFF090020DE50B22
:10183000F0A3E50CF090001BE0B420031215ED902E
:10184000020FE0FEA3E0FFE4FCFDE5672FF567E58E
:10185000663EF566ED3565F565EC3564F56405695C
:10186000E56970020568C3E56D94D0E56C940740A6
:101870002AAE68AF69CBEFCB12168DAF67AE66ADFF
:1018800065AC64120B978E6A8F6BE4F567F566F5AD
:1018900065F564F568F569F56CF56DD3E56B940055
:1018A000E56A94004053900210E0956BFF90020FA0
:1018B000E0956AFE9002CEF0A3EFF0D394F7EE64C9
:1018C00080947F4015E094069002CEE0648094807E
:1018D0005008121781E4F56E801F9002CEE0FEA33F
:1018E000E0FF122DD01216944003756E03E56EC30F
:1018F00094035005121781056E90020FE0F54EA378
:10190000E0F54F78267C007D007B007A0079287E08
:10191000007F2802094E900174E024FE601C1460D0
:101920002F1470030222362403600302228E9001DA
:10193000747402F01235E4122DDC123F037F017E35
:10194000001230A59001747403F0E4900197F02226
:10195000123E7390016DE07003022217900197E030
:1019600004F0E49002C7F09002C7E0FFC394034084
:10197000030222129001281210619002C7E0FE12A9
:10198000104F75F002EE1210BE12125C9001281278
:1019900010619002C7E0FE12106F121294121061D3
:1019A00075F002EE1210BE12125CEF640170391273
:1019B00011E7FF240A1211E0E4F0EF240B1211E00A
:1019C000E4F09001281210619002C7E012106FE558
:1019D000F01211D5FD240E1210B19002C7E01210C2
:1019E0006FFFED240F1210B19002C7E0640270394E
:1019F0001211E7FF240C1211E0E4F0EF240D121194
:101A0000E0E4F09001281210619002C7E012106F1C
:101A1000E5F01211D5FD24101210B19002C7E012AA
:101A2000106FFFED24111210B19002C7E004F00214
:101A30002147E490016DF0900197E0C39403406E5C
:101A4000900103747EF0E490016EF0900197F090A5
:101A500001747404F022123662123AB190023CE032
:101A60007003123E7312366290016DE064017033B0
:101A7000122F21123662E49002C7F09002C7E0FFF5
:101A8000C39403500E1227CA1236629002C7E004B4
:101A9000F080E8121DB4121805900174EFF0E49084
:101AA000016DF0900189E0A3F0E4900189F02290AB
:101AB00001D2E0607A12165D90017C12161E90022F
:101AC00022E070030223FA12173650030223FA9021
:101AD00001AB1215BF121721FE122DD09002CAEED3
:101AE000F0A3EFF0D39496EE9400400AE490022223
:101AF000F0A3F0A3F0229001AB1215BF12160D4017
:101B00000CD312175F40061215D41217EC9001ABDC
:101B10001215BFC312160E40030223FA12175F50AC
:101B2000030223FA1215D4F9E475F005020A8A902B
:101B300001D61215E2FBE9C0E0EAC0E0EBC0E0121A
:101B400015BCFFE4FCFDD0E0FBD0E0FAD0E01216BB
:101B5000789001D6120C639001DBE004F0700690DF
:101B600001DAE004F090017CE07002A3E06003027F
:101B700023FA9001D61216CDFFEEC0E0EFC0E012BE
:101B80001687D0E0FFD0E0FE120B979001D6120C22
:101B9000639001AE1215BF241EFFE435F0FE9001E4
:101BA000D61215DFFBD3120C3F403F900178E07056
:101BB00002A3E0703590023BE0702F200B2C9001C7
:101BC000DDE004F070069001DCE004F0D39001DD6C
:101BD000E094059001DCE09400401E1215CA121634
:101BE00026E49001DCF0A3F0800F1215CA1216262D
:101BF000E49001DCF0A3F0C20B9001D6120C6F0050
:101C0000000000E49001DAF0A3F090023BE09001C4
:101C10007C60041217C32212161E22C0E0C083C0CB
:101C200082C0D0D2AF900189E004F0D3900179E076
:101C30009400900178E09400400CA3E024FFF09021
:101C40000178E034FFF0D390017BE0940090017ABA
:101C5000E09400400CA3E024FFF090017AE034FF10
:101C6000F0D390017DE0940090017CE09400400C62
:101C7000A3E024FFF090017CE034FFF0D390017FDB
:101C8000E0940090017EE09400400CA3E024FFF07B
:101C900090017EE034FFF0D3900181E09400900148
:101CA00080E09400400CA3E024FFF0900180E03439
:101CB000FFF0D3900187E09400900186E09400400B
:101CC0000CA3E024FFF0900186E034FFF0D39001F4
:101CD00085E09400900184E09400400CA3E024FF90
:101CE000F0900184E034FFF0D3900183E094009001
:101CF0000182E09400400CA3E024FFF0900182E018
:101D000034FFF0C3E56D94D0E56C94075008056D81
:101D1000E56D7002056CC3E55994D0E55894075001
:101D2000080559E55970020558D3900230E0940037
:101D300090022FE09400400CA3E024FFF090022FCB
:101D4000E034FFF0D3900234E09400900233E0944A
:101D500000400CA3E024FFF0900233E034FFF0D009
:101D6000D0D082D083D0E0327E007FFF7D007B0127
:101D70007A007904120CD99002DA7400F0A374048A
:101D8000F09001287401F0A37400F0A374B8F090EF
:101D9000012E7401F0A37400F074AC12129B740055
:101DA000F0A37494F090012B7401F0A37400F0A3DD
:101DB00074C6F09001347401F0A37400F074D21270
:101DC000129B7400F0A3741F12129C7401F0A37490
:101DD00002F0902DE0E4931211D5FDF5828C83A3DF
:101DE000EFF0900002E0FFED24041210B19000012A
:101DF000E0FFED24051210B1900003E0FFED240692
:101E00001210B1902DE2E493FFED24121210B19064
:101E10002DE3E493FFED24141210B190013D740101
:101E2000F0A37400F0A3743CF0E4FF75F002EFA49B
:101E30002401F582E5F0342EF583E493FE74542FEB
:101E4000F582E43400F583EEF0EF25E0242DF582F1
:101E5000E4342EF583E493FE746A2FF582E43400B3
:101E6000F583EEF01210F90FEFB416BF902F56E085
:101E7000900058F0902F56E090006EF0902F56E0B2
:101E8000900059F0902F56E090006FF09000FF7492
:101E900001F09000FEF090003A7410F090001BF0FA
:101EA000900028F0A37420F09001787413F0A374CC
:101EB00088F022121717F515F516852611852712B9
:101EC000852613852714F50A12166CFFD3E5149F97
:101ED000E5139E40078E138F14850A16C3E5129FE3
:101EE000E5119E50078E118F12850A15050AE50A25
:101EF000B414D5E4F50FF510F50AE516650A602E61
:101F0000E515650A6028E510450F7010E50A25E023
:101F10002426F8E6F50F08E6F510801212166C2557
:101F200010FFE50F3E1217D1F50FEF13F510050A5C
:101F3000E50AB414C590021FE50FF0A3E510F0E523
:101F400016C394115005E51612178CE515C39411AC
:101F50005005E51512178C121717F50A12166CFFAB
:101F6000C3E5109FFFE50F9EFE122DD01216944080
:101F70000FE4FCFDE50E2510F50EE50D350F800F85
:101F800012166CFFE4FCFDE50E2FF50EE50D3EF597
:101F90000DED350CF50CEC350BF50B050AE50AC318
:101FA000941440B87FE07E817D027C00121753407C
:101FB0001AE50E94E0F50EE50D9481F50DE50C940F
:101FC00002F50CE50B9400F50B8003121717E47F64
:101FD000607EEAFDFC121753400BE4750E60750D30
:101FE000EAF50CF50BAE0DAF0E229002C8EFF01221
:101FF000105E12106A12129412106175F002EF1244
:102000001072C39DE5F09C402990012BA3A3900280
:10201000C8E012106FFDEF121262EDF09001341261
:10202000106112106AFDEF12109DE5F0F0A3EDF0C3
:10203000801F9002C8E0FF12109D1212BB121061A7
:1020400075F002EF121072FF9002C8E0121262EFF8
:10205000F09002C8E0FF12109DE0FCA3E0C39432B0
:10206000EC94005008EF12109DE4F0A3F09002C829
:10207000E0FF64017050EF12109D12118A94F4EE8B
:102080009401400812107BEEF0A3EFF09002C8E03C
:10209000FD12109DE01211B8240A1211A3ED1210C6
:1020A0009DA3E0FFEB240B1211A312105E12106A25
:1020B000FDEF12109D1211AC240E1211A3CFEDCF23
:1020C000EB240F1211A39002C8E0FF64027050EFDE
:1020D00012109D12118A94F4EE9401400812107BA4
:1020E000EEF0A3EFF09002C8E0FD12109DE0121197
:1020F000B8240C1211A3ED12109DA3E0FFEB240DE8
:102100001211A312105E12106AFDEF12109D12112F
:10211000AC24101211A3CFEDCFEB24111211A32286
:1021200090021BE0FEA3E0FFC39404EE9400502F46
:102130009001A6E0FCA3E0FDEF25E0FFEE33FE7486
:10214000132FF58274023EF583ECF0A3EDF09002BC
:102150001CE004F0700690021BE004F00229C07538
:102160000D011216ADE50D25E02411F582E43402CF
:10217000F583EEF0A3EFF0050DE50DB404E41215C0
:10218000BCFF9001A61216C3E5F09CFE122DD0C331
:10219000EF9428EE6480948050379001D2E0702351
:1021A0009001AE1215BFFFC39001A7E09FFF900101
:1021B000A6E095F0FE122DD0C312169550059001A1
:1021C000AE80039001A81215BFFF900219E5F080C0
:1021D0000B9001A6E0FFA3E0900219CFF0A3EFF06F
:1021E000E4F50CF50BF50AF509F50DD390021CE0AA
:1021F000950D90021BE09400401E1216ADE4FCFD0C
:10220000E50C2FF50CE50B3EF50BED350AF50AEC68
:102210003509F509050D80D3AF0CAE0BAD0AAC093D
:10222000EEC0E0EFC0E090021B121688D0E0FFD0B5
:10223000E0FE120B978F0C8E0B8D0A8C0922C0E0EA
:10224000C083C082C0D0ECC0E0EDC0E0EEC0E0EFE3
:10225000C0E0D2AFE5DB30E419D20CC208E5DB30D8
:10226000E102802E9002D9E5DFF09002DCE4F0027A
:102270002B04E5DB30E50FD206300805C208022B3F
:1022800004C20C022B04C208E5DB30E135E5DB308B
:10229000E00C9002DD123ED0E0F5DF022B0490024C
:1022A000DDE0FFB40813208A10D28A9002DAE0FC45
:1022B000A3E02407123EDAE4F0EF641A7066D20756
:1022C00080629002DCE0700EA3E5DFF09002DC7427
:1022D00001F0D208804E9002DDE0903BFA93FFB40B
:1022E000FF0E9002D9E5DFF09002DDE004F08034CB
:1022F000EF640F9002DD7026E0FFA3E0FCA3E0FD99
:10230000123ED9E0540FF09002DDE0FF04F0ED1230
:102310003ED9E0FFE5DF54F0FEEF4EF08006123EBE
:10232000D0E5DFF075DBFFD0E0FFD0E0FED0E0FDD0
:10233000D0E0FCD0D0D082D083D0E0329002CDEF7C
:10234000F090012B1210619002CD12106DFDACF0D7
:1023500090012812106175F002EF1210721212A390
:1023600012111FEE8FF0120A11ED121124E0FEA3DC
:10237000E0FF122DD0D3EF9414EE64809480505877
:102380009002CDE012112412118A9403EE6480941D
:1023900080401612111F1212BB12106175F002ED6F
:1023A0001210BEE475F0018020C3EF94FDEE64804E
:1023B000947F50189002CDE0FF1211241212BB122C
:1023C00010611210BA74FFF5F0120AC29002CDE04B
:1023D000245812116EE4F0229002CDE0121124E094
:1023E000FEA3E0FF122DD09002CDE0121235E0FCEA
:1023F000A3E0D39FEC9E400B12115AE0D39402400D
:1024000037800912115AE0D39401402C9002CDE09C
:10241000FF121124E4F0A3F090012812106175F06E
:1024200002EF12107212128D1210619002CDE012A2
:1024300010BBEE8FF0120B2E229002CCEFF0900228
:10244000D1E4F0A374FFF0E4A3F0A3F0A304F0A39D
:1024500074FFF0121255902EC37408F0E49002CD70
:10246000F0A3F09002CDE0FEA3E0FFC39409EE9448
:10247000004003022CFEEF9407EE940040067E001D
:102480007F0180199002CDA3E004FFE47E01C8EF34
:10249000C8088006CEA2E713CE13D8F8FF9002CF6B
:1024A000EEF0A3EFF0902EC07419F0902EC0E03043
:1024B000E2F99002CCE0FF75F002A424001210F0C3
:1024C000E0FCA3E0FD121255D3ED94FFEC940F4015
:1024D000179002CFE0FCA3E0FD75F002EF1210EDC3
:1024E000EC8DF0120A1180259002CC1210E9C08305
:1024F000C082E0FEA3E0FF9002CFE0FCA3E0FDC3BA
:10250000EF9DFFEE9CD082D083F0A3EFF09002CE3F
:10251000E004F070069002CDE004F0022C437F004E
:10252000227F967A0179A61216639001A87401F0B1
:10253000A37400F074441215FC7400F07446121574
:10254000FC7400F0A374481215FD7400F0A37432FB
:102550001215FD7400F0A3742E1215FD7400F0A383
:10256000742CF09001C37401F0A37400F0A37426DE
:10257000F09002357401F0A37400F0A37484121576
:10258000FD7400F0A37486F09001C67401F0A3748A
:1025900000F0A3741C1215FD7400F0A37422F090D7
:1025A00001BA7401F0A37400F0A374361215FD741F
:1025B00000F0A3742A1215FD7400F0A37438F075AE
:1025C00073007574C89001BA1215D7F9E573857454
:1025D000F0120B0F9001BD1215D7F9E475F06412DB
:1025E0000B0F9001C01215D7F9E475F096020B0F8E
:1025F000EE30E707C3E49FFFE49EFE221217AB22F2
:102600001404AB60E4FF3006169002DAE0FCA3E0AD
:10261000F5828C83E0FE54F0FFEE540FF0C20622E8
:10262000029203060A0B0D400EB60FFF0C020BFFC1
:1026300023F724042504070127282A2828182B1803
:10264000290F2C0F2D202E202F10262002110306DB
:102650000A100D400E800FFF0C020BFF23F4240420
:102660002504070127102A1028042B0429032C0312
:102670002D202E202F1026209002C97408F024054A
:10268000A3F0E4FF122B1C12105E12128A121061CA
:102690001212F4FE9002CBF0A3EFF0122DD09002B4
:1026A000C912124A501C121176940AEE648094806A
:1026B00040028044C3EF94F6EE6480947F5065023C
:1026C0002EF39002CBE0FEA3E0FF122DD09002CAC1
:1026D000D312124B401690012B121061120A27FFE1
:1026E00012105EE5F08FF0120B0F80381211769405
:1026F00064EE648094804010E490014FF0A3F012E7
:10270000105EE475F0018019C3EF949CEE64809430
:102710007F5011E490014FF0A3F012105E74FFF5AA
:10272000F0120A8A12105E12128A1210611212F44A
:10273000F9900134E0FBA3E0FAA3E0C98FF0020BAB
:102740000F122E58E49002C8F09002C8E0FFC39424
:10275000034003022FDFEF607A122B1C9002C8E0C7
:10276000FF121A4630031920011620041390013479
:102770001210619002C8E01210BBE4F5F0120B2EAB
:102780009001341210619002C812106DFDACF0C3BC
:102790009406EC648094805002804DC3ED9464EC08
:1027A0006480948050509001341210619002C8E00F
:1027B00075F002A4F582E92582F9EA35F0FA120AE9
:1027C00027FFAEF07C007D021209DBEE8FF0120BCA
:1027D0000F80239001341210619002C812106DC353
:1027E000E5F064809480500E900134A3A31210BAD7
:1027F000E4F5F0120B2E9002C8E004F0022F29E459
:1028000090016DF022200265D202E4FFEF25E02462
:102810009AF582E4343E1212081212D9ECF0A3EDBC
:10282000F0EF25E02494F582E4343E1212081212EF
:1028300037ECF0A3EDF0EF25E024A0F582E4343E80
:102840001212081212E3ECF0A3EDF00FEFB403BC88
:10285000900112A31211D4FDF5828C83A3A3EFF093
:10286000900114A3E08D828C83A3A3A3F01211E73F
:10287000F5828E83A3E0B4AA0312395B1211E7FF3D
:102880001211DEE0B41008EF1211DEE4F0D20A12E9
:1028900011E7FF241B1211E0E0700DEF241C121150
:1028A000E0E0B41003123AFE1211E724131211E013
:1028B000E0FFB410069001A27401F0EFB42005E42B
:1028C0009001A2F0229002CAEEF0A3EF1216E1905E
:1028D00002CAE07002A3E060031237521239BAE470
:1028E00090021BF0A3F07F14123D2A90017AE4F0CD
:1028F000746412161B9001A6E0F9A3E0FFA3121561
:10290000D71216269001AB1215D712169E9001B160
:102910001215D71217A29001B41215D712169E9055
:1029200001B71215D71217A21217ABE49001D2F01B
:102930009001D6120C6F000000009001DA1217B25D
:10294000A3F09001A61215CF121626E49001D5F03F
:102950009001861217B9FE7F13FD7B017A0279225E
:10296000120CD99001C31215BF9002271216A59020
:10297000022F1217C322EF75F003A42450F582E44E
:102980003402F583E58222F583E493FE740193FF1C
:10299000E4FCFD902F60E0F8A3E0F9A3E0FAA3E0E7
:1029A0002FFFEA3EFEED39EC38222EF582E4358326
:1029B000F5832274BE2BF582E43402F58322E4E031
:1029C00075F008A4246EF582E43402F58322EFF05A
:1029D000FCA3E0FE131313541F2225E0243EF582CE
:1029E000E43402F58322E0FF74017E00C8EFC808DA
:1029F00022902F60A3A3E0FEA3E0FF22F583C3741F
:102A000001939FE4939E2225E02404F582E4343E62
:102A100022E0FCA3E0FDD39FEC9E2225E02418F5E4
:102A200082E4343E221212559000FEE0601BE490D6
:102A300002C8F09002C8E0FF246A1210FC1212EDE6
:102A4000E0B416EFE49000FEF0E49002C8F09002CB
:102A5000C8E0FFC39403501174752F1210E2E4F024
:102A6000A374FFF01212ED80E5E49002C8F090022A
:102A7000C8E0FFC39403504A1238929002C8E02481
:102A800075121281FF122C19EF7031E41212C390EB
:102A900002C8E0B4010F1210E0E0FFA3E090019241
:102AA000CFF0A3EFF09002C8E0FFB4020F1210E0E5
:102AB000E0FFA3E0900172CFF0A3EFF01212ED025D
:102AC000324E023B849002CFEDF09002CE1231AE36
:102AD000A3F0EE5407A3F09002D0E0FFEC123157C0
:102AE0002F12318BE0FD7C009002D11231C680059F
:102AF000C333CE33CED8F9FFEE5CFEEF5D4E60629D
:102B00001231D19002CE12319EC083C0829002CF8A
:102B1000E0D082D08375F002120CA01231F1504245
:102B2000C3EF9DFFEE9CFE9002CEE0FD1231E71256
:102B300031DC402E9002D0E0FFED1231572F1231E0
:102B40008BC083C082E0FF9002D1E0FE7401C8EE2A
:102B5000C8088002C333D8FCF45FD082D083F07FF2
:102B600001227F0022758A50538AEF90000274116F
:102B7000F09000017422F09000037433F07599BF57
:102B8000759A40E4FFFEC2950020960CD295003065
:102B900096069000027487F00FBF00010EEF640AE2
:102BA0004E70E37590FF75999F759A607580FF75FB
:102BB00089FE759501000000E4FEFF308006309527
:102BC000032096069000017487F00FBF00010EEFFE
:102BD000640A4E70E6E4F5AB75AC1DF5ADF5AF7566
:102BE00089FF75913F7599FFF59675931DF59BF5D6
:102BF00095F592F59A5388FED28AD20D22902EC076
:102C0000E4F090019BF090019AF0FC74752C121284
:102C100081FE131313541FFDEE5407FEED14601BC9
:102C200004702E90019AE0FD7401C8EEC80880027D
:102C3000C333D8FC4D90019AF0801690019BE0FFC1
:102C40007401C8EEC8088002C333D8FC4F90019BC2
:102C5000F00CECB403B590019AE0FF42ABA3E0FEA8
:102C600042ADEFF4FF5289EEF4FE5299EF5295EE29
:102C7000529A90019AE0F45296A3E0F4529B7F039B
:102C8000229002CFEDF09002CE1231AEFDEE54074D
:102C9000A3F0EC1231572D12318BE0FB7A00900239
:102CA000D01231C68005C333CE33CED8F9FFEE5AE9
:102CB000FEEF5B4E704D9002CEE0FE1231572D12AA
:102CC000318BC083C082E0FF9002D0E0FD7401C868
:102CD000EDC8088002C333D8FC4FD082D083F0EE19
:102CE0001231E71231679002CE12319EC083C0824A
:102CF0009002CFE0D082D08375F002120CA0EEF0EB
:102D0000A3EFF022023D86E493A3F8E493A34003EB
:102D1000F68001F208DFF48029E493A3F854072435
:102D20000CC8C333C4540F4420C8834004F45680F5
:102D30000146F6DFE4800B01020408102040809079
:102D40003828E47E019360BCA3FF543F30E509546A
:102D50001FFEE493A360010ECF54C025E060A8409D
:102D6000B8E493A3FAE493A3F8E493A3C8C582C894
:102D7000CAC583CAF0A3C8C582C8CAC583CADFE969
:102D8000DEE780BE30000875731B757458800675C9
:102D900073007574C89001AB1215BFFFAEF0C395F8
:102DA00074EE957350159001D2E060209001C0122E
:102DB00015BFFDC3EF9DEE95F04011900180E070CE
:102DC00002A3E070279001D204F0802090001BE065
:102DD000B4200512177980069001801217C3E49081
:102DE00001D2F090017EF0A3F01217AB9001D2E077
:102DF0006011900028E090003AB410047410F022A2
:102E00007420F022C202E4FFEF121124E4F0A3F0D8
:102E1000EF12114EE4F0A3F074552FF582E4340163
:102E2000F583E412116AE4F0EF25E02467F582E40B
:102E30003401F583E4F0A3F0745B2F121200E4F088
:102E400074612F1210D8E4F0900164747EF01212B5
:102E50002AE4F074252FF582E43401F583E4F00FC1
:102E6000EF640370A3E4900165F0A3F0900198F083
:102E7000A3F0900170747EF0900103F0E490016F74
:102E8000F022900196E014601B1460432402705DF0
:102E90009001A2E0B4010A9001961236CED205D27A
:102EA00000C203227F02123CFAEF60077F02123F4A
:102EB00015C2059001A2E070349001967402F0D220
:102EC00003C205C2007F03123F157F03023C307F1F
:102ED00003123CFAEF60167F03123F159001A2E047
:102EE0009001967003F080031236CEC20322740163
:102EF000F07F02123F157F02123C3022CDEFCD430E
:102F0000AD105399EF439A10539BEF902EC074026B
:102F1000F0147E00C8EDC8088005C333CE33CED888
:102F2000F9FF902EC4EEF0A3EFF0902EC8EEF0A3C0
:102F3000EFF07410123E39902EC0E030E2F9902E7E
:102F4000C0E4F07402F07420123E39902EC0E030DC
:102F5000E2F9902E00E0FEA3E0FF902EC4E4F0A37F
:102F6000F0902EC0F0439910539AEF539BEF53907B
:102F7000EF22123DDD902E42E0FEA3E0240DFFEE95
:102F800034FFFE1216944009902E42E4F0A374F32D
:102F9000F053997F123EEA902E5EE4F0A374FFF0A6
:102FA0007F0F122C19902E5EE0FEA3E0D394F0EE7A
:102FB00094014007902E5EE4F0A3F0902EC4E4F05C
:102FC000439980A3F09001A5E0900021F01216FE35
:102FD0009001C61215D7F9EE8FF0020B0F8F828E7B
:102FE00083E562456170088583618582628012E5B0
:102FF000622582FFE56135831217D1F561EF13F584
:10300000620563E563D3940A400D85615F85626064
:10301000E4F561F562F563D3E5609400E55F940043
:103020004021AE5FAF607D0312164BAF82AE83E4EA
:10303000FCFDEB2FFFEA3E12167F7802120C508E39
:10304000838F82AE83AF8222C10C41019A0041017D
:103050009B004101970041019F00C102C101C104D1
:103060004101A20041019600C103C100C105430115
:1030700075000D0E4201A0000042019400004101C4
:1030800091004102DC004102DD004202D70000C194
:1030900006C108C1074102D9104101A3004101A5A1
:1030A00010C10BC10A41023C004101A41041023D84
:1030B0000000121255EF25E025E024A6F582E43445
:1030C0003EF583E4937014902EC4121191F5ABF485
:1030D0005289121192902EC5F08013902EC5E412E1
:1030E0001191F5ADF45299121192902EC4F0EF2582
:1030F000E025E024A8F582E4343EF583E493902EA5
:10310000C3F0EF25E025E024A9F582E4343EF58301
:10311000E493902ECAF022200A062003033005090A
:10312000E4FFFE1230A5C20A22900184E07002A3DF
:10313000E0600512172F703F200003123B41123947
:10314000BA7F01123D2A1229009002C8EEF0A3EFC7
:10315000F07B017A0279C8123A649002C8E0F9A3C0
:10316000E0FF9001A81215D71216261212FE123592
:1031700064121BFD12228F123BBF229002C77408FB
:10318000F0A3E4F0A3743FF0A374DFF0E4FDFCF9D6
:10319000758A10538AEF009002C7E0FEA3E02DF578
:1031A00082EE3CF583E493FF69F90DBD00010CBC90
:1031B00037E5BDDFE29002C9123EE1E49369900277
:1031C000DA7009123EE1A37414F08006123EE1A306
:1031D000E4F0758A50538AEF00224389025395FD2B
:1031E0005396FD438002123E507F0C1236DCCAEE2D
:1031F000CACBEFCB7F0C1236DCEF2BFFEE3A9002FE
:10320000CDF0A3EFF0123E45F9120A2745F0700603
:10321000123E2AEE8018120A27FBAAF0123E2AEF6D
:103220002BFFEE3AC313F9EF13FF123E45C98FF09F
:10323000120B0F22E4FECFEECF123892902EC07404
:1032400019F0902EC0E030E2F9902EC4E4F0A3F023
:10325000902EC0F01212C374752E12128175F002F6
:10326000A424001210F0E0FCA3E0FD90012812104D
:103270006175F002EE1210BEEC8DF0120B2E0EEE08
:10328000B403B3229002CAEBF0A3EAF0A3E9F090F2
:10329000017AE07002A3E070379001D5E06031E47C
:1032A0009001D5F01239BA7508017F01123D2A123A
:1032B00029009002CA1215D71217280508E508C37D
:1032C000941440E690017AE4F0A37464F012177944
:1032D0002212172F702E90023CE0700890017AF0B5
:1032E000A37464F090023C7401F0900029E0B420D3
:1032F000081238F7120D058003123C97900188746C
:1033000001F08017E490023CF0900029E0B4200323
:103310001238F7900188E06002E4F0023EB2120831
:103320002EE4F5F275F30875EEFF75EF3F75EA814F
:10333000F5F675EB0700E5EC30E7FBE4F5EC900201
:10334000DAE0FEA3E0FF241BF582E43EF583E5F31B
:10335000F0EF241CF582E43EF583E5F2F075EB30E6
:103360002230073FC207902E42E0FFA3E09002CA3E
:10337000CFF0A3EFF0123DDD7B5C7A121216FEEF68
:103380002BFBEE3AF9CFEBCF9001C61215D71216F0
:10339000261217CA9002CAE0FFA3E0902E42CFF097
:1033A000A3EFF022300D37C3900193E094209001F9
:1033B00092E0940050069000037487F0C39001736C
:1033C000E09420900172E09400500690000374870E
:1033D000F0C20D9000031211D424061210B12290F5
:1033E000003AE0FC9001A4E06C602E90003AE0FE10
:1033F0009001A4F090000BE090019FF0540FF0EECC
:10340000B42005E04420800AECB4100B90019FE04A
:103410004410F090000BF0C28A2200000000FFFF71
:10342000FFFF0000FFFFFFFFFFFFFFFFFF00FF00A8
:103430000000FFFF000000FFFFFFFFFFFFFF000095
:103440000000FFFFFFFFFFFFFFFFFFFF0000000086
:103450009002C8EFF0E024BE123196E060037F01D5
:10346000229002C8E0FF24BE1231967401F0EF12E0
:1034700031FB1231679002C8E01231BAEEF0A3EFCF
:10348000F07F00221216F1F0FF74542FF582E4341D
:1034900000F583E0FE75F002EFA42400F582E5F06C
:1034A000342EF583E49324C0F582E4342EF583EEC4
:1034B000F00FEFB416D322E4F5B2F5BA758D2043C0
:1034C0008D20538D7F53AAF7F58BE5DB20E2172083
:1034D0000C14E4F58A758703000000758A50D20A3F
:1034E0009000297420F0758B1122758B11902F6438
:1034F0007440F0E4FEE4FF12315612318AE4F00F1A
:10350000EFB40AF30EEEB403EC7F099002BEE4F0D0
:10351000A3DFFC902F647480F022CBEFCB123193A9
:10352000E060241231D1EB1231BA1231F15018C3DC
:10353000EF9DFFEE9CFEEB1231FB1231DC400812D6
:103540003193E4F07F01227F00229002CDEFF01250
:103550003C64E4F5099002CDE0FFE509C39F500704
:10356000121F5C050980EE902EC0E4F012269390A5
:1035700001A6EEF0A3EFF022ED131313541FFEED9E
:103580005407FD12315612318AC083C082E0FFCE4B
:10359000EDCE7401C8EEC8088002C333D8FCF45FD6
:1035A000D082D083F02212084E53A87F12334512E6
:1035B000081E123DB243A880123F1E9000FFE0603B
:1035C000069001747401F0122DE4122FE51220F61A
:1035D00080F59002DAE0FFA3E09002DECFF0A3EFE7
:1035E000F0E4F5DA75DA4043DA2075D74075DA5839
:1035F00075D90143A90875B80875F8082212162C68
:1036000053997F123C64902E42E4F0A374FFF012B1
:1036100008667F01122C1943890212163243800278
:103620004399802201F40028002801F4009603E861
:1036300001F403E81770006403E8003202580258EE
:10364000012C01F403E8271000C89002CDE0FEA38E
:10365000E0FF7C007D14020974902EC2F0902EC011
:10366000E04419F0229001C3E0FBA3E0FAA3E022BA
:10367000902EC07402F0902EC77471F0902ECD740D
:10368000C0F0A374FFF0A3F0902EC37401F0902E4D
:10369000CAF022121255E4FF1210F90FEFB416F817
:1036A000902EC4E4F0A3F0123A14123A1490016D73
:1036B0007401F022009600960096009B009B009BF0
:1036C000008C008C008C00011010022010090240B8
:1036D0001009E5B230E005E5AA20E013E490018A84
:1036E000F075B28E75B6F9F5B743B20143AA01225F
:1036F000E0FF04F0A3E0FCA3E02FF582E43CF583B7
:1037000022E0FEA3E0F5828E83221217CA902EC219
:103710007412F0902EC77471F0902EC47480F0A3D0
:10372000E4F0221233DD9000FFE06008123205E47D
:103730009000FFF02274BE2F123196E4F022123F67
:103740002A023CCAD2AF32D2AF32023EB2000000EF
:103750000000000000000000000000000000000069
:103760000000000000000000000000000000000059
:103770000000000000000000000000000000000049
:103780000000000000000000000000000000000039
:103790000000000000000000000000000000000029
:1037A0000000000000000000000000000000000019
:1037B0000000000000000000000000000000000009
:1037C00000000000000000000000000000000000F9
:1037D00000000000000000000000000000000000E9
:1037E00000000000000000000000000000000000D9
:1037F0000000000000000000000000000000002F9A
:1038000000000000000000000000000000000000B8
:1038100000000000000000000000000000000000A8
:00000001FF
