:10000000011002003C00000080340000FF000000EE
:100010000219F7E49002ABF0A3F022022CEDE4F514
:10002000E3439F107F03FEFDFC123329439F027FB1
:10003000037E007D007C00123329539FEF75BE0EB6
:10004000E4F5BFF5B975927622FFFF022A917F761B
:100050007E107D017C00780412034FD3120286408B
:1000600003C21822D2182202294AFF022197BB019B
:100070000689828A83E0225002E722BBFE02E32245
:1000800089828A83E49322BB010989828A83F8E00A
:1000900028F022500327F722BBFE05F8E328F322BD
:1000A0008A838982F8E4932822BB010689828A83A5
:1000B000F0225002F722BBFE01F322EF8DF0A4A83C
:1000C000F0CF8CF0A428CE8DF0A42EFE22C5F0F83F
:1000D000A3E028F0C5F0F8E582158270021583E0F0
:1000E00038F022BB0110E58229F582E5833AF583D9
:1000F000E0F5F0A3E0225009E92582F886F008E651
:1001000022BBFE0AE92582F8E2F5F008E222E58347
:100110002AF583E993F5F0A3E99322F8BB0111E5F1
:100120008229F582E5833AF583E8F0E5F0A3F02231
:100130005009E92582C8F608A6F022BBFE09E92588
:1001400082C8F2E5F008F222EF2BFFEE3AFEED391D
:10015000FDEC38FC22C3EF9BFFEE9AFEED99FDEC1F
:1001600098FC22E88FF0A4CC8BF0A42CFCE98EF054
:10017000A42CFC8AF0EDA42CFCEA8EF0A4CDA8F00F
:100180008BF0A42DCC3825F0FDE98FF0A42CCD35D3
:10019000F0FCEB8EF0A4FEA9F0EB8FF0A4CFC5F03D
:1001A0002ECD39FEE43CFCEAA42DCE35F0FDE43C36
:1001B000FC2275F008758200EF2FFFEE33FECD3381
:1001C000CDCC33CCC58233C5829BED9AEC99E582C8
:1001D00098400CF582EE9BFEED9AFDEC99FC0FD554
:1001E000F0D6E4CEFBE4CDFAE4CCF9A88222B80044
:1001F000C1B90059BA002DEC8BF084CFCECDFCE50F
:10020000F0CBF97818EF2FFFEE33FEED33FDEC3332
:10021000FCEB33FB10D703994004EB99FB0FD8E5B7
:10022000E4F9FA227818EF2FFFEE33FEED33FDEC00
:1002300033FCC933C910D7059BE99A4007EC9BFCF6
:10024000E99AF90FD8E0E4C9FAE4CCFB2275F01082
:10025000EF2FFFEE33FEED33FDCC33CCC833C810A7
:10026000D7079BEC9AE899400AED9BFDEC9AFCE8D5
:1002700099F80FD5F0DAE4CDFBE4CCFAE4C8F92222
:10028000EB9FF5F0EA9E42F0E99D42F0EC6480C8F5
:1002900064809845F022EB9FF5F0EA9E42F0E99DDC
:1002A00042F0E89C45F022E8600FECC313FCED132C
:1002B000FDEE13FEEF13FFD8F122E8600FEFC3331A
:1002C000FFEE33FEED33FDEC33FCD8F122BB010D24
:1002D000E58229F582E5833AF58302032B5007E98D
:1002E0002582F802044DBBFE07E92582F802033798
:1002F000E58229F582E5833AF583020459BB0107BB
:1003000089828A830203B15005E9F8020486BBFEA4
:1003100005E9F80203BD22BB010DE58229F582E55E
:10032000833AF5830203B15007E92582F802048677
:10033000BBFE07E92582F80203BD22E0FCA3E0FD35
:10034000A3E0FEA3E0FF22E2FC08E2FD08E2FE08D3
:10035000E2FF22E0F8A3E0F9A3E0FAA3E0FB22E247
:10036000FB08E2F908E2FA08E2CBF822BB010789B0
:10037000828A830203435005E9F8020469BBFE0543
:10038000E9F802034F89828A830204767401FF33FD
:1003900095E0FEFDFCA3A3A3E0CF2FF0E58215823C
:1003A00070021583E0CE3EF0E5821582700215835F
:1003B000E0CD3DF0E582158270021583E0CC3CF083
:1003C00022ECF0A3EDF0A3EEF0A3EFF022ECF208A4
:1003D000EDF208EEF208EFF222A8828583F0D083D6
:1003E000D0821203E01203E01203E01203E0E47390
:1003F000E493A3C583C5F0C583C8C582C8F0A3C56F
:1004000083C5F0C583C8C582C822D083D082E49357
:10041000F208740193F208740293F208740393F2E1
:10042000740473A42582F582E5F03583F58322FAFE
:10043000E6FB0808E6F925F0F618E6CA3AF622E0E7
:10044000FBA3E0FAA3E0F922EBF0A3EAF0A3E9F0C2
:1004500022E493FB740193FA740293F922E6FC08F8
:10046000E6FD08E6FE08E6FF22E493FC740193FD36
:10047000740293FE740393FF22E6FB08E6F908E694
:10048000FA08E6CBF822E493F8740193F974029326
:10049000FA740393FB22ECF608EDF608EEF608EF8B
:1004A000F622900270EEF0A3EFF0A3ECF0ED121440
:1004B00097400D900272E0FFA3E090027602072EB3
:1004C00090005CE090027412073C90027A12144F84
:1004D00012073C900278EEF0A3EFF09001D9E09083
:1004E0000274F075F0029001CD12140F12077B9088
:1004F000027E12144FF075F0029001CD12140F120B
:10050000077B90027CEEF0A3EFF09001FAE09002FE
:10051000741214269002881203B112145412142675
:100520009002841203B19002721213DBC006C0075E
:100530009001DA121512D007D00612014590028000
:100540001203B1200023D37817E2949418E2941197
:100550005017900207E06011121465500C30020928
:10056000900260E070030206ED900235E07002A395
:10057000E0700A90022AE07002A3E0600D121536C6
:10058000500812146550030206ED900205E0B40114
:10059000261214CF40219002437403F0E4900275B8
:1005A000F09002881203C900000000900284120338
:1005B000C900000000806AD3900250E094009002CD
:1005C0004FE0940040079002437408801B121536D8
:1005D000400E9002437419F09002757414F080413B
:1005E000300008900243740BF080323016099002FC
:1005F000437402F0E48026121464400990024374AC
:100600000DF0E480189001FBE0900243B4010A74FD
:1006100003F090027514F080087401F0E490027504
:10062000F03000191214CF40149002881203C90050
:100630000000009002841203C90000000075F0AFB2
:100640001214A79E400B1213F140031215C30206A9
:10065000B0900243E0FD75F096A4FF1214AF95F040
:100660005010ED75F0C8A4FF12159095F0500302DC
:1006700006E4900275E02408FFE433FEC390027B99
:10068000E09F90027AE09E401412147E9001DE12E8
:1006900003B17F0E1231659002370206DDD390025E
:1006A00038E09400900237E0940040030206E475BD
:1006B000F0961214A79E40131213F140031215C3B3
:1006C0001215BD9002841207598022900243E075F2
:1006D000F0C8A4FFAEF01215909E40211213F14015
:1006E000031215C31215BD900288120759EEF0A32C
:1006F000EFF0800912147E9001DE1203B190021C0B
:10070000E07004A3E06401700312273490027212B7
:1007100013DB9001DE1203431201451229B9900246
:1007200076EEF0A3EFF0A3E0FEA3E0FFA3E0FCA3CE
:10073000E0FD12225E7812E2FF08E2900203CFF0A1
:10074000A3EFF0900276E0FEA3E0FF22F025E02484
:1007500050F582E43400F583E0FCA3E0FD900270E4
:10076000E0FEA3E0FF1233B32212034312014590CF
:1007700001DE1203B17F0D123165900235EEF0A358
:10078000EFF07F1812316590025922900272E0FE5C
:10079000A3E0FF1233B322900279EFF01214F6E0D7
:1007A000FEA3E0FF75F002ED9000BE12140F1233AD
:1007B000B3D3EF94C8EE9400400890027A7401F02D
:1007C0008014D3EF9464EE940090027A4005740292
:1007D000F080037403F0900279E075F004A424D053
:1007E000F9740035F0FA7B011213D190027AE0908F
:1007F000028BF0122B9E900279E01214F6EEF0A319
:10080000EFF0ED75F004A42441F9740135F0FA7BA2
:10081000019002791213D190028B7406F0122B9E74
:10082000900279E09001311214FAEEF0A3EFF0900B
:10083000027C1203C900000000E490027AF09002EA
:100840007C12032BC004C005C006C007900279E0EB
:10085000FD75F0149000E0120413C083C082900272
:100860007AE0D082D0831214FAE0FEA3E0FFED120A
:1008700014091233B3AB07AA06E4F9F8D007D0067F
:10088000D005D00412013890027C1203B190027A94
:10089000E004F0E0C3940A40A590027C12032B9080
:1008A000027912148D1203B190023BE07002A3E0B2
:1008B000703A900130E075F00A84E5F0F0E4FFEF63
:1008C00012140975F014EF9000E0120413C083C0F5
:1008D00082900130E0D082D0831214FAECF0A3EDC4
:1008E000F00FEFB404D9900130E004F0301F0302A0
:1008F00009CC3007030209CC900235E07002A3E076
:1009000060030209CC90022AE07002A3E0600302B7
:1009100009CC7816E2FE08E2FFC39494EE941150DD
:100920001890343E740193249CFDE49334FFFCD36F
:10093000EF9DEE9C40030209CC900279E0640360D5
:10094000030209CC9002801203C9FFFFFFFFE4906D
:10095000027BF090027AF090027AE0FFC394045098
:100960003375F004EF90016312041312032B90020D
:1009700080120343D3120286401290027AE0A3F061
:1009800012148E12032B9002801203B190027AE0AF
:1009900004F080C39001A812148D12032BE47B1E77
:1009A000121589503790027BE09001A8F0A3E090E7
:1009B00001391213D59001A4121487C006C0079004
:1009C00001A8E075F002900139120413121512D03B
:1009D00007D0061201459001A41203B1900279E0FC
:1009E000B403169001A8E075F0021215B7E0FFA35A
:1009F000E09000C6CFF0A3EFF09001A412032B907B
:100A000000C7E02FFF9000C6E03E900161F0A3EF29
:100A1000F09001A8E0A3F0900279E0FF900131127C
:100A2000140C75F002EF900139120413ECF0A3EDF1
:100A3000F07A0179931214727410F090016112151A
:100A40005B7A017973122F177B017A0179737D101C
:100A500012248AAF41AE40AD3FAC3E9001940203F8
:100A6000B1E4900291F0EF7003020C0A1232AB90E5
:100A700001A01203C900000000E4900292F090026D
:100A8000971203C900000000900292E0FF122E9F0F
:100A9000121CDB9002931203B1E4900290F09002DA
:100AA0009312032B900292E075F00C9000791204DF
:100AB00013C083C082900290E0D082D08375F0048E
:100AC0001204131203B1121CEDE0B403D1785C9050
:100AD0000293121CCA9002931203B1900292E0FF9B
:100AE0009000BE121C389000C8121C3790013112C1
:100AF0001C3775F002EF900139121C3B75F004EFC2
:100B00009000D01204131203C9009C40009002927E
:100B1000E0FB75F0049001411204131203C9009C1C
:100B20004000121C7975F004EB900151120413126D
:100B300003B1E4900290F0900290E0FFC3940A5059
:100B400015900292E075F0149000E0120413121C4C
:100B500037121CED80E1900297120343121C7912A8
:100B600001389002971203B1900292E004F0C3940E
:100B7000045003020A78900161121C3E9000C612D4
:100B80001C3E900161E0FEA3E0FF900291E075F051
:100B900002900173120413EEF0A3EFF09001A01283
:100BA0000343900161E0FEA3E0FFE4FCFD12013885
:100BB0009001A01203B1900291E004F0C394105090
:100BC00003020A69121CF7900194121CF490019818
:100BD000121CF478061202AA90019C1203B1E49050
:100BE00001A8F0A3F0A3F09001A41203C900000033
:100BF00000E4900290F0900290E0FFC39405500F43
:100C000075F002EF9001AD121C3B121CED80E790D5
:100C100001B8121C3EE49002CAF0900194121C7CB0
:100C200090006A1203B19000701203C90000000026
:100C3000E4900076F0A3F078147427F2087410F2B0
:100C400078127427F2087410F2E47816F208F29021
:100C50000201F0A3F09001AB121C3EE49001BAF047
:100C6000A3F09001C0121C3EA31203C90009C400E6
:100C70009001C6121C3EA31203C90009C4009001D2
:100C8000DC121C3E9001FD1203C90000000090011F
:100C9000DA121C3E9001DE1203C900000000E4904D
:100CA0000290F0900290E0FB75F0049001E21204D3
:100CB000131203C90000000075F002EB9001CD1281
:100CC0001C3B121CEDE0B406DAE490023DF0A3F008
:100CD000A3F0A3F0900257F0A3F0A3F0A3F09001CB
:100CE000FBF0A3F02290020CE475F0011200BDD3DA
:100CF000900211E09400900210E094004003123240
:100D000087D3900213E09400900212E09400400315
:100D1000123287D3900254E09400900253E0940082
:100D20004003123287D390021BE0940090021AE035
:100D300094004003123287D390021DE09400900289
:100D40001CE094004003123287D3900223E0940009
:100D5000900222E09400400F123287900222E0704D
:100D600002A3E07002D210D3900221E0940090021E
:100D700020E094004003123287D390021FE09400D9
:100D800090021EE094004003123287900206E03089
:100D9000E011E4900224F0A3F0A3F0A3F0A3F0A3E9
:100DA000F08042D3900225E09400900224E0940069
:100DB000401A123287900224E07002A3E0700D7F87
:100DC0000B123165900228EEF0A3EFF0D3900229C8
:100DD000E09400900228E09400400A900226E47516
:100DE000F0011200BDD390022DE0940090022CE09F
:100DF00094004003123287D3900236E094009002B0
:100E000035E094004003123287D3900238E094001A
:100E1000900237E094004003123287D390023AE008
:100E20009400900239E094004003123287D390027C
:100E30003CE0940090023BE0940040051232878031
:100E40000D7F1012316590023BEEF0A3EFF0D390CE
:100E5000023EE0940090023DE0940040031232878D
:100E6000D3900240E0940090023FE09400400312CF
:100E70003287D3900242E09400900241E094004017
:100E800003123287D3900250E0940090024FE09416
:100E9000004003123287D390024EE0940090024D3E
:100EA000E094004003123287D3900252E094009005
:100EB0000251E094004003123287D3900258E0942C
:100EC00000900257E094004003123287D390025AF8
:100ED000E09400900259E094004003123287D390CE
:100EE000022BE0940090022AE09400400312328723
:100EF000D390025FE0940090025EE0940040031201
:100F00003287D3900215E09400900214E0940040E0
:100F100003123287D3900217E09400900216E094F7
:100F2000004003123287D3900219E0940090021817
:100F3000E0940040031232872290026FEEF0A3EF9C
:100F4000F0E4A3F0D3900225E09400900224E09412
:100F500000400612240C021101900212E0FEA3E0F0
:100F6000FFD39400EE940050051223D3401E1223A9
:100F7000F840089001BCEAF0A3EBF09001BCE0FD62
:100F8000A3E07814CDF208EDF202110720001390CF
:100F90000205E06401600302107E12245050030237
:100FA000107E1223F840089001BCEAF0A3EBF0D3C6
:100FB000EF9400EE940050051223D3400302106D0D
:100FC00090007612243F90026FE0FCA3E0FDECC39A
:100FD00013FEED13FF900076E0FAA3E0FBC39FEA57
:100FE0009E506FEDAE047802CEC313CE13D8F9FF36
:100FF000C3EB9FEA9E40069001BFE0605512115E70
:10100000401690026FE0FEA3E07802CEC313CE1329
:10101000D8F9D3122474503AA215301401B34032D7
:101020007812E2FE08E2FF08E2FC08E2FD9FEC9E77
:101030005009C3EF9404EE94294017D3EF94E0EEE7
:10104000942E5003021107ED94E0EC942E4003021D
:1010500011079001BF7401F0900271F0D37813E290
:1010600094E018E2942E40157815E294E018E2948A
:101070002E500A742EF20874E0F20211079001BC9F
:10108000E0FFA3E07814CFF208EFF202110790001E
:1010900070120343C0007812E2FE08E2FFE4FCFD98
:1010A000D0001201389000701203B1900076122423
:1010B0003F90026FE0FEA3E0C3122474502212118D
:1010C0005E501DA215301401B34015900228E0FEB9
:1010D000A3E0FFD3900227E09F900226E09E4037D6
:1010E000900076E0FEA3E0FFFBAA06E4F9F890008A
:1010F0007012032B1201DE12245E400E7815E22FCF
:10110000FF18E23EC313FEEF13FF7814EEF208EF70
:10111000F29002717401F0900271E06050E490006E
:1011200076F0A3F09000701203C900000000E49074
:1011300001BAF0A3F090343E93FE7401937802CE8E
:10114000C313CE13D8F92410FFEE3427FED3900139
:10115000BDE09F9001BCE09E40077427F0A374108F
:10116000F012240C12246C9002261223F02278082C
:10117000E2FE08E2FF90004AE0FCA3E0FD1233B378
:10118000D3EF9414EE940022900206E090020BF04C
:1011900012241B50051223D34007E4900206F0806E
:1011A00008122E5F900206EFF012245E4003021335
:1011B000A9900206E0FF122F50EF700D12241B5071
:1011C000081223D350030213A9900207E07058902D
:1011D0000260F090025CF0A3F0900063F0A3F09046
:1011E0000257F0A3F0C21EC212122692122DD67F11
:1011F00001123165D390021FE0940090021EE0942A
:1012000000401E30140DEF7803CEC313CE13D8F96F
:10121000FF800EEEC4F854F0C868FEEFC4540F48C7
:10122000FF120F2902131D900063E07002A3E0700B
:101230001390006312240F7F17123165900257EE4E
:10124000F0A3EFF0900257E07004A3E06401702A6D
:10125000900063E0FEA3E0FF2496FDE43EFC7808E6
:101260001224024004D21E8011EF246AFFEE34FFE4
:10127000FEC3EB9FEA9E5002D212301E3F1223E0C3
:10128000D39DEE9C500302131D1213AA40030213B8
:101290001D7F14123165EF7802CEC313CE13D8F937
:1012A0001224467F151231657C007D031200AB903D
:1012B000024FEEF0A3EFF0C21E02131D30122412F3
:1012C00023E0D39DEE9C40651213AA50607F141258
:1012D0003165EF7802CEC313CE13D8F9122446C27B
:1012E00012804A3016471223E0D39DEE9C403E12F6
:1012F00033B3C390343E7401939FE4939E502E12F7
:1013000023E77816E2FC08E2FD1233B3AA06AB0726
:101310001223E77C007D031200ABEF7802CEC313EB
:10132000CE13D8F9C39BEE9A500312273490024D86
:10133000E07004A3E064017003122734900207E018
:10134000FFA3E06F603E122D8A7F19123165900273
:101350005EEEF0A3EFF0900209E030E421D3122317
:10136000D3500512241C4009E4900224F0A3F0801D
:101370000D7F07123165900224EEF0A3EFF090028A
:1013800007E0A3F0900207E0602F90025EE0700497
:10139000A3E0640170237816E2FE08E2FF90025C8D
:1013A000EEF0A3EFF0C394DCEE94055007900260DA
:1013B0007401F022E4900260F0221233B3AC06AD67
:1013C00007900201E0C313FEA3E013C39DEE9C222D
:1013D0007F9C74FFFE900272FDFC120343D3020255
:1013E00070E09000BE75F002120413E0FEA3E0FF6F
:1013F000E4FCFD22E47FE87E03FDFC1203430201CE
:10140000539001BDE02FFF9001BCE03EFED390025F
:1014100073E09F900272E09E229000C875F0021265
:101420000413E0FCA3E0FD2290005CE0245DF58263
:10143000E43400F58322F075F0049001E212041305
:101440001203439001DE12032B02014590026FE06C
:1014500075F00CA42479F9740035F0FA7B0122EEC2
:10146000F0A3EFF0900274E02403F0E075F006843E
:10147000AFF0EF22D3900254E09400900253E09436
:1014800000227B0190028712043890028A22900188
:10149000DE12032B900280120343020138E0900118
:1014A0006375F004020413A3F0D3900213E09400D8
:1014B000900212E0940022900243E0A4FFAEF0C339
:1014C00090027DE09F90027CE0229002931203B193
:1014D00090028B12034390029312032B0201DED37E
:1014E000900215E09400900214E09400229002878C
:1014F00012042F02005EFFE4FCFDFE12034F1201F6
:10150000537807020297FD9000C875F00202041399
:1015100024FFFFEE34FFFE3395E0FDFC12035C0276
:101520000153E0FEA3E0FBAA06E4F9F82274FF7F72
:10153000F1FEFDFC900272120343C302027012041A
:101540002F7401020077D390021DE0940090021CDA
:10155000E094002275F004A4F58285F083229002C5
:101560007912043890027C7403F022E0FFA3E0902B
:10157000028BCFF0A3EFF0221202978F278E268DD9
:10158000258C24221202978F278E268D258C2422CB
:10159000785CE6FFE4FCFDFE22FAF9F8C30202865D
:1015A000C390027FE09F90027EE022E0FF74017E04
:1015B00000A80708221203B190028F02032B120326
:1015C0003790027D0203B19000BE0204139001DE49
:1015D00002032B9001BE7401F0227B017A0179C2D3
:1015E000E4FCFD90027E7405F0122B499001C0EEE0
:1015F000F0EF121497400280339001AB1213DBC05E
:1016000006C0079001C0121512D007D0061201457E
:101610009002721203B1E47FFA1213C440069002E2
:1016200076021669E47FB41213C4400990027674FE
:1016300005F002166CE47F641213C440028012129B
:10164000151D4008900276740AF080301213C040D5
:10165000089002767408F080237F4C1213C2400871
:101660009002767406F0801474FF7F061213C49003
:10167000027640057404F080037401F0300060E4E9
:101680007F907E011213C540069002760216CCE4CC
:101690007FC81213C44005900276803BE47F641239
:1016A00013C44002801D12151D400280051213C094
:1016B0004008900276740AF0802574FF7F4C121364
:1016C000C440089002767408F0801474FF7F3812CA
:1016D00013C490027640057406F080037403F01280
:1016E000146440069002767407F09001AB1213DB8D
:1016F000900276E090027EF07B017A0179C8122B8D
:1017000049900270EEF0A3EFF0900239E07002A36E
:10171000E060030217877F0F123165EEC313FEEFFF
:1017200013FF900239EEF0A3EFF07B017A00795CB1
:101730001214747406F07808E2FF08E2A3CFF0A355
:10174000EFF07A007950122F177B017A0179D912C4
:1017500014747406F090027012155B7A0179CD1240
:101760002F177B017A0179FA90027A1204389002DD
:101770007D7406F01215BD90027E1203B17A0179D4
:10178000E2122FF87816E2FF08E2900201CFF0A3F0
:10179000EFF0121418E4F0900270E0FEA3E0FF22D4
:1017A000E4900270F07B017A00793D12154E7800CA
:1017B0001215AE7A007931122FC17B017A0079318E
:1017C0001218B17B3212158950069002707401F024
:1017D0009002CAE090026FF0E4900271F012143CA3
:1017E000C002C0017A0079A912154E780A1215AE0E
:1017F000D001D002122FC112143C1218B17BF47A1E
:101800000112158A50069002717401F03000459063
:101810000270E07004A3E0603BD21A7B017A007989
:101820003112187F785B1215829002721213EB78D6
:101830000712029778041203BD12143C12187F128B
:1018400015809002721213EB7807120297780E122D
:1018500003BD8038C21A785BE678001214E678047B
:101860001203BD7804120337EC4D4E4F70037F0214
:1018700022785CE6780A1214E6780E1203BD780E20
:10188000120337EC4D4E4F70037F02227F04227DFE
:1018900003121F22C3E5419539FFE5409538FEE567
:1018A0003F9537FDE53E9536FCC3EF953DFFEE9540
:1018B0003CFEED953BFDEC953AFC9002721203B1B3
:1018C000227D03121F22C3E539953DFFE538953C83
:1018D000FEE537953BFDE536953AFCE4229002792A
:1018E0001203B1121499405E90027912032B9000FA
:1018F0003E1203B1E47F96FEFDFC90003E1213EB16
:10190000780A1202979000421203B1E4900282F02A
:10191000900282E0FFC39404502C75F00CEF90000D
:1019200081120413120343C000121580D000121458
:10193000EE900282E09000AA1214911203B190027C
:1019400082E004F080CA9000BA1203C900000000CF
:1019500090004212034390003E121436C004C005AA
:10196000C006C00790004212034390027912143659
:1019700090028B1203B190028F1203C90001000084
:10198000D007D006D005D00412253F9000461203A0
:10199000B19000BA12034390027D121436C004C005
:1019A00005C006C00790028B1203C9000100009019
:1019B000004612032B90028F1203B1D007D006D03D
:1019C00005D00412253F9002831203B19000BA1291
:1019D000032BAB07AA0690028312032BEF2BFBEE1F
:1019E0003AFA900281E0F975F00490015112041363
:1019F00012032BC3EB9FFFEA9EFE75F002E912155E
:101A0000B7EEF0A3EFF022439F04E453C6DFE5C630
:101A100000B5C6F375830075820775FD0DE4E5FE1C
:101A2000F4FF75830075820675FD0DE4E5FEB507CC
:101A300004F59E8003759E0078100000D8FC53C604
:101A4000E043C60843C680759607759709758300FD
:101A500075820475FD0DE5FD0404F58F7583007531
:101A6000820375FD0DE4E5FEF4FF758300758202C7
:101A700075FD0DE4E5FEB50704F5958003759583C6
:101A800075BE0E5392FE9001007F007E02E4F0A32B
:101A9000DFFCDEFA78007F00E4F208DFFC78FFE488
:101AA000F6D8FD7581C5021AD70200000225E9E4C7
:101AB00093A3F8E493A34003F68001F208DFF480D7
:101AC00029E493A3F85407240CC8C333C4540F4427
:101AD00020C8834004F456800146F6DFE4800B0101
:101AE0000204081020408090339DE47E019360BC86
:101AF000A3FF543F30E509541FFEE493A360010E99
:101B0000CF54C025E060A840B8E493A3FAE493A3BF
:101B1000F8E493A3C8C582C8CAC583CAF0A3C8C5E0
:101B200082C8CAC583CADFE9DEE780BE20CA0302D5
:101B30001C36E5467003021C36E4FF74462FF8E6B7
:101B4000FE74702FF582E43402F583EEF0E4F60FB4
:101B5000EFB405E7900270E0FF54F0FEEF540F90F1
:101B6000026FF0AF06EF24A0602424F0602924D097
:101B7000603924E07003021C0E24E07003021C2D67
:101B800024906003021C367858E64401800578589A
:101B9000E654FEF6021C0AE4FF123341785AEFF6CF
:101BA0007856BFFF0376022276FF2290026FE0FD97
:101BB000700E7858E620E203021C361232D6805AA4
:101BC000ED640170297858E620E2061232E1751CB6
:101BD00002D3900217E09400900216E09400406651
:101BE0007F1B123165900218EEF0A3EFF0229002F5
:101BF0006FE0FDB402117858E630E24A1232D69016
:101C0000025B7401F08013ED6403703A7858E620AB
:101C1000E2341232E1E490025BF0751C02221227DA
:101C200034D3900219E09400900218E09400400729
:101C30009002057401F022E4900205F022E4900283
:101C400012F0A3F0D21F22EF75F0021204137427D2
:101C5000F0A37410F02212015390026F1203B1909E
:101C6000024912034390026F12032B1201DE78081F
:101C700012029790026F1203B17F0FE4FEFDFC90F9
:101C8000026F120343D302028690029312032BEFDA
:101C900024F0FFEE34D8FEED34FFFDEC34FFFC22DF
:101CA00090001BE0903435932290026F12032BC3F7
:101CB000EF940FFFEE9400FEED9400FDEC9400FC19
:101CC00090026F0203B175AC0375ADC075AEC02252
:101CD000E5BAF053BA0F43BA1022E6FFE4FCFDFE6A
:101CE00012034312015378070202971231C3900086
:101CF0001BE0FF022A2F900069E042F4229002903C
:101D0000E004F0221203B19001A002032B900069BD
:101D1000E0FFF452F4EF428022E0F5B3A3E0F5B225
:101D2000A3E0F5B12290001AE090343593F5AB2290
:101D300075BF0F43B92053B9FD2290027412032BD3
:101D40009002702290027412032B900270223011C4
:101D50001512344F745AF07F0A123165900220EE4A
:101D6000F0A3EFF0C211A21492153002028020D32A
:101D7000900213E09400900212E09400501190023F
:101D800021E09400900220E09400500320100A12F9
:101D9000344F745AF0C214800812344F7403F0D2D6
:101DA0001430141890025BE0B401047F01800790A6
:101DB000025BE07004FF1231331232ECA2153014D2
:101DC00001B35028900207E06012D2167812E2FFA9
:101DD00008E2900244CFF0A3EFF080107F021231AE
:101DE0006590021EEEF0A3EFF01227342014173096
:101DF00015147F03123165EEC313FEEF13FF90023B
:101E000053EEF0A3EFF07812E2FE08E2FF900244F6
:101E1000E0FCA3E0FDD39FEC9E4012ED9FFFEC9E03
:101E2000FED3EF94DCEE94054003122734900207B2
:101E3000E0700F301603122734C216E4900244F00B
:101E4000A3F022E4900291F0EF607B1232AB90009D
:101E5000291203C9000000001231C3900029122A80
:101E6000271201389000291203B1900291E004F08A
:101E7000C3941040E3E0FFFBE4FAF9F89000291264
:101E8000032B1201DE9002921203B1785B90029252
:101E9000121CCA78041203BDE4900290F0900290E4
:101EA000E0FBC39403501F90029212032BEB25E03A
:101EB00025E02431F582E43400F5831203B1900269
:101EC00090E004F080D77804120337EF24D0FFEEBF
:101ED000348A121C869000251203B190004A747552
:101EE000F0A37430F0A31203C9001D4C00E490026B
:101EF00090F0900290E0FFC394065027EF25E02475
:101F000050F582E43400F5837475F0A37430F074F6
:101F10005D2FF582E43400F583E4F0900290E00454
:101F2000F080CFE490005CF078087475F2087430AB
:101F3000F222900276120438900279EDF0E4F5284E
:101F4000F527F526F52574FFF52CF52BF52AF5294F
:101F5000E4F530F52FF52EF52DF524900279E0FF0C
:101F6000E524C39F507090027612042F75F004E5AB
:101F700024A4F58285F0831202BD8F348E338D3216
:101F80008C31AF28AE27AD26AC25D31232A0400C41
:101F9000853428853327853226853125AF2CAE2B15
:101FA000AD2AAC29C31232A0500C85342C85332BBA
:101FB00085322A853129E5302534FFE52F3533FE7A
:101FC000E52E3532FDE52D35318F308E2F8D2EF5F6
:101FD0002D0524021F4B852839852738852637850E
:101FE0002536852C3D852B3C852A3B85293A853035
:101FF00041852F40852E3F852D3E900279AF30AE32
:102000002FAD2EAC2D12328E227B077A07900270F4
:102010001203C9000000001232ABEB601A74017E9B
:1020200000A803088005C333CE33CED8F9FFADAC8A
:10203000EF5D70031B80E3EA601A74017E00A80262
:10204000088005C333CE33CED8F9FFADAEEF5D7057
:10205000031A80E3AF037401A807088002C333D8D2
:10206000FCF5AC7401A802088002C333D8FCFFF56C
:10207000AD8FAE53AACF43AA0490026F121CC012B8
:102080001C9042AB121CDB9002741203B1121D347F
:10209000120343C31202865006121D341203B1907C
:1020A0000270120343C00090027012032B780312D7
:1020B0000297D0001201389002701203B1900270A2
:1020C00012032B9000651203B143AA3053AAFB9070
:1020D000026FE0F5BA121C90F452AB121CB6227BD0
:1020E000077A079002701203C9000000001232AB99
:1020F000EB601A74017E00A803088005C333CE3359
:10210000CED8F9FFADACEF5D70031B80E3EA601A37
:1021100074017E00A802088005C333CE33CED8F9FF
:10212000FFADAEEF5D70031A80E3AF037401A80743
:10213000088002C333D8FCF5AC7401A80208800201
:10214000C333D8FCFFF5AD8FAE53AACF90026F1208
:102150001CC01231C3122A2A9002741203B1121D3C
:102160002A120343C31202865006121D2A1203B11B
:10217000900270120343C00090027012032B780388
:10218000120297D0001201389002701203B190022F
:102190007012032B9000201203B143AA3090026FFB
:1021A000E0F5BA121CB622C0E0C0F0C083C082C005
:1021B000D075D008C2CFD21130CD0302225320CC2B
:1021C0006030CB2285CE54E554C39480401675F020
:1021D00003E55490275B1204131204418B518A5279
:1021E00089538063807385CE35E5547022E535B41C
:1021F00010099002CBE0F452808066E535B42008E7
:102200009002CBE04280805985354605548052E5E6
:1022100054C39405500774462554F8A635055480D8
:1022200040E554B4C0057546C08036E554B4C210CC
:102230007858E630E2057546A080267546A18021D3
:10224000E554C3948040107851E475F00112041FE6
:1022500012005EF5CE800A0554E5502554F8E6F5E7
:10226000CED210D0D0D082D083D0F0D0E032900245
:102270008CECF0A3EDF0E4FD9001FBE07034C3EFD3
:10228000940AEE940040061214187401F012141807
:10229000E07002C21DE4FF745D2F12141EE0700492
:1022A000C21D80130DEDB40602D21D0FEFB406E778
:1022B0008005121418E4F090023FE07002A3E07071
:1022C0005790023DE07002A3E0704D9001FBE0707A
:1022D0001B301D187F1112316590023DEEF0A3EF07
:1022E000F09001FB7401F0D21BC21D229001FBE0B3
:1022F00064017036C390028DE0940A90028CE094E1
:102300000050277F121231657C007D0C1200AB90CB
:10231000023FEEF0A3EFF02290023FE07004A3E052
:10232000640170069001FBF0D21C221232AB9002C5
:1023300070121CC078001203FA0000000090026FB7
:102340007405F075ABFF1231C3780012034F122AE7
:102350002A12013878001203BDE4F5AB1231C378BC
:1023600000120337C004C005C006C007122A2AA8FD
:1023700004A905AA06AB07D007D006D005D00412E1
:10238000014578001203BD90026FE014F0E070B3D5
:10239000780012034F7F007E3C7D287C001201DE16
:1023A0009002711203B190027112032B9002791204
:1023B00003B17F967E007D007C0012309BE47B326F
:1023C000FAF9F8C31202865006785B7696800A9076
:1023D000027112032B785BA607900270E0F5BA1227
:1023E0001D152290021BE0940090021AE094002236
:1023F0007816E2FC08E2FD900201E0FEA3E0FF2275
:10240000F0A3F0A3F0A3F0229001BCE0FCA3E0FD58
:102410007812E2FA08E2FBD39DEA9C2290004A7807
:1024200008E2FF08E2CFF0A3EFF022D3900213E01E
:102430009400900212E09400227814E2FE08E2FF79
:102440007812E2FC08E2FDC39FEC9E2290022FE48A
:1024500075F0010200BD90024DFFEEF0A3EFF022F7
:10246000D3900215E09400900214E0940022D390DF
:102470000254E09400900253E0940022E490022F72
:10248000F0A3F022FF900077E09F900076E09E227C
:10249000C37815E29DFF18E29C2290028412043852
:1024A000900287EDF0E4F525F52674FFF527F52871
:1024B000E4F52EF52DF52CF52BF524900287E0FFA1
:1024C000E524C39F505990028412042F75F002E551
:1024D00024A4F58285F0831200D3F52A85F029D350
:1024E0009526E52995254006852925852A26C3E5D3
:1024F0002A9528E52995275006852927852A28E445
:10250000FCFDE52E252AFFE52D3529FEED352CFDB8
:10251000EC352B8F2E8E2D8D2CF52B0524809CE4F5
:10252000852639852538F537F53685283D85273CBC
:10253000F53BF53A852E41852D40852C3F852B3E78
:10254000900287AF2EAE2DAD2CAC2B12328E229086
:1025500002871203B1E47BE87A03F9F8900287124C
:1025600014C99002971203B19002971213E4A804C1
:10257000A905AA06AB0790028712143690029B1297
:1025800015A59002971213EB1214BA90029F120332
:10259000B190028B12032B90029F1213EBA804A997
:1025A00005AA06AB079002931214369002A31215E7
:1025B000A590029B1213EB9002931203B190029329
:1025C000120343C000C001C002C0039002A3121353
:1025D000E4D003D002D001D0001201381214BA9016
:1025E00002A71203B1E47FE87E03FDFC90029F1274
:1025F00013EB9002A71214872212000E12345C1201
:102600003442122D3C12330B1230CE1233F2D2AFC1
:10261000751C01E51C24FE601E14603614605614FF
:102620006060240470671234251233C91233DF123C
:1026300033587F04122E1BD2D8E490020CF0A3F082
:102640009002ABF0A3F0123065E51D70FC12336F01
:102650008036D2D8E51D70FC1217908F1C121D3EDB
:102660009002CAE0900078F09002CA04F012302F75
:1026700012336F801B1232628F1C1227CC120CD5C2
:10268000800E121178123214751C038003751C0120
:10269000120057E51C64047003022603121B1C027F
:1026A0002603900224E07002A3E060030227333087
:1026B0000057122429505012248090026FF0FCA37E
:1026C000EFF0FD90343EE493C313FE74019313FFC7
:1026D000D3ED9FEC9E40307F05123165EF25E0FF82
:1026E000EE33FE12243CFCD3E5F09FEC9E405412E6
:1026F000246C900259E07002A3E070479001BFE0A3
:102700006401703F0227348035122429503212248C
:1027100080FE90026FF0A3EFF0D39432EE9400406D
:102720001D7F05123165EEC313FEEF13FF12243C2B
:10273000FCD3E5F09FEC9E400A1227348002800013
:1027400012246C22E51D70FCE4FF121E33E4FF121C
:102750000A51E4900207F0900209F090022EF090E6
:1027600002241223F0A3F0A3F090022CF0A3F09027
:1027700002311223F0A3F0A3F090022AF0A3F0900C
:1027800002371223F0900063F0A3F09001BEF0A393
:10279000F0A208300001B350227F0412316590028C
:1027A0001AEEF0A3EFF07F04123165EF7802CEC38A
:1027B00013CE13D8F990021C12244930001D900248
:1027C0001CE07002A3E070137814742EF20874E019
:1027D000F29001BC7427F0A37410F0227F8590342E
:1027E0003EE493FC740193FD1234157F8790343ED0
:1027F000740193249CFDE49334FFFC1234157F890B
:102800007D647C001234157F8F3018187D397C3040
:102810001234157F8D7D397C301234157F917D39CE
:102820007C30801F7812E2FC08E2FD1234157F8DA7
:102830007816E2FC08E2FD1234157F917814E2FC70
:1028400008E2FD1234157F9F900265E0FCA3E0FDD5
:102850001234157F9D900267E0FCA3E0FD12341551
:102860007FA17D027C00123415022AF1780E12033A
:10287000379002741203B17804120337122EDD90E0
:1028800001A01203B190006A12032B9001A0120361
:1028900043C312028650037F02229001A012032B31
:1028A000122C9C9001ABEEF0A3EFF09001C6E0FF7C
:1028B000A3E09001DACFF0A3EFF09001ABE0FEA32C
:1028C000E0FF1215CA9001C6EEF0FCA3EFF0FD7810
:1028D00008E2FE08E2FF1204929001DCEEF0A3EFA2
:1028E000F07812EEF208EFF27F0522010079FE0087
:1028F0000E0100BE0100C80101A40101610101A097
:102900000101AB0101C00101C60101DCFE0012FEA4
:102910000014FE0016FE0018FE0000FE0004010078
:102920003E010042010046FE000801026501026D01
:1029300001027501027D01023B0100E0010163011A
:1029400002610102690101A80100D00101630101D6
:10295000FB01023D01023F010212900246E030E11C
:10296000091229992018031229A9900246E054FD62
:10297000F0900209E0540FFF6027900246E0FE301D
:10298000E2067864A6078010EE30E31C900209E0AE
:10299000540FC454F07864F62018061229991229AD
:1029A000A9900246E054F3F022C2107F081231656C
:1029B000900222EEF0A3EFF022C2927F217E007DF2
:1029C000007C00123329D2922290028C1203B1E4CF
:1029D0007F607EEA90028C1213C84004D207800206
:1029E000C207E47FFF7EFFFDFC90028C1213CA40F9
:1029F0000C90028C1203C90000FFFF8033E4FFFE3D
:102A0000FDFC90028C1213CA5026122734301E1679
:102A10007F151231657C007D031200AB90024FEEF2
:102A2000F0A3EFF0C21E90028C1203C90000271021
:102A300090028C12032B2212034390001AE0FFEF46
:102A4000C39404500553B9EF800343B910EF6003FA
:102A5000B4040B85B71985B61A85B51B803AEF64A7
:102A6000016004EFB4050B85EB1985EA1A85E91BB3
:102A70008026EF64026004EFB4060B85F31985F23B
:102A80001A85F11B8012EF64036004EFB407098517
:102A9000FB1985FA1A85F91BAF1BAE1AAD19AC18D4
:102AA00022C0E0C0F0C083C082C0D075D01053B93E
:102AB000FDE51D64017022122A2A78001203BD125E
:102AC0001CE67F011231EC9002CAE0FF122E9F43F8
:102AD000B901D2D8751D05801DE51D64057017125A
:102AE0001CDE780A1203BD121C90F452AB53AAFBF1
:102AF000121CFD751D00D0D0D082D083D0F0D0E064
:102B000032E47F317E06FDFC780012034F121C4632
:102B10004003121C997FFF121C6B400678C576FF9C
:102B2000800A90026F12032B78C5A607E47F3A7ED5
:102B30000CFDFC900081120343121C464003121C42
:102B400099E47FFF121C6C4005789376FF22900277
:102B50006F12032B7893A6072290027A1203B1908A
:102B6000027712043890027A12032B78061202AA16
:102B700090027A1203B190027E12159B8005C33336
:102B8000CE33CED8F912150090027A121487900233
:102B90007EE0F9F812156890027712042F1202ED08
:102BA000AF27AE26AD25AC24780612156822900218
:102BB000871203B190028412043890028712032B0B
:102BC000780A1202AA9002871203B190028B1215A2
:102BD0009B8005C333CE33CED8F9121500900287FF
:102BE00012148790028BE0F9F81215749002841287
:102BF000042F1202EDAF27AE26AD25AC24780A12C1
:102C0000157422900205E0B4011C1214CF4017780D
:102C100014E2FE08E2FF900203E0FCA3E0FDD39F74
:102C2000EC9E402180147814E2FE08E2FF7812E264
:102C3000FC08E2FDD39FEC9E400BED9F7817F2EC71
:102C40009E18F28006E47816F208F27816E2FF0881
:102C5000E208CFF208EFF2229002491203C9000005
:102C60000000E4FF12319475ABFF1231C3900249AA
:102C7000122A271201389002491203B1E4F5AB126F
:102C800031C390024912032BC004C005C006C0071F
:102C9000122A2AA804A905AA06AB07D007D006D095
:102CA00005D0041201459002490203B190006A1256
:102CB00003431201451229B9900270EEF0A3EFF020
:102CC0007A0179B71214727405F0A3EEF0A3EFF055
:102CD0007A0179AD122F17A215301401B350157B6C
:102CE000017A0179AD7D0512248A9001B8E544F09E
:102CF000A3E545F0900270E0FEA3E0FF22C0E0C033
:102D0000F0C083C082C0D075D000C000C28D758C69
:102D100032758AEB9002ABE475F0011200BDC390EE
:102D200002ACE094149002ABE09400401290020CCC
:102D3000A3E0785FF690020CE4F0A3F0120004D058
:102D400000D0D0D082D083D0F0D0E032E4FF123374
:102D500041785AEFF67856BFFF047602800276FF7C
:102D6000E47864F67857763C08F690343E93FE7427
:102D70000193FF7885A60608A607EF249C7888F6BD
:102D8000EE34FF18F678897600087664E41232CCC7
:102D9000F61232CC769675505522A907E4FEFD90C6
:102DA0000246E0FC703FEF5401FB900208E0540142
:102DB0006B600D30020A201807EC4402900246F0C6
:102DC000900208E030E006EE4410FE8004EE44017C
:102DD000FEE930E006ED4401FD8004ED4410FDEE17
:102DE0005D900209F02220000C900205E0B4011F62
:102DF000122450401A7814E2FE08E2FFD394E0EE69
:102E0000942E5023C3EF9440EE941F501D801878E9
:102E100014E2FE08E2FFD394F8EE942A5009C3EFBF
:102E20009428EE9423500312273422EF6003D380BA
:102E300001C3920A92027858A60790020EE4F0A30A
:102E4000745AF07F09123165900212122E547C00E0
:102E50007D031200AB900214122E54900216EEF075
:102E6000A3EFF022EEF0A3EFF07F1A12316522E417
:102E7000FF900207E0701690343E93FC740193FDBE
:102E8000C37819E29D18E29C401F0F801C90343ECD
:102E9000740193249CFDE49334FFFCC37819E29DF4
:102EA00018E29C4004EF4401FF9002C9EFF02212A7
:102EB0001CE69002CAE0D394034002E4F0EF1460F1
:102EC0001214601714601D24037021121C90F45218
:102ED000AB800D121C90F452AB800E121C9042ABD2
:102EE00053AAFB22121C9042AB43AA042290027008
:102EF0001203B1900078E0900278F090027412030F
:102F00002B90027D1203B1900278E0900281F09044
:102F1000027012032B1218CD900278E0FF1207877F
:102F200090019412032B2290028BE0FEA3E0FFC0DD
:102F300003C002C0011214DD75F002121547D00162
:102F4000D002D003EE8FF012010B90028712152EE3
:102F50001214DDFF90028AE0B50704E41200992202
:102F60007E05EF5401FD900207E054016D6007EF0C
:102F7000F0E490022EF07858E630E008900207E086
:102F800070027E2890022EE004F0C39E50037F0062
:102F90002290022EEEF07F012200050108020203BA
:102FA0000204010501060607010801090A0A010BCE
:102FB000010C030D050E0A0F011001110A123C133A
:102FC000011401153C1601173C180219021A3C1B8A
:102FD0000190027D12032BC003C002C00190027950
:102FE0001214E0121544D001D002D003120307904E
:102FF000027912152E9002791214E0FF90027CE003
:10300000B50704E41200992290027E12032BC0033C
:10301000C002C00190027A1214E0121544D001D00F
:1030200002D00312030790027A12152E90027A1230
:1030300014E0FF90027DE0B50704E412009922122B
:103040001CE6E4FF123194121CC375BB01900069A9
:10305000E0FF900024E04FF5B4E4F5B3F5B275B1AC
:1030600010121D2053BAFE43B901D2D8E5B930E1A0
:10307000FBE4F5BF227858E6F520A208300001B342
:1030800050147F0412316590021AEEF0A3EFF01293
:103090002734A2009208A20A300201B35004A2020F
:1030A000920A301305122734C213229002751203BC
:1030B000B190027912032B900275120343D31202CE
:1030C00086400B90027912034390027580099002AA
:1030D0007512034390027912032B1201452243F823
:1030E0000875CD4053CC7F43CC4043CC2043CC101B
:1030F00043CC0453CCFD43CB0243CB0153CBBFD2D3
:10310000EB53E5FC43E30243F50343900343ED0334
:103110002290002512032BAB07AA0678041203376E
:10312000C3EF9BFFEE9AFE7B017A00794CE4FCFD35
:1031300090027E7408F0122B497808EEF208EFF244
:103140007F0522E4F51D53B9FD53B9DF43CC02C21C
:10315000D9539FFD438760C28DEF700675BD0D7515
:10316000BC0112340475BE0CD28C20C90343870302
:1031700000000000227D017C00EFC3941C5020EF72
:1031800025E0248AF582E4342FF583E493FF7E0062
:1031900090020EE0FCA3E0FD1200ABAC06AD07AE62
:1031A00004AF052253BA0F43BA3075BBFF75A9A00F
:1031B000121CB6900024E0F5B4EF700AF5B375B2B6
:1031C0006175B1A88006900021121D09121D1553CA
:1031D000AAFB22121CE675BF0F00000000000000D1
:1031E0000000000000000000000000D2D853B9FD2C
:1031F00043B901E5B930E1FBE4F5BF2253BA0F430F
:10320000BA2075BB8C75A9C0121CB6900069E0F598
:10321000B4EF7009F5B375B2AF75B1C8229000660E
:10322000121D092290020AE0FF900209E0FE6F6081
:10323000143002047864A606E4FF12316590022A75
:10324000EEF0A3EFF0900209E0A3F02290001AE064
:1032500090343593FF900024F090001BE0903435BB
:1032600093FE900069F0EF4E42D442F442E4F452EF
:10327000DC2290026F7405F012310112285C90027A
:103280006FEFF0BF0205D213E0FF22122BF3120002
:103290003E90026FE0FF2274FFF5F00200BDE0FBFC
:1032A000E4FAF9F81201DE8F458E448D438C4222F8
:1032B000AB34AA33A932A83102028653BAFEE5B96B
:1032C00020E004E51D6005E5B930E1FBE4F5BF53FE
:1032D000B9FD53B9FE121CFDE4F51D2208F608F6EF
:1032E00008F608F6082254FBF6900246E04408F07F
:1032F000224404F6900246E04404F022E490026F77
:10330000F075BE0E439F027F03FEFDFC123329754C
:10331000BC02E4F5BFD2D953CCFD22438901C28D52
:10332000D2A953B8FD12000390020CF0A3F0758CE3
:1033300032758AEBD28CD2AF229002701203B19018
:10334000027074FF12037EEC4D4E4F60030080EF5D
:1033500022E4FFF582F5837440FEE493F42FFFA38B
:10336000EEB583F6227F0022E4900222F0A3F07FE4
:103370000A123165900220EEF0A3EFF0D210221273
:103380001CE67F01123194751D01121D2043BA0104
:1033900043B901D2D82243D50453F5FB53E5FB438F
:1033A000E30443ED04E4900246F0D2922241001A75
:1033B0000541001B0644001CFFFFFFFF041800002E
:1033C000000000D3EF9DEE9C4007EF9DFFEE9CFEBA
:1033D00022C3ED9FFFEC9EFE22E4FF1231941223E4
:1033E0001B1220CF7F01123194121E33022C48E4AD
:1033F000FF1231EC123456121FF97F011231EC0228
:103400000A51903440E493FF74019390006ECFF022
:10341000A3EFF022438901C28CC28F120003758C86
:10342000FB758AED2220C90CC2AFA807A60408A626
:1034300005D2AF222275AA3B53BAF343BA0C43B963
:103440002053B9BF2201020408102040807201906D
:103450000064C2DA53D80F43D8D0D2D8D2D9229040
:10346000020EE4F0A322785BE608F62212323C0258
:103470003386FFFFFFFFFFFFFFFFFFFFFFFFFFFFA1
:10348000FFFFFFFFFFFFFFFFFFFFFFFFFFFFFFFF4C
:00000001FF
