:100000000110060016000000803B0000FF00000009
:10001000021F61122B2222FFFFFFFF02334775AA46
:100020003B75BA0843BA2043B92053B9BFE4F5B3CE
:1000300075B24E75B12075BBFF75A960F5AB75AC97
:100040000375ADC075AEC022FFFFFF022D96AB0752
:10005000AA06D3EB9DEA9C4007EB9DFFEA9CFE229B
:10006000C3ED9BFFEC9AFE22FFFFFF022A5990018D
:10007000A612111B00000000E49001AAF0A3F0A357
:10008000F090009A1210D29001711210EA120F3300
:1000900090009A1211039000A2E004F0E064056061
:1000A00003020AC390009A1210D290009E1211030C
:1000B00090009A12111B00000000E49000A2F09042
:1000C000009E1210D29001A21211039001A21210F0
:1000D000D2E47B2CFAF9F8120F4E9001A212110310
:1000E0009001A21210D2E47B0AFAF9F8120FD9900B
:1000F00001A21211039001A21210D29000A31211BA
:10010000039001511210EA9000A31210D2120F4076
:100110009001A2121103E47FD07E07FDFC9001A2A2
:100120001210EAC312108F4016E47F2F7EF8FDFCF8
:100130009001A21210EAD312108F50030201AC7882
:1001400004E2FE08E2FF9000B2E02FFF9000B1E071
:100150003ECF24F0CF34D8F0A3EFF09001A21210DC
:10016000D29001511210EA120F33EF24F0FFEE3457
:10017000D8FEED34FFFDEC34FFFC90015112110369
:1001800078047427F2087410F29000AD7427F0A37D
:100190007410F09001A212111B000027109001B101
:1001A0007401F07F107E277D007C00122D019000ED
:1001B000DB7427F0A37410F0A37401F09001A21275
:1001C00010D2E49001B1F0122D0178031210A0902A
:1001D00000AFEEF0A3EFF09001AC7413F09001AC1F
:1001E000E0FF25E024B1F582E43400F583E0FCA3D0
:1001F000E0FDEF25E024B3F582E43400F583ECF074
:10020000A3EDF09001ACE014F0E070D19000AFE00D
:10021000FEA3E0FF9000B3EEF0A3EFF09000D9E072
:10022000FCA3E0FDC3EF9DFFEE9CFE3395E0FDFCDB
:100230009001A6121103E4FFFEFDFC9001A612102E
:10024000EAC3121079400E9001A61210D2900185D7
:10025000121103800F9001A61210D212106B9001A0
:1002600085121103900123E07002A3E06003020AEB
:10027000AF9000DDE0B401129000AFE0FFA3E0908A
:1002800000DBCFF0A3EFF0E4A3F020000620010391
:100290000204349000AFE0FEA3E0FFD39000DCE066
:1002A0009F9000DBE09E500302035AE47F05FEFDB1
:1002B000FC9001A61210EAD3121079501374FF7F3C
:1002C000FBFEFDFC9001A61210EAC3121079500A41
:1002D0009000DB74FFF5F0120F1DE47F0AFEFDFCB9
:1002E0009001A61210EAD3121079501374FF7FF612
:1002F000FEFDFC9001A61210EAC3121079500B907B
:1003000000DB74FF75F0FE120F1DE47F14FEFDFC90
:100310009001A61210EAD3121079501374FF7FECEB
:10032000FEFDFC9001A61210EAC3121079500B904A
:1003300000DB74FF75F0FE120F1DE47F28FEFDFC4C
:100340009001A61210EAD3121079501374FF7FD8CF
:10035000FEFDFC9001A61210EAC3121079500B901A
:1003600000DB74FF75F0FE120F1D9000AFE0FEA3DE
:10037000E0FFC39000DCE09F9000DBE09E400302C2
:100380000A54E47F05FEFDFC9001A61210EAD31288
:100390001079501374FF7FFBFEFDFC9001A6121034
:1003A000EAC3121079500A9000DBE475F001120FD5
:1003B0001DE47F0AFEFDFC9001A61210EAD3121084
:1003C00079501374FF7FF6FEFDFC9001A61210EA2F
:1003D000C3121079500A9000DBE475F002120F1D71
:1003E000E47F14FEFDFC9001A61210EAD3121079EE
:1003F000501374FF7FECFEFDFC9001A61210EAC3BF
:10040000121079500A9000DBE475F002120F1DE41F
:100410007F28FEFDFC9001A61210EAD3121079503D
:100420001674FF7FD8FEFDFC9001A61210EAC312DD
:1004300010794003020A549000DBE475F002120FB9
:100440001D020A549000AFE0FEA3E0FFD39000DC51
:10045000E09F9000DBE09E500302074CE47F05FE26
:10046000FDFC9001A61210EAD3121079501374FF0C
:100470007FFBFEFDFC9001A61210EAC3121079501A
:100480000B9000DB74FF75F0F8120F1DE47F0AFE7D
:10049000FDFC9001A61210EAD3121079501374FFDC
:1004A0007FF6FEFDFC9001A61210EAC312107950EF
:1004B0000B9000DB74FF75F0F8120F1DE47F14FE43
:1004C000FDFC9001A61210EAD3121079501374FFAC
:1004D0007FECFEFDFC9001A61210EAC312107950C9
:1004E0000B9000DB74FF75F0F8120F1DE47F1EFE09
:1004F000FDFC9001A61210EAD3121079501374FF7C
:100500007FE2FEFDFC9001A61210EAC312107950A2
:100510000B9000DB74FF75F0F8120F1DE47F28FECE
:10052000FDFC9001A61210EAD3121079501374FF4B
:100530007FD8FEFDFC9001A61210EAC3121079507C
:100540000B9000DB74FF75F0F8120F1DE47F32FE94
:10055000FDFC9001A61210EAD3121079501374FF1B
:100560007FCEFEFDFC9001A61210EAC31210795056
:100570000B9000DB74FF75F0F8120F1DE47F3CFE5A
:10058000FDFC9001A61210EAD3121079501374FFEB
:100590007FC4FEFDFC9001A61210EAC31210795030
:1005A0000B9000DB74FF75F0F8120F1DE47F46FE20
:1005B000FDFC9001A61210EAD3121079501374FFBB
:1005C0007FBAFEFDFC9001A61210EAC3121079500A
:1005D0000B9000DB74FF75F0F8120F1DE47F50FEE6
:1005E000FDFC9001A61210EAD3121079501374FF8B
:1005F0007FB0FEFDFC9001A61210EAC312107950E4
:100600000B9000DB74FF75F0F8120F1DE47F5AFEAB
:10061000FDFC9001A61210EAD3121079501374FF5A
:100620007FA6FEFDFC9001A61210EAC312107950BD
:100630000B9000DB74FF75F0F8120F1DE47F64FE71
:10064000FDFC9001A61210EAD3121079501374FF2A
:100650007F9CFEFDFC9001A61210EAC31210795097
:100660000B9000DB74FF75F0F8120F1DE47F6EFE37
:10067000FDFC9001A61210EAD3121079501374FFFA
:100680007F92FEFDFC9001A61210EAC31210795071
:100690000B9000DB74FF75F0F8120F1DE47F78FEFD
:1006A000FDFC9001A61210EAD3121079501374FFCA
:1006B0007F88FEFDFC9001A61210EAC3121079504B
:1006C0000B9000DB74FF75F0F8120F1DE47F82FEC3
:1006D000FDFC9001A61210EAD3121079501374FF9A
:1006E0007F7EFEFDFC9001A61210EAC31210795025
:1006F0000B9000DB74FF75F0F8120F1DE47F8CFE89
:10070000FDFC9001A61210EAD3121079501374FF69
:100710007F74FEFDFC9001A61210EAC312107950FE
:100720000B9000DB74FF75F0F8120F1DE47F96FE4E
:10073000FDFC9001A61210EAD3121079501374FF39
:100740007F6AFEFDFC9001A61210EAC312107950D8
:100750000B9000DB74FF75F0F8120F1D9000AFE0F6
:10076000FEA3E0FFC39000DCE09F9000DBE09E4032
:1007700003020A54E47F05FEFDFC9001A61210EA74
:10078000D3121079501374FF7FFBFEFDFC9001A67D
:100790001210EAC3121079500A9000DBE475F008D9
:1007A000120F1DE47F0AFEFDFC9001A61210EAD391
:1007B000121079501374FF7FF6FEFDFC9001A61213
:1007C00010EAC3121079500A9000DBE475F00812A9
:1007D0000F1DE47F14FEFDFC9001A61210EAD31257
:1007E0001079501374FF7FECFEFDFC9001A61210EF
:1007F000EAC3121079500A9000DBE475F008120F7A
:100800001DE47F1EFEFDFC9001A61210EAD312101B
:1008100079501374FF7FE2FEFDFC9001A61210EAEE
:10082000C3121079500A9000DBE475F008120F1D16
:10083000E47F28FEFDFC9001A61210EAD312107985
:10084000501374FF7FD8FEFDFC9001A61210EAC37E
:10085000121079500A9000DBE475F008120F1DE4C5
:100860007F32FEFDFC9001A61210EAD312107950DF
:100870001374FF7FCEFEFDFC9001A61210EAC31296
:100880001079500A9000DBE475F008120F1DE47F28
:100890003CFEFDFC9001A61210EAD3121079501311
:1008A00074FF7FC4FEFDFC9001A61210EAC3121073
:1008B00079500A9000DBE475F008120F1DE47F46C2
:1008C000FEFDFC9001A61210EAD3121079501374A9
:1008D000FF7FBAFEFDFC9001A61210EAC312107948
:1008E000500A9000DBE475F008120F1DE47F50FE03
:1008F000FDFC9001A61210EAD3121079501374FF78
:100900007FB0FEFDFC9001A61210EAC312107950D0
:100910000A9000DBE475F008120F1DE47F5AFEFD1B
:10092000FC9001A61210EAD3121079501374FF7FC5
:10093000A6FEFDFC9001A61210EAC3121079500A1F
:100940009000DBE475F008120F1DE47F64FEFDFCEF
:100950009001A61210EAD3121079501374FF7F9CF5
:10096000FEFDFC9001A61210EAC3121079500A9005
:1009700000DBE475F008120F1DE47F6EFEFDFC90B5
:1009800001A61210EAD3121079501374FF7F92FE61
:10099000FDFC9001A61210EAC3121079500A9000D3
:1009A000DBE475F008120F1DE47F78FEFDFC90017A
:1009B000A61210EAD3121079501374FF7F88FEFD3F
:1009C000FC9001A61210EAC3121079500A9000DBC5
:1009D000E475F008120F1DE47F82FEFDFC9001A675
:1009E0001210EAD3121079501374FF7F7EFEFDFCC3
:1009F0009001A61210EAC3121079500A9000DBE4AD
:100A000075F008120F1DE47F8CFEFDFC9001A6120C
:100A100010EAD3121079501374FF7F74FEFDFC901E
:100A200001A61210EAC3121079500A9000DBE47597
:100A3000F008120F1DE47F96FEFDFC9001A6121037
:100A4000EAD3121079501374FF7F6AFEFDFC900107
:100A5000A61210EAC3121079500A9000DBE475F078
:100A600008120F1D9000AFE0FEA3E0FF24E8FDEEAA
:100A70003403FC9000DBE0FAA3E0FBC39DEA9C504A
:100A80000FEF2418FFEE34FCFED3EB9FEA9E5017C5
:100A90009000AFE0FFA3E09001AACFF0A3EFF090A9
:100AA00000DD7401F080089001AAEAF0A3EBF09059
:100AB00001AAE0FFA3E07804CFF208EFF2801490DF
:100AC00000AFE0FFA3E07804CFF208EFF29000DD82
:100AD0007401F07F06229001A212111B0000000099
:100AE000E49001A6F09001ABF0A3F0A3F0A3F09086
:100AF00001A67404F09001A6E0FBD39400402AEB19
:100B000025E025E02474F582E43400F5831210D248
:100B1000EB25E025E02478F582E43400F58312111A
:100B2000039001A6E014F080CC9001751210D290D1
:100B30000078121103E49001A6F09001A6E0FFC333
:100B4000940550289001A21210EAEF25E025E02438
:100B500078F582E43400F5831210D2120F3390013D
:100B6000A21211039001A6E004F080CE9001A2121F
:100B700010D29000901211039001551210D29000E3
:100B8000901210EAC312108F401F9001551210D21C
:100B9000AB07AA06A905A8049000901210D2120F64
:100BA000409001A712110380037F02229001A71237
:100BB00010D2E49001B3F01224F578031210A09043
:100BC000008C12110390008C1210D2EF2410FFEE53
:100BD0003427FEE43DFDE43CFCC006C0077804E297
:100BE000FE08E2FFFBAA06E4F9F8D007D006120FD0
:100BF00040C006C0079000B1E0FEA3E0FFFBAA06DC
:100C0000EA3395E0F9F8D007D006120F409001A220
:100C10001211039001A21210D2E49001B3F0122538
:100C2000ED78031210A0900094121103E47FFF7E70
:100C3000FFFDFC9000941210EAD312108F400A902E
:100C4000009412111B0000FFFF7806E2FF08E290FB
:100C50000098CFF0A3EFF09001A67413F09001A6D6
:100C6000E0FF25E024DCF582E43400F583E0FCA31A
:100C7000E0FDEF25E024DEF582E43400F583ECF0BE
:100C8000A3EDF09001A6E014F0E070D19000941272
:100C900010D29000DEEEF0A3EFF0900104E0FCA390
:100CA000E0FDC3EF9DFFEE9C9001ABF0A3EFF09051
:100CB0000123E07002A3E06003020E8D9001ABE01F
:100CC000FEA3E0FFC39438EE6480947F5003020ECD
:100CD00069D3EF94C8EE648094804003020E69905B
:100CE000010AE0B401119000941210D29001061292
:100CF0001103E490010AF09000941210D2900106C2
:100D00001210EAD312108F40649001ABE0FEA3E012
:100D1000FFD3941EEE64809480500BC3EF94E2EEF8
:100D20006480947F50159001061210D274FFFBFA74
:100D3000F9F8120F339001061211039001ABE0FE97
:100D4000A3E0FFD39464EE64809480500BC3EF94CF
:100D50009CEE6480947F50159001061210D274FFAF
:100D6000FBFAF9F8120F3390010612110390009468
:100D70001210D29001061210EAC312108F50639025
:100D800001ABE0FEA3E0FF941EEE64809480500B64
:100D9000C3EF94E2EE6480947F5015900106121028
:100DA000D2E47B01FAF9F8120F3390010612110315
:100DB0009001ABE0FEA3E0FFD39464EE64809480E6
:100DC000500BC3EF949CEE6480947F501590010605
:100DD0001210D2E47B01FAF9F8120F3390010612D7
:100DE00011039000941210D2EF24FAFFE43EFEE4C7
:100DF0003DFDE43CFC9001061210EAC312108F5036
:100E0000229000941210D2EF2406FFEE34FFFEED84
:100E100034FFFDEC34FFFC9001061210EAD31210EF
:100E20008F501690010A7401F09000941210D29025
:100E300001ADEEF0A3EFF08054781FE224FAFF1822
:100E4000E23400FEE4FCFD9000941210EAD312108C
:100E50008F501690010A7401F09000941210D290F5
:100E600001ADEEF0A3EFF080249001061210D290B5
:100E700001ADEEF0A3EFF0801490010A7401F09040
:100E800000941210D29001ADEEF0A3EFF09001ADFE
:100E9000E0FFA3E07806CFF208EFF2800D90009417
:100EA0001210D27806EEF208EFF27F0622BB01069E
:100EB00089828A83E0225002E722BBFE02E3228974
:100EC000828A83E49322EF8DF0A4A8F0CF8CF0A463
:100ED00028CE8DF0A42EFE22BC000BBE0029EF8D83
:100EE000F084FFADF022E4CCF875F008EF2FFFEEB0
:100EF00033FEEC33FCEE9DEC984005FCEE9DFE0FBE
:100F0000D5F0E9E4CEFD22EDF8F5F0EE8420D21C18
:100F1000FEADF075F008EF2FFFED33FD4007985060
:100F200006D5F0F222C398FD0FD5F0EA22C5F0F8FD
:100F3000A3E028F0C5F0F8E582158270021583E081
:100F400038F022EF2BFFEE3AFEED39FDEC38FC22B3
:100F5000C3EF9BFFEE9AFEED99FDEC98FC22E88F23
:100F6000F0A4CC8BF0A42CFCE98EF0A42CFC8AF02D
:100F7000EDA42CFCEA8EF0A4CDA8F08BF0A42DCC2F
:100F80003825F0FDE98FF0A42CCD35F0FCEB8EF088
:100F9000A4FEA9F0EB8FF0A4CFC5F02ECD39FEE46E
:100FA0003CFCEAA42DCE35F0FDE43CFC2275F008B3
:100FB000758200EF2FFFEE33FECD33CDCC33CCC5A1
:100FC0008233C5829BED9AEC99E58298400CF582BC
:100FD000EE9BFEED9AFDEC99FC0FD5F0D6E4CEFB2E
:100FE000E4CDFAE4CCF9A88222B800C1B90059BA1C
:100FF000002DEC8BF084CFCECDFCE5F0CBF978184A
:10100000EF2FFFEE33FEED33FDEC33FCEB33FB1043
:10101000D703994004EB99FB0FD8E5E4F9FA22785D
:1010200018EF2FFFEE33FEED33FDEC33FCC933C96F
:1010300010D7059BE99A4007EC9BFCE99AF90FD879
:10104000E0E4C9FAE4CCFB2275F010EF2FFFEE3399
:10105000FEED33FDCC33CCC833C810D7079BEC9AD8
:10106000E899400AED9BFDEC9AFCE899F80FD5F061
:10107000DAE4CDFBE4CCFAE4C8F922C3E49FFFE450
:101080009EFEE49DFDE49CFC22EB9FF5F0EA9E426F
:10109000F0E99D42F0EC6480C864809845F022EB52
:1010A0009FF5F0EA9E42F0E99D42F0E89C45F0226F
:1010B000E8600FECC313FCED13FDEE13FEEF13FF1E
:1010C000D8F122E8600FEFC333FFEE33FEED33FDBE
:1010D000EC33FCD8F122E6FC08E6FD08E6FE08E663
:1010E000FF22E0FCA3E0FDA3E0FEA3E0FF22E2FC80
:1010F00008E2FD08E2FE08E2FF22E0F8A3E0F9A31F
:10110000E0FAA3E0FB22E2FB08E2F908E2FA08E2D7
:10111000CBF822ECF0A3EDF0A3EEF0A3EFF022EC7D
:10112000F208EDF208EEF208EFF222A8828583F0D1
:10113000D083D082121132121132121132121132B6
:10114000E473E493A3C583C5F0C583C8C582C8F022
:10115000A3C583C5F0C583C8C582C822D083D08209
:10116000E493F208740193F208740293F208740392
:1011700093F2740473A42582F582E5F03583F58338
:1011800022FAE6FB0808E6F925F0F618E6CA3AF670
:1011900022E493FB740193FA740293F922D083D072
:1011A00082F8E4937012740193700DA3A393F87402
:1011B0000193F5828883E4737402936860EFA3A3BC
:1011C000A380DFE49001A2F0123A00E4FB7D017FEE
:1011D000011234EDE49001A1F09001A1E0FFC3946D
:1011E000025017EF25E025E02458F812114C0000BA
:1011F00000009001A1E004F080DF123994E4900136
:10120000A1F09001A1E0FFC394025047EF25E02533
:10121000E02458F8C0001210DEC004C005C006C0AB
:10122000079001A1E02441F582E43401F583E0FF59
:101230001232E4A804A905AA06AB07D007D006D04D
:1012400005D004120F33D00012110F9001A1E00459
:10125000F080AF9001A2E004F0E0C39405409BE46D
:101260009001A1F09001A2E0FFE4FCFDFEC004C0EB
:1012700005C006C0079001A1E025E025E02458F84C
:101280001210DED003D002D001D000120FD9C0045A
:10129000A905AA06AB079001A1E0242AF8E6FFE41D
:1012A000FCFDFED000120F4E78071210A09001A195
:1012B000E0FB25E025E02469F582E43401F58312A2
:1012C0001103EB25E025E02469F582E43401F58380
:1012D0001210D2E47B107A27F9F8C312108F50480D
:1012E0009001A1E0FB25E025E02469F582E43401CA
:1012F000F5831210D2EF24F0FFEE34D8FEED34FF68
:10130000FDEC34FFFCEB25E025E02449F582E434D4
:1013100001F5831211039001A1E025E02400F87487
:1013200027F2087410F280389001A1E0FB25E02537
:10133000E02449F582E43401F58312111B0000001A
:1013400000EB25E025E02469F582E43401F5831201
:1013500010D29001A1E025E02400F8EEF208EFF2AF
:101360009001A1E0FB25E025E02458F812114C0083
:10137000000000EB25E02470F8E4F208F29001A1EF
:10138000E0FF25E02400F8E2FC08E2FDEF25E02480
:1013900018F8ECF208EDF2E0FF25E02420F8E4F282
:1013A00008F2EF25E025E02428F812114C00000097
:1013B000009001A1E004F0E06402600302125422F4
:1013C000AB07E49001A5F0A312111B00000000EB95
:1013D00070030214D0123A007B01E4FDFF1234EDD9
:1013E000786412114C0000000012399478641210D5
:1013F000F6C000900144E0FF1232E4D000120F3337
:10140000786412110F9001A5E004F0E0FFC3940589
:1014100040D7E4FCFDFEC004C005C006C0077864E8
:101420001210DED003D002D001D000120FD9C004B8
:10143000A905AA06AB07782DE6FFE4FCFDFED00067
:10144000120F4E78071210A09001A61211039001FE
:10145000A61210D2900175121103E47F05FEFDFC67
:101460009001751210EA120F4E900090121103E4D1
:101470007F307E75FDFC9000901210EAD312108F21
:10148000403A9000901210D2EF24D0FFEE348AFE42
:10149000ED34FFFDEC34FFFC90015512110378068A
:1014A0007475F2087430F2781412114C0000753023
:1014B00090010612111B00007530805C90015512DE
:1014C000111B000000009001751210D27806EEF298
:1014D00008EFF29001751210D2781412110F8038B3
:1014E0009000901210D2EF24D0FFEE348AFEED343B
:1014F000FFFDEC34FFFC9001551211037806747562
:10150000F2087430F290010612111B000075307859
:101510001412114C00007530781E7475F208743086
:10152000F2786412114C00000000E47876F208F2C0
:101530007826F208F2783412114C00000000E49092
:10154000013FF0A3F0FB9001751210D2EB25E025CE
:10155000E02478F582E43400F5831211030BEBB438
:1015600005E4E4FBEB25E024DEF582E43400F583BA
:10157000E4F0A3F00BEBB414EB90008C12111B0001
:1015800000753090009412111B0000753090009887
:101590007475F0A37430F09001B37401F07F307E65
:1015A000757D007C001225ED9001B37401F07F3051
:1015B0007E757D007C001224F522E49001A1F0A349
:1015C000F0A3F0FCA3F020CA030217A17866E6702E
:1015D000030217A1E49001A1F09001A1E0FE2466AE
:1015E000F8E6FD74CA2EF582E43401F583EDF0E4EB
:1015F000F69001A1E004F0E0B40ADE9001CAE0FE3A
:1016000054F0FCEE540F9001A4F0AF04EF12118DD2
:10161000161C50162660163070163A8016AE9016BC
:10162000DFA0171EB0179EC0000017A17827E64460
:1016300001F61239BA227827E654FEF61239BA2298
:10164000E4FF123B007829A607229001CBE07F003F
:10165000FE9001A2F0A3EFF09001CCE0FDEEEDFFD3
:101660009001A2EEF0A3EFF0D3940AEE94004003B1
:101670000217A19001A4E0FFB40F2DE49001A1F0A6
:101680009001A1E0FEC3940440030217A1A3E0FC73
:10169000A3E0FDEE75F008A42434F8A60408A6051E
:1016A0009001A1E004F080D89001A2E0FCA3E0FD4D
:1016B000EF75F008A42434F8A60408A605229001CA
:1016C000A4E0FF70117827E6FE20E1030217A15481
:1016D000FDF6751C0222EF640160030217A1782752
:1016E000E6FF30E1030217A14402F6751C022290C6
:1016F00001A4E0FD70187827E6FE20E2030217A19E
:1017000054FBF6900131E04408F0751C0222ED64B0
:101710000160030217A17827E6FF30E2030217A158
:101720004404F6900131E04404F0751C022290015B
:10173000A4E0FF703A7827E654DFF6E49001A1F0C8
:101740009001A1E0FE25E0248DF582E43435F58397
:10175000E493FC740193FDEE75F008A42434F8A61C
:101760000408A6059001A1E004F0E0B402D222EF43
:101770006401703D7827E64420F6E49001A1F090E2
:1017800001A1E0FF25E024BDF582E43435F583E4D2
:1017900093FC740193FDEF75F008A42434F8A604BB
:1017A00008A6059001A1E004F0E0B402D2221239AB
:1017B000BA229001A1EEF0A3EFF0E49001A4F0A30F
:1017C000F0A3F0900132E0FFA3E09001A5CFF0A3D9
:1017D000EFF0E49001A3F09001A3E0FBC39402407A
:1017E000030218DE9001D4E0701690011BE0B403F0
:1017F0000FD3900126E09400900125E09400402052
:101800009001A3E0FF25E02470F8E4F208F2EF2550
:10181000E025E02458F812114C000000000218D511
:10182000EB25E02471F9E3700219E3701C9001A329
:10183000E0FF25E02400F8E2FC08E2FDEF25E024CB
:1018400068F8ECF208EDF2805E9001A3E0FD25E07F
:101850002468F8E2FE08E2FFED25E02400F8E2FC4F
:1018600008E2FD12003EC39001A6E09F9001A5E0B2
:101870009E50349001A3E0FF25E02400F8E2FC082C
:10188000E2FDEF25E02468F8ECF208EDF2E0FF2538
:10189000E02470F8E4F208F2EF25E025E02458F89F
:1018A00012114C000000009001A3E0FF25E024008D
:1018B000F8E2FC08E2FDEF25E025E02458F8C0003E
:1018C0001210F6AE04AF05E4FCFD120F33D0001287
:1018D000110F9001A3E025E02470F808E22401F242
:1018E00018E23400F29001A3E004F00217C7E4907C
:1018F00001A3F09001A3E0FFC394025024EF25E080
:101900002471F99001A1E0FEA3E0FFC3E39F19E376
:101910009E40069001A4E004F09001A3E004F08052
:10192000D29001A4E06402706F9001A3F09001A333
:10193000E0FFC394025061EF25E02470F8E2FE0856
:10194000E2FF4E6053E4FCFDC004C005C006C007C2
:10195000E025E025E02458F81210DED003D002D0B4
:1019600001D000120FD99001A3E0FD25E02418F862
:10197000EEF208EFF2ED25E02470F8E4F208F2ED63
:1019800025E025E02458F812114C00000000C21890
:101990009001A3E004F0809522123A00E4FB7D015F
:1019A0007F011234ED9001A7E5BAF053BA0F43BAA4
:1019B00010E49001A1F09001A1E0FFC39402501D3A
:1019C000EF25E025E02459F582E43401F583121176
:1019D0001B000000009001A1E004F080D99001619B
:1019E00012111B000000009001A17405F075ABFFFF
:1019F000123994E49001A2F09001A2E0FFC3940296
:101A0000503DEF25E025E02459F582E43401F583CB
:101A1000C083C0821210EAC0009001A2E02441F508
:101A200082E43401F583E0FF1232E4D000120F3378
:101A3000D082D0831211039001A2E004F080B9900B
:101A400001611210EAC000900143E0FF1232E4D0BD
:101A500000120F33900161121103E4F5AB123994B7
:101A6000E49001A2F09001A2E0FFC394025051EF74
:101A700025E025E02459F582E43401F583C083C0D4
:101A8000821210D2C004C005C006C0079001A2E0B7
:101A90002441F582E43401F583E0FF1232E4A80426
:101AA000A905AA06AB07D007D006D005D004120FAF
:101AB00040D082D0831211039001A2E004F080A5EF
:101AC0009001611210D2C004C005C006C007900189
:101AD00043E0FF1232E4A804A905AA06AB07D00729
:101AE000D006D005D004120F40900161121103906E
:101AF00001A1E014F0E060030219DDE49001A2F01E
:101B00009001A2E0FBC394025030A312111B001DF0
:101B10004C00EB25E025E02459F582E43401F583FF
:101B20001210EA9001A31210D2120FD99001A2E074
:101B3000242AF8A607E004F080C69001A312111B26
:101B4000001D4C009001611210EA9001A31210D206
:101B5000120FD9782CA6079001A7E0F5BA9001439F
:101B6000E090358493F5AB22E49001A5F0A3F0EF6B
:101B70007003021C12123A00E4FB7D017F01123453
:101B8000ED786012114C0000000012399478601258
:101B900010F6C000900143E0FF1232E4D000120FB3
:101BA00033786012110F9001A5E004F0E0FFC394B8
:101BB0000540D7E4FCFDFEC004C005C006C00778A0
:101BC000601210DED003D002D001D000120FD9C0B5
:101BD00004A905AA06AB07782CE6FFE4FCFDFED0BD
:101BE00000120F4E78071210A0900171121103E439
:101BF0007F05FEFDFC9001711210EA120F4E90005D
:101C00009E121103E47F2CFEFDFC90009E1210EA50
:101C1000120F4EE47B0AFAF9F8120FD99000A312C2
:101C200011039000A31210D2EF24F0FFEE34D8FE7F
:101C3000ED34FFFDEC34FFFC9001511211039000D4
:101C40009A12111B00000000E49000A2F0900151D4
:101C50001210D2AB07AA069000A31210D2C3EF9BBA
:101C6000FFEE9A9000AFF0A3EFF078047427F2082B
:101C70007410F29000AD7427F0A37410F0E490009B
:101C8000B1F0A3F09000DB7427F0A37410F0E4909F
:101C900001A6F09001A6E0FFC394145018EF25E0D0
:101CA00024B3F582E43400F583E4F0A3F09001A6B8
:101CB000E004F080DE9001B17401F07F107E277D9A
:101CC000007C00122D0122E4FD301426ED25E024D5
:101CD0009DF582E43435F583E493FE740193FFEDC2
:101CE00025E024A1F582E43401F583EEF0A3EFF0C2
:101CF000804D301526ED25E024BDF582E43435F520
:101D000083E493FE740193FFED25E024A1F582E4C2
:101D10003401F583EEF0A3EFF08024ED25E0248D6F
:101D2000F582E43435F583E493FE740193FFED25E9
:101D3000E024A1F582E43401F583EEF0A3EFF00D89
:101D4000ED64027084E4FDED25E02448F8E2FE082D
:101D5000E2FFED25E02439F9D3E39F19E39E401615
:101D6000ED25E02438F8E2FE08E2FFED25E0244806
:101D7000F8EEF208EFF2ED25E024A1F582E434015B
:101D8000F583E0C313FEA3E013FFED25E02439F94A
:101D9000D3E39F19E39E5047ED25E024A1F582E4AB
:101DA0003401F583E0FEA3E0FFED75F008A42434D0
:101DB000F8A60608A607ED25E024A1F582E4340183
:101DC000F583A3E025E0FF0582D582021583158205
:101DD000E033F8ED25E02448C8F208EFF2803CED4E
:101DE00025E024ADF582E43435F583E493FE7401F7
:101DF00093FFED25E02439F9D3E39F19E39E401BBF
:101E0000ED25E02448F9E3C313FE09E313FFED7564
:101E1000F008A42434F8A60608A6070DED640260B5
:101E200003021D37229001A17407F0A3F0A3121141
:101E30001B00000000123A00E4FB7D017F01123418
:101E4000ED9001A1E0FF602074017E00A8070880EA
:101E500005C333CE33CED8F9FFADACE4EF5D7008E7
:101E60009001A1E014F080D99001A2E0FF602074FD
:101E7000017E00A807088005C333CE33CED8F9FF12
:101E8000ADAEE4EF5D70089001A2E014F080D9904F
:101E900001A1E0FF7401A807088002C333D8FCF554
:101EA000AC9001A2E0FF7401A807088002C333D8F8
:101EB000FCFFF5AD8FAE53AACF9001ABE5BAF0535E
:101EC000BA0F43BA10123994E49001A1F09001A125
:101ED000E0FFC39403503B74412FF582E43401F5D5
:101EE00083E0FF1232E49001A71211039001A712C0
:101EF00010D29001A31210EAC312108F500C90015F
:101F0000A71210D29001A31211039001A1E004F0D6
:101F100080BB9001A31210EAC0009001A31210D25E
:101F200078041210A0D000120F339001A3121103F5
:101F30009001A31210D29001371211039001A31245
:101F400010D278101210A08FB39001A31210D27883
:101F5000081210A08FB29001A31210D28FB143AA21
:101F6000309001ABE0F5BA75AC0375ADC075AEC08D
:101F700022439F04E453C6DFE5C600B5C6F375836C
:101F80000075820775FD0DE4E5FEF4FF75830075AD
:101F9000820675FD0DE4E5FEB50704F59E80037528
:101FA0009E0078100000D8FC53C6E043C60843C624
:101FB0008075960775971275830075820475FD0DFF
:101FC000E5FD0404F58F75830075820375FD0DE44E
:101FD000E5FEF4FF75830075820275FD0DE4E5FEF4
:101FE000B50704F59580057595628014C313C31376
:101FF000FF75830075820275FD0DE4E5FE9FF59582
:1020000075BE0E5392FE9001007F007E02E4F0A3A5
:10201000DFFCDEFA78007F00E4F208DFFC78FFE402
:10202000F6D8FD758174022057020000022BCCE423
:1020300093A3F8E493A34003F68001F208DFF48051
:1020400029E493A3F85407240CC8C333C4540F44A1
:1020500020C8834004F456800146F6DFE4800B017B
:1020600002040810204080903613E47E019360BC87
:10207000A3FF543F30E509541FFEE493A360010E13
:10208000CF54C025E060A840B8E493A3FAE493A33A
:10209000F8E493A3C8C582C8CAC583CAF0A3C8C55B
:1020A00082C8CAC583CADFE9DEE780BE9001A212FA
:1020B000111B00000000E49001A1F09001A1E0FBE1
:1020C000242AF8E6FFE4FCFDFEEB25E025E0245998
:1020D000F582E43401F5831210EA120F4E780712EC
:1020E00010A09001A1E0FB25E025E02469F582E441
:1020F0003401F583121103EB25E025E02449F58234
:10210000E43401F5831210D2EB25E025E02469F5D3
:1021100082E43401F5831210EAC312108F50037F5A
:1021200002229001A1E004F0E0B4028F782CE6FFD7
:10213000E4FCFDFE9001611210EA120F4E780712C6
:1021400010A0900171121103782DE6FFE4FCFDFE52
:102150009001651210EA120F4E9001A21211039025
:1021600001A21210D278071210A09001A21211033E
:1021700020002320012020061D9001A21210D2C3AE
:10218000EF941EFFEE9400FEED9400FDEC9400FC35
:102190009001A21211039001A21210D290017512A7
:1021A0001103E49001A1F09001A1E0FFC394045059
:1021B00022EF25E025E02469F582E43401F583125D
:1021C00010D2EC4D4E4F70037F02229001A1E0042B
:1021D000F080D47F0522E49001A1F09001A1E0FEFF
:1021E00075F008A4243AFBEE25E025E02469F58289
:1021F000E43401F5831210D278041210A0AD07ACBC
:1022000006AF03123B3A9001A1E0FE75F008A4244A
:1022100038FFEE25E02420F8E2FC08E2FD123B3A0C
:102220009001A1E0FE75F008A42436FFEE25E0241D
:1022300038F8E2FC08E2FD123B3A9001A1E004F01C
:10224000E0C3940240957F4A9000AFE0FCA3E0FD1C
:10225000123B3A7F467804E2FC08E2FD123B3A7FEB
:1022600052C0079001791210D2AD07AC06D0071208
:102270003B3A7F4EC00790017D1210D2AD07AC06ED
:10228000D007123B3A7F54903593E493FC7401934A
:10229000FD123B3A7F5690359374019324CEFDE4B2
:1022A0009334FFFC123B3A7F587D647C00123B3A2A
:1022B0007F5E7806E2FC08E2FD123B3A7F5C7826FE
:1022C000E2FC08E2FD123B3A7F5A783EE2FC08E26B
:1022D000FD123B3A7F60781EE2FC08E2FD123B3AB9
:1022E00090008C1210D2780A1210A07862A607789B
:1022F00027E6F522229001A17407F0A3F0A31211A2
:102300001B00000000E4F5B375B24E75B120123A1F
:10231000007B01E4FDFF1234ED9001A1E0FF60209D
:1023200074017E00A807088005C333CE33CED8F9E8
:10233000FFADACE4EF5D70089001A1E014F080D92E
:102340009001A2E0FF602074017E00A807088005CC
:10235000C333CE33CED8F9FFADAEE4EF5D70089055
:1023600001A2E014F080D99001A1E0FF7401A80758
:10237000088002C333D8FCF5AC9001A2E0FF7401E1
:10238000A807088002C333D8FCFFF5AD8FAE53AA6F
:10239000CF9001ABE5BAF053BA0F43BA101239949B
:1023A000900144E0FF1232E49001A7121103900162
:1023B000A71210D29001A31210EAC312108F500C72
:1023C0009001A71210D29001A31211039001A31241
:1023D00010EAC0009001A31210D278041210A0D00D
:1023E00000120F339001A31211039001A31210D217
:1023F00090013B12110343AA309001ABE0F5BA758E
:10240000AC0375ADC075AEC022E49001A1F090019F
:10241000A1E0FFC3940240030224F4EF25E025E08D
:102420002449F582E43401F5831210D2E47B107A5A
:1024300027F9F8C312108F50609001A1E0FB25E04E
:1024400025E02469F582E43401F5831210D2EF24EB
:10245000F0FFEE34D8FEED34FFFDEC34FFFCEB254D
:10246000E025E02449F582E43401F583121103905C
:1024700001A1E0FF25E02400F87427F2087410F2AF
:10248000EF25E02420F8E4F208F2EF25E02418F824
:102490007427F2087410F280629001A1E0FB25E03D
:1024A00025E02449F582E43401F58312111B000074
:1024B0000000EB25E025E02469F582E43401F58392
:1024C0001210D29001A1E0FD25E02400F8EEF20800
:1024D000EFF2ED25E02420F8E4F208F2ED25E02506
:1024E000E02469F582E43401F5831210D29001A151
:1024F000E025E02418F8EEF208EFF29001A1E004E4
:10250000F00223FE229001AF1211039001B3E0B458
:10251000012590018912111B00007530900189126C
:1025200010D278031210B390018912110390018D1B
:1025300012111B00007530D37827E294F418E2944E
:10254000014018E47F08FEFDFC9001AF1210EA1272
:102550000F4E9001B41211030225CE20000330016A
:1025600046E47F03FEFDFC9001891210EA120F4E33
:102570009001B41211039001B41210D2780212101B
:10258000A09001B41211039001AF1210D290018DEE
:102590001210EA120F339001B41210EA120F3390A6
:1025A00001B41211038037E47F02FEFDFC90018D1F
:1025B0001210EA120F4EC004C005C006C007E47F27
:1025C00006FEFDFC9001AF1210EA120F4ED003D0B0
:1025D00002D001D000120F339001B4121103900108
:1025E000B41210D29001891211039001AF1210D2CF
:1025F00090018D1211039001891210D2229001AF27
:102600001211039001B3E0B4012590019112111B46
:10261000000075309001911210D278031210B3901F
:10262000019112110390019512111B00007530D316
:102630007827E294F418E294014018E47F08FEFD44
:10264000FC9001AF1210EA120F4E9001B412110368
:102650000226C6200003300146E47F03FEFDFC9005
:1026600001911210EA120F4E9001B4121103900161
:10267000B41210D278021210A09001B4121103907B
:1026800001AF1210D29001951210EA120F3390018F
:10269000B41210EA120F339001B41211038037E420
:1026A0007F02FEFDFC9001951210EA120F4EC0044D
:1026B000C005C006C007E47F06FEFDFC9001AF1216
:1026C00010EA120F4ED003D002D001D000120F3307
:1026D0009001B41211039001B41210D29001911222
:1026E00011039001AF1210D29001951211039001C5
:1026F000911210D222E49001A2F09001A2E0FF25F5
:10270000E02418F8E2FC08E2FDEF25E02400F8E2FE
:10271000FE08E2FFD39DEE9C401BE025E02418F864
:10272000E2FC08E2FDC3EF9DFFEE9CFEE4FCFDA38E
:10273000121103800A9001A312111B0000000090E7
:1027400001A31210D278071210B39001A312110343
:10275000900112E070347F03FEFDFC9001A3121083
:10276000EA120F4E9001A2E025E025E02428F8129D
:1027700010F6120F3378021210A09001A2E025E0AB
:1027800025E02428F812110F802A9001A2E025E00C
:1027900025E02428F81210DE9001A31210EA120F8F
:1027A0003378011210A09001A2E025E025E0242852
:1027B000F812110F9001A2E0FB25E025E02428F893
:1027C0001210DE78071210A0EB25E02420F8EEF2BC
:1027D00008EFF29001A2E004F0E064026003022638
:1027E000EA7F06229001A3EEF0A3EFF09001D9E07A
:1027F000701990011CE0B40512201A2DD390012805
:10280000E09400900127E09400401EE47876F208FE
:10281000F2786412114C000000007804E2FF08E234
:102820009000ADCFF0A3EFF02278641210F6C00054
:102830007806E2FE08E2FFE4FCFDD000120F3378D8
:102840006412110F7877E22401F218E23400F2905A
:1028500001A3E0FEA3E0FFC308E29F18E29E501E22
:102860007804E2FE08E2FF9000ADE0FCA3E0FD1278
:10287000003ED3EF9478EE94005003301A487876F7
:10288000E2FE08E2FFE4FCFDC004C005C006C0078C
:1028900078641210DED003D002D001D000120FD91C
:1028A000781EEEF208EFF2E47876F208F27864121D
:1028B000114C000000007804E2FF08E29000ADCF68
:1028C000F0A3EFF0C21A22123B67900116EFF0124C
:1028D000369B900116E0FF1238E2EF700302298860
:1028E0002000033001257F0512375DD3900140E0C1
:1028F0009F90013FE09E4004D21A80327F0212373F
:102900005D9001A1EEF0A3EFF080237F0512375D0B
:10291000D3900140E09F90013FE09E4004D21A8096
:102920000D7F0412375D9001A1EEF0A3EFF0D3907C
:102930000124E09400900123E0940040169001A14E
:10294000E0FEA3E07802CEC313CE13D8F9F0EE90E8
:1029500001A1F09001A1E0FEA3E0FF1227D47F0DBA
:1029600012375D9001A1EEF0A3EFF0900117E0FFA8
:10297000A3E06F602312349F900117E0A3F0A3E05F
:1029800054F060147F0812375DEEC313FEEF13FF9F
:10299000900127EEF0A3EFF022122FCE1230CC12CE
:1029A0003A9E900111EFF0123914EF7003022A5889
:1029B0007F0112375DAD07AC06D3900124E094008F
:1029C000900123E094004010ECC4F854F0C868FC77
:1029D000EDC4540F48FD802E301811EDAE0478037D
:1029E000CEC313CE13D8F9FDAC06801AC3784DE2DE
:1029F000941E18E29400500EECC4F854F0C868FC21
:102A0000EDC4540F48FDAE04AF051217A290011299
:102A1000E060287F0612375DD3900122E09F90018D
:102A200021E09E400AE4900111F0A3F01223F990F6
:102A30000121E475F001120F1D8007E4900121F0DF
:102A4000A3F0900112E0FFA3E06F601C122EBA9079
:102A50000112E0A3F0A3E054F0600D7F0712375D90
:102A6000900125EEF0A3EFF022C0E0C0F0C083C0DB
:102A700082C0D075D008C2CFD20730CD03022B1749
:102A800030CB3A20CC377870A6CEE6FFC394804096
:102A90002375F003EF902CAA1211651211818B1986
:102AA0008A1A891B7819E475F001121171120E9DB2
:102AB000F5CE80097870E62518F8E6F5CE30CC24FE
:102AC0007870E6C3948040107819E475F001121113
:102AD00071120E9DF5CE804D787006E62518F8E649
:102AE000F5CE804120CB3E85CE1D7870E6FF702468
:102AF000E51DB410099001DAE0F452808027E51D4D
:102B0000B420089001DAE04280801A7866A61D7829
:102B100070068011EFC3940A50087870E62466F8B6
:102B2000A61D787006D205D0D0D082D083D0F0D048
:102B3000E032E49001A1F0900131E054036032C230
:102B4000057F0A12375D90012DEEF0A3EFF09001A2
:102B500031E054FCF0C2927864760008769678648E
:102B600008E6161886067001164E60030080EFD244
:102B700092900131E0FF30E214900119E0540F60AF
:102B800022782476049001A17401F08016EF30E3DE
:102B900012900119E0540F600A782476409001A148
:102BA0007401F0900131E054F3F09001A1E0602B4A
:102BB000C2057F0A12375D90012DEEF0A3EFF07889
:102BC000647600087696C292786408E6161886063F
:102BD0007001164E60030080EFD29222123A8012EA
:102BE0003B28123B5A122C6A1239DE12380D123869
:102BF0007A123A41D2AF751C01E51C24FE601C24F8
:102C0000FE602D14604A14605424057061123B4A22
:102C1000123B14123AD47F021236DDD2D812321788
:102C2000900134E070FA7F011233A8751C048041D2
:102C3000D2D8900134E06003438701900134E07002
:102C4000FA12209C8F1C1230537F011233A880216E
:102C500012327F8F1C1221C6122F498014300003BC
:102C60001229891228B712371E751C048003751C9F
:102C7000011200031215AA808022E49001A1F078CD
:102C800024F6FF123B009001A1EFF0BFFF0678256C
:102C900076068004782576FF78267616E408F6789E
:102CA0002976FFFFEF25E0248DF582E43435F583A6
:102CB000E493FC740193FDEF75F008A42434F8A6A6
:102CC0000408A605EF75F008A42436F8E4F608F623
:102CD000EF75F008A42438F8E4F608F6EF75F0086C
:102CE000A4243AF8E4F608F60FEFB402B7E47854F7
:102CF000F608F608F608F608F608F608F608F608E4
:102D0000F608F608F608F608F608F608F675182428
:102D1000229001AD1211039001B1E0B401259001A0
:102D20009912111B000027109001991210D27803FC
:102D30001210B390019912110390019D12111B0002
:102D4000002710E47F03FEFDFC9001991210EA12A7
:102D50000F4E9001B21211039001B21210D27802FC
:102D60001210A09001B21211039001AD1210D29076
:102D7000019D1210EA120F339001B21210EA120FE5
:102D8000339001B21211039001B21210D290019946
:102D90001211039001AD1210D290019D12110390F7
:102DA00001991210D222C0E0C0F0C083C082C0D00E
:102DB00075D01053B9FD900134E0FB64017059FAED
:102DC00074412AF582E43401F583E0FF1232E4EA2B
:102DD00025E025E02459F582E43401F5831211033E
:102DE0000AEAB402DB900143E0FF1232E490016191
:102DF000121103900144E090358493F5B490013CA6
:102E0000E0F5B3A3E0F5B2A3E0F5B143B901D2D840
:102E10009001347402F08017EBB40213900144E087
:102E2000FF1232E4900165121103900134E4F0D0F6
:102E3000D0D082D083D0F0D0E032FE0000FE000877
:102E4000FE0018FE0020FE0020FE0028FE0038FED6
:102E50000040FE0040FE00480101590101610101EE
:102E6000690101710101D40101D50101D6010111EE
:102E7000010116010112010117010113010118FEE0
:102E80000028FE004801012101011D01011F01016F
:102E90002301012B01012D010125010149010151EE
:102EA00001009401013501013601013701013B01A7
:102EB00001790101810101690101710100900100A5
:102EC0008C0100A30101140101199001A1EFF09000
:102ED0000131E06003022F48F9FFFE7401A80608E3
:102EE0008002C333D8FCFD9001A1E05DFC9001138A
:102EF000E05D6C6007900131E04401F0900113E067
:102F00005DB50513EE2404FC7401A804088002C317
:102F100033D8FC49F9800D7401A806088002C33338
:102F2000D8FC49F99001A1E05DB5050F7401A80630
:102F3000088002C333D8FC4FFF8011EE2404FD74D7
:102F400001A805088002C333D8FC4FFF0EEE6402CF
:102F50007089E95F900114F022D3900124E094007D
:102F6000900123E09400400774FFF5F0120F1DD389
:102F7000900126E09400900125E09400400774FF42
:102F8000F5F0120F1DD390012EE0940090012DE07A
:102F90009400401374FFF5F0120F1D90012DE070A6
:102FA00002A3E07002D20590011DE475F001120F3A
:102FB0001DD3900128E09400900127E09400400781
:102FC00074FFF5F0120F1DD390012CE094009001D6
:102FD0002BE09400400774FFF5F0120F1D2278409B
:102FE000E2FE08E2FF9001A1EEF0A3EFF0A3EEF005
:102FF000A3EFF07F01EF25E02440F8E2FC08E2FDBA
:10300000D39001A2E09D9001A1E09C400FEF25E04C
:103010002440F8E2FD08E2CDF0A3EDF0EF25E02436
:1030200040F8E2FC08E2FDC39001A4E09D9001A3FA
:10303000E09C500FEF25E02440F8E2FD08E2CDF0DF
:10304000A3EDF00FEFB402AD9001A1E0FFA3E07893
:103050004ECFF208EFF2A3E0FFA3E0784CCFF208E6
:10306000EFF222E49001A1F0A3F07827E6FF20E13F
:103070000330E203C2062230071A90011FE4F0A3D6
:103080007478F07F0C12375D90012BEEF0A3EFF017
:10309000C207801F90012BE07002A3E07015900121
:1030A0001FE07004A3E06404600990011FE4F0A332
:1030B0007404F0900123E07002A3E0701190012BE2
:1030C000E07002A3E07007300504C2068002D20659
:1030D000200608E4FF1238AE12394422E49001A120
:1030E000F09001A1E0FF25E02418F8E2FC08E2FDE1
:1030F000EF25E02400F8E2FE08E2FFC39DEE9C50BD
:1031000044E025E02419F8C3E29FFF18E29EFEE4A4
:10311000FCFD7B64FAF9F8120F4EC006C00790015F
:10312000A1E025E02450F8E2FE08E2FFFBAA06E455
:10313000F9F8D007D006120FD9D3EF940AEE940015
:103140004003D218229001A1E004F0E0B4029222E0
:10315000E49001A2F09001A2E0FFC39402505FEF5F
:1031600025E02420F8E2FE08E2FFE4FCFD7B64FA9F
:10317000F9F8120F4EC006C0079001A2E025E02426
:1031800050F8E2FE08E2FFFBAA06E4F9F8D007D007
:1031900006120FD99001A2E0FD25E02438F8EEF2E6
:1031A00008EFF2ED25E02438F8E2FE08E2FFED2515
:1031B000E02440F8EEF208EFF2E004F0809722E419
:1031C0009001A2F09001A2E0FF25E025E02449F55E
:1031D00082E43401F5831210EAEF25E025E024694A
:1031E000F582E43401F5831210D2120F409001A34E
:1031F000121103E47FFF7EFFFDFC9001A31210EA91
:10320000C312108F40037F02229001A31210D290AC
:1032100001A2E025E02400F8EEF208EFF2E004F06D
:10322000E0B402A07F06227827E6FF30E104D20056
:103230008002C200EF30E204D2018002C20120000D
:103240000330010B90011FE4F0A37478F080099023
:10325000011FE4F0A37404F0A202300001B3501285
:10326000A20092021233FD3000051211B380031246
:1032700023F93008051211B3C208A203300101B3CB
:103280005004A20192033009051239BAC2092290F2
:1032900001A17406F03000231231AF9001A1EFF0CC
:1032A000BF0205D208E0FF221226E59001A1EFF04F
:1032B000BF0205D208E0FF2212314012005E9001E9
:1032C000A1EFF0BF0205D208E0FF22120AC690016A
:1032D000A1EFF0BF0205D209E0FF221235CD900127
:1032E000A1EFF0BF0205D209E0FF221237D490010E
:1032F000A1E0FF22EFC39404500553B9EF800343CC
:10330000B910EF6003B4040C7872A6B708A6B6082B
:10331000A6B5803DEF64016004EFB4050C7872A699
:10332000EB08A6EA08A6E98028EF64026004EFB47F
:10333000060C7872A6F308A6F208A6F18013EF64D3
:10334000036004EFB4070A7872A6FB08A6FA08A681
:10335000F978711210C622C0E0C0F0C083C082C0EC
:10336000D075D000C000C007C28D758C32758AEB55
:103370009001B8E475F001120F1DC39001B9E094FB
:10338000149001B8E09400402020000330010D901B
:10339000011DE0FFA3E0A3CFF0A3EFF090011DE437
:1033A000F0A3F09001B8F0A3F0D007D000D0D0D0B7
:1033B00082D083D0F0D0E0329001A1EFF0E0900114
:1033C00034F0B40119E4FB7D017F011234ED90016A
:1033D00038E0F5B3A3E0F5B2A3E0F5B1801D9001AC
:1033E000A1E0B402167B01E4FDFF1234ED90013C34
:1033F000E0F5B3A3E0F5B2A3E0F5B175BF0F43B9B3
:103400002053B9FD43BA0143B901D2D822E4FF9059
:103410000112F0A3F090011BF0900121F0A3F090B5
:103420000125F0A3F0900114F0A3F0F523EF25E0BF
:103430002450F8E2FC08E2FD900132EC8DF0120F0E
:103440001D0FEFB402E7900132E0FEA3E0FF7C0025
:103450007D0A120EC8900132EEF0A3EFF022A90708
:10346000E4FF7E0474412EF582E43401F583E0909C
:103470003584934FFF0EEEB406EAE96005EF42D4BF
:103480008004EFF452D4EFF4FE52F4EF42E4ED6026
:1034900005EF42EC8003EE52ECEFF4FE52DCEB6001
:1034A00005EF42808003EE52809001DAEFF022AA0D
:1034B00007900131E0F97044FCFF7E04EA540FFDEF
:1034C000900118E0540F6D600A300107E944029042
:1034D0000131F0900118E0540F6008EEC454F04C34
:1034E000FC8003EC4EFCEA540F6005EF4EFF8006B3
:1034F000EEC454F04FFFEC5F900119F022A905E4EF
:10350000FEFDEF6018E4FF74412FF582E43401F50D
:1035100083E0903584934EFE0FEFB402EAE9600A2F
:10352000900143E0903584934EFEEB600A90014495
:10353000E0903584934DFD900135EEF0AF05A3EF9B
:10354000F0900135E04FF5B4229001A212111B005A
:10355000000000E49001A1F09001A21210EAC00066
:103560009001A1E0242AF8E6FFE4FCFDFED0001261
:103570000F33A31211039001A1E004F0E0B402D8CC
:10358000E47B02FAF9F89001A21210D2120FD97856
:103590002DA60722010204081020408013003200EB
:1035A00032003C00FA003C003C003C003C003C0087
:1035B0003C003C003C003C003C003C003C007800EF
:1035C00078003C003C003C003C003C003C03E8032D
:1035D000E8003C003C003C003C003C003C781EE223
:1035E000FE08E2FF7806E2FC08E2FDD39FEC9E4075
:1035F00018781EE2FE08E2FFED9FFFEC9EFEE4FC61
:10360000FD9001A2121103800A9001A212111B0069
:103610000000009001A21210D27826EEF208EFF21C
:103620007F06226030011100000000000000000051
:10363000000000000000000000000000000000008A
:10364000000000000000000000000000000000007A
:1036500000000000000000480141030400060102D0
:10366000FFFF04710000000000E4FF900117E0700C
:103670001890359393FC740193FDC37847E29D182D
:10368000E29C40217404FF801C90359374019324C4
:10369000CEFDE49334FFFCC37847E29D18E29C40E2
:1036A00004EF4404FF9001D9EFF022781EE2FE08F7
:1036B000E2FF7806E2FC08E2FDC39FEC9E5026C3C1
:1036C000781FE29DFF18E29CFED3EF9464EE940015
:1036D000400B90013FE475F001120F1D22E49001B0
:1036E0003FF0A3F022E490013FF0A3F0227827A658
:1036F00007EFB40208D202D200C203C201EFB40441
:1037000008C202C200D203D201EFB40608D202D22C
:1037100000D203D20190011FE4F0A37478F07F0B74
:1037200012375D900123EEF0A3EFF0D20622E4FF02
:10373000FE300010900115E0FD900114E0FC6D607A
:1037400003ECFF0E30011290011AE0FD900119E028
:10375000FC6D6005EC4FFF7E01EE60047824A60747
:10376000900114E0A3F0900119E0A3F0229001A3CE
:103770007401F0A374BAF07B017A00EFB40F057FF7
:10378000017E00229001A3E0FCA3E02FF582E43C3F
:10379000F583E07A00FB90011FE0FCA3E0FDAF039E
:1037A0007E00120EB6AA06AB0722E4FFFEEE75F00D
:1037B00008A42435F8E624FDFD18E634FFFCEE25C8
:1037C000E02439F9C3E39D19E39C400D7401A80678
:1037D000088002C333D8FC4FFF0EEEB402CF900135
:1037E000D6EFF0227826E2FE08E2FFE4FCFD7B64DF
:1037F000FAF9F8120F4EC006C0077856E2FE08E24A
:10380000FFFBAA06E4F9F8D007D006120FD9783EDC
:10381000EEF208EFF27846EEF208EFF2227E017F38
:10382000BAE4FDED25E02421F582E4343AF583E4A1
:1038300093640F601EED25E02422F582E4343AF50E
:1038400083E493FCEF2DF582E43EF583ECF00DED7F
:10385000B410D022E4FFFEEE75F008A42434F8E69C
:10386000FC08E6FDEE25E02441F9C3E39D19E39C45
:10387000400D7401A806088002C333D8FC4FFF0E28
:10388000EEB402D39001D4EFF02243F80875CD4096
:1038900053CC7F43CC4043CC2043CC1043CC045387
:1038A000CCFD43CB0243CB0153CBBF43E80853E5E8
:1038B000FC43E30243F50343900343ED0322E4900A
:1038C0000134F053B9FD43CC02C2D9439F10539F3A
:1038D000FD438760759262C28DEF700675BD0D75F0
:1038E000BC01123AEB75BE0CD28C4387030000007A
:1038F00000227E05900117E06F6009D207EFF0E427
:1039000090011CF0900117E070027E02AF0690015A
:103910001CE004F0C39F50037F002290011C74053B
:10392000F07F01227E03900112E06F6007EFF0E468
:1039300090011BF0900112E070027E01AF06900131
:103940001BE004F0C39F50037F002290011B74030F
:10395000F07F0122E4FF75BE0E439F100FEFB4FF0E
:10396000FB439F02539FEFE4FF0FEFB4FFFB75BCD7
:1039700002759276E4F5BFD2D953CCFD22E4FFFE66
:1039800074412EF582E43401F583E0903584934F41
:10399000FF0EEEB404EAEF42D4EF42F4EF42E4EF5C
:1039A000F452DC2275BF0F00000000000000000090
:1039B000000000000000000000D2D853B9FD43B958
:1039C00001E5B930E1FBE4F5BF22900134E070FA83
:1039D000E4FF1213B0E4FF121B58E4900117F090BB
:1039E000011CF0900127F0A3F0900119F022438907
:1039F00001C28DD2A953B8FDE49001B8F0A3F090B4
:103A0000011DF0A3F0758C32758AEBD28CD2AF22F7
:103A100053BAFEE5B920E006900134E06005E5B94F
:103A200030E1FBE4F5BF53B9FD53B9FE900134F02A
:103A3000220002010102080301040805010606072D
:103A400001080109020A010B030C010D0A0E040F03
:103A50000178507402F208743AF2087402F20874A1
:103A6000A8F208E4F2087464F208E4F2087464F25C
:103A700022EF600543D504800353D5FB53F5FB5378
:103A8000E5FB43E30443ED04E4900131F0D29222DC
:103A9000E4F5E3439F10439F02FF0FEFB4FFFB5396
:103AA0009FEF75BE0EE4F5BFF5B975927622121C34
:103AB000B712384412379A900112E070079001D47F
:103AC000E0FB80059001D6E0FBAF0322E4900117F4
:103AD000F0A3F090011CF0900127F0A3F0900119E1
:103AE000F0A3F022E490012DF0A3F07F0C12375DDB
:103AF00090012BEEF0A3EFF0D20522438901C28C96
:103B0000C28FE49001B8F0A3F0758CFB758AED22AA
:103B1000E4FFF582F5837440FEE493F42FFFA3EEF7
:103B2000B583F6221235391222E57F011213B07FD8
:103B300001121B58123ABC2212396D7B017D01E43F
:103B4000FF12344E7F01123A612220C90CC2AFA885
:103B500007A60408A605D2AF222212000E12198968
:103B6000121E151211B31233FD22C2DA53D80F43BD
:103B7000D8D0D2D8D2D9221236599001D9E0FF221A
:103B8000FFFFFFFFFFFFFFFFFFFFFFFFFFFFFFFF45
:00000001FF
