:10000000011005003300000000400000FF00000068
:10001000021634E49002A3F0A3F0220227D153BACF
:100020000F43BA4075BBFF1218C7900024E0F5B427
:10003000EF700AF5B375B26175B1A8800690002122
:1000400012190A12191653AAFB22FF02257953BA74
:10005000FEE5B920E004E51D6005E5B930E1FBE40B
:10006000F5BF53B9FD53B9FEF51D22021BAABB0112
:100070000689828A83E0225002E722BBFE02E32245
:1000800089828A83E49322BB010989828A83F8E00A
:1000900028F022500327F722BBFE05F8E328F322BD
:1000A0008A838982F8E4932822BB010689828A83A5
:1000B000F0225002F722BBFE01F322EF8DF0A4A83C
:1000C000F0CF8CF0A428CE8DF0A42EFE22C5F0F83F
:1000D000A3E028F0C5F0F8E582158270021583E0F0
:1000E00038F022BB0110E58229F582E5833AF583D9
:1000F000E0F5F0A3E0225009E92582F886F008E651
:1001000022BBFE0AE92582F8E2F5F008E222E58347
:100110002AF583E993F5F0A3E99322F8BB0111E5F1
:100120008229F582E5833AF583E8F0E5F0A3F02231
:100130005009E92582C8F608A6F022BBFE09E92588
:1001400082C8F2E5F008F222EF2BFFEE3AFEED391D
:10015000FDEC38FC22C3EF9BFFEE9AFEED99FDEC1F
:1001600098FC22E88FF0A4CC8BF0A42CFCE98EF054
:10017000A42CFC8AF0EDA42CFCEA8EF0A4CDA8F00F
:100180008BF0A42DCC3825F0FDE98FF0A42CCD35D3
:10019000F0FCEB8EF0A4FEA9F0EB8FF0A4CFC5F03D
:1001A0002ECD39FEE43CFCEAA42DCE35F0FDE43C36
:1001B000FC2275F008758200EF2FFFEE33FECD3381
:1001C000CDCC33CCC58233C5829BED9AEC99E582C8
:1001D00098400CF582EE9BFEED9AFDEC99FC0FD554
:1001E000F0D6E4CEFBE4CDFAE4CCF9A88222B80044
:1001F000C1B90059BA002DEC8BF084CFCECDFCE50F
:10020000F0CBF97818EF2FFFEE33FEED33FDEC3332
:10021000FCEB33FB10D703994004EB99FB0FD8E5B7
:10022000E4F9FA227818EF2FFFEE33FEED33FDEC00
:1002300033FCC933C910D7059BE99A4007EC9BFCF6
:10024000E99AF90FD8E0E4C9FAE4CCFB2275F01082
:10025000EF2FFFEE33FEED33FDCC33CCC833C810A7
:10026000D7079BEC9AE899400AED9BFDEC9AFCE8D5
:1002700099F80FD5F0DAE4CDFBE4CCFAE4C8F92222
:10028000EB9FF5F0EA9E42F0E99D42F0EC6480C8F5
:1002900064809845F022EB9FF5F0EA9E42F0E99DDC
:1002A00042F0E89C45F022E8600FECC313FCED132C
:1002B000FDEE13FEEF13FFD8F122E8600FEFC3331A
:1002C000FFEE33FEED33FDEC33FCD8F122BB010D24
:1002D000E58229F582E5833AF58302032B5007E98D
:1002E0002582F802044DBBFE07E92582F802033798
:1002F000E58229F582E5833AF583020459BB0107BB
:1003000089828A830203B15005E9F8020486BBFEA4
:1003100005E9F80203BD22BB010DE58229F582E55E
:10032000833AF5830203B15007E92582F802048677
:10033000BBFE07E92582F80203BD22E0FCA3E0FD35
:10034000A3E0FEA3E0FF22E2FC08E2FD08E2FE08D3
:10035000E2FF22E0F8A3E0F9A3E0FAA3E0FB22E247
:10036000FB08E2F908E2FA08E2CBF822BB010789B0
:10037000828A830203435005E9F8020469BBFE0543
:10038000E9F802034F89828A830204767401FF33FD
:1003900095E0FEFDFCA3A3A3E0CF2FF0E58215823C
:1003A00070021583E0CE3EF0E5821582700215835F
:1003B000E0CD3DF0E582158270021583E0CC3CF083
:1003C00022ECF0A3EDF0A3EEF0A3EFF022ECF208A4
:1003D000EDF208EEF208EFF222A8828583F0D083D6
:1003E000D0821203E01203E01203E01203E0E47390
:1003F000E493A3C583C5F0C583C8C582C8F0A3C56F
:1004000083C5F0C583C8C582C822D083D082E49357
:10041000F208740193F208740293F208740393F2E1
:10042000740473A42582F582E5F03583F58322FAFE
:10043000E6FB0808E6F925F0F618E6CA3AF622E0E7
:10044000FBA3E0FAA3E0F922EBF0A3EAF0A3E9F0C2
:1004500022E493FB740193FA740293F922E6FC08F8
:10046000E6FD08E6FE08E6FF22E493FC740193FD36
:10047000740293FE740393FF22E6FB08E6F908E694
:10048000FA08E6CBF822E493F8740193F974029326
:10049000FA740393FB22ECF608EDF608EEF608EF8B
:1004A000F622900271EFF0120EE2120F5C9000BE85
:1004B000120DE9FD122E1ED3EF94C8EE94004008F1
:1004C0009002727401F08014D3EF9464EE94009063
:1004D000027240057402F080037403F0900271E030
:1004E00075F004A424CEF9740035F0FA7B01120DE6
:1004F000C2900272E0900283F01226D7900271E05F
:10050000120EE2EEF0A3EFF0ED75F004A4243FF933
:10051000740135F0FA7B01900271120DC2900283D2
:100520007406F01226D7900271E090012F120EE6A9
:10053000EEF0A3EFF09002741203C900000000E493
:10054000900272F090027412032BC004C005C00622
:10055000C007900271E0FD75F0149000DE120413E4
:10056000C083C082900272E0D082D083120EE61265
:100570000F5C9000C6120DE9FD122E1EAB07AA06F5
:10058000E4F9F8D007D006D005D004120138900263
:10059000741203B1900272E004F0E0C3940A40A424
:1005A00090027412032B900271120E6B1203B19021
:1005B000023AE07002A3E0704190012EE075F00A6B
:1005C00084E5F0F0E4FF75F002EF9000C6120DE94B
:1005D000FD75F014EF9000DE120413C083C082900A
:1005E000012EE0D082D083120EE6ECF0A3EDF00FE6
:1005F000EFB404D290012EE004F0301F030206ADE8
:10060000900234E07002A3E060030206AD9002297C
:10061000E07002A3E060030206AD900271E06403A3
:1006200060030206AD9002781203C9FFFFFFFFE4EA
:10063000900273F0900272F0900272E0FFC3940493
:10064000503375F004EF90016112041312032B90E4
:100650000278120343D31202864012900272E0A382
:10066000F0120E6C12032B9002781203B1900272FA
:10067000E004F080C39001B6120E6B12032BE47BF2
:100680001E120F395037900273E09001B6F0A3E0CC
:10069000900137120DC69001B2120E65C006C00758
:1006A0009001B6E075F002900137120413120EC5E6
:1006B000D007D0061201459001B21203B19001B2E9
:1006C00012032B9001B6E09000BE120DE62FFFEC56
:1006D0003E90015FF0A3EFF09001B6E0A3F090022E
:1006E00071E0FF75F00290012F120DE9FDEF90010E
:1006F00037120F66ECF0A3EDF07A0179A1120E50DB
:100700007418F090015F120F0B7A01797112297B36
:100710007B017A0179717D18121E9FAF41AE40AD09
:100720003FAC3E9001A20203B1E490028AF0EF7068
:10073000030208BF12003E9001AE1203C900000080
:1007400000E490028BF09002901203C900000000B8
:1007500090028BE0FF1229061218E590028C12031A
:10076000B1E4900289F090028C12032B90028BE08E
:1007700075F00C900079120413C083C08290028936
:10078000E0D082D08375F0041204131203B1121862
:10079000FAE0B403D1785790028C1218D490028CEE
:1007A0001203B190028BE0FF9000BE121849900036
:1007B000C612184890012F12184875F002EF9001E8
:1007C0003712184C75F004EF9000CE120413120388
:1007D000C9009C400090028BE0FB75F00490013F43
:1007E0001204131203C9009C400012188A75F00409
:1007F000EB90014F1204131203B1E4900289F090C0
:100800000289E0FFC3940A501590028BE075F01442
:100810009000DE1204131218481218FA80E19002B8
:100820009012034312188A1201389002901203B1F9
:1008300090028BE004F0C39404500302074090013F
:100840005F12184F90028AE075F002900171121841
:100850004C9001AE12034390015FE0FEA3E0FFE481
:10086000FCFD1201389001AE1203B190028AE0043F
:10087000F0C3941850030207311219049001A21218
:1008800019019001A612190178061202AA9001AA74
:100890001203B1E49001B6F0A3F0A3F09001B212FC
:1008A00003C900000000E4900289F0900289E0FF93
:1008B000C39405500F75F002EF9001BB12184C1253
:1008C00018FA80E79001C612184FE49002BEF0902B
:1008D00001A212188D90006A1203B19000701203E9
:1008E000C900000000E4900076F0A3F078147427AB
:1008F000F2087410F278127427F2087410F2E47897
:1009000016F208F290020BF0A3F09001B912184F02
:10091000E49001C8F0A3F0A312184FA31203C9007A
:1009200009C4009001D012184FA31203C90009C4D2
:10093000009001D6740AF09001E612184F90020759
:100940001203C9000000009001E412184F9001E862
:100950001203C900000000E4900289F0900289E0CF
:10096000FB75F0049001EC1204131203C90000009F
:100970000075F002EB9001D712184C1218FAE0B48F
:1009800006DAE490023CF0A3F0A3F0A3F090024F4B
:10099000F0A3F0A3F0A3F0900205F0A3F0229002E0
:1009A00068EEF0A3EFF0A3ECF0ED120E754012909C
:1009B000026AE0FFA3E090026FCFF0A3EFF0020B1A
:1009C0007690005CE090026C120B7F900273120E26
:1009D00028120B7F900271EEF0A3EFF09001E3E09C
:1009E00090026C120DE2120BBE900277120E2812CA
:1009F0000DE2120BBE900275EEF0A3EFF090020430
:100A0000E090026C120DFF9002811203B1120E2DC4
:100A1000120DFF90027D1203B1900277E0FFA3E078
:100A2000900257CFF0A3EFF0900275E0FFA3E090A3
:100A30000259CFF0A3EFF0900273E0FFA3E0900221
:100A40005BCFF0A3EFF0900271E0FFA3E090025DB6
:100A5000CFF0A3EFF090026A120DCCC006C0079051
:100A600001E4120EC5D007D006120145900279129A
:100A700003B1D37817E294AC18E2940D50099002B8
:100A80000EE06003020B4D900234E07002A3E060C0
:100A900003020B4D900229E07002A3E06003020BF9
:100AA0004DD390024CE0940090024BE0940040053E
:100AB00090026D800A900205E090026DB401087406
:100AC00003F0A314F080067401F0E4A3F075F0962F
:100AD000120E3D4003020B2090026DE0FD75F07890
:100AE000120E415006ED120ED0406990026EE024C5
:100AF00008FFE433FEC3900274E09F900273E09E0F
:100B00004014120E5C9001E81203B17F0D122BBD50
:100B1000900236020B3DD3900237E09400900236EB
:100B2000E094004003020B4475F078120E3D400B38
:100B3000120F6C90027D120B9C801290026DE012DD
:100B40000ED04019120F6C900281120B9CEEF0A394
:100B5000EFF08009120E5C9001E81203B190026A76
:100B6000120DCC9001E81203431201451225D290D8
:100B7000026FEEF0A3EFF0A3E0FEA3E0FFA3E0FC22
:100B8000A3E0FD121DEA90026FE0FEA3E0FF22F059
:100B900025E02450F582E43400F583E0FCA3E0FD79
:100BA000900268E0FEA3E0FF122E1E221203431201
:100BB00001459001E81203B17F0C122BBD90023465
:100BC000EEF0A3EFF07F17122BBD90025122FD90A3
:100BD000026AE0FEA3E0FF122E1E22900213E475CB
:100BE000F0011200BDD3900218E09400900217E0CB
:100BF00094004003122CFBD390021AE09400900260
:100C000019E094004003122CFBD390021CE09400E6
:100C100090021BE094004003122CFBD3900222E0D0
:100C20009400900221E09400400F122CFB900221CE
:100C3000E07002A3E07002D210D3900220E0940092
:100C400090021FE094004003122CFBD390021EE0A0
:100C5000940090021DE094004003122CFB90020DC2
:100C6000E030E011E4900223F0A3F0A3F0A3F0A39E
:100C7000F0A3F08042D3900224E09400900223E09D
:100C80009400401A122CFB900223E07002A3E07043
:100C90000D7F0A122BBD900227EEF0A3EFF0D39048
:100CA0000228E09400900227E09400400A90022578
:100CB000E475F0011200BDD390022CE09400900284
:100CC0002BE094004003122CFBD3900235E09400FB
:100CD000900234E094004003122CFBD3900237E0E2
:100CE0009400900236E094004003122CFBD3900253
:100CF00039E09400900238E094004003122CFBD3BA
:100D000090023BE0940090023AE094004005122CDF
:100D1000FB800D7F0F122BBD90023AEEF0A3EFF097
:100D2000D390023DE0940090023CE0940040031216
:100D30002CFBD390023FE0940090023EE0940040F0
:100D400003122CFBD3900241E09400900240E09407
:100D5000004003122CFBD390024CE0940090024B15
:100D6000E094004003122CFBD390024AE0940090E0
:100D70000249E094004003122CFBD390024EE09411
:100D80000090024DE094004003122CFBD3900250DF
:100D9000E0940090024FE094004003122CFBD390AB
:100DA0000252E09400900251E094004003122CFBA8
:100DB000D390022AE09400900229E09400400312AC
:100DC0002CFB2274FF90026AFEFDFC120343D30247
:100DD0000270E09000BE75F002120413E0FEA3E082
:100DE000FFE4FCFD22E47FE87E03FDFC12034302E6
:100DF0000153F09001D775F002120413E0FCA3E058
:100E00002290005CE0245DF582E43400F58322F05A
:100E100075F0049001EC1204131203439001E812E0
:100E2000032B020145900267E075F00CA42479F9C8
:100E3000740035F0FA7B0122EEF0A3EFF090026C23
:100E4000E02403F0E075F00684AFF0EF2290026D2D
:100E5000E0A4FFC3900276E09F900275E095F02237
:100E60007B0190027F120438900282229001E812E6
:100E7000032B900279120343020138E0900161755F
:100E8000F004020413A3F0D390021AE0940090023D
:100E900019E094002290028B1203B1900283120396
:100EA0004390028B12032B0201DE90027F12042F6B
:100EB00002005EFFE4FCFDFE12034F1201537807AF
:100EC00002029724FFFFEE34FFFE3395E0FDFC1293
:100ED000035C020153E0FEA3E0FBAA06E4F9F8225A
:100EE00075F0C8A4FFC3900278E09F900277E09568
:100EF000F022FD9000C675F00202041312042F7454
:100F00000102007775F004A4F58285F08322900237
:100F1000711204389002747403F022E0FFA3E09091
:100F20000283CFF0A3EFF0221202978F278E268D37
:100F3000258C24221202978F278E268D258C242221
:100F40007857E6FFE4FCFDFE22FAF9F8C3020286B8
:100F5000E0FF74017E00A80708221203B190028707
:100F600002032B1203379002750203B1E0FEA3E0E7
:100F7000FF75F002ED2275F0020204139001E80201
:100F8000032B90020DE0900212F0121C7D5005120E
:100F90001C8B4007E490020DF08008122328900279
:100FA0000DEFF090020DE0FF1229B4EF700D121C4E
:100FB0007D5008121C8B50030210F390020EE0705B
:100FC00041900063F0A3F090024FF0A3F0C21EC264
:100FD000121220B2122D5C7F01122BBD121D0F4088
:100FE0001B30140DEF7803CEC313CE13D8F9FF8056
:100FF0000BEF7806CEC313CE13D8F9FF1213D3022A
:1010000010A9900063E07002A3E0701390006312D7
:101010001CC47F16122BBD90024FEEF0A3EFF09090
:10102000024FE07004A3E064017030900063E0FEC2
:10103000A3E0FF2496FDE43EFC7808E2FA08E2FB18
:10104000D39DEA9C4004D21E8011EF246AFFEE3447
:10105000FFFEC3EB9FEA9E5002D212301E37121CD5
:10106000E59DEE9C40531210F4504E7F13122BBDA1
:10107000EF7802CEC313CE13D8F9121D287F1412B5
:101080002BBD7C007D031200AB90024BEEF0A3EF72
:10109000F0C21E8024301221121CE59DEE9C4019E6
:1010A0001210F450147F13122BBDEF7802CEC3132D
:1010B000CE13D8F9121D28C212900249E07004A381
:1010C000E06401700312286E90020EE0FFA3E06F4F
:1010D00060311228BA900210E030E421D3121C8B48
:1010E0005005121C7E4009E4900223F0A3F0800D0D
:1010F0007F06122BBD900223EEF0A3EFF090020EBC
:10110000E0A3F022122E1EAC06AD0790020BE0C346
:1011100013FEA3E013C39DEE9C227B017A0179CCE0
:10112000E4FCFD9002767405F01226829001CAEE6E
:10113000F0EF120E7540030211D23000030211D2FB
:101140009001B9120DCCC006C0079001CA120EC59D
:10115000D007D00612014590026A1203B1E47FFA6B
:10116000120DB5400690026E0211C0E47FB4120D5C
:10117000B5400990026E7405F00211C3E47F641259
:101180000DB54002802274FF7FF1FEFDFC90026AE3
:10119000120343C3120270400890026E740AF0807A
:1011A000327F9C120DB3400890026E7408F08023C9
:1011B0007F4C120DB3400890026E7406F0801474D8
:1011C000FF7F06120DB590026E40057404F0800397
:1011D0007401F0201203301E0F90026EE02402F022
:1011E000800690026E7405F090026EE09001D6F0D9
:1011F0009001B9120DCC90026EE0900276F07B0166
:101200007A0179D2122682900268EEF0A3EFF09074
:101210000238E07002A3E0600302128D7F0E122BF1
:10122000BDEEC313FEEF13FF900238EEF0A3EFF014
:101230007B017A00795C120E527406F07808E2FFA6
:1012400008E2A3CFF0A3EFF07A00795012297B7B5C
:10125000017A0179E3120E527406F0900268120FBF
:101260000B7A0179D712297B7B017A0279049002EB
:10127000721204389002757406F0120F6C900276A8
:101280001203B17A0179EC122A247816E2FF08E2FF
:1012900090020BCFF0A3EFF0120DF1E4F090026892
:1012A000E0FEA3E0FF22E4900268F07B017A00797F
:1012B0003D120EFE7800120F537A0079311229ED9B
:1012C0007B017A0079311213B77B32120F39500645
:1012D0009002687401F09002BEE0900267F0E49022
:1012E0000269F0120E15C002C0017A0079A9120E2F
:1012F000FE780A120F53D001D0021229ED120E15FA
:101300001213B77BF47A01120F3A500690026974F7
:1013100001F0300045900268E07004A3E0603BD229
:101320001A7B017A0079311213857856120F3290A8
:10133000026A120DDC780712029778041203BD12BC
:101340000E15121385120F3090026A120DDC780709
:10135000120297780E1203BD8038C21A7856E678CA
:1013600000120EA378041203BD7804120337EC4D6B
:101370004E4F70037F02227857E6780A120EA37848
:101380000E1203BD780E120337EC4D4E4F70037FE3
:1013900002227F04227D03121935C3E5419539FFEE
:1013A000E5409538FEE53F9537FDE53E9536FCC3B3
:1013B000EF953DFFEE953CFEED953BFDEC953AFC3F
:1013C00090026A1203B1227D03121935C3E53995E3
:1013D0003DFFE538953CFEE537953BFDE536953A12
:1013E000FCE422900267EEF0A3EFF0E4A3F0D390C8
:1013F0000224E09400900223E094004006121CC1F5
:101400000214CA30004C121CD040089001C8ECF005
:10141000A3EDF0121C7D5005121C8B4003021459E1
:10142000121C985027780890004A121CB61214FF1C
:10143000400F900267E013FEA3E013D3121CAA50E2
:101440000BA215301401B340030214D0121CF60293
:1014500014CA121C7D5005121C8B4013121CD04064
:10146000089001C8ECF0A3EDF0121CF60214D09025
:101470000070120343C0007812E2FE08E2FFE4FCB1
:10148000FDD0001201389000701203B1121C985068
:101490002E7808E2FE08E2FF90004AE0FCA3E0FD9F
:1014A0001214FF501AA215301401B34012900227F3
:1014B000121CEF900226E09F900225E09E402190B2
:1014C0000076E0FEA3E0FFFBAA06E4F9F8900070C6
:1014D00012032B1201DEEE121CFE9002697401F061
:1014E000900269E06028E4900076F0A3F09000702C
:1014F0001203C900000000E49001C8F0A3F0121C20
:10150000C1E490022EF0A3F0900225121C75221265
:101510002E1ED3EF9414EE9400229002711203B1A8
:10152000120E77405E90027112032B90003E120360
:10153000B1E47F50FEFDFC90003E120DDC780A12F3
:1015400002979000421203B1E490027AF090027A7E
:10155000E0FFC39404502C75F00CEF90008112044E
:1015600013120343C000120F30D000120EAB9002D2
:101570007AE09000AA120E6F1203B190027AE00492
:10158000F080CA9000BA1203C90000000090004227
:1015900012034390003E120E0FC004C005C006C0E7
:1015A00007900042120343900271120E0F900283C3
:1015B0001203B19002871203C900010000D007D0C6
:1015C00006D005D0041220089000461203B1900006
:1015D000BA120343900275120E0FC004C005C00674
:1015E000C0079002831203C9000100009000461258
:1015F000032B9002871203B1D007D006D005D00488
:1016000012200890027B1203B19000BA12032BAB98
:1016100007AA0690027B12032BEF2BFBEE3AFA90FF
:101620000279E0F975F00490014F12041312032BB4
:10163000C3EB9FFFEA9EFEE99000BE120F66EEF03C
:10164000A3EFF022439F04E453C6DFE5C600B5C60E
:10165000F375830075820775FD0DE4E5FEF4FF75F3
:10166000830075820675FD0DE4E5FEB50704F59E61
:101670008003759E0078100000D8FC53C6E043C676
:101680000843C680759607759709758300758204AF
:1016900075FD0DE5FD0404F58F75830075820375F6
:1016A000FD0DE4E5FEF4FF75830075820275FD0D06
:1016B000E4E5FEB50704F595800375958375BE0EC8
:1016C0005392FE9001007F007E02E4F0A3DFFCDE77
:1016D000FA78007F00E4F208DFFC78FFE4F6D8FD3A
:1016E0007581C002171402000002215CE493A3F884
:1016F000E493A34003F68001F208DFF48029E49329
:10170000A3F85407240CC8C333C4540F4420C8831F
:101710004004F456800146F6DFE4800B0102040821
:1017200010204080902E08E47E019360BCA3FF54FB
:101730003F30E509541FFEE493A360010ECF54C06F
:1017400025E060A840B8E493A3FAE493A3F8E493F7
:10175000A3C8C582C8CAC583CAF0A3C8C582C8CAFF
:10176000C583CADFE9DEE780BEE490028AF0EF605D
:101770007B12003E9000291203C900000000122CC9
:101780003F90002912250F1201389000291203B151
:1017900090028AE004F0C3941840E3E0FFFBE4FA0F
:1017A000F9F890002912032B1201DE90028B12032C
:1017B000B1785690028B1218D478041203BDE490CD
:1017C0000289F0900289E0FBC39403501F90028BC2
:1017D00012032BEB25E025E02431F582E43400F5FB
:1017E000831203B1900289E004F080D778041203D9
:1017F00037EF24D0FFEE348A121897900025120399
:10180000B190004A7475F0A37430F0A31203C900BC
:101810001D4C00E4900289F0900289E0FFC3940619
:101820005027EF25E02450F582E43400F5837475E9
:10183000F0A37430F0745D2FF582E43400F583E496
:10184000F0900289E004F080CFE490005CF078082A
:101850007475F2087430F222EF75F00212041374FA
:1018600027F0A37410F0221201539002671203B103
:1018700090024512034390026712032B1201DE7897
:10188000081202979002671203B17F0FE4FEFDFC7D
:10189000900267120343D302028690028C12032B3C
:1018A000EF24F0FFEE34D8FEED34FFFDEC34FFFC06
:1018B0002290001BE0902EB2932290026712032B1D
:1018C000C3EF940FFFEE9400FEED9400FDEC940046
:1018D000FC9002670203B175A92075AC0375AD4099
:1018E00075AE4022E6FFE4FCFDFE120343120153F5
:1018F0007807020297122C3F90001BE0FF02251789
:10190000E5BAF053BA0F43BA1022900289E004F00E
:10191000221203B19001AE02032BE0F5B3A3E0F570
:10192000B2A3E0F5B12290001AE0902EB293F5AB8D
:101930002290026C12032B9002682290026C120318
:101940002B9002682290026E120438900271EDF022
:10195000E4F528F527F526F52574FFF52CF52BF58C
:101960002AF529E4F530F52FF52EF52DF524900212
:1019700071E0FFE524C39F507090026E12042F7532
:10198000F004E524A4F58285F0831202BD8F348E25
:10199000338D328C31AF28AE27AD26AC25D3122D36
:1019A00014400C853428853327853226853125AFB0
:1019B0002CAE2BAD2AAC29C3122D14500C85342C1F
:1019C00085332B85322A853129E5302534FFE52FF3
:1019D0003533FEE52E3532FDE52D35318F308E2F36
:1019E0008D2EF52D052402195E8528398527388529
:1019F0002637852536852C3D852B3C852A3B852938
:101A00003A853041852F40852E3F852D3E900271CD
:101A1000AF30AE2FAD2EAC2D122D02227B077A07F0
:101A20009002681203C90000000012003EEB601A29
:101A300074017E00A803088005C333CE33CED8F9E5
:101A4000FFADACEF5D70031B80E3EA601A74017EAA
:101A500000A802088005C333CE33CED8F9FFADAE5F
:101A6000EF5D70031A80E3AF037401A807088002DA
:101A7000C333D8FCF5AC7401A802088002C333D884
:101A8000FCFFF5AD8FAE53AACF43AA0490026712B4
:101A900018F01218A142AB1218E590026C1203B1B3
:101AA00012192B120343C3120286500612192B126D
:101AB00003B1900268120343C00090026812032B26
:101AC0007803120297D0001201389002681203B115
:101AD00090026812032B9000651203B143AA3053A1
:101AE000AAFB900267E0F5BA1218A1F452AB1218E3
:101AF000CA227B077A079002681203C9000000001F
:101B000012003EEB601A74017E00A803088005C332
:101B100033CE33CED8F9FFADACEF5D70031B80E35D
:101B2000EA601A74017E00A802088005C333CE3330
:101B3000CED8F9FFADAEEF5D70031A80E3AF03744A
:101B400001A807088002C333D8FCF5AC7401A802D1
:101B5000088002C333D8FCFFF5AD8FAE53AACF90F7
:101B600002671218F0122C3F12251290026C120319
:101B7000B1121921120343C3120286500612192111
:101B80001203B1900268120343C00090026812036E
:101B90002B7803120297D0001201389002681203CA
:101BA000B190026812032B9000201203B143AA30B7
:101BB000900267E0F5BA1218CA22C0E0C0F0C083F4
:101BC000C082C0D075D008C2CFD21130CD03021C64
:101BD0006620CC6030CB2285CE4FE54FC394804049
:101BE0001675F003E54F9022B11204131204418BD5
:101BF0004C8A4D894E8063807385CE35E54F7022C7
:101C0000E535B410099002BFE0F452808066E535F6
:101C1000B420089002BFE042808059853546054FC8
:101C20008052E54FC3940550077446254FF8A635FA
:101C3000054F8040E54FB4C0057546C08036E54F7E
:101C4000B4C2107853E630E2057546A0802675468A
:101C5000A18021E54FC394804010784CE475F001D9
:101C600012041F12005EF5CE800A054FE54B254F8A
:101C7000F8E6F5CED210D0D0D082D083D0F0D0E02C
:101C800032F0A3F0A3F0A3F0A3F0A3F022D39002CC
:101C90001AE09400900219E094002290021CE09453
:101CA0000090021BE0940022900076E475F001128F
:101CB00000BD900267E0FEA3E0C3FF900077E09FC5
:101CC000900076E09E22E2FE08E2FFE0FCA3E0FD49
:101CD0002290004A7808E2FF08E2CFF0A3EFF0225A
:101CE0009001C8E0FEA3E0FF9001B9E0FCA3E0FD95
:101CF000D39FEC9E227816E2FC08E2FD90020BE0F6
:101D0000FEA3E0FFD3229001C8E0FFA3E0CF781448
:101D1000F208EFF222FEC37819E29F18E29E22D366
:101D200090021EE0940090021DE0940022902EBBD1
:101D3000E493FE740193FF22FF900249EEF0A3EFBB
:101D4000F02212003E9002681218F078001203FA96
:101D5000000000009002677405F075ABFF122C3F85
:101D6000780012034F12251212013878001203BDB9
:101D7000E4F5AB122C3F7800120337C004C005C055
:101D800006C007122512A804A905AA06AB07D007AA
:101D9000D006D005D00412014578001203BD900290
:101DA00067E014F0E070B3780012034F7F007E6AA2
:101DB0007D187C001201DE9002691203B190026965
:101DC00012032B9002711203B17F967E007D007C7E
:101DD00000122A91E47B32FAF9F8C3120286500607
:101DE00078567696800A90026912032B7856A607D9
:101DF000900268E0F5BA12191622900285ECF0A361
:101E0000EDF0E4FD900205E07034C3EF940AEE9427
:101E1000004006120DF17401F0120DF1E07002C2E3
:101E20001DE4FF745D2F120DF7E07004C21D8013D6
:101E30000DEDB40602D21D0FEFB406E78005120DBA
:101E4000F1E4F090023EE07002A3E0704F90023C9B
:101E5000E07002A3E07045900205E0701B301D1891
:101E60007F10122BBD90023CEEF0A3EFF090020524
:101E70007401F0D21BC21D22900205E0B4012FC3F1
:101E8000900286E0940A900285E0940050207F1131
:101E9000122BBD90023EEEF0A3EFF02290023EE046
:101EA0007004A3E064017006900205F0D21C229039
:101EB000027C12043890027FEDF0E4F525F52674DB
:101EC000FFF527F528E4F52EF52DF52CF52BF52457
:101ED00090027FE0FFE524C39F505990027C1204DA
:101EE0002F75F002E524A4F58285F0831200D3F566
:101EF0002A85F029D39526E52995254006852925AB
:101F0000852A26C3E52A9528E5299527500685299F
:101F100027852A28E4FCFDE52E252AFFE52D352915
:101F2000FEED352CFDEC352B8F2E8E2D8D2CF52BCB
:101F30000524809CE4852639852538F537F53685D6
:101F4000283D85273CF53BF53A852E41852D40857A
:101F50002C3F852B3E90027FAF2EAE2DAD2CAC2BAF
:101F6000122D022220CA03022007E5467003022038
:101F700007E4FF74462FF8E6FE74682FF582E43418
:101F800002F583EEF0E4F60FEFB405E7900268E0A7
:101F9000FF54F0FEEF540F900267F0AF06EF24A05D
:101FA000601B24F0601F24D0602F24E0605D24E0DB
:101FB000605C249070617853E6440180057853E6B4
:101FC00054FEF68042E4FF122DC37855EFF67851A7
:101FD000BFFF0376052276FF22900267E0FD7012B4
:101FE0007853E630E23154FBF6900242E04408F0C8
:101FF0008015ED640170207853E620E21A4404F65F
:10200000900242E04404F0751C022202286EE49023
:102010000219F0A3F0D21F2290027F1203B1E47BD9
:10202000E87A03F9F890027F120E9490028F12035F
:10203000B190028F120DD5A804A905AA06AB07908E
:10204000027F120E0F900293120F4A90028F120D10
:10205000DC120E859002971203B190028312032BBB
:10206000900297120DDCA804A905AA06AB079002FE
:102070008B120E0F90029B120F4A900293120DDCEE
:1020800090028B1203B190028B120343C000C00177
:10209000C002C00390029B120DD5D003D002D00124
:1020A000D000120138120E8590029F1203B1E47F16
:1020B000E87E03FDFC900297120DDC90029F120E49
:1020C0006522900223E07002A3E0600302213D300C
:1020D000003B78149001B9121CB6C39FEC9E502BA4
:1020E000C3E29DFF18E29C900267F0FCA3EFF0FDB5
:1020F000902EBBE493C313FE74019313FFD3ED9FA3
:10210000EC9E404012213E4044803480377814E2F7
:10211000FE08E2FF7812E2FC08E2FDC39FEC9E504D
:1021200025C37815E29DFF18E29CFE900267F0A39C
:10213000EFF0D39432EE9400400A12213E400E128A
:10214000286E80028000E490022EF0A3F0227F042B
:10215000122BBDEEC313FEEF13FF90022EE475F0B9
:10216000011200BDFCD3E5F09FEC9E22122BEC1275
:102170002ED9122EBF122820122D3E122AC4122E42
:102180005DD2AF751C01E51C24FE601E1460361480
:10219000605314605D24047064122EA2122E341257
:1021A0002E4A122DDA7F04122C65D2D8E490021345
:1021B000F0A3F09002A3F0A3F0122A5BE51D70FCDF
:1021C000122D788033D2D8E51D70FC1212968F1C28
:1021D00012229C9002BEE0900078F09002BE04F0C3
:1021E000122D78801B122CB18F1C122202120BCBE5
:1021F000800E120F72122C17751C038003751C01C0
:10220000122EDFE51C64047003022176121F5402B3
:1022100021767F80902EBBE493FC740193FD122EF7
:10222000927F82902EBB74019324CEFDE49334FF01
:10223000FC122E927F847D647C00122E927F8A3065
:1022400018187D397C30122E927F887D397C3012AF
:102250002E927F8C7D397C30801F7812E2FC08E260
:10226000FD122E927F887816E2FC08E2FD122E9273
:102270007F8C7814E2FC08E2FD122E927F9AC00750
:10228000900253122E79D007122E927F98C0079099
:102290000257122E79D007122E927F9CC00790020F
:1022A0005B122E79D007122E9202262A30111512B7
:1022B0002ECC745AF07F09122BBD90021FEEF0A3B2
:1022C000EFF0C211A21492153002028020D39002C6
:1022D0001AE09400900219E094005011900220E05E
:1022E000940090021FE09400500320100A122ECC9C
:1022F000745AF0C2148008122ECC7403F0D2143039
:102300001408E4FF122B5B122D1FA215301401B329
:10231000501790020EE06004D216800D7F02122B3F
:10232000BD90021DEEF0A3EFF090020EE0700830B9
:10233000160312286EC21622E4900267F090020E75
:10234000E07046121D0F40379001C6E0FEA3E0FF8B
:102350009001BAE09FFF9001B9E09EFEE4FCFD9081
:1023600002681203B1121D1D7C007D031200ABE454
:10237000FD900268120343D3120270403B80321278
:102380001D1D121D0640318028301613902EBB747F
:10239000019325E0FFE49333121D05401B8012904A
:1023A0002EBB74019324CEFFE49334FF121D05402D
:1023B00007900267E04401F0900267E0FF9002BDE1
:1023C000F022780E12033790026C1203B1780412D7
:1023D00003371229419001AE1203B190006A120333
:1023E0002B9001AE120343C312028650037F0222D8
:1023F0009001AE12032B1227809001B9EEF0A3EFEB
:10240000F09001D0E0FFA3E09001E4CFF0A3EFF063
:102410009001B9E0FEA3E0FF12110A9001D0EEF0A6
:10242000FCA3EFF0FD7808E2FE08E2FF12098E90AF
:1024300001E6EEF0A3EFF07812EEF208EFF27F057E
:1024400022010079FE000E0100BE0100C60101B2AA
:1024500001015F0101AE0101B90101CA0101D00111
:1024600001E6FE0012FE0014FE0016FE0018FE003B
:1024700000FE000401003E010042010046FE00088B
:1024800001025701025F01026701026F01023A0176
:1024900000DE01016101025301025B0101B601008E
:1024A000CE01016101020501023C01023E01021957
:1024B000900242E030E1091224EF2018031224FFB9
:1024C000900242E054FDF0900210E0540FFF6027AC
:1024D000900242E0FE30E206785FA6078010EE3000
:1024E000E31C900210E0540FC454F0785FF62018FB
:1024F000061224EF1224FF900242E054F3F022C2AD
:10250000107F07122BBD900221EEF0A3EFF022C244
:10251000927F217E007D007C00122DABD292221290
:10252000034390001AE0FFEFC39404500553B9EF42
:10253000800343B910EF6003B4040B85B71985B667
:102540001A85B51B803AEF64016004EFB4050B8572
:10255000EB1985EA1A85E91B8026EF64026004EF17
:10256000B4060B85F31985F21A85F11B8012EF640E
:10257000036004EFB4070985FB1985FA1A85F91B76
:10258000AF1BAE1AAD19AC1822C0E0C0F0C083C0BA
:1025900082C0D075D01053B9FDE51D6401701F12C3
:1025A000251278001203BD7F01122CD69002BEE0E6
:1025B000FF12290643B901D2D8751D058019E51D02
:1025C000B405141218E8780A1203BD1218A1F452C7
:1025D000AB53AAFB751D00D0D0D082D083D0F0D0F1
:1025E000E0329002851203B1E47FFF7EFFFDFC9094
:1025F0000285120DBB400C9002851203C90000FF3A
:10260000FF8030E4FF900285120DB8502612286E2C
:10261000301E167F14122BBD7C007D031200AB9080
:10262000024BEEF0A3EFF0C21E9002851203C90028
:1026300000271090028512032B22E47F557E06FDB1
:10264000FC780012034F12185740031218AA7FFF9C
:1026500012187C400678C076FF800A900267120349
:102660002B78C0A607E47F687E10FDFC90008112E5
:10267000034312185740031218AAE47FFF12187D73
:102680004005788E76FF2290026712032B788EA683
:1026900007229002721203B190026F120438900266
:1026A0007212032B78061202AA9002721203B190E2
:1026B0000276120F408005C333CE33CED8F9120E06
:1026C000B3900272120E65900276E0F9F8120F18BC
:1026D00090026F12042F1202EDAF27AE26AD25AC8B
:1026E000247806120F182290027F1203B190027C08
:1026F00012043890027F12032B780A1202AA900269
:102700007F1203B1900283120F408005C333CE3392
:10271000CED8F9120EB390027F120E65900283E0BC
:10272000F9F8120F2490027C12042F1202EDAF2749
:10273000AE26AD25AC24780A120F24229002451251
:1027400003C900000000E4FF12000E75ABFF122C5D
:102750003F90024512250F1201389002451203B135
:10276000E4F5AB122C3F90024512032BC004C005C8
:10277000C006C007122512A804A905AA06AB07D0F7
:1027800007D006D005D0041201459002450203B1DE
:1027900090006A1203431201451225D2900268EE9E
:1027A000F0A3EFF07A0179C5120E507405F0A3EE94
:1027B000F0A3EFF07A0179BB12297BA21530140146
:1027C000B350157B017A0179BB7D05121E9F9001E4
:1027D000C6E544F0A3E545F0900268E0FEA3E0FF03
:1027E00022C0E0C0F0C083C082C0D075D000C0005D
:1027F000C28D758C32758AEB9002A3E475F00112DC
:1028000000BDC39002A4E094149002A3E0940040A1
:1028100012900213A3E0785AF6900213E4F0A3F0AA
:10282000120004D000D0D0D082D083D0F0D0E032DB
:10283000E4FF122DC37855EFF67851BFFF047605FB
:10284000800276FFE4785FF67852763308F6902EB1
:10285000BB93FE740193FF7880A60608A607EF24B9
:10286000CE7883F6EE34FF18F67884760008766426
:10287000E4122E6FF6122E6F7650754B5022E51D26
:1028800070FCE4FF121759E4FF120719E490020EDE
:10289000F0900210F090022DF0900223121C719023
:1028A000022BF0A3F0900230121C71121C749000E5
:1028B00063F0A3F0A208300001B3500D7F03122B88
:1028C000BD90021BEEF0A3EFF022A907E4FEFD90FD
:1028D0000242E0FC703FEF5401FB90020FE0540114
:1028E0006B600D30020A201807EC4402900242F09F
:1028F00090020FE030E006EE4410FE8004EE44014A
:10290000FEE930E006ED4401FD8004ED4410FDEEEB
:102910005D900210F0229002BEE0D394034002E4E6
:10292000F0EF14601214601714601D24037021125C
:1029300018A1F452AB800D1218A1F452AB800E1204
:1029400018A142AB53AAFB221218A142AB43AA041E
:10295000229002681203B1900078E0900270F0902B
:10296000026C12032B9002751203B1900270E0907A
:102970000279F090026812032B12150A900270E09F
:10298000FF1204929001A212032B22900283E0FE18
:10299000A3E0FFC003C002C001120E9A75F002123C
:1029A0000EF7D001D002D003EE8FF012010B90028F
:1029B0007F120EEC120E9AFF900282E0B50704E43B
:1029C000120099227E05EF5401FD90020EE05401A1
:1029D0006D6007EFF0E490022DF07853E630E008E8
:1029E00090020EE070027E0A90022DE004F0C39E79
:1029F00050037F002290022DEEF07F01229002759D
:102A000012032BC003C002C001900271120E9D126E
:102A10000EF4D001D002D003120307900271120EFF
:102A2000EC900271120E9DFF900274E0B50704E471
:102A30001200992290027612032BC003C002C0013B
:102A4000900272120E9D120EF4D001D002D0031229
:102A50000307900272120EEC900272120E9DFF900C
:102A60000275E0B50704E4120099227853E6F520D8
:102A7000A208300001B350147F03122BBD90021B3B
:102A8000EEF0A3EFF012286EA2009208A20A300224
:102A900001B35004A202920A30130512286EC21329
:102AA0002290026D1203B190027112032B90026DFD
:102AB000120343D3120286400B900271120343901B
:102AC000026D800990026D12034390027112032B74
:102AD0001201452243F80875CD4053CC7F43CC40CA
:102AE00043CC2043CC1043CC0453CCFD43CB024316
:102AF000CB0153CBBFD2EB53E5FC43E30243F503D9
:102B000043900343ED032290002512032BAB07AA49
:102B1000067804120337C3EF9BFFEE9AFE7B017A1F
:102B200000794CE4FCFD9002767408F0122682785D
:102B300008EEF208EFF27F05227814E2FE08E2FFC9
:102B40007812E2FC08E2FDD39FEC9E400BED9F78EB
:102B500017F2EC9E18F28006E47816F208F2781666
:102B6000E2FF08E208CFF208EFF222E4F51D53B9C4
:102B7000FD53B9DF43CC02C2D9539FFD438760C2E6
:102B80008DEF700675BD0D75BC01122E8175BE0CE2
:102B9000D28C20C9034387030000000022000501F6
:102BA00008020503010401050606010701080A09D8
:102BB000010A010B030C050D0A0E010F01100A1189
:102BC0003C12011301143C1501163C17027D017CD7
:102BD00000EFC394185020EF25E0248EF582E434F2
:102BE0002BF583E493FF7E00900215E0FCA3E0FD4B
:102BF0001200ABAC06AD07AE04AF0522E4F5E3432B
:102C00009F107F03FEFDFC122DAB439F027F037ECE
:102C1000007D007C00122DAB539FEF75BE0EE4F5D6
:102C2000BFF5B975927622900211E0FF900210E094
:102C3000FE6F6014300204785FA606E4FF122BBD1D
:102C4000900229EEF0A3EFF0900210E0A3F02275BD
:102C5000BF0F0000000000000000000000000000A6
:102C600000000000D2D853B9FD43B901E5B930E105
:102C7000FBE4F5BF22EF6003D38001C3920A920206
:102C80007853A607900215E4F0A3745AF07F081257
:102C90002BBD900219EEF0A3EFF02290001AE09005
:102CA0002EB293FF900024F090001BE0902EB29380
:102CB000FE900069F0EF4E42D442F442E4F452DC5C
:102CC000229002677405F0122AF71223B29002676D
:102CD000EFF0BF0205D213E0FF22122B29122D9232
:102CE000900267E0FF2253BA0F43BA2075BBE61289
:102CF00018C7900069E0F5B4EF7009F5B375B2C379
:102D000075B1502290006612190A2274FFF5F00284
:102D100000BDE0FBE4FAF9F81201DE8F458E448D28
:102D2000438C4222AB34AA33A932A831020286E492
:102D3000900267F075BE0E439F027F03FEFDFC12FA
:102D40002DAB75BC02E4F5BFD2D953CCFD2243892B
:102D500001C28DD2A953B8FD120003900213F0A353
:102D6000F0758C32758AEBD28CD2AF227814E2FEE9
:102D700008E2FFD394F8EE942A5009C3EF9428EEAA
:102D80009423500312286E227F0112000E751D013C
:102D900075BF0F43B92053B9FD43BA0143B901D2FE
:102DA000D8227F767E107D017C00780412034FD3F9
:102DB0001202864003C21822D2182290026812031F
:102DC000B190026874FF12037EEC4D4E4F60030019
:102DD00080EF22E4FFF582F5837440FEE493F42F44
:102DE000FFA3EEB583F6227F0022E4900221F0A338
:102DF000F07F09122BBD90021FEEF0A3EFF0D2106E
:102E00002243D50453F5FB53E5FB43E30443ED04B0
:102E1000E4900242F0D2922241001A0441001B06C3
:102E200044001CFFFFFFFF04180000000000D3EF68
:102E30009DEE9C4007EF9DFFEE9CFE22C3ED9FFFA1
:102E4000EC9EFE22E4FF12000E121D32121AE27FE7
:102E50000112000E12175902272CE4FF122CD61271
:102E60002ED3121A0C7F01122CD6020719902EBDF8
:102E7000E493FF74019390006ECFF0A3EFF022086B
:102E8000F608F608F608F6082212032BAD07AC0682
:102E900022438901C28CC28F120003758CFB758A94
:102EA000ED2220C90CC2AFA807A60408A605D2AF20
:102EB000222275AA3B53BAF343BA0C43B92053B943
:102EC000BF2201020408102040801903E80064C2F8
:102ED000DA53D80F43D8D0D2D8D2D922900215E4F1
:102EE000F0A3227856E608F622122C8B022DF1026E
:102EF00024A0FFFFFFFFFFFFFFFFFFFFFFFFFFFF1C
:102F0000FFFFFFFFFFFFFFFFFFFFFFFFFFFFFFFFD1
:102F1000FFFFFFFFFFFFFFFFFFFFFFFFFFFFFFFFC1
:102F2000FFFFFFFFFFFFFFFFFFFFFFFFFFFFFFFFB1
:102F3000FFFFFFFFFFFFFFFFFFFFFFFFFFFFFFFFA1
:00000001FF
