:100000000110010037000000402E0000FF0000003A
:1000100002159FE49002A5F0A3F02202273753BAFD
:100020000F43BA3075BBFF121812900024E0F5B4EC
:10003000EF700AF5B375B26175B1A8800690002122
:1000400012186112186D53AAFB22FF02253753BA0A
:10005000FEE5B920E004E51D6005E5B930E1FBE40B
:10006000F5BF53B9FD53B9FEF51D22021B01BB01BB
:100070000689828A83E0225002E722BBFE02E32245
:1000800089828A83E49322BB010989828A83F8E00A
:1000900028F022500327F722BBFE05F8E328F322BD
:1000A0008A838982F8E4932822BB010689828A83A5
:1000B000F0225002F722BBFE01F322EF8DF0A4A83C
:1000C000F0CF8CF0A428CE8DF0A42EFE22C5F0F83F
:1000D000A3E028F0C5F0F8E582158270021583E0F0
:1000E00038F022BB0110E58229F582E5833AF583D9
:1000F000E0F5F0A3E0225009E92582F886F008E651
:1001000022BBFE0AE92582F8E2F5F008E222E58347
:100110002AF583E993F5F0A3E99322F8BB0111E5F1
:100120008229F582E5833AF583E8F0E5F0A3F02231
:100130005009E92582C8F608A6F022BBFE09E92588
:1001400082C8F2E5F008F222EF2BFFEE3AFEED391D
:10015000FDEC38FC22C3EF9BFFEE9AFEED99FDEC1F
:1001600098FC22E88FF0A4CC8BF0A42CFCE98EF054
:10017000A42CFC8AF0EDA42CFCEA8EF0A4CDA8F00F
:100180008BF0A42DCC3825F0FDE98FF0A42CCD35D3
:10019000F0FCEB8EF0A4FEA9F0EB8FF0A4CFC5F03D
:1001A0002ECD39FEE43CFCEAA42DCE35F0FDE43C36
:1001B000FC2275F008758200EF2FFFEE33FECD3381
:1001C000CDCC33CCC58233C5829BED9AEC99E582C8
:1001D00098400CF582EE9BFEED9AFDEC99FC0FD554
:1001E000F0D6E4CEFBE4CDFAE4CCF9A88222B80044
:1001F000C1B90059BA002DEC8BF084CFCECDFCE50F
:10020000F0CBF97818EF2FFFEE33FEED33FDEC3332
:10021000FCEB33FB10D703994004EB99FB0FD8E5B7
:10022000E4F9FA227818EF2FFFEE33FEED33FDEC00
:1002300033FCC933C910D7059BE99A4007EC9BFCF6
:10024000E99AF90FD8E0E4C9FAE4CCFB2275F01082
:10025000EF2FFFEE33FEED33FDCC33CCC833C810A7
:10026000D7079BEC9AE899400AED9BFDEC9AFCE8D5
:1002700099F80FD5F0DAE4CDFBE4CCFAE4C8F92222
:10028000EB9FF5F0EA9E42F0E99D42F0EC6480C8F5
:1002900064809845F022EB9FF5F0EA9E42F0E99DDC
:1002A00042F0E89C45F022E8600FECC313FCED132C
:1002B000FDEE13FEEF13FFD8F122E8600FEFC3331A
:1002C000FFEE33FEED33FDEC33FCD8F122BB010D24
:1002D000E58229F582E5833AF58302032B5007E98D
:1002E0002582F802044DBBFE07E92582F802033798
:1002F000E58229F582E5833AF583020459BB0107BB
:1003000089828A830203B15005E9F8020486BBFEA4
:1003100005E9F80203BD22BB010DE58229F582E55E
:10032000833AF5830203B15007E92582F802048677
:10033000BBFE07E92582F80203BD22E0FCA3E0FD35
:10034000A3E0FEA3E0FF22E2FC08E2FD08E2FE08D3
:10035000E2FF22E0F8A3E0F9A3E0FAA3E0FB22E247
:10036000FB08E2F908E2FA08E2CBF822BB010789B0
:10037000828A830203435005E9F8020469BBFE0543
:10038000E9F802034F89828A830204767401FF33FD
:1003900095E0FEFDFCA3A3A3E0CF2FF0E58215823C
:1003A00070021583E0CE3EF0E5821582700215835F
:1003B000E0CD3DF0E582158270021583E0CC3CF083
:1003C00022ECF0A3EDF0A3EEF0A3EFF022ECF208A4
:1003D000EDF208EEF208EFF222A8828583F0D083D6
:1003E000D0821203E01203E01203E01203E0E47390
:1003F000E493A3C583C5F0C583C8C582C8F0A3C56F
:1004000083C5F0C583C8C582C822D083D082E49357
:10041000F208740193F208740293F208740393F2E1
:10042000740473A42582F582E5F03583F58322FAFE
:10043000E6FB0808E6F925F0F618E6CA3AF622E0E7
:10044000FBA3E0FAA3E0F922EBF0A3EAF0A3E9F0C2
:1004500022E493FB740193FA740293F922E6FC08F8
:10046000E6FD08E6FE08E6FF22E493FC740193FD36
:10047000740293FE740393FF22E6FB08E6F908E694
:10048000FA08E6CBF822E493F8740193F974029326
:10049000FA740393FB22ECF608EDF608EEF608EF8B
:1004A000F622E490028CF0EF700302063812003E50
:1004B0009001B61203C900000000E490028DF09094
:1004C00002921203C90000000090028DE0FF122882
:1004D0006C12183C90028E1203B1E490028BF090E3
:1004E000028E12032B90028DE075F00C90007912B1
:1004F0000413C083C08290028BE0D082D08375F059
:10050000041204131203B1121851E0B403D1785746
:1005100090028E12182B90028E1203B190028DE081
:10052000FF9000BE1217B49000C61217B390012FAF
:100530001217B375F002EF9001371217B775F00478
:10054000EF9000CE1204131203C9009C40009002E9
:100550008DE0FB75F00490013F1204131203C900F3
:100560009C40001217C275F004EB90014F12041367
:100570001203B1E490028BF090028BE0FFC3940A67
:10058000501590028DE075F0149000DE12041312E5
:1005900017B312185180E19002921203431217C24E
:1005A0001201389002921203B190028DE004F0C360
:1005B000940450030204B990015F1217BA90028CA0
:1005C000E075F0029001711217B79001B612034363
:1005D00090015FE0FEA3E0FFE4FCFD120138900112
:1005E000B61203B190028CE004F0C3941C500302D5
:1005F00004AA12185B9001AA1218589001AE1218A2
:100600005878061202AA9001B21203B1E49001BE1A
:10061000F0A3F0A3F09001BA1203C900000000E4B7
:1006200090028BF090028BE0FFC39405500F75F0A1
:1006300002EF9001C31217B712185180E79001CE54
:100640001217BAE49002C0F09001AA1217C59000E8
:100650006A1203B19000701203C900000000E49018
:100660000076F0A3F078147427F2087410F2781270
:100670007427F2087410F2E47816F208F29002136C
:10068000F0A3F09001C11217BAE49001D0F0A3F0EA
:10069000A31217BAA31203C90009C4009001D8120B
:1006A00017BAA31203C90009C4009001DE740AF04E
:1006B0009001EE1217BA90020F1203C90000000059
:1006C0009001EC1217BA9001F01203C9000000006B
:1006D000E490028BF090028BE0FB75F0049001F443
:1006E0001204131203C90000000075F002EB900120
:1006F000DF1217B7121851E0B406DAE4900244F0A2
:10070000A3F0A3F0A3F0900257F0A3F0A3F0A3F09E
:1007100090020DF0A3F022900273EFF0120E72120D
:100720000EEC9000BE120D79FD122D76D3EF94C819
:10073000EE940040089002747401F08014D3EF949A
:1007400064EE940090027440057402F08003740318
:10075000F0900273E075F004A424CEF9740035F033
:10076000FA7B01120D52900274E0900285F012267D
:100770003D900273E0120E72EEF0A3EFF0ED75F013
:1007800004A4243FF9740135F0FA7B01900273123E
:100790000D529002857406F012263D900273E0908F
:1007A000012F120E76EEF0A3EFF09002761203C93D
:1007B00000000000E4900274F090027612032BC057
:1007C00004C005C006C007900273E0FD75F01490E8
:1007D00000DE120413C083C082900274E0D082D085
:1007E00083120E76120EEC9000C6120D79FD122DBA
:1007F00076AB07AA06E4F9F8D007D006D005D004F6
:100800001201389002761203B1900274E004F0E015
:10081000C3940A40A490027612032B900273120D27
:10082000ED1203B1900242E07002A3E0704190012A
:100830002EE075F00A84E5F0F0E4FF75F002EF9029
:1008400000C6120D79FD75F014EF9000DE1204134E
:10085000C083C08290012EE0D082D083120E76EC4D
:10086000F0A3EDF00FEFB404D290012EE004F030CD
:100870001F03020908900273E06403600302090881
:1008800090027A1203C9FFFFFFFFE4900275F09017
:100890000274F0900274E0FFC39404503375F004C6
:1008A000EF90016112041312032B90027A1203439A
:1008B000D31202864012900274E0A3F0120DEE12E1
:1008C000032B90027A1203B1900274E004F080C30B
:1008D0009001BE120DED12032BE47B1E120EC950C7
:1008E00037900275E09001BEF0A3E0900137120D41
:1008F000569001BA120DE7C006C0079001BEE07520
:10090000F002900137120413120E55D007D00612D0
:1009100001459001BA1203B19001BA12032B900164
:10092000BEE09000BE120D762FFFEC3E90015FF00E
:10093000A3EFF09001BEE0A3F0900273E0FF75F02A
:100940000290012F120D79FDEF900137120EF6EC97
:10095000F0A3EDF07A0179A9120DD2741CF0900188
:100960005F120E9B7A0179711228E17B017A01797D
:10097000717D1C121D3CAF41AE40AD3FAC3E9001BD
:10098000AA0203B190026AEEF0A3EFF0A3ECF0ED3F
:10099000120DF7401290026CE0FFA3E0900271CFBD
:1009A000F0A3EFF0020B1890005CE090026E120BC7
:1009B00021900275120DAA120B21900273EEF0A382
:1009C000EFF09001EBE090026E120D72120B60904E
:1009D0000279120DAA120D72120B60900277EEF0DE
:1009E000A3EFF090020CE090026E120D8190028352
:1009F0001203B1120DAF120D8190027F1203B1905C
:100A0000026C120D5CC006C0079001EC120E55D0AE
:100A100007D00612014590027B1203B1D37817E28A
:100A200094AC18E2940D5009900216E06003020A9B
:100A3000EF90023CE07002A3E06003020AEFD39063
:100A40000254E09400900253E09400400A90026F38
:100A50007408F0A3F0801890020DE090026FB401CA
:100A6000087403F0A314F080067401F0E4A3F07599
:100A7000F096120DBF4003020AC290026FE0FD75AE
:100A8000F064120DC35006ED120E604069900270C2
:100A9000E02408FFE433FEC3900276E09F900275E5
:100AA000E09E4014120DDE9001F01203B17F0D1292
:100AB0002B2390023E020ADFD390023FE094009085
:100AC000023EE094004003020AE675F064120DBF96
:100AD000400B120EFC90027F120B3E801290026FB0
:100AE000E0120E604019120EFC900283120B3EEED3
:100AF000F0A3EFF08009120DDE9001F01203B19027
:100B0000026C120D5C9001F0120343120145122594
:100B100090900271EEF0A3EFF0A3E0FEA3E0FFA33C
:100B2000E0FCA3E0FD121EA5900271E0FEA3E0FF31
:100B300022F025E02450F582E43400F583E0FCA3A4
:100B4000E0FD90026AE0FEA3E0FF122D7622120380
:100B5000431201459001F01203B17F0C122B239038
:100B6000023CEEF0A3EFF07F17122B2390025922E4
:100B7000FD90026CE0FEA3E0FF122D762290021B96
:100B8000E475F0011200BDD3900220E094009002C1
:100B90001FE094004003122C39D3900222E094000D
:100BA000900221E094004003122C39D3900224E0FB
:100BB0009400900223E094004003122C39D3900259
:100BC0002AE09400900229E09400400F122C399002
:100BD0000229E07002A3E07002D210D3900228E054
:100BE0009400900227E094004003122C39D3900225
:100BF00026E09400900225E094004003122C3990E6
:100C00000215E030E011E490022BF0A3F0A3F0A372
:100C1000F0A3F0A3F08042D390022CE09400900265
:100C20002BE09400401A122C3990022BE07002A3A2
:100C3000E0700D7F0A122B2390022FEEF0A3EFF04D
:100C4000D3900230E0940090022FE09400400A908C
:100C5000022DE475F0011200BDD3900234E094003F
:100C6000900233E094004003122C39D390023DE00F
:100C7000940090023CE094004003122C39D390027F
:100C80003FE0940090023EE094004003122C39D3E0
:100C9000900241E09400900240E094004003122C46
:100CA00039D3900243E09400900242E09400400562
:100CB000122C39800D7F0F122B23900242EEF0A3ED
:100CC000EFF0D3900245E09400900244E09400409D
:100CD00003122C39D3900247E09400900246E0942E
:100CE000004003122C39D3900249E094009002484E
:100CF000E094004003122C39D3900254E094009009
:100D00000253E094004003122C39D3900252E09435
:100D100000900251E094004003122C39D390025607
:100D2000E09400900255E094004003122C39D390D7
:100D30000258E09400900257E094004003122C39CE
:100D4000D390025AE09400900259E09400400312BC
:100D50002C392274FF90026CFEFDFC120343D30277
:100D60000270E09000BE75F002120413E0FEA3E0F2
:100D7000FFE4FCFD22E47FE87E03FDFC1203430256
:100D80000153F09001DF75F002120413E0FCA3E0C0
:100D900022F075F0049001F4120413120343900141
:100DA000F012032B020145900269E075F00CA424B7
:100DB00079F9740035F0FA7B0122EEF0A3EFF090A0
:100DC000026EE02403F0E075F00684AFF0EF2290AD
:100DD000026FE0A4FFC3900278E09F900277E09555
:100DE000F0227B019002811204389002842290014B
:100DF000F012032B90027B120343020138E09001B2
:100E00006175F004020413A3F0D3900222E0940071
:100E1000900221E094002290028D1203B19002858D
:100E200012034390028D12032B0201DE9002811205
:100E3000042F02005EFFE4FCFDFE12034F1201537B
:100E4000780702029724FFFFEE34FFFE3395E0FDA2
:100E5000FC12035C02015390005CE0245DF582E427
:100E60003400F58322E0FEA3E0FBAA06E4F9F822B1
:100E700075F0AFA4FFC390027AE09F900279E095ED
:100E8000F022FD9000C675F00202041312042F74C4
:100E90000102007775F004A4F58285F083229002A8
:100EA000731204389002767403F022E0FFA3E090FE
:100EB0000285CFF0A3EFF0221202978F278E268DA6
:100EC000258C24221202978F278E268D258C242292
:100ED0007857E6FFE4FCFDFE22FAF9F8C302028629
:100EE000E0FF74017E00A80708221203B190028976
:100EF00002032B1203379002770203B1E0FEA3E056
:100F0000FF75F002ED2275F0020204139001F00269
:100F1000032B7B017A0179D4E4FCFD9002787405FF
:100F2000F01225E89001D2EEF0EF120DF740030227
:100F30000FD1300003020FD19001C1120D5CC00629
:100F4000C0079001D2120E55D007D006120145906D
:100F5000026C1203B1E47FFA120D45400690027054
:100F6000020FB8E47FB4120D454009900270740579
:100F7000F0020FBBE47F64120D454002802274FF33
:100F80007FF1FEFDFC90026C120343C3120270401D
:100F900008900270740AF080327F9C120D43400862
:100FA0009002707408F080237F4C120D434008902B
:100FB00002707406F0801474FF7F06120D459002D3
:100FC0007040057404F080037401F0D390025AE07D
:100FD0009400900259E09400400DE4900270F0807B
:100FE000069002707405F0900270E09001DEF090BF
:100FF00001C1120D5C900270E0900278F07B017AE2
:101000000179DA1225E890026AEEF0A3EFF090027F
:1010100040E07002A3E0600302108C7F0E122B23CD
:10102000EEC313FEEF13FF900240EEF0A3EFF07B50
:10103000017A00795C120DD47406F07808E2FF089A
:10104000E2A3CFF0A3EFF07A0079501228E17B0100
:101050007A0179EB120DD47406F090026A120E9B9D
:101060007A0179DF1228E17B017A02790C9002740F
:101070001204389002777406F0120EFC9002781277
:1010800003B17A0179F412298A7816E2FF08E29016
:101090000213CFF0A3EFF0120E47E4F090026AE0E3
:1010A000FEA3E0FF22900215E090021AF0121BD47A
:1010B0005005121BE24007E4900215F0800812224E
:1010C000EC900215EFF0900215E0FF12291AEF7074
:1010D0000D121BD45008121BE250030211FD9002A6
:1010E00016E0703F900063F0A3F0900257F0A3F079
:1010F000C21E122266122C9A7F01122B23121C642C
:10110000401B30140DEF7803CEC313CE13D8F9FF74
:10111000800BEF7806CEC313CE13D8F9FF12133B22
:1011200002119F900063E07002A3E07013900063CF
:10113000121C1B7F16122B23900257EEF0A3EFF028
:10114000900257E07004A3E06401701A900064E01C
:101150002496FF900063E03400FED37809E29F18E4
:10116000E29E4002D21E301E467816E2FC08E2FDE6
:10117000900213E0FEA3E0FFD39DEE9C4031122DC0
:1011800076AC06AD07900213E0C313FEA3E013C3D1
:101190009DEE9C501A7F13122B23EF7802CEC313BF
:1011A000CE13D8F9FF900251EEF0A3EFF0C21E90DB
:1011B0000251E07004A3E0640170171227D47F1479
:1011C000122B237C007D031200AB900253EEF0A3A0
:1011D000EFF0900216E0FFA3E06F6031122820903C
:1011E0000218E030E421D3121BE25005121BD54057
:1011F00009E490022BF0A3F0800D7F06122B2390C0
:10120000022BEEF0A3EFF0900216E0A3F022E490A0
:10121000026AF07B017A00793D120E8E7800120E80
:10122000E37A0079311229537B017A007931121364
:101230001F7B32120EC9500690026A7401F09002B0
:10124000C0E0900269F0E490026BF0120D97C002CA
:10125000C0017A0079A9120E8E780A120EE3D0012D
:10126000D002122953120D9712131F7BF47A011228
:101270000ECA500690026B7401F030004590026A6D
:10128000E07004A3E0603BD21A7B017A007931124E
:1012900012ED7856120EC290026C120D6C78071285
:1012A000029778041203BD120D971212ED120EC0B0
:1012B00090026C120D6C7807120297780E1203BD23
:1012C0008038C21A7856E67800120E257804120388
:1012D000BD7804120337EC4D4E4F70037F02227825
:1012E00057E6780A120E25780E1203BD780E120307
:1012F00037EC4D4E4F70037F02227F04227D031294
:10130000188CC3E5419539FFE5409538FEE53F95DA
:1013100037FDE53E9536FCC3EF953DFFEE953CFE6F
:10132000ED953BFDEC953AFC90026C1203B1227DE9
:101330000312188CC3E539953DFFE538953CFEE571
:1013400037953BFDE536953AFCE422900269EEF0D4
:10135000A3EFF0E4A3F0D390022CE0940090022BD2
:10136000E094004006121C1802143530004C121C88
:101370002740089001D0ECF0A3EDF0121BD45005EB
:10138000121BE240030213C1121BEF502778089092
:10139000004A121C0D12146A400F900269E013FEFD
:1013A000A3E013D3121C01500BA215301401B3405B
:1013B0000302143B121C46021435121BD4500512B2
:1013C0001BE24013121C2740089001D0ECF0A3ED63
:1013D000F0121C4602143B900070120343C00078C8
:1013E00012E2FE08E2FFE4FCFDD00012013890009A
:1013F000701203B1121BEF50317808E2FE08E2FFD1
:1014000090004AE0FCA3E0FD12146A501DA21530C2
:101410001401B3401590022FE0FEA3E0FFD3900229
:101420002EE09F90022DE09E4021900076E0FEA3EA
:10143000E0FFFBAA06E4F9F890007012032B1201FA
:10144000DEEE121C4E90026B7401F090026BE060B5
:1014500028E4900076F0A3F09000701203C9000019
:101460000000E49001D0F0A3F0121C18E4900236C2
:10147000F0A3F090022D121BCC22122D76D3EF9404
:1014800014EE9400229002731203B1120DF9405E23
:1014900090027312032B90003E1203B1E47F32FEE0
:1014A000FDFC90003E120D6C780A120297900042EB
:1014B0001203B1E490027CF090027CE0FFC394043C
:1014C000502C75F00CEF900081120413120343C0EE
:1014D00000120EC0D000120E2D90027CE09000AAE7
:1014E000120DF11203B190027CE004F080CA90006A
:1014F000BA1203C90000000090004212034390009A
:101500003E120D91C004C005C006C00790004212F3
:101510000343900273120D919002851203B1900261
:10152000891203C900010000D007D006D005D004FD
:10153000121F559000461203B19000BA1203439057
:101540000277120D91C004C005C006C00790028545
:101550001203C90001000090004612032B9002897B
:101560001203B1D007D006D005D004121F55900247
:101570007D1203B19000BA12032BAB07AA069002AA
:101580007D12032BEF2BFBEE3AFA90027BE0F9750C
:10159000F00490014F12041312032BC3EB9FFFEAD8
:1015A0009EFEE99000BE120EF6EEF0A3EFF022438D
:1015B0009F04E453C6DFE5C600B5C6F37583007526
:1015C000820775FD0DE4E5FEF4FF75830075820664
:1015D00075FD0DE4E5FEB50704F59E8003759E00DC
:1015E00078100000D8FC53C6E043C60843C6807597
:1015F000960775970975830075820475FD0DE5FDE5
:101600000404F58F75830075820375FD0DE4E5FE16
:10161000F4FF75830075820275FD0DE4E5FEB507E4
:1016200004F595800375958375BE0E5392FE900167
:10163000007F007E02E4F0A3DFFCDEFA78007F008A
:10164000E4F208DFFC78FFE4F6D8FD7581C00216ED
:101650007F020000021FFFE493A3F8E493A340037A
:10166000F68001F208DFF48029E493A3F8540724FC
:101670000CC8C333C4540F4420C8834004F45680BC
:101680000146F6DFE4800B01020408102040809040
:101690002D60E47E019360BCA3FF543F30E5095404
:1016A0001FFEE493A360010ECF54C025E060A84064
:1016B000B8E493A3FAE493A3F8E493A3C8C582C85B
:1016C000CAC583CAF0A3C8C582C8CAC583CADFE930
:1016D000DEE780BEE490028CF0EF607B12003E906B
:1016E00000291203C900000000122B7D900029126E
:1016F00024CD1201389000291203B190028CE0042D
:10170000F0C3941C40E3E0FFFBE4FAF9F8900029F1
:1017100012032B1201DE90028D1203B17856900253
:101720008D12182B78041203BDE490028BF0900206
:101730008BE0FBC39403501F90028D12032BEB250B
:10174000E025E02431F582E43400F5831203B19002
:10175000028BE004F080D77804120337EF24D0FF27
:10176000EE348A1217CF9000251203B190004A740C
:1017700075F0A37430F0A31203C9001D4C00E4906F
:10178000028BF090028BE0FFC394065027EF25E018
:101790002450F582E43400F5837475F0A37430F0BE
:1017A000745D2FF582E43400F583E4F090028BE061
:1017B00004F080CFE490005CF078087475F208744F
:1017C00030F222EF75F0021204137427F0A37410A4
:1017D000F02290028E12032BEF24F0FFEE34D8FE9D
:1017E000ED34FFFDEC34FFFC221203B17F0FE4FE69
:1017F000FDFC900269120343D30202869002691233
:10180000032BC3EF940FFFEE9400FEED9400FDEC6C
:101810009400FC9002690203B190001BE0902E0A34
:10182000932275A9A075AC0375ADC075AEC02290AA
:10183000024D12034390026902032BE6FFE4FCFD14
:10184000FE1203431201537807020297122B7D9078
:10185000001BE0FF0224D5E5BAF053BA0F43BA10DB
:101860002290028BE004F0221203B19001B6020331
:101870002BE0F5B3A3E0F5B2A3E0F5B12290001A96
:10188000E0902E0A93F5AB2290026E12032B900289
:101890006A2290026E12032B90026A22900270124A
:1018A0000438900273EDF0E4F528F527F526F525C8
:1018B00074FFF52CF52BF52AF529E4F530F52FF515
:1018C0002EF52DF524900273E0FFE524C39F5070A0
:1018D00090027012042F75F004E524A4F58285F0BF
:1018E000831202BD8F348E338D328C31AF28AE27F8
:1018F000AD26AC25D3122C52400C853428853327D5
:10190000853226853125AF2CAE2BAD2AAC29C312EA
:101910002C52500C85342C85332B85322A85312965
:10192000E5302534FFE52F3533FEE52E3532FDE574
:101930002D35318F308E2F8D2EF52D05240218B5C3
:10194000852839852738852637852536852C3D8598
:101950002B3C852A3B85293A853041852F40852EB1
:101960003F852D3E900273AF30AE2FAD2EAC2D12C1
:101970002C40227B077A0790026A1203C9000000FC
:101980000012003EEB601A74017E00A80308800577
:10199000C333CE33CED8F9FFADACEF5D70031B80FF
:1019A000E3EA601A74017E00A802088005C333CE02
:1019B00033CED8F9FFADAEEF5D70031A80E3AF030D
:1019C0007401A807088002C333D8FCF5AC7401A8E1
:1019D00002088002C333D8FCFFF5AD8FAE53AACF07
:1019E00043AA0490026912184712180942AB121850
:1019F0003C90026E1203B1121882120343C312020A
:101A00008650061218821203B190026A120343C074
:101A10000090026A12032B7803120297D000120181
:101A20003890026A1203B190026A12032B9000658B
:101A30001203B143AA3053AAFB900269E0F5BA122F
:101A40001809F452AB121815227B077A0790026A24
:101A50001203C90000000012003EEB601A74017E00
:101A600000A803088005C333CE33CED8F9FFADAC50
:101A7000EF5D70031B80E3EA601A74017E00A80228
:101A8000088005C333CE33CED8F9FFADAEEF5D701D
:101A9000031A80E3AF037401A807088002C333D898
:101AA000FCF5AC7401A802088002C333D8FCFFF532
:101AB000AD8FAE53AACF900269121847122B7D1238
:101AC00024D090026E1203B1121878120343C3128D
:101AD000028650061218781203B190026A1203436C
:101AE000C00090026A12032B7803120297D00012F2
:101AF000013890026A1203B190026A12032B90001F
:101B0000201203B143AA30900269E0F5BA12181509
:101B100022C0E0C0F0C083C082C0D075D008C2CF60
:101B2000D21130CD03021BBD20CC6030CB2285CE3C
:101B30004FE54FC39480401675F003E54F90226F38
:101B40001204131204418B4C8A4D894E80638073BA
:101B500085CE35E54F7022E535B410099002C1E01D
:101B6000F452808066E535B420089002C1E04280DE
:101B70008059853546054F8052E54FC3940550077F
:101B80007446254FF8A635054F8040E54FB4C00593
:101B90007546C08036E54FB4C2107853E630E20592
:101BA0007546A080267546A18021E54FC3948040EC
:101BB00010784CE475F00112041F12005EF5CE801F
:101BC0000A054FE54B254FF8E6F5CED210D0D0D020
:101BD00082D083D0F0D0E032F0A3F0A3F0A3F0A342
:101BE000F0A3F022D3900222E09400900221E0942E
:101BF0000022900224E09400900223E094002290BE
:101C00000076E475F0011200BD900269E0FEA3E0E9
:101C1000C3FF900077E09F900076E09E22E2FE08EE
:101C2000E2FFE0FCA3E0FD2290004A7808E2FF0812
:101C3000E2CFF0A3EFF0229001D0E0FEA3E0FF900E
:101C400001C1E0FCA3E0FDD39FEC9E22FEC3781906
:101C5000E29F18E29E229001D0E0FFA3E0CF78142B
:101C6000F208EFF222E29DFF18E29CFE900269F07A
:101C7000A3EFF022D3900226E09400900225E09496
:101C80000022902E13E493FE740193FF22902E13F2
:101C90007401932212003E90026A121847780012D3
:101CA00003FA000000009002697405F075ABFF12A2
:101CB0002B7D780012034F1224D0120138780012C5
:101CC00003BDE4F5AB122B7D7800120337C004C0CE
:101CD00005C006C0071224D0A804A905AA06AB07B0
:101CE000D007D006D005D00412014578001203BDFC
:101CF000900269E014F0E070B3780012034F7F00A7
:101D00007EC07D127C001201DE90026B1203B19046
:101D1000026B12032B9002731203B17F967E007D3B
:101D2000007C001229F7E47B32FAF9F8C31202862C
:101D3000500678567696800A90026B12032B7856DE
:101D4000A60790026AE0F5BA12186D2290027E1280
:101D50000438900281EDF0E4F525F52674FFF527AF
:101D6000F528E4F52EF52DF52CF52BF524900281C0
:101D7000E0FFE524C39F505990027E12042F75F0B6
:101D800002E524A4F58285F0831200D3F52A85F0BC
:101D900029D39526E52995254006852925852A26D6
:101DA000C3E52A9528E52995275006852927852A00
:101DB00028E4FCFDE52E252AFFE52D3529FEED352D
:101DC0002CFDEC352B8F2E8E2D8D2CF52B052480A4
:101DD0009CE4852639852538F537F53685283D85F7
:101DE000273CF53BF53A852E41852D40852C3F85D6
:101DF0002B3E900281AF2EAE2DAD2CAC2B122C4081
:101E00002220CA03021EA4E5467003021EA4E4FFBA
:101E100074462FF8E6FE746A2FF582E43402F583E7
:101E2000EEF0E4F60FEFB405E790026AE0FF54F03D
:101E3000FEEF540F900269F0AF06EF24A0601B2460
:101E4000F0601F24D0602F24E0605D24E0605C24FB
:101E50009070617853E6440180057853E654FEF6AD
:101E60008042E4FF122D1B7855EFF67851BFFF0337
:101E700076012276FF22900269E0FD70127853E627
:101E800030E23154FBF690024AE04408F08015ED50
:101E9000640170207853E620E21A4404F690024A66
:101EA000E04404F0751C02220227D4E4900221F0E1
:101EB000A3F0D21F22900287ECF0A3EDF0E4FD9096
:101EC000020DE0702CC3EF940AEE94004023120E32
:101ED000477401F0E4FF745D2F120E4DE0600D0DAC
:101EE000EDB40604D21D8004C21D80050FEFB406B8
:101EF000E5900246E07002A3E07057900244E07063
:101F000002A3E0704D90020DE0701B301D187F1091
:101F1000122B23900244EEF0A3EFF090020D740117
:101F2000F0D21BC21D2290020DE064017036C390F6
:101F30000288E0940A900287E0940050277F1112F3
:101F40002B237C007D0C1200AB900246EEF0A3EF39
:101F5000F022900246E07004A3E064017006900253
:101F60000DF0D21C229002811203B1E47BE87A03C7
:101F7000F9F8900281120E169002911203B19002AC
:101F800091120D65A804A905AA06AB07900281125B
:101F90000D91900295120EDA900291120D6C120EB4
:101FA000079002991203B190028512032B900299B7
:101FB000120D6CA804A905AA06AB0790028D120D9C
:101FC0009190029D120EDA900295120D6C90028D86
:101FD0001203B190028D120343C000C001C002C0C1
:101FE0000390029D120D65D003D002D001D00012E3
:101FF0000138120E079002A11203B1E47FE87E03BC
:10200000FDFC900299120D6C9002A1120DE72212B4
:102010002B52122E31122E17122786122C7C122AC6
:102020002A122DB5D2AF751C01E51C24FE601E14CA
:10203000603614605314605D24047064122DFA122B
:102040002D8C122DA2122D327F04122BA3D2D8E494
:1020500090021BF0A3F09002A5F0A3F01229C1E5B5
:102060001D70FC122CB68033D2D8E51D70FC121105
:10207000FE8F1C1221DA9002C0E0900078F09002EE
:10208000C004F0122CB6801B122BEF8F1C122140C3
:10209000120B6D800E121095122CD0751C0380034C
:1020A000751C01122E37E51C6404700302201912FE
:1020B0001DF1022019E47F557E06FDFC7800120315
:1020C0004F120153121803780012033790025FEE8B
:1020D000F0A3EFF090024D12032B900263EEF0A3F9
:1020E000EFF012181F1201DE78081202971218037F
:1020F00012182590025B1217D940031217EC7FFFCC
:102100001217DE400678C076FF800712182578C0C7
:10211000A607E47F227E0BFDFC9000811203431290
:10212000015312180312181F1201DE7808120297C9
:102130009002691217D940031217ECE47FFF1217BF
:10214000DF4005788E76FF22121825788EA60722AA
:102150007F80902E13E493FC740193FD122DEA7F8F
:1021600082902E1374019324CEFDE49334FFFC126D
:102170002DEA7F847D647C00122DEA7F8A30181856
:102180007D397C30122DEA7F887D397C30122DEA32
:102190007F8C7D397C30801F7812E2FC08E2FD12D2
:1021A0002DEA7F887816E2FC08E2FD122DEA7F8C8A
:1021B0007814E2FC08E2FD122DEA7F9AC007900233
:1021C0005B122DD1D007122DEA7F98C00790025FD5
:1021D000122DD1D007122DEA7F9CC0079002631206
:1021E0002DD1D007122DEA0220A5301115122E2470
:1021F000745AF07F09122B23900227EEF0A3EFF020
:10220000C211A21492153002028020D3900222E063
:102210009400900221E094005011900228E0940074
:10222000900227E09400500320100A122E24745AC2
:10223000F0C2148008122E247403F0D21430140853
:10224000E4FF122AC1122C5DA215301401B35017FD
:10225000900216E06004D216800D7F02122B2390AC
:102260000225EEF0A3EFF0900216E070083016039E
:102270001227D4C2162290022BE07002A3E0705DF8
:1022800030002578149001C1121C0DC39FEC9E50A4
:1022900015C3121C55C3121C7D9FE4939E5035122A
:1022A00022CE40398029802C7814E2FE08E2FF78A3
:1022B00012E2FC08E2FDC39FEC9E501AC37815128F
:1022C0001C55D39432EE9400400A1222CE400E12D6
:1022D00027D480028000E4900236F0A3F0227F042D
:1022E000122B23EEC313FEEF13FF900236E475F0BA
:1022F000011200BDFCD3E5F09FEC9E22E490026940
:10230000F0900216E07046121C6440379001CEE057
:10231000FEA3E0FF9001C2E09FFF9001C1E09EFE9E
:10232000E4FCFD90026A1203B1121C727C007D0372
:102330001200ABE4FD90026A120343D31202704014
:1023400035802C121C72121C3D402B80223016103E
:10235000121C7D25E0FFE49333121C3C4018800FD3
:10236000121C7D24CEFFE49334FF121C3C400790E6
:102370000269E04401F0900269E0FF9002BFF022A0
:10238000780E12033790026E1203B17804120337ED
:102390001228A79001B61203B190006A12032B9085
:1023A00001B6120343C312028650037F022290013A
:1023B000B612032B1226E69001C1EEF0A3EFF090C7
:1023C00001D8E0FFA3E09001ECCFF0A3EFF0900183
:1023D000C1E0FEA3E0FF120F029001D8EEF0FCA3D3
:1023E000EFF0FD7808E2FE08E2FF1209749001EEBA
:1023F000EEF0A3EFF07812EEF208EFF27F05220183
:102400000079FE000E0100BE0100C60101BA010103
:102410005F0101B60101C10101D20101D80101EE44
:10242000FE0012FE0014FE0016FE0018FE0000FE64
:10243000000401003E010042010046FE00080102C6
:102440005F01026701026F0102770102420100DEB3
:1024500001016101025B0102630101BE0100CE01C5
:10246000016101020D0102440102460102219002B4
:102470004AE030E1091224AD2018031224BD900275
:102480004AE054FDF0900218E0540FFF60279002DC
:102490004AE0FE30E206785FA6078010EE30E31CCB
:1024A000900218E0540FC454F0785FF6201806121A
:1024B00024AD1224BD90024AE054F3F022C2107FF2
:1024C00007122B23900229EEF0A3EFF022C2927F95
:1024D000217E007D007C00122D03D2922212034344
:1024E00090001AE0FFEFC39404500553B9EF800346
:1024F00043B910EF6003B4040B85B71985B61A858C
:10250000B51B803AEF64016004EFB4050B85EB194D
:1025100085EA1A85E91B8026EF64026004EFB406A1
:102520000B85F31985F21A85F11B8012EF640360A5
:1025300004EFB4070985FB1985FA1A85F91BAF1B4F
:10254000AE1AAD19AC1822C0E0C0F0C083C082C082
:10255000D075D01053B9FDE51D6401701F1224D051
:1025600078001203BD7F01122C149002C0E0FF120C
:10257000286C43B901D2D8751D058019E51DB40535
:102580001412183F780A1203BD121809F452AB5303
:10259000AAFB751D00D0D0D082D083D0F0D0E0321D
:1025A0009002871203B1E47FFF7EFFFDFC9002875B
:1025B000120D4B400C9002871203C90000FFFF80F0
:1025C00030E4FF900287120D4850261227D4301EA7
:1025D000167F14122B237C007D031200AB90025354
:1025E000EEF0A3EFF0C21E9002871203C90000278D
:1025F0001090028712032B229002741203B19002F2
:102600007112043890027412032B78061202AA90F9
:1026100002741203B1900278120ED08005C333CE3B
:1026200033CED8F9120E35900274120DE79002786D
:10263000E0F9F8120EA890027112042F1202EDAF09
:1026400027AE26AD25AC247806120EA82290028172
:102650001203B190027E12043890028112032B788B
:102660000A1202AA9002811203B1900285120ED0C2
:102670008005C333CE33CED8F9120E3590028112C5
:102680000DE7900285E0F9F8120EB490027E120474
:102690002F1202EDAF27AE26AD25AC24780A120E1C
:1026A000B42290024D1203C900000000E4FF1200A2
:1026B0000E75ABFF122B7D90024D1224CD12013806
:1026C00090024D1203B1E4F5AB122B7D90024D1236
:1026D000032BC004C005C006C0071224D0A804A95B
:1026E00005AA06AB07D007D006D005D004120145D5
:1026F00090024D0203B190006A1203431201451289
:10270000259090026AEEF0A3EFF07A0179CD120DD8
:10271000D27405F0A3EEF0A3EFF07A0179C312288A
:10272000E1A215301401B350157B017A0179C37D04
:1027300005121D3C9001CEE544F0A3E545F0900262
:102740006AE0FEA3E0FF22C0E0C0F0C083C082C008
:10275000D075D000C000C28D758C32758AEB9002A6
:10276000A5E475F0011200BDC39002A6E094149098
:1027700002A5E09400401290021BA3E0785AF69064
:10278000021BE4F0A3F0120004D000D0D0D082D01D
:1027900083D0F0D0E032E4FF122D1B7855EFF678AD
:1027A00051BFFF047601800276FFE4785FF678522D
:1027B000763708F6902E1393FE740193FF7880A667
:1027C0000608A607EF24CE7883F6EE34FF18F678D5
:1027D000847600087664E4122DC7F6122DC776328F
:1027E000754B5022E51D70FCE4FF1216C4E4FF1285
:1027F0000492E4900216F0900218F0900235F090E6
:10280000022B121BC8900233F0A3F0900238121B67
:10281000C8121BCB900063F0A3F0A208300001B3F4
:10282000500D7F03122B23900223EEF0A3EFF02232
:10283000A907E4FEFD90024AE0FC703FEF5401FB63
:10284000900217E054016B600D30020A201807EC6B
:10285000440290024AF0900217E030E006EE441085
:10286000FE8004EE4401FEE930E006ED4401FD8007
:1028700004ED4410FDEE5D900218F0229002C0E0DD
:10288000D394034002E4F0EF146012146017146054
:102890001D24037021121809F452AB800D1218097F
:1028A000F452AB800E12180942AB53AAFB22121845
:1028B0000942AB43AA042290026A1203B190007845
:1028C000E0900272F090026E12032B9002771203D6
:1028D000B1900272E090027BF090026A12032B1218
:1028E0001475900272E0FF1207079001AA12032BE1
:1028F00022900285E0FEA3E0FFC003C002C00112E7
:102900000E1C75F002120E87D001D002D003EE8F9C
:10291000F012010B900281120E7C120E1CFF90022D
:1029200084E0B50704E4120099227E05EF5401FD0E
:10293000900216E054016D6007EFF0E4900235F06C
:102940007853E630E008900216E070027E0A9002AA
:1029500035E004F0C39E50037F0022900235EEF074
:102960007F012290027712032BC003C002C00190A6
:102970000273120E1F120E84D001D002D003120374
:1029800007900273120E7C900273120E1FFF9002CA
:1029900076E0B50704E41200992290027812032B26
:1029A000C003C002C001900274120E1F120E84D028
:1029B00001D002D003120307900274120E7C900221
:1029C00074120E1FFF900277E0B50704E41200991D
:1029D000227853E6F520A208300001B350147F039B
:1029E000122B23900223EEF0A3EFF01227D4A200C3
:1029F0009208A20A300201B35004A202920A3013D4
:102A0000051227D4C2132290026F1203B1900273F1
:102A100012032B90026F120343D3120286400B90D5
:102A2000027312034390026F800990026F120343F6
:102A300090027312032B1201452243F80875CD4012
:102A400053CC7F43CC4043CC2043CC1043CC0453E5
:102A5000CCFD43CB0243CB0153CBBFD2EB53E5FCC0
:102A600043E30243F50343900343ED032290002523
:102A700012032BAB07AA067804120337C3EF9BFFA0
:102A8000EE9AFE7B017A00794CE4FCFD90027874AA
:102A900008F01225E87808EEF208EFF27F052278B8
:102AA00014E2FE08E2FF7812E2FC08E2FDD39FEC9C
:102AB0009E400BED9F7817F2EC9E18F28006E478AA
:102AC00016F208F27816E2FF08E208CFF208EFF2F9
:102AD00022E4F51D53B9FD53B9DF43CC02C2D953EB
:102AE0009FFD438760C28DEF700675BD0D75BC01FB
:102AF000122DD975BE0CD28C20C903438703000068
:102B00000000220007010802050301040105060672
:102B1000010701080A09010A010B030C050D0A0E41
:102B2000010F01100A113C12011301143C1501168A
:102B30003C17027D017C00EFC394185020EF25E084
:102B400024F4F582E4342AF583E493FF7E009002B6
:102B50001DE0FCA3E0FD1200ABAC06AD07AE04AF78
:102B60000522E4F5E3439F107F03FEFDFC122D03D5
:102B7000439F027F037E007D007C00122D03539F44
:102B8000EF75BE0EE4F5BFF5B97592762275BF0FED
:102B90000000000000000000000000000000000035
:102BA0000000D2D853B9FD43B901E5B930E1FBE4E7
:102BB000F5BF22EF6003D38001C3920A92027853DB
:102BC000A60790021DE4F0A3745AF07F08122B238D
:102BD000900221EEF0A3EFF02290001AE0902E0A6E
:102BE00093FF900024F090001BE0902E0A93FE903B
:102BF0000069F0EF4E42D442F442E4F452DC2290F9
:102C000002697405F0122A5D122370900269EFF0D8
:102C1000BF0205D213E0FF22122A8F122CEA900283
:102C200069E0FF2253BA0F43BA2075BBE6121812AF
:102C3000900069E0F5B4EF7009F5B375B2AF75B106
:102C4000C8229000661218612274FFF5F00200BDE0
:102C5000E0FBE4FAF9F81201DE8F458E448D438CD7
:102C60004222AB34AA33A932A831020286E4900290
:102C700069F075BE0E439F027F03FEFDFC122D031B
:102C800075BC02E4F5BFD2D953CCFD22438901C201
:102C90008DD2A953B8FD12000390021BF0A3F0756A
:102CA0008C32758AEBD28CD2AF227814E2FE08E225
:102CB000FFD394F8EE942A5009C3EF9428EE94239E
:102CC00050031227D4227F0112000E751D0175BF1B
:102CD0000F43B92053B9FD43BA0143B901D2D822F9
:102CE000900219E0FF900218E0FE6F6007300204C6
:102CF000785FA606900219EEF0227F767E107D01A5
:102D00007C00780412034FD31202864003C21822BB
:102D1000D2182290026A1203B190026A74FF120361
:102D20007EEC4D4E4F60030080EF22E4FFF582F50C
:102D3000837440FEE493F42FFFA3EEB583F6227F65
:102D40000022E4900229F0A3F07F09122B239002C5
:102D500027EEF0A3EFF0D2102243D50453F5FB5336
:102D6000E5FB43E30443ED04E490024AF0D29222EF
:102D700041001A0041001B0644001CFFFFFFFF0436
:102D8000180000000000D3EF9DEE9C4007EF9DFF70
:102D9000EE9CFE22C3ED9FFFEC9EFE22E4FF12009C
:102DA0000E121C84121A397F0112000E1216C40270
:102DB0002692E4FF122C14122E2B1219637F01129B
:102DC0002C14020492902E15E493FF74019390004A
:102DD0006ECFF0A3EFF02208F608F608F608F60822
:102DE0002212032BAD07AC0622438901C28CC28F8D
:102DF000120003758CFB758AED2220C90CC2AFA8A6
:102E000007A60408A605D2AF222275AA3B53BAF33F
:102E100043BA0C43B92053B9BF2201020408102061
:102E200040805D03E80064C2DA53D80F43D8D0D2A3
:102E3000D8D2D92290021DE4F0A3227856E608F6F3
:102E400022122BC9022D4902245EFFFFFFFFFFFF64
:00000001FF
