:10000000FF004C6174746963650069434563756200
:10001000653220323031372E30312E32373931349B
:1000200000506172743A20694345354C50344B2D71
:10003000535747333600446174653A204D6172204E
:10004000323220323031392031383A31353A00FFFE
:100050003332007EAA997E5100010592002062028F
:10006000B37200B082000011000101000000000026
:100070000000000000001000000000000040000030
:10008000000000010000000000000400000000006B
:100090000010000000000000400000000010000000
:1000A000000000004000000000000100000000000F
:1000B00000040000000000001000004000000000EC
:1000C000000000000000000000000000020000002E
:1000D00000000008000000000000200000000000F8
:1000E0000080000000000002000000000000080086
:1000F0000000000000000000000000000000000000
:10010000002000000000000080000000000002004D
:1001100000000000000800000000000000000000D7
:1001200000000000000000000000000000000000CF
:1001300000000000000000000000000000000000BF
:1001400000000B00000000000000000000000000A4
:10015000000000000000000000000000000000009F
:10016000000000000000000040000000000000004F
:10017000000000000000000000000000000000007F
:10018000000000000000000000000000000000006F
:1001900000000000000000000080000000000000DF
:1001A00000000000005800000000000000000000F7
:1001B000000000000000000000000000000000003F
:1001C000000000000000000000000000000000002F
:1001D000000000000000000000000000000000001F
:1001E000000000000000000000000000000000000F
:1001F00000000000020000000000000000000000FD
:1002000000000000000000000000000000000000EE
:10021000000000000080000000000000000000005E
:1002200000000000000000000000000000000000CE
:1002300000000000000000000000000000000000BE
:10024000000000000000000000000024000000008A
:10025000000000000000000000000000000000009E
:10026000000000000000000000000000000100404D
:10027000000000000000000000000000000000007E
:10028000000000000000000000000000000000006E
:10029000000000000000000000000000000000005E
:1002A000000000000000000001000000000000004D
:1002B000000000000000000000000000000000003E
:1002C000000000000100000000000000000000002D
:1002D000000000000000000000000000000000001E
:1002E000000000000000000000000000000000000E
:1002F000000000000000000000000000000000807E
:1003000000000000000000000000000000000000ED
:1003100000000000000000000000000000000000DD
:1003200000000000000000000000000000000000CD
:1003300000000000000000000000000000000000BD
:1003400000000000000000000000000000000000AD
:10035000000000000000010000000000000000009C
:10036000000000000000000000000001800000000C
:10037000000000000000000000000000000000007D
:10038000000000000000000000000000000000006D
:10039000000000000000000000000000000000005D
:1003A000000000000000000000000000000000004D
:1003B000000000000000000000000000000000003D
:1003C000000000000000000000000000000000002D
:1003D000000000000000000000000000000000001D
:1003E000000000000000000000000000000000000D
:1003F000000000000000000000C000000003C0007A
:1004000000000000050000000000000000000000E7
:1004100000000000000000000000000000000000DC
:1004200000000000000000000000000000000000CC
:1004300000000000000000000000000000000000BC
:1004400000000000000000000000000000000004A8
:100450000100000010000004000000700000000017
:10046000000000000000000000000000000000008C
:10047000000000000000000000000000000000007C
:10048000000000000000000000000000000000006C
:10049000000000000000000000000000000000005C
:1004A000000000000000000000000000000000004C
:1004B0000000000000000000080000000000000034
:1004C000000000000000000000000000000000002C
:1004D000000000000000000000000000000000001C
:1004E000000000000000000000000000000000000C
:1004F00000000000000000000000000000010034C7
:1005000000000000040000000000000000000000E7
:1005100000000000000000000000000000000000DB
:1005200000000000000000000000000000000000CB
:1005300000000000000000000000000000000000BB
:1005400000000000000000000000000000000000AB
:10055000000000000000004000000000000100005A
:10056000000000000000000000000000000000008B
:10057000000000000000000100000000000000007A
:10058000000000000000000000000000000000006B
:10059000000000000000000000000000000000005B
:1005A0000000000000000000000002000000000049
:1005B0000008000100000000000000000000000032
:1005C00000000000000000000000000000008000AB
:1005D000000000000000000C3020000000000000BF
:1005E000000000000000000000000000000000000B
:1005F00000000000000000000000000000000000FB
:10060000000000008328000000000000000000003F
:1006100000000000000000000000000000000033A7
:10062000A800000000000000000000000000C3005F
:1006300000000000000000000000000000000000BA
:1006400000000000000000000000000000000000AA
:100650000000000000000000000005014000000054
:10066000000000000000000000000000000000008A
:1006700000000000000002800000000000000000F8
:10068000000000000C30200000000000000000000E
:10069000000000000000000000000000000000005A
:1006A00000000000000000000000000000028000C8
:1006B00000003FD00000000000000000000000002B
:1006C000000000000000000002800000003FD00099
:1006D0000000000000000000000000C30000000057
:1006E000000000000000000000000000000000000A
:1006F00000000000000000000000000000000000FA
:10070000000000000800000003FC000000000000E2
:1007100000000800000000000000000000000008C9
:1007200000000003FC0000000000000000000000CA
:10073000000C30200000000000000000000000005D
:1007400000000000000000000000000000000000A9
:100750000000000000000000000000000000003F5A
:10076000D0000000000000000000000000000000B9
:100770000000000000000000000000000000000079
:100780000000000000000000C300000000000000A6
:100790000000000000000000000000000000000059
:1007A0000000000000000000000000000000000049
:1007B000000000000003FC0000000000000000003A
:1007C0000000000000000000000000000000000029
:1007D00000000000000000000000000000000C30DD
:1007E00020000000000000000000000000000000E9
:1007F00000000000000000000000000000000000F9
:100800000000000000000000000180000000000067
:1008100000000000000000000000000000000000D8
:1008200000000000000000000000000000000000C8
:100830000000000000C300000000000000000000F5
:1008400000000000000000000000000000000000A8
:100850000000000000000000000000000000000098
:100860000000000000000000000000000000000088
:100870000000000000000000000000000000000078
:1008800000000000000000000000000C302000000C
:100890000000000000000000000000000000000058
:1008A0000000000000000000000000000000000048
:1008B00000000000000001800000000000000000B7
:1008C0000000000000000000000000000000000028
:1008D0000001800000000000000000000000000097
:1008E0000000C30000000000000000000000000045
:1008F00000000000000000000000000000000000F8
:1009000000000000000000000000000000F00000F7
:1009100000000000000000000000000000000000D7
:100920000000000000000000F000000000000000D7
:1009300000000000000000000C302000000000005B
:1009400000000000000000000000000000000000A7
:100950000000000000000000000000000000000097
:1009600000000000000783C000000000000000003D
:100970000000000000000000000000000000000077
:10098000000000000000000000000000000000C3A4
:100990000000000000000000000000000000000057
:1009A0000000000000000000000000000000000047
:1009B000000000000000000000000000403C0000BB
:1009C0000000000000000000000000000000000027
:1009D0000000000000000000000000000000000017
:1009E00000000000000C30200000000000000000AB
:1009F00000000000000000000000000000000000F7
:100A000000000000000000000000000000000000E6
:100A100000000000000000000000000000000000D6
:100A200000000000000000000000000000000000C6
:100A3000000000000000000000000000C3000000F3
:100A400000000000000000000000000000000000A6
:100A50000000000000000000000000000000000096
:100A60000000000000000000000000000000000086
:100A70000000000000000000000000000000000076
:100A80000000B000000000000000000000000000B6
:100A900000000C30200000000000000000000000FA
:100AA0000000000000000000000000000000000046
:100AB00000000000000000000000000000001A001C
:100AC0000000000000000000000000000000000026
:100AD0000000000000000000000000000000000016
:100AE000000000000000000000C300000000000043
:100AF00000000000000000000000000000000000F6
:100B000000000000000000000000000000000000E5
:100B100000000000010000000000000000000000D4
:100B200000000000000000000000000000000000C5
:100B30000000000000000000000000000000000CA9
:100B40003020000000000000000000000000000055
:100B50000000000000000000000000000000000095
:100B60007AABC000000000000000000172143000E9
:100B70000000037880010000000000000000000079
:100B80000000000000000000000000000000000065
:100B9000000000000000C300000000000000000092
:100BA0000000000000000000000000000000000045
:100BB0000000000000D001C3FC02000000000000A3
:100BC00000B0D100154800000036C0000000000051
:100BD0000000000000000000000001000000000014
:100BE0000000000000000000000000000C302000A9
:100BF00000000000000000000000000000000000F5
:100C000000000000000000000000000000000000E4
:100C10000000000000038000007214302000160065
:100C2000000000380000000000000000000000008C
:100C3000004000000000000E000000000000000066
:100C4000000000C3000000000000000000000000E1
:100C50000000000000000000000000000000000094
:100C6000000000000000000000000000200000055F
:100C700000150000000000000002008000000000DD
:100C800000000000000000000000000000008000E4
:100C90000000000000000000000C302000000000F8
:100CA0000000000000000000000000000000000044
:100CB0000000000000000000000000000000000034
:100CC00000000100001952143020008000000000D4
:100CD0000000800000000002000000000000000092
:100CE0000000000000000000000000000000000004
:100CF000C300000000000000000000000000000031
:100D000000000000000000000000000000000000E3
:100D1000E000000000000000001000B0818015001D
:100D200000100000000000000F0000000000400064
:100D300000000000000000000000000000000000B3
:100D40000000000000000C30200000000000000047
:100D50000000000000000000000000000000000093
:100D60000000000000000000000000000000000083
:100D70000001815214302100006C000000000000CE
:100D80000000000000000000000000000000000063
:100D900000000000000000000000000000C3000090
:100DA0000000000000000000000000000000000043
:100DB0000000000000000000000000000000000033
:100DC0000000000000000000008580150000000207
:100DD0008000000000000000000000000000000093
:100DE0000000000000000000000000000000000003
:100DF0000000000C30200000000000000000000097
:100E000000000000000000000000000000000000E2
:100E100000000000000000000000000000000000D2
:100E20007A143020000000000000000000000000E4
:100E300000000000000000000000000000000000B2
:100E40000E000000000000000000C30000000000D1
:100E50000000000000000000000000000000000092
:100E60000000000000000000000000000000000082
:100E70000000000000000100150000034000000019
:100E80000000000000000000000000000000000062
:100E90000000000000000020000000000000000032
:100EA0000C302000000000000000000000000000E6
:100EB0000000000000000000000000000000000032
:100EC000000000000000000000000000005A143084
:100ED0000000000000000000000000029500020079
:100EE0000000000000000000000000000000000002
:100EF00000000000000000C300000000000000002F
:100F000000000000000000000000000000000000E1
:100F100000000000000000000000000000000000D1
:100F200000000005001500000000000000000000A7
:100F3000005016900040000000000000000000007B
:100F4000000000000000000000000000000C302045
:100F50000000000000000000000000000000000091
:100F60000000000000000000000000000000000081
:100F7000000000000000000009805A14300000004A
:100F80000000000000000000000000000000000061
:100F90000000000000000000000001000000000050
:100FA00000000000C300000000000000000000007E
:100FB0000000000000000000000000000000000031
:100FC00000000000000000000000000000002810E9
:100FD000018015000000000000000000000000007B
:100FE0000000000000000000000000000000000001
:100FF000000000000000000000000C302000000095
:1010000000000000000000000000000000000000E0
:1010100000000000000000000000010000000000CF
:10102000000000010008187A1430000000000000E1
:1010300000100000000000000000000000000000A0
:1010400000000000000400000000A54000000000B7
:1010500000C30000000000000000000000000000CD
:101060000000000000000000000000000000000080
:1010700000D00000000000000000000010058015F6
:101080000000000000000000000000000000000060
:101090000000000000000000000000000020000C24
:1010A00005AC80000000000C3020000000000000B3
:1010B0000000000000000000000000000000000030
:1010C000000000000000000ADA2D580000000000B7
:1010D00000000000F21430000016045A8000A00046
:1010E0000000000000000000000000000000000000
:1010F0000000000000000000000000000000C3002D
:1011000000000000000000000000000000000000DF
:10111000000000000000000000000000000107F2D5
:10112000E50100000000000000000F0015100000A5
:1011300002B5900000000000000000000000000068
:10114000000000000000000000000000000000009F
:10115000000000000C302000000000000000000033
:10116000000000000000000000000000000000007F
:101170000003800000000000000000000003800069
:1011800000F2143000000000000000380000006B86
:10119000C10000000000000000000000000000018D
:1011A0000000000000000000000000C3000000007C
:1011B000000000000000000000000000000000002F
:1011C00000000000000000002000000000000000FF
:1011D000000000002000000B0015000000000000CF
:1011E0000002000000003C10400000000000000071
:1011F00000000000000000000000000000000000EF
:10120000000C302000000000000000000000000082
:1012100000000000000000000000000000000000CE
:101220000000000000020000000003000019D214BA
:101230003000000068000000000000000000000016
:10124000000000000000000000000000000000009E
:101250000000000000000000C300000000000000CB
:10126000000000000000000000000000000000007E
:10127000000000000000000000000000000000006E
:10128000001000008F80150000000000000000002A
:10129000000000000000000000000000000000004E
:1012A00000000000000000000000000000000C3002
:1012B000200000000000000000000000000000000E
:1012C000000000000000000000000000000000001E
:1012D0000000000000000000000180D21430000077
:1012E00000040000000000500000000000000000AA
:1012F00000000000000000000000000000000000EE
:101300000000000000C3000000000000000000001A
:1013100000000000000000000000000000000000CD
:101320000000000000B0000000000000000000000D
:10133000000B801500000802800000000000000083
:10134000000000000000000000000000000000009D
:1013500000000000000000000000000C3020000031
:10136000000000000000000000000000000000007D
:101370000000000000000000000048000000000025
:101380000000000000000000FA143000000000001F
:10139000000000000000000000000000000000004D
:1013A000000000000000000000000000000000003D
:1013B0000000C3000000000000000000000000006A
:1013C000000000000000000000000000000000001D
:1013D00022B0000000000000000000000000EF004C
:1013E0001501000000000000000280000000000065
:1013F00000000000000000000000000000000000ED
:1014000000000000000000000C3020000000000080
:1014100000000000000000000000000000000000CC
:1014200000000000000000000000000000000000BC
:10143000000000000CDA1430000000000000000082
:10144000000000000000000000000000000001009B
:10145000000000000000000000000000000000C3C9
:10146000000000000000000000000000000000007C
:10147000000000000000000000000000000000006C
:1014800000000000000000000000010B001501003A
:10149000000000000000000000000000000000004C
:1014A0000000000000080000000000000000000034
:1014B00000000000000C30200000000000000000D0
:1014C000000000000000000000000000000000001C
:1014D000000000000000000000000000000000000C
:1014E0000980FA1410000000000000000000000055
:1014F000000000000000000000000000000703C022
:10150000204000000000000000000000C3000000B8
:1015100000000000000000000000000000000000CB
:1015200000000000000000000000000000000000BB
:1015300000000000000000100F80150000000000F7
:10154000000000000000000000000000000000009B
:1015500000000000003C000A000000000000000045
:1015600000000C302000000000000000000000001F
:10157000000000000000000000000000000000016A
:1015800000438000000000000000000100080D0082
:10159000000000000000000000100000000000003B
:1015A000000000000000000000000000000000003B
:1015B000000000000000000000C300000000000068
:1015C000000000000000000000000000000000001B
:1015D0000000000000000002080000000000000001
:1015E000000000001180000000000000000000006A
:1015F00000000000000000000000000000000000EB
:101600000000000000000000000000000000000CCE
:10161000302000000000000000000000000000007A
:1016200000000000000000000000000000000000BA
:101630000000000000000000000000007EA8104034
:101640000000001C0F40200000000000000000000F
:10165000000000000000007782B0000000000000E1
:10166000000000000000C3000000000000000000B7
:10167000000000000000000000000000000000006A
:10168000000000000000000000000000000000005A
:101690000000EB8297000000000100F41000000041
:1016A00000000000000000000000000000E0002931
:1016B0000800000200000000000000000C302000C4
:1016C000000000000000000000000000000000001A
:1016D0000000000000000000000000050A000000FB
:1016E0000000000000038000000000000E00000069
:1016F000000000380000000000000014000000009E
:1017000003800000F214300E000000000000000012
:10171000000000C300000000000000000000000006
:1017200000000000000000000000000000000000B9
:101730000000D9B000000000000000002000000000
:101740000000008000000000000200000000000017
:10175000000080000000002000000700150080004D
:101760000380000000000000000C3020000000009A
:101770000000000000000000000000000000000069
:101780000000000000000000000A0000000000004F
:101790000000010000000000000000000000000048
:1017A0000000000000000000000000000001000038
:1017B00019D21430000000000000000000000000FA
:1017C000C300000000000000000000000000000056
:1017D0000000000000000000000000000000000108
:1017E00000000000000000000010000000000000E9
:1017F00000000000000000000000000000000000E9
:1018000000000000100000838015000000000000B0
:101810000000000000000C3020000000000000006C
:1018200000000000000000000000000000000000B8
:10183000000000000007009E6000000000000000A3
:101840000000000000000000000000000000000098
:101850000000000000000000000000000981D21418
:1018600030000000000000000000000000C3000085
:101870000000000000000000000000000000000068
:1018800000000000000000000000000000B9A000FF
:101890000000000000000000D00000000000000078
:1018A0000000000000000000000000000000000038
:1018B00000000010878015000000000000000000FC
:1018C0000000000C302000000000000000000000BC
:1018D0000000000000000000000000000000000008
:1018E000000000009BD7C050000000000000000175
:1018F00000000000000000000000000000000000E8
:101900000000000000E0F000000000DA14300000E9
:101910001C000000000000000000C30000000000E8
:1019200000000000000000000000000000000000B7
:101930000000000000000000400005BAFC000000AC
:10194000000000004000D000000000000000000087
:101950000004000000000000000000000F21004013
:10196000000300150001000000000000000000005E
:101970000C3020000000000000000000000000000B
:101980000000000000000000000000000000000057
:10199000009AE0400000000000000000000000008D
:1019A00000000038000000000000C000000000003F
:1019B0000000000000000000DA143000000C0000FD
:1019C00000000000000000C3000000000000000054
:1019D0000000000000000000000000000000000007
:1019E00000000000000000016D0000000000000089
:1019F00000000000000000000000000000000000E7
:101A0000000000000000000000000000005007007F
:101A1000150000000000000000000000000C302055
:101A200000000000000000000000000000000000B6
:101A300000000000000000000000000008001BB8CB
:101A40000080000000000000000000000000000016
:101A5000000000000000000073C100000200000050
:101A60000000000980DA14300000000000000000CF
:101A700000000000C30000000000000000000000A3
:101A80000000000000000000000000004000000016
:101A90000000003000838000000000000000000013
:101AA0000000000000000000000000000000043CF6
:101AB0001040002C00000000000010038015000002
:101AC000000000000000000000000C3020000000BA
:101AD0000000000000000000000000000000000006
:101AE0000000000000000000040180000000000071
:101AF000000000030400010000000C1000000000C2
:101B00000030400000000000000000000000010460
:101B10000018FA14300410000059104000000000B2
:101B200000C30000000000000000000000000000F2
:101B300000000000000000000000000000000000A5
:101B400000000000000000000000204000F0000045
:101B500000810000000000020400000000000000FE
:101B60000000000000000050078015000000000F7A
:101B7000C0040000000000000000000000000000A1
:101B80000000000000000000000000000000000055
:101B90000000000000010000F2143000000000000E
:101BA000000000009B1E8000000065C0008000084F
:101BB000001F214300800000018F0408000000F294
:101BC00014300000007C0000000000000000000055
:101BD0000000000000000000000000000000000005
:101BE00000000000000000000000000000000700EE
:101BF0001508000000000000000009EDF8000000DA
:101C0000020000002000000F1001508000000010B2
:101C1000F04000010003001510000002C0000000A9
:101C200000000000000000000000000000000000B4
:101C300000000000000000000000000000000000A4
:101C40000003800000721430004000000003800098
:101C50000ED7908080000038610080380000092194
:101C60004380E0000780000003838000F214300E00
:101C7000000001FCAF200000000000000000000098
:101C80000000000000000000000000000000000054
:101C900000000000000000002000000B0015000202
:101CA000000000002000009B010080000244009022
:101CB0000002028900580150080000400000002086
:101CC000000007001500800000030AF0100000006B
:101CD0000000000000000000000000000000000004
:101CE00000000000000000000008000000000328C1
:101CF0000019D2143000000000000000071E3B9CB9
:101D00009880000001CC0F803000019D214300002D
:101D1000000000000003000019D21430000000622F
:101D2000E84040000000000000000000000000004B
:101D300000000000000000000000000000000000A3
:101D40000000000000320000878015000000000045
:101D5000000000099041C9000000000290F003005B
:101D6000000818015000000000000000100000836F
:101D70008015000000000F9004000000000000002B
:101D80000000000000000000000000000000000053
:101D9000000000000000000000000000000181526F
:101DA000143000014000000000080077428000006D
:101DB0000001CC0F800400181D214300000000002A
:101DC000000000000000D214100000262A5C8040B1
:101DD0000000000000000000000000000000000003
:101DE00000000000000000000000000000000000F3
:101DF00000000000008B80150000000000000000C3
:101E0000B00D2820000000000390F00040090858A1
:101E100001500000000000000000000007801500D5
:101E20000002402E900400000000000000000000AE
:101E300000000000000000000000000000000000A2
:101E400000000000000000000000101EFA14300026
:101E5000000000000000010EF3008080001401E18A
:101E60005A800000000FA1430000000000000000A5
:101E700000000000000000000005DBBF00000000C3
:101E80000000000000000000000000000000000052
:101E90000000000000000000000000000000000042
:101EA00040010700150000000000000008080B02B8
:101EB0000400010362CCCA50000000001001500071
:101EC000000000000000006000900000000100021F
:101ED0002CAFF00000000000000000000000000037
:101EE00000000000000000000000000000000000F2
:101EF0000000000000000000005A14300040000004
:101F0000000000018C83B40080003668610080000E
:101F100000000DA1430004000000000000000800C4
:101F2000000000000020275A080000000000000008
:101F300000000000000000000000000000000000A1
:101F40000000000000000000000000000000000B86
:101F50000015000A00000000000091A94380000065
:101F6000014000C0000000000050015000200000AF
:101F70000000000000500000000000E0C21F000050
:101F80000000000000000000000000000000000051
:101F90000000000000000000000000000000000041
:101FA00000000000099CDA1430000000000000006E
:101FB0000F0F0000000000206DE100800000808D08
:101FC000A143000000000000000040098000000064
:101FD0000010E001DA4002000000000000000000F4
:101FE00000000000000000000000000000000000F1
:101FF0000000000000000000000000110780150034
:1020000000000000000000F9800000000001428292
:1020100080000000010018015000000000000000D6
:10202000000010000000000001402C000000000033
:10203000000000000004000000000000100000008C
:10204000000000400000000000010000000000014E
:10205000040F987A1430000000000003040100000F
:102060000000001020046100803040818FA14300F7
:10207000C10000000000010408000000000410205E
:10208000621EC0420000000000000000400000008E
:10209000000001000000000000040000000000003B
:1020A0001000000000000040100B80150000000030
:1020B00000002040080000000001004280D0000223
:1020C000040100580150085000000000000040507A
:1020D000000000000001C01D0D8400000000000091
:1020E00000000000000000000000000000000000F0
:1020F0000000030002000001600000000000080072
:102100003A1412000000000000000800B73150002F
:10211000001400600080000000072143000000065A
:102120008000000000000000000000001E38492070
:10213000400000000000000000000000000000005F
:10214000000000000000000000000000800000000F
:102150000000000000100100291000000000000035
:1021600031100D23010000002000C00040000008D5
:10217000B00151000000000000000000000000005D
:1021800000040027B5B704140000000000000000A0
:102190000000000000000000000000003800800384
:1021A000A3C200E0034035AA7403800000000000D1
:1021B000000000000003800000DBBE90000004016E
:1021C00060008038180007214300E0020007CA5071
:1021D000038010007628100E00366859DA4000009F
:1021E00000000000000000000000000000000000EF
:1021F000000002000100003C00080016036CAD4026
:10220000203000000000000000000000200000B3AB
:10221000B1D3000000E000C00002020000F0015055
:1022200008003C01D00500200200B379E9C080011C
:10223000C01EBE2C140000000000000000000000C2
:1022400000000000000000000000000003A3C20026
:1022500000000676CA000300000000000000000035
:102260000000000000003BBE9000400000600080C5
:10227000101001952143000001E005CC362000201C
:10228000000000000C00007A6C0800000000000054
:10229000000000000000000000000000000000003E
:1022A000000000003C0000000029C00000300000D9
:1022B0000000000000000000000000000043EB00F0
:1022C0000001C000D00001000008B8015000002E3D
:1022D00001F0D358000100D00000004000000CF0D5
:1022E00000040000000000000000000000000000EA
:1022F00000000000000000000007A3C280000340AF
:1023000027A01020000000000000000000000000D6
:102310006000190602800000043DC100800000003A
:102320000521414008004380A0A0040027000000D0
:102330000000000033DD1A00000000000000000073
:10234000000000000000000000000000000000008D
:10235000083C000000063AC0000000000000000039
:10236000000000000000010000834014000000672E
:1023700082800000000000F8015040400E00C005BF
:1023800018000108000000000000024490C0040092
:10239000000000000000000000000000000000003D
:1023A000000000000059AB26D50000006025AD34C8
:1023B00020000000000000000000000000000518E0
:1023C000DF88808000360408F00140000000000033
:1023D000000001662DC0A000000180000000000088
:1023E0001E00780A09000000000000000000000044
:1023F000000000000000000000000000001BAB50C7
:102400000000000140C74000000000000000000084
:102410000000000028100DC11000000142800F00D4
:102420001000000A00000000000003D000080000B7
:1024300000000000000000238100A0100000000048
:10244000000000000000000000000000000000008C
:102450000000D80000000000000615FB5400000139
:10246000000000000000000000000001C0379040A4
:10247000800000027E08020082000000000000C20E
:10248000079FA40000000181003C10400E200000C6
:10249000000000000000000000000000000000003C
:1024A0000000000000000000050000000000000027
:1024B0000368AD40000008000000000800000000B4
:1024C0000038000041040000A0003400000000506B
:1024D0000000000000002C2BFA0000000000E003C8
:1024E000C3000003C0000000000000000000000066
:1024F00000000000000000000000000000000000DC
:10250000000000000000078F91050400001E00007D
:10251000000000000000000001810303D00000045F
:102520006A5EA000000098000000000001C62DA116
:10253000802040078000000000001E3800000000DE
:10254000000000000000000000000000000000008B
:102550000000000000000000000000000000281043
:102560006000000100000000000000000000080002
:1025700080403D000000203C00000000010A0000F7
:102580000000002425602C01000070000000000005
:1025900000640000000000000000000000000000D7
:1025A00000000000000000000000300051A000000A
:1025B00000C0006034FB5401000000000000000077
:1025C0000000000300500880295001203E3BDAEF54
:1025D00000B2800000000000CA020680F0C00F00B8
:1025E0000700DF3D54040000000000000000000070
:1025F00000000000000000000000000000000000DB
:102600000200000000000008000002F8AD400000D9
:10261000000000000000000000002002009F01698F
:10262000001402E415AFF082000000000000044036
:1026300004001E0C00B00000036FED840040000099
:10264000000000000000000000000000000000008A
:10265000000000000000000000000000000000007A
:10266000000000000000000000000000000000006A
:10267000000000197301480000007C4B5000000866
:10268000500DF4F40000006044F040000000000031
:102690000000000000014EF54000000000000000B6
:1026A000000000000000000000000000000000002A
:1026B0000000000000003C000000000000000000DE
:1026C000000000000000000000D0D5003C00000029
:1026D00003CEA1000000508032CFC0000000294A84
:1026E000000880000080000000000000000F54106F
:1026F00000000000000000000000000000000000DA
:102700000000000000000000000000000000158034
:10271000A000000000000000000000000003800096
:102720001F5620000E401E04FAFE4A3A00B8A33A93
:1027300005880002430DE0A0000008007BA8000E01
:102740000000000000000000000000000000000089
:102750000000000000000000000000000000000079
:102760000000000028300A200000000000000000E7
:1027700000000000200000B56C00008A0963B50766
:10278000E706100F9010201200001E00300A1800FB
:10279000009000C28000800002C000000000000025
:1027A0000000000000000000000000000000000029
:1027B0000000000000000000000003800000000096
:1027C00000000000000000000000008007991A07C8
:1027D000008000000400000000000007E028000066
:1027E00000601F8F50A00050015B014000002000DE
:1027F00000000000000000000000000000000000D9
:1028000000000000000000000000000000000000C8
:102810004040000000000000000000000000000038
:1028200000000038F5C030000013C3C000000001F4
:1028300000000402800000020160F700000200DBDB
:102840004000200860400000000000000000000080
:102850000000000000000000000000000000000078
:102860000000000000000000000000000000000068
:102870000000000000000000000381D20F1880401B
:10288000346C0000000000918F7A04080236407C0E
:10289000FD00000008001F280400000000000000E8
:1028A0000000000000000000000000000000000028
:1028B0000000000000000000000000000000000018
:1028C00000000000000000000000E0000000000028
:1028D000D8E7C2F3010203C280000000000190307B
:1028E000200400022C2A6AF01000009000028020D0
:1028F00000000000000000000000000000000000D8
:1029000000000000000000000000000000000000C7
:1029100000000000000000000000000000000000B7
:1029200000000000004021805F968800200003FA2C
:102930005A000100800FE420000000000FF5B200F3
:1029400000081F7B9680400000000000000000008F
:102950000000000000000000000000000000000077
:102960000000000000000000000024000000000241
:1029700000000000000000000000000000F00D80DA
:10298000280004034025925000000F0076800000CC
:1029900000003DC8AF000000F0F34014000020002C
:1029A0000000000000000000000000000000000027
:1029B0000000000000000000000000000000000017
:1029C000000004C50000000000000000000000003E
:1029D00000000000081716C080002E23DF00000052
:1029E00000B8087C20040201E71E8A010800880064
:1029F000020C00C000000018F040000000000000C1
:102A000000000000000000000000000000000000C6
:102A10000000000000000000000050000000000066
:102A2000000000000000000000005007011C000032
:102A3000C4443DC01000000780938100000002786C
:102A400010A0000000900040C004002000010F040E
:102A50000000000000000000000000000000000076
:102A60000000000000000000000000000010000056
:102A7000000000000800779404000000000000003F
:102A80000581F68010806006007AC20200021800FC
:102A9000730008000176A1A0422000071877B082D9
:102AA00080000000000000000000000000000000A6
:102AB0000000000000000000000000000000000016
:102AC0000000000080000000000000B00041400253
:102AD0000000000000020118858201A10A800000A8
:102AE0000C2080000000003000000C0403D008001F
:102AF000000039F74108000001C00000000000009C
:102B000000000000000000000000000000000000C5
:102B100000000000000000000000000000000000B5
:102B2000000000000000000000000003000FC033A0
:102B3000C8000C002C2BF908001000F08FBB800C93
:102B4000000243E1C0202028081EFF080004000006
:102B50000000000000000000000000000000000075
:102B60000000000000000000000000000000000065
:102B7000000000000000000000E000000000000075
:102B8000000030003807356800C000C23ED00005A4
:102B900000091018300000001676D0010100003046
:102BA000F5AC004000000000000000000000000044
:102BB0000000000000000000000000000000000015
:102BC0000000000000000000001C00080000000AD7
:102BD00030002000000000000003018A1780000080
:102BE0000160026A0400028000E0000000000000B2
:102BF0001CC05400000018000000080080001EF0F7
:102C00004100000000000000000000000000000083
:102C100000000000000000000000000000000000B4
:102C200020000200000100800008000400000001F4
:102C30000008E96C10000000423E90A00000000077
:102C40000000000006000020054100000000000018
:102C500000001400000F040000000000000000004D
:102C60000000000000000000000000000000000064
:102C70000000000001E01F80F80800080E7703E064
:102C800000000000000000000E33A0008E0000795C
:102C9000FC2000380010003A8000E0000000C5066B
:102CA000038000000000000E0000000AF0408000D9
:102CB0000000000000000000000000000000000014
:102CC000000000000000000000000036000C0F00B3
:102CD0000000D100003C000000000000000501A041
:102CE00002000080000416E0000203808DB414008E
:102CF00008800000C0A0402001900000000080007B
:102D000000000F04000000000000000000000000B0
:102D100000000000000000000000000000000000B3
:102D200000000054C0F8000007815203E0000000DA
:102D300000000000079CDB0B0080000403DC18028D
:102D4000000580E3F860414000078000000000506B
:102D500000000000000E0C040AF04000000000001B
:102D60000000000000000000000000000000000063
:102D700000000000000000000020300F00000008EC
:102D800080C03C000000000000000009F540600029
:102D90000009C03F008000005F10DF04000C00004D
:102DA0000000000000020000000000000003C10F4E
:102DB000048000000000000000000000000000008F
:102DC00000000000000000000000000000000007FC
:102DD000B695E084000700D24144000000000000E6
:102DE000400780771000800E00004C406202807027
:102DF0000F68800804400000C506000080001BA981
:102E0000101100140000000000000000000000008D
:102E100000000000000000000000000000000000B2
:102E200000000000002401682E00000000F92C08BA
:102E30000000000000000400F009C30000000400CE
:102E40002C00049400008010000000200000D0A09E
:102E500040000800097EE1010004000000000000BD
:102E60000000000000000000000000000000000062
:102E70000000000000000000000000006280000070
:102E80000000038E00000000400000000008081C45
:102E9000F610C0800120386B3F00000081E5220061
:102EA000880001C0000000000000000000000000D9
:102EB0000000000000000000000000000000000012
:102EC0000000000000000000000000000000000002
:102ED00000000000000000000000000000000A00E8
:102EE0000000000100F009C30C00000A4426C35092
:102EF00000000B1004200000001428000000000057
:102F000000000000000000000000000000000000C1
:102F100000000000000000000000000000000000B1
:102F200000000000000000000000000000000000A1
:102F30000107280040000000000000200100000000
:102F40000000006800000001100180000000000087
:102F50000001C5041019000000000000000000007E
:102F60000000000000000000000000000000000061
:102F70000000000000000000000000000000000051
:102F8000000000000030D08341400000000000003D
:102F9000020400800000000001C0000000002803BF
:102FA0000800000000001400C0A040000010000055
:102FB0000000000000000000000000000000000011
:102FC0000000000000000000000000000000000001
:102FD0000000000000000000000000002180F7C495
:102FE0000000000000000000470C7AA9400100002A
:102FF00001FC00004009718FF41D400009404000B1
:103000000000100009000000000000040EF0400065
:1030100000000000000000000000000000000000B0
:103020000000000000000000000000000038000068
:10303000000205700168002100000000000000018E
:10304000A57128000001C3E7A080800020807E4099
:10305000D40001402C000000000001E0000000004E
:103060000003410F04000000000000000000000009
:103070000000000000000000000000000000000050
:10308000000001C00000000000000000000000007F
:10309000000000000000010000000C000E740000A1
:1030A000003001101BF3C104C0000000E50413034D
:1030B0000000000000040040001AF0400000000082
:1030C0000000000000000000000000000000000000
:1030D00000000000000000000000000000000000F0
:1030E00000F00000000000000000000010F00000F0
:1030F00000C01C07C0000002002088B83E9818409D
:103100000000C0A040100000000000000008C00047
:103110000F0480000000000000000000000000001C
:10312000000000000000000000000000000000009F
:1031300006000000000000005ABC20002000000033
:103140000000010A57800000008062591000000052
:1031500000EFE96800000000218504000000000382
:10316000BC1000004003C8F5C000000000000000D3
:1031700000000000000000000003C000000000008C
:1031800000000000000000000000000000F000A0AF
:103190003C00040000000000000903FC10000004D3
:1031A000C00FF000100007009803C000040024D0F6
:1031B000A0400000000003C100006800240050206F
:1031C000000000000000000000000000000E0000F1
:1031D0000000000000010000283C00E00207800021
:1031E0000003828780523C20000000000000002085
:1031F000003682008E001C700000003800980984A0
:103200006000E0016695C0540380200E073C100664
:10321000000007C8F5C0000000000000000000002A
:1032200000000000800000000000000020000403F7
:10323000C0480004400000002000080083C00000D7
:1032400000000000002100E0C020008000274000B6
:103250000002000B095BC00008000240000540208E
:1032600000000043C1008AA00234005000000000AA
:10327000000000000000000000000002000000004C
:1032800000000001E0000000000600000000000057
:10329000001A5A3C20000080000000000800930043
:1032A000080000043868A008040081C32BBD0C4A44
:1032B00004C021C5040301500007BC1000000067D2
:1032C00048F5C00000000000000000000000000001
:1032D00000000000000000000000000000000000EE
:1032E0001C000000000000F0F003C000001000000F
:1032F00000000810E7402800000014010A00000246
:103300000110D80FD004440100D0A040303A000092
:1033100043C1000000022600500000000000000031
:10332000000000000000000000200000000000007D
:10333000000000000000000396E33500200800F2C2
:10334000055800000000000020578EDF82808000BA
:1033500020034AA570020200E57280001000C0211F
:10336000C0540000038006BC100040860748F5C02A
:10337000000000000000000000000000000000014C
:10338000C0000000000000000000000000004169D3
:103390001240010050B1AD51A40000000000010234
:1033A0000907401000002040160A05100049000CD3
:1033B000280001000000400A400000080003C1008E
:1033C0000000023600500000000000000000000075
:1033D00000000000000000000000000000000000ED
:1033E000000000000034F335000040000000000041
:1033F000000000000000099AB22008800000380098
:10340000A5400200018FE2150A100006A1C50400C4
:10341000015000073C1000000003E8F5C000000068
:10342000000000000000000000000000000000009C
:10343000000000000000000000000003582141408F
:1034400020000000000000000000000020B4C9427D
:1034500080000000001405A4001000101039D201F3
:10346000000000C0A0400000000043C100080000B0
:1034700024005000000000000000000000000000D8
:103480000000000024000000000000000000000018
:1034900000000FE962000050000000000000000082
:1034A00000000000001F90C8800080004E00000057
:1034B0001900112C2000000B66D7C0540001001C1D
:1034C00007BC100000000368F5C000000000000009
:1034D00000000000000000000000020000000000EA
:1034E000000000000000003C000096000002000008
:1034F000000000000000000000003001830C4000CC
:10350000154025050000000008B7C90000000C2880
:10351000000540000001F043C100000000340050ED
:10352000000000000000000000000000000000009B
:103530000000FBE3400000000000000000016047C5
:10354000E050001000180000000000000000000023
:10355000001A92C00000A0007ADE8002000000077E
:1035600000000000000020C50400200008063C10F8
:103570000009660208F5418000000000000000001C
:10358000000000000000000026D43C000000000005
:1035900000000000002820052000000000000000BE
:1035A00000000000000000000DB010000000042624
:1035B00000000800000818168000000000D0A0409D
:1035C0000000700043C100000040240FA0800000F4
:1035D00000000000004000000000000C000000009F
:1035E000000000000000000000C000E00000000338
:1035F00000000000000000000000000002810B7EBF
:10360000A9400601603800A540300580156A84088D
:10361000C800000FC0540340078F07BC10008F2064
:103620000000000000000000000000040000000096
:103630000000800000000000000000000000000802
:103640000026000000002000000000000000000034
:103650000000000590DB228404000BC02405A612A4
:1036600000210D9C000008020000200540240201FA
:10367000B003C1000008400000000000000000008E
:10368000000000080000000000002661FA0F800022
:103690000001800000000000060E00080000031E6C
:1036A0003380000000000000000000000000000067
:1036B0000004204DA000000500A1F3C20000140288
:1036C000DFC73000000019960CC000080000CC00D5
:1036D00050000000000000000000D00000000000CA
:1036E00000400380F00000200000000000003C408B
:1036F000200002000000E7B004010000000000000C
:1037000000F000000000000423FC852000000010F1
:103710000683C000008022CF13010100D08BB3309C
:1037200000000403C10A0508000000000000038037
:10373000080000000000002000D80F8038000000C2
:1037400000000000000016A0F8078008000000003C
:10375000000000000003800D1E163C000E6E20636A
:10376000FC302238825801A3C20000140035A4A006
:1037700003801180920CC88E0000041E00400000DF
:1037800000000000002000100000000000014000C8
:1037900080F002000000000000000000001C0F0884
:1037A0002000700000000000000000002001F80769
:1037B0000140028E01C427020002115D00003C009E
:1037C0000001D401DF9D002200000D433004800081
:1037D000028D050510000000000000000000000040
:1037E0000000000000054C0F8000005000000000A9
:1037F000000002D5A0F80000238182828000000032
:10380000000000000001F668000400202378000298
:103810000000581123C20000014014AB90230000A7
:103820000A5F154004010000DC00500000000000A9
:103830000000000000C000000000000203F0F000E3
:1038400000000000000000000020200F00002050B9
:10385000F74014000000000000002000E1390000E3
:103860004000441D00100003000A083C0000001442
:103870002AE0340030000100415400406800000A92
:1038800004000000000000000040000000000000F4
:10389000000001FC0F800000000B2919000001C08E
:1038A0001C05A8000008003FB0C081000000000017
:1038B000238700BB0E0083A00021EF5A00000550B3
:1038C00005A3C20000094296EA500043A800006028
:1038D00050000000001C00604000000000000004D8
:1038E0000000000000000003428190F00000000092
:1038F000BA60D00000140260A50000001001410C65
:1039000000101000000001000803C0F00014034282
:10391000A5C1A000002080003C000006002A50AA9B
:1039200000050410BF2909000000000C0504000078
:10393000000000000000000000D3A91000001429BE
:103940006D0F8000000000000000000060048AD0BD
:103950001000080816B458800000000000000000A5
:103960009F204000002E075800020801000D264D40
:10397000240000005DEE20200010007728180020B1
:1039800014380000000000000000000000000001EA
:10399000E3690000016400C0F00000000B000000BB
:1039A00000000026E8DF000000F1058381800004AC
:1039B000000000000500FBB500000001622D0020A2
:1039C000000020007B10905088003830E200000298
:1039D0007000C28100100002C00000000000000062
:1039E0000000000000000000000000200008F010AF
:1039F000000001C00000000000028000000000077D
:103A0000000000000000000000000007191B8000FB
:103A100000020406CC7543010080E00000000015A0
:103A20004005EC5020000019072810400014000C3D
:103A300000608000000000000000000000000000A6
:103A4000000042C00F020000001000000000000053
:103A5000000000000000F000000000000000000076
:103A600000000887028000000002550B561000017C
:103A7000100000000000820020C5010102708F418B
:103A800041000003600D0504080000000000000074
:103A900000000000000000000068000000000000BE
:103AA0000FF01500000006000000000009003AFDBC
:103AB00050400800000000000900D791D8A0000085
:103AC0007BFA000000000000000000001402F7EA8A
:103AD000500000001C03A810000000280C0040004B
:103AE000000000000000000000E0000000000000F6
:103AF000000000000000007E8D500000000000006B
:103B0000000000B00923692000000000000000B898
:103B10000B81290000000435B022000000400000A5
:103B200000000C007860AA000020018D41410000D7
:103B300000043C0505080000000000000300000030
:103B4000000000000014040000003000101000000D
:103B5000000000000000000300011C000000000045
:103B600000000001000F1CFF79522C003C3800427D
:103B70000232025000000000040140400000030037
:103B800090000728122400002818004000000000C0
:103B90000000002000000000000000002280000063
:103BA00002000008000000000000000000002000EB
:103BB000000000000000000000003000B907F745D9
:103BC0002080A2D004081002100080000000000C29
:103BD00036200000002002000F0141000040040DCB
:103BE00005050800001101010100000000000000AF
:103BF0000000000010000000000000400000000075
:103C0000000100000000000004000000000000109F
:103C10000000000000004000000000100000000054
:103C2000000040000000000001000000000000044F
:103C30000000000000001000000000000040000034
:103C40000000000000000000000002000000000072
:103C500000080000000000002000000000000080BC
:103C6000000000000002000000000000080000004A
:103C7000000200000000000008000000000000201A
:103C800000000000000080000000000002000000B2
:103C9000000000080000000000000000000000001C
:103CA0000000000000000000000000000000000014
:103CB0000000000000000000000000000000000004
:103CC00000000000000000000000000000000000F4
:103CD00000000000000000000000000000000000E4
:103CE0000000000000004000000000000000000094
:103CF00000000000000000000000000000000000C4
:103D000000000000000000000000000000000000B3
:103D100000000000000000000000000000000000A3
:103D20000000000000000000000000000000000093
:103D30000000020000000000000000000000000081
:103D40000000000000000000000000000000000073
:103D50000000000000000000000000000000000063
:103D60000000000000000000000000000000000053
:103D70000000000000000000000000000000000043
:103D80000000000000000000000000000000000033
:103D90000000000000000000000000000000000023
:103DA0000000000000000000000000000000000013
:103DB0000000000000000000000000000000000003
:103DC00000000000000000000000000000000000F3
:103DD00000000000000000000000000000000000E3
:103DE0000000000000000000000000004000000093
:103DF00000000000000000000000000000000000C3
:103E000000000000000000000000000000000000B2
:103E100000000000000000000000000000000000A2
:103E20000000000000000000000000000000000092
:103E30000000000000000000000000000000000082
:103E400080000100000000000000000000000000F1
:103E50000000000000000000000000000000000062
:103E60000000000000000000000000000000000052
:103E70000000000000000000000000000000000042
:103E80000000000000000000000000000000000032
:103E90000000000000000000000000000000000022
:103EA0000000000000000000000000000000000012
:103EB0000000000000000000000000000000000002
:103EC00000000000000000000000000000000000F2
:103ED00000000000000000000000000000000000E2
:103EE00000000000000000000000000000000002D0
:103EF00000000000000000000000000000000000C2
:103F000000000000000000000000000000000000B1
:103F100000000000000000000000000000000000A1
:103F20000000000000000000000000000000000091
:103F30000000000000000000000000000000000081
:103F40000000000000000000000000000000000071
:103F50000000000000000000000000000000000061
:103F60000000000000000000000000000000000051
:103F70000000000000000000000000000000000041
:103F80000000000000000000000000000000000031
:103F90000000000000000000000000000000000021
:103FA0000000000000000000000000000000000011
:103FB0000000000000000000000000000000000001
:103FC000000000000000000000000000000C0000E5
:103FD00000000000000000000000000000000000E1
:103FE00000000000000000000000000000000000D1
:103FF00000000000000000000000000000000000C1
:1040000000000000000000000000000000000000B0
:1040100000000000000000000000000000000000A0
:10402000000500000000000000000000000000008B
:104030000000000000000000000000000000000080
:104040000000000000000000000000000000000070
:104050000000000000000000000000000000000060
:104060000000000000000000000000000000000050
:104070000000000000000000080000000000000038
:104080000000000000000000000000000000000030
:104090000000000000000000000000000000000020
:1040A0000000000000000000000000000000000010
:1040B0000000000000000000000000000000000000
:1040C00000000000000000000000000000000000F0
:1040D00000000000000000000000000000000000E0
:1040E00000000000000000000000000000000000D0
:1040F00000000000000000000000000000000000C0
:1041000000000000000000000000000000000000AF
:10411000000000000000000000000000000000009F
:10412000000000000000000000000000000000008F
:10413000000000000000000000000000000000007F
:10414000000000000000000000000000000000006F
:1041500000000000000C3000000000000000000023
:10416000000000000000000000000000000000004F
:10417000000000000000000000000000000000003F
:10418000000000000000000000000000000000002F
:10419000000000000000000000000000000000001F
:1041A000000000000000000000000000C30200004A
:1041B00000000000000000000000000000000000FF
:1041C00000000000000000000000000000000000EF
:1041D000000000000000000000000000400000009F
:1041E00000000000000000000000000000000000CF
:1041F00000000000000000000000000000000000BF
:1042000000000C3000000000000000000000000072
:10421000000000000000000000000000000000009E
:10422000000000000000000000000000000000008E
:10423000000000000000000000000000000000007E
:10424000000000000000000000000000000000006E
:10425000000000000000000000C302000000000099
:10426000000000000000000000000000000000004E
:10427000000000000000000000000000000000003E
:10428000000000000000000000000000000000002E
:10429000000000000000000000000000000000001E
:1042A0000000000000000000000000000000000C02
:1042B00030000000000000000000000000000000CE
:1042C00000000000000000000000000000000000EE
:1042D00000000000000000000000000000000000DE
:1042E00000000000000000000000000000040000CA
:1042F00000000000000000000000000000000000BE
:10430000000000000000C3020000000000000000E8
:10431000000000000000000000000000000000009D
:10432000000000000000000000000000000000008D
:10433000000000000000000000000000000000007D
:10434000000000002000000000000000000000004D
:104350000000000000000000000000000C30000021
:10436000000000000000000000000000000000004D
:10437000000000000000000000000000000000003D
:10438000000000000000000000000000000000002D
:10439000000000000000000000000000000000001D
:1043A000000000000000000000000000000000000D
:1043B000000000C302000000000000000000000038
:1043C00000000000000000000000000000000000ED
:1043D00000000000000000000000000000000000DD
:1043E00000000000000000000000000000000000CD
:1043F00000000000000000000000000000000000BD
:104400000000000000000000000C30000000000070
:10441000000000000000000000000000000000009C
:10442000000000000000000000000000000000008C
:1044300000000000000000000000000000300A4002
:1044400080000000000000000000000000000000EC
:10445000000000000000000000000000000000005C
:10446000C302000000000000000000000000000087
:10447000000000000000000000000000000000003C
:10448000000000000000000000000000000000002C
:104490000000001480A400000000000000000000E4
:1044A000000000000000000000000000000000000C
:1044B0000000000000000C300000000000000000C0
:1044C00000000000000000000000000000000000EC
:1044D00000000000000000000000000000000000DC
:1044E00000000000000000000000000000000000CC
:1044F00000000000000000000000000000000000BC
:1045000000000000000000000000000000C30200E6
:10451000000000000000000000000000000000009B
:10452000000000000000000000000000000000008B
:104530000000000000000000000000000000000675
:10454000000000000000000000000000000000006B
:10455000000000000000000000000000000000005B
:104560000000000C3000000000000000000000000F
:10457000000000000000000000000000000000003B
:10458000000000000000000000000000000000002B
:104590000000000800000000000000000000000013
:1045A000000000000000000000000000000000000B
:1045B00000000000000000000000C3020000000036
:1045C00000000000000000000000000000000000EB
:1045D00000000000000000000000000000000000DB
:1045E00000000000000000000000E00000000000EB
:1045F00000000000000000000000000000000000BB
:1046000000000000000000000000000000000000AA
:104610000C3000000000000000000000000000005E
:10462000000000000000000000000000000000008A
:10463000000000000000000000000000000000007A
:104640000000003800000000000000000000000032
:10465000000000000000000000000000000000005A
:1046600000000000000000C3020000000000000085
:10467000000000000000000000000000000000003A
:10468000000000000000000000000000000000002A
:10469000000000000000000000000000000000001A
:1046A000000000000000000000000000000000000A
:1046B000000000000000000000000000000C3000BE
:1046C00000000000000000000000000000000000EA
:1046D00000000000000000000000000000000000DA
:1046E00000000000000000000000000000000000CA
:1046F00000000000000000000000000000000000BA
:104700000000000000083D40000000000000000024
:104710000000001AC30200000000000000000000BA
:104720000000000000000000000000000000000089
:104730000000000000000000000000000000000079
:104740000000000000000000000000000000000069
:10475000000000000000000000000001ABD4800059
:10476000000000000000000000000C30000000000D
:104770000000000000000000000000000000000039
:104780000000000000000000000000000000000029
:104790000000000000000000000000000000000019
:1047A0000000000000000000000000000000000009
:1047B00000000000000000000000000000000000F9
:1047C00000C3020000000000000000000000000024
:1047D00000000000000000000000000000000000D9
:1047E00000000000000000000000000000000000C9
:1047F00000000000000000000000000000000000B9
:1048000000000000000000000000000000000000A8
:10481000000000000000000C30000000000000005C
:104820000000000000000000000000000000000088
:104830000000000000000000000000000000000078
:104840000000000000000000000000000000000068
:104850000000000000100000000000000000000048
:104860000000000000400000000000000000C30243
:104870000000000000000000000000000000000038
:104880000000000000000000000000000000000028
:104890000000000000000000000000000000000018
:1048A0000000000000000000000000000000000008
:1048B00000000000000000000000000300000000F5
:1048C000000000000C3000000000000000000000AC
:1048D00000000000000000000000000000000000D8
:1048E00000000000000000000000000000000000C8
:1048F00000000000000000000000000000000000B8
:1049000000000000000000000000000000000000A7
:10491000A000000000000000000000C30200000032
:104920000000000000000000000000000000000087
:104930000000000000000000000000000000000077
:104940000000000000000000000000000000000067
:104950000000000000000000000000000000000057
:104960000000000000000400000000000000002023
:10497000000C3000000000000000000000000000FB
:104980000000000000000000000000000000000027
:104990000000000000000000000000000000000017
:1049A0000000000000000000000000000000000007
:1049B0000000000000000000000403C00000000030
:1049C0000000000000160000C3020000000000000C
:1049D00000000000000000000000000000000000D7
:1049E00000000000000000000000000000000000C7
:1049F00000000000000000000000000000000000B7
:104A000000000000000000000000000000000000A6
:104A1000283D0200000000000000000000000C30F3
:104A20000000000000000000000000000000000086
:104A30000000000000000000000000000000000076
:104A40000000000000000000000000000000000066
:104A50000000000000000000000000000000000056
:104A60000000000000800000000000003400000092
:104A70000000000000C30200000000000000000071
:104A80000000000000000000000000000000000026
:104A90000000000000000000000000000000000016
:104AA0000000000000000000000000000000000006
:104AB0000000000000000000000000118000000065
:104AC00000000040000000000020000C300000004A
:104AD00000000000000000000000000000000000D6
:104AE00000000000000000000000000000000000C6
:104AF00000000000000000000000000000000000B6
:104B000000000000000000000000000000000000A5
:104B100000000D0000000000000000000000001672
:104B20000000C302000000000000000000000000C0
:104B30000000000000000000000000000000000075
:104B40000000000000000000000000000000000065
:104B50000000000000000000000000000000000055
:104B6000000000000000180000100000000000001D
:104B700000000000000000000C30000000000000F9
:104B80000000000000000000000000000000000025
:104B90000000000000000000000000000000000015
:104BA0000000000000000000000000000000000005
:104BB00000000000000000000000000000000000F5
:104BC0000000000000000030FA000000000060C398
:104BD00002000000000000000000000000000000D3
:104BE00000000000000000000000000000000000C5
:104BF00000000000000000000000000000000000B5
:104C000000000000000000000000000000000000A4
:104C1000000000000000000000000000000EAA5389
:104C200080000000000C30000000000000000000C8
:104C30000000000000000000000000000000000074
:104C40000000000009007C03D80000000000000004
:104C50000000000000000000000000000000000054
:104C600000000080000000000000000000000000C4
:104C7000000000000000000000000000C30200006F
:104C80000000000000000000000000000000000024
:104C900000000000000000000010000009F001000A
:104CA0000000000000000000000000000000000004
:104CB00000000000000000000004000000000000F0
:104CC00000000000000000000000000000000000E4
:104CD00000000C3000000000000000000000000098
:104CE00000000000000000000000000000000000C4
:104CF00000000000000000000000000000000000B4
:104D00000000004000000000000000000000000063
:104D10000000000000000000000000000000000093
:104D20002C0000000000000000C302000000000092
:104D30000000000000000000000000000000000073
:104D40000000000000000000000000000000000063
:104D50000000000000000000000A00000000000049
:104D60000000000000000000000000000000000043
:104D70000000000000000040000000000000000CE7
:104D800030000000000000000000000000000000F3
:104D9000000000000000000000000000000000090A
:104DA0000000000000000000000000000000000003
:104DB00000000000000000000000000000000000F3
:104DC00000000000000000000000000000400000A3
:104DD000000000000000C30200000000000000000E
:104DE00000000000000000000000000000000000C3
:104DF00000000000000000000000000000000000B3
:104E000000000000000000000000000000000000A2
:104E10000000000000000000000000000000000092
:104E20000000000600000000000000000C30000040
:104E30000000000000000000000000000000000072
:104E40000000000000000000000000000000000062
:104E50000000000000000000000000000000000052
:104E60000000000000000000000000000000000042
:104E7000000000000000000000000030A030000032
:104E8000000000C30200000000000000000000005D
:104E90000000000000000000000000000000000012
:104EA0000000000000000000000000000000000002
:104EB00000000000000000000000000000000000F2
:104EC00000000000000000040000000000000000DE
:104ED000000EEA0000000000000C3000000000009E
:104EE00000000000000000000000000000000000C2
:104EF00000000000000000000000000000000000B2
:104F000000000000000000000000000100000000A0
:104F10000000000000000000000000000000000091
:104F20000000000000000000000000000000000081
:104F3000C3020000000000000000000000000000AC
:104F40000000000000000000000000000000000061
:104F50000000000000000000000000000000000051
:104F6000000000000000000000000000000000043D
:104F70000000000000000000000000100000000021
:104F80000000000000000C300000000000000000E5
:104F90000000000000000000000000000000000011
:104FA0000000000000000000000000000000000001
:104FB00000000000000000000000000000000000F1
:104FC0000000000080000000000000000000000061
:104FD00000000000000000000000000000C302000C
:104FE00000000000000000000000000000000000C1
:104FF00000000000000000000000000000000000B1
:1050000000000000000000000000000000000000A0
:10501000000000000000000000000400000000008C
:105020000000000000000000000000000000000080
:105030000000000C30000000000000000000000034
:105040000000000000000000000000000000000060
:105050000200000E00000000000000000000000040
:105060000000000000000000000000000000000040
:10507000008000000000F4000000000000000000BC
:1050800000000000000000000000C302000000005B
:105090000000000000000000000000000000000010
:1050A00000000000000000380000100000000000B8
:1050B00000000000000000000000000000000000F0
:1050C00000000000000000060000001A0F41000070
:1050D00000000000000000000000000000000000D0
:1050E0000C30000000000000000000000000000084
:1050F00000000000000000000000000000000000B0
:10510000000000000000000000000000000000009F
:10511000000000000000000000000000000000008F
:10512000000000000000000000000000000000007F
:1051300000000000000000C30200000000000000AA
:10514000000000000000000000000000000000005F
:10515000000000000000000000000000000000004F
:10516000000000000000000000000000000000003F
:105170000000000008000000000000000000000027
:10518000000000000000000000000000000C3000E3
:10519000000000000000000000000000000000000F
:1051A00000000000000000000000000000000000FF
:1051B00000004000000000000000000000000000AF
:1051C00000000000000000F042802000000000000D
:1051D0000000000008F8295000002C4030A000001A
:1051E00000000000C30200000000000000000000FA
:1051F00000000000000000000000000000000000AF
:1052000000104000000000000A0000000000000044
:10521000000000000100000000000104000036A8AA
:1052200000400000000000001040781DA95500411A
:1052300000069CCA0008000000000C3000000000BE
:10524000000000000000000000000000000000005E
:10525000000000000000000000000000000000004E
:10526000000000000000000000000000002400001A
:10527000000000D00D4281E000004000000000046A
:10528000000856701800000640000F008000000063
:1052900000C3020000000000000000000000000049
:1052A00000000000000000000000000000000000FE
:1052B00000000000000000000000000000000000EE
:1052C0000000000000000000000800F7801000103F
:1052D0000000000000000018197B910000036680A8
:1052E000A0F000000000000C3000000000000000F2
:1052F00000000000000000000000000000000000AE
:10530000000000000000000000000000000000009D
:1053100000000000000000000E140000000000006B
:10532000000000000001000000000000200709004C
:105330000000000000380000000000000000C30270
:10534000000000000000000000000000000000005D
:10535000000000000000000000000000000000004D
:10536000000000000000000000000000000000023B
:10537000000000000000000000000000100000001D
:1053800000000000F8100000000000000000000015
:10539000000000000C3000000000000000000000D1
:1053A00000000000000000000000000000000000FD
:1053B00000000400000000000000000000000000E9
:1053C00000000000001000400000000040D0E17428
:1053D00025000000000000000004000000000000A4
:1053E000300034000F200000000000C30200000065
:1053F00000000000000000000000000000000000AD
:10540000000000000000000000000000000000009C
:105410000000000000000000000000020007800003
:1054200000000008008681900000000000000000DD
:1054300000000000000004004041E0F00000000017
:10544000000C300000000000000000000000000020
:10545000000000000000000000000000000000004C
:10546000071BDE8D18004000000000000000000057
:1054700000000000000000000000008042804000AA
:1054800000001C0AF010000000903E904000000157
:10549000CCF7008000000000C30200000000000004
:1054A00000000000000000000000000000000000FC
:1054B0000000000000000080BD6C11000A00000028
:1054C00000000000000000000000000000000000DC
:1054D000000D1B280400000000185F000000398741
:1054E000F3C10000000020EFB204000000000C3007
:1054F00000000000000000000000000000000000AC
:10550000000000000000000000000000000000009B
:10551000000000000000000000000000000000008B
:10552000000000000000000000000000000000007B
:105530000000000080400428100000140000AF00AC
:105540000000000000C30200000000000000000096
:10555000000000000000000000000000000000004B
:1055600000000000018000000000000000000000BA
:10557000000000000000000000000000000000002B
:1055800000000000000000000000005003A28100A5
:105590000000000DEAF004000000000C30000000E4
:1055A00000000000000000000000000000000000FB
:1055B00000000000000000000200000000000000E9
:1055C000000000000000000000000000001C0000BF
:1055D0000000200010000000000000C000000002D9
:1055E000000000F403D208080201DCF7000000000C
:1055F0000000C302000000000000000000000000E6
:105600000000000000000000000000000000003862
:10561000000000000000000000000000000000008A
:10562000000000800000000003800800000000006F
:1056300000000000000038000007701501E0004085
:1056400021EFB084000000000C30000000000000DA
:10565000000000000000000000000000000000004A
:10566000000000000000000000000000000000003A
:10567000000000000000000000000000F800200012
:105680000000000000000080000000000000000A90
:1056900000000000002C004DB5404000000000C399
:1056A00002000000000000000000000000000000F8
:1056B00000000000000000000000000000000000EA
:1056C00000000000000000000000000000000000DA
:1056D00000003CD8000000000000000000000000B6
:1056E000000000000071800000000002001D920513
:1056F0008000000000000000040000000000001016
:105700000000000000004000000000000100000058
:105710000000000400000000000000000000000481
:105720000000000000000000280000000040000D04
:1057300042810000000000000000040000000000A2
:105740000000B42C00000000000000000000004039
:105750000000000000010000000000000400000044
:1057600000000010000000000000400000000000E9
:105770000000000000104000000000004100000098
:10578000000001040000861410001000000000005A
:105790000040000000000001136040000000000015
:1057A00000000000000000000000000000000000F9
:1057B00000000000000000000000000000000000E9
:1057C00000000000000000000000000000050800CC
:1057D00000000000000000000000000000000000C9
:1057E0000000022DAD100000000000000000A0002D
:1057F00000000000000000000000000000000000A9
:105800000000000000000000000000000000000098
:105810000000000000000000000000000000000088
:105820000000000080800000000000000000000078
:1058300000000000000000000002CFA100000000F6
:105840000000000004000000000000000000000054
:105850000000000000000000000000000000000048
:105860000000000000000000000000000000000038
:10587000000000000000000000000000BC14100048
:1058800000000000000000400000000000000002D6
:105890000000000000000000000000001E0148267B
:1058A00020000000000000000000000000000000D8
:1058B00000000000000000000000000000000000E8
:1058C00000000000000000000000000000000000D8
:1058D00000180763D5000000000000000000000071
:1058E00000000000000000000000000000000000B8
:1058F0000000024025B3E0000000000000000000AE
:105900000000000000000000000000000000000097
:105910000000000000000000000004000000000083
:10592000000000000000040008FC3D5000100000D2
:105930000000000040000081410001000000000064
:1059400000040000003E8000103400000000000051
:105950000000000000000000000000000000000047
:105960000000000000000000000000000000000037
:10597000000000000000000000000000004000E106
:105980003A8100010000000000000400005E1410D5
:1059900000001400000000000000006294200002DB
:1059A00000000000000000000000000000000000F7
:1059B00000000000000000000000000000000000E7
:1059C00000000000000000000000000000000000D7
:1059D000000000000B0D1C2A9000000038000000A1
:1059E000000010B0000000000000000000000000F7
:1059F00000083D42000026014C5820000000000035
:105A00000000000000000000000000000000000096
:105A10000000000000000000000000000000000086
:105A2000000000000000000000000080133A950014
:105A30000000000000000000080000000000001C42
:105A400000000000000011C1E3D4200001C01FDDF0
:105A500090000000000000000000000000000000B6
:105A60000000000000000000000000000000000036
:105A70000000000000000000000000000000000026
:105A8000000088F03D500000000000000000000011
:105A90000081410000000000000000000000143EF2
:105AA000C000001400000000000000000000000022
:105AB00000000000000000000000000000000000E6
:105AC00000000000000000000000000000000000D6
:105AD000000000000000100018176A81004000005C
