:100000005555AAAA8303000000000000000000006C
:100010001B8400000000000000000000977B9A484D
:1000200000281000650D0000590200006F0200005A
:10003000850200009B020000B102000000000000E9
:10004000000000000000000000000000452000004B
:10005000552000000000000057200000672000002D
:100060006B200000A31E000085200000DD1E0000A4
:10007000872000008920000099200000A9200000AE
:10008000C7020000C7200000C9200000CB200000EC
:10009000CD200000CF200000D12000000000000093
:1000A0000000000000000000000000000000000050
:1000B0000000000000000000000000000000000040
:1000C0000000000000000000000000000000000030
:1000D0000000000000000000000000000000000020
:1000E0008303000000F002F800F062F80AA090E834
:1000F000000C82448344AAF10107DA4501D100F0E3
:1001000057F8AFF2090EBAE80F0013F0010F18BF4D
:10011000FB1A43F00103184708D5000028D500005A
:100120000A444FF0000C10F8013B13F0070408BF1D
:1001300010F8014B1D1108BF10F8015B641E05D0BB
:1001400010F8016B641E01F8016BF9D113F0080F70
:100150001EBF10F8014BAD1C0C1B09D16D1E58BF02
:1001600001F801CBFAD505E014F8016B01F8016B39
:100170006D1EF9D59142D6D37047000000230024AC
:1001800000250026103A28BF78C1FBD8520728BFA7
:1001900030C148BF0B6070471FB5024802490DF0DF
:1001A00055F81FBD000810000028100010B510BD44
:1001B000DFF80CD0FFF7F0FF02F094F80DF047F9EC
:1001C0000028100003B4FFF7F1FF03BC0DF072F933
:1001D0001A4B19680868B0E8F00F80F309884FF0EF
:1001E000000080F311884EF00D0E704700000000F3
:1001F00003480068006880F3088862B600DF00BF2B
:1002000008ED00E0EFF309800C4B1A6820E9F00FCD
:10021000106008B54FF0200080F3118800F00CFC4E
:100220004FF0000080F31188BDE8084019680868A5
:10023000B0E8F00F80F30988704700BF0428100071
:1002400001B44FF0200080F3118801BC704701B465
:100250004FF0000080F3118801BC704740BA70472E
:10026000C0BA7047401E0028FCDC704700BE7047D3
:1002700040BA7047C0BA70471EF0040F0CBFEFF3CE
:100280000880EFF309804FF0010101F04DBE1EF030
:10029000040F0CBFEFF30880EFF309804FF0020169
:1002A00001F042BE1EF0040F0CBFEFF30880EFF325
:1002B00009804FF0030101F037BE1EF0040F0CBFA0
:1002C000EFF30880EFF309804FF0040101F02CBE3A
:1002D0001EF0040F0CBFEFF30880EFF309804FF01E
:1002E000050101F021BE1EF0040F0CBFEFF30880E2
:1002F000EFF309804FF0000101F016BE10B504467F
:1003000000F095FB20460CF047FE044600F026FB6B
:10031000204610BD10B5040008D000F088FB204630
:100320000CF069FEBDE8104000F018BB10BD00F1F4
:1003300008014FF0FF32C0E90112C16001610021E4
:1003400001607047002101617047426853684B604B
:1003500043688B605368996051604160086101682F
:10036000491C0160704710B50B685A1C02D000F19F
:10037000080202E0026904E05268546824689C4262
:10038000FAD953684B6099608A60516008610168CE
:10039000491C016010BDD0E901128A60D0E9011248
:1003A000516001694A68824201D182684A60002234
:1003B00002610868401E08607047000010B5031F06
:1003C0004FF0807420381C6081610021416140F849
:1003D000202910BD1D4810B5016841F47F0101605E
:1003E000016841F07F4101604FF0E0201849416110
:1003F00007210161174900200860FFF7F9FE00207E
:1004000010BD12494FF080501C390860704710B57C
:10041000FFF716FF0F480168491C016010BD0D4928
:100420000868401E086001D1FFF711BF70470749F7
:1004300010B51C394FF080500860FFF701FF00F045
:1004400042FABDE81040FFF702BF000020ED00E0D7
:1004500098990300002810002DE9F0410E46050090
:100460004FF000072AD05020FFF748FF040025D0A6
:10047000B84605FB06F0401CC4F84C80FFF73EFF71
:100480002060C0B105FB0601C4F838806160A0603F
:10049000691E01FB0600E563E060781EC4E9106098
:1004A000A06404F11000FFF742FF04F12400FFF7FD
:1004B0003EFF274602E02046FFF72CFF3846BDE806
:1004C000F08170B50446FFF7A2FF04F12405A06C8B
:1004D0000AE0606A50B1284600F00BFB08B100F05A
:1004E0005AFBA06C401EA0640028F2DC4FF0FF36DF
:1004F000A664FFF794FFFFF78AFF04F11005606C14
:100500000AE0206950B1284600F0F3FA08B100F083
:1005100042FB606C401E60640028F2DC6664BDE84B
:100520007040FFF77CBF10B51346026C04466AB1F9
:1005300083B1E0680CF0AAFDE168206C091AE16063
:100540002268914202D26168081AE060A06B401CE8
:10055000A06310BDA0680CF099FD216CA068084450
:10056000A06061688842F1D32068A060EEE72DE9C1
:10057000FF41002582B01F46884604464FEA050623
:10058000FFF745FFA16BE06B814213D23A4641462B
:100590002046FFF7C8FF606A38B104F1240000F07C
:1005A000A8FA012801D1FFF72CFFFFF738FF01203F
:1005B00006B084E7049808B11DB106E0FFF72FFFED
:1005C0001DE0684600F0BDFA0125FFF728FF00F0A6
:1005D0002EFAFFF71CFF606C401C00D16664A06C13
:1005E000401C00D1A664FFF71AFF04A9684600F07A
:1005F000AEFA30B12046FFF764FF00F0AFF90020FB
:10060000D6E7FFF704FFA06BE16B884210D1FFF73C
:1006100006FF04F11000049900F051FA2046FFF79C
:1006200050FF00F09BF90028AAD1FFF7EAFEA7E7E8
:10063000FFF7F5FE2046FFF744FF00F08FF99FE734
:100640004B4AC16C1268914201D0002070470023D0
:100650001A4619468BE730B403680D46002B0CD0C0
:10066000026CC1688C18C46041688C4200D3C360BE
:10067000C168284630BC0CF009BD30BC70472DE97C
:10068000FF43002683B0984689460446374600F16A
:10069000240500BFFFF7BBFEA06B30B33448E6680B
:1006A0000068E06449462046FFF7D5FFB8F1000F27
:1006B0000ED0E660606A28B1284600F01AFA08B148
:1006C000FFF79FFEFFF7ABFE012007B0BDE8F08308
:1006D000A06B401EA06320690028F3D004F1100035
:1006E00000F007FA0128EBD0ECE7059808B11EB13D
:1006F00006E0FFF794FE1DE0684600F022FA0126AE
:10070000FFF78DFE00F093F9FFF781FE606C401C4F
:1007100000D16764A06C401C00D1A764FFF77FFE86
:1007200005A9684600F013FA30B12046FFF7C9FE6C
:1007300000F014F90020C8E7FFF769FEA06B38B19C
:10074000FFF76DFE2046FFF7BCFE00F007F9A1E7BA
:10075000FFF765FE2846059900F0B1F92046FFF73E
:10076000B0FE00F0FBF8002894D1FFF74AFE91E7B5
:10077000042810002DE9F05F8346DDE90A6815467C
:100780009A46894648200C9FFFF7B8FD04004AD0DE
:100790001FB9A800FFF7B2FD0746676338003FD0D6
:1007A000A900A5220CF0B7FC6FF0030101EB850155
:1007B000606B3546084420F007074946102204F1D3
:1007C00038000CF0F9FC002084F847000F2D00D30E
:1007D0000E25E56220866086201DFFF7B3FD04F13B
:1007E0001800FFF7AFFDC5F10F012461A16152466A
:1007F000594638466462FFF7E1FD2060B8F1000F0A
:1008000001D0C8F80040FFF702FEFA4D6868401CAE
:1008100068602868DFF8E08340B1686968B331E058
:100820002046FFF777FD4FF0FF3449E02C60686801
:10083000012827D15FF0000707EB870108EB810053
:10084000FFF775FD7F1C0F2FF6D3EC48FFF76FFD08
:10085000EA481430FFF76BFDE8482830FFF767FDE2
:10086000E6483C30FFF763FDE4485030FFF75FFD9A
:10087000E24828631430686304E02868C06AB04224
:1008800000D82C60E06AE968884200D9E860A96A6B
:10089000491CA9622969884200D9286100EB8001BE
:1008A00008EB8100211DFFF750FD0124FFF7B7FD84
:1008B000686928B12868C06AB04201D2FFF7A1FD7B
:1008C0002046BDE8F09F2DE9F041CA4CA06920B157
:1008D000E069401CE061BDE8F081A068401CA060B8
:1008E000A0684FF0FF3570B9206B616B21636063C6
:1008F000606A401C6062206B0068A8B1206BC06811
:10090000C0684068E062A068E16A8842E3D3BA4FF9
:10091000206B006850B1206BC068C668A168706821
:10092000814205D2E062D6E7E562ECE7E562D2E714
:10093000301DFFF730FDB06A18B106F11800FFF75F
:100940002AFDF06A2169884200D9206100EB80000D
:1009500007EB8000311DFFF7F8FCD9E72DE9F047E0
:100960000026FFF754FDA34CA069401EA061A069BA
:10097000A8BB606898B3DFF88482002508F12808D6
:10098000DFF874921AE0C068C76807F11800FFF733
:1009900002FD381DFFF7FFFCF86A2169884200D983
:1009A000206100EB800109EB8100391DFFF7CDFCD0
:1009B000F86A2168C96A884200D30125D8F8001076
:1009C00040460029DFD1E06928B909E0FFF77BFF45
:1009D000E069401EE061E0690028F7D105E009E028
:1009E000012D02D0206A012804D1002001262062B6
:1009F000FFF707FDFFF713FD3046BDE8F08770B540
:100A00007C4C054620684560A0682168854201F15C
:100A1000040104D2606BBDE87040FFF7A4BC206BFA
:100A2000FFF7A1FCE06A854200D2E56270BD714823
:100A30008169491C816170476E4882696E4922B1A3
:100A4000012101627047521E0261026902EB8202BB
:100A500051F82220002A0269F5D002EB820201EB54
:100A600082014A68526801F108034A609A4201D142
:100A700052684A60D168016070475F4C2068012865
:100A800001D9FFF7BEFC0BF0BFFFF7E71FB500244D
:100A90000094019402942346402259A15A48039499
:100AA000FFF768FE012809D1FFF7CAFB5148012171
:100AB00041618460BDE81F40FFF78CBC1FBD70B56D
:100AC0004C4D0C4629681831FFF74DFC2868001D75
:100AD000FFF761FC601C04D0A8682044BDE87040AA
:100AE0008DE72968BDE870404448091D3C30FFF798
:100AF0002CBC70B5C068C46804F118000646FFF746
:100B00004AFC3C4DA86918B13C48314628300DE0FC
:100B1000201DFFF740FCE06A2969884200D928615E
:100B2000354900EB800001EB8000211DFFF70DFC33
:100B3000E06A2968C96A884201D3012070BD00209B
:100B400070BD2C494A6A026089684160704770B57F
:100B50000D460446FFF75BFC2868411C14D0254A6B
:100B60002168536A994203D06168936899420DD90C
:100B7000616893685B1A834208D29268511A401ADE
:100B800028602046FFF7DDFF002400E00124FFF786
:100B900046FC204670BD174901200862704770B5B9
:100BA000144D064631B10C46FFF731FC208E304221
:100BB00011D101E02C68F7E7201DFFF7ECFBA06ADC
:100BC00018B104F11800FFF7E6FB0C48211D503066
:100BD000FFF7BBFB6686FFF722FC686918B1BDE82A
:100BE0007040FFF70EBC686801280FD0BDE8704068
:100BF00022E7000004281000342A1000602B1000A7
:100C000049444C45000000005B0A000000202860B9
:100C100070BD70B5054609B9474801680C46FFF735
:100C2000F6FB608EA8436086208EA8432086BDE830
:100C30007040FFF7F4BB414B426900219A4206D154
:100C4000806AA3F12802904201D000B90121084630
:100C5000704770B506460C002BD0374D286884428B
:100C600027D0FFF7D4FB208E30432086608E3042A1
:100C70001BD02046FFF7DFFF012816D1201DFFF70C
:100C80008AFBE06A2969884200D928612C4900EB77
:100C9000800001EB8000211DFFF757FBE06A296807
:100CA000C96A884201D3FFF7ACFBBDE87040FFF78B
:100CB000B6BB70BD70B5002605460C000DD0FFF721
:100CC000BFFA208E28432086608E284227D02046F7
:100CD000FFF7B1FF012802D021E0304670BD164D6C
:100CE000A86920B1154804F11801283815E0E06A18
:100CF0002968C96A884201D3012600E00026201D28
:100D0000FFF749FBE06A2969884200D928610C494C
:100D100000EB800001EB8000211DFFF716FBFFF7C1
:100D200096FADAE7044810B50468FFF770FB248EE2
:100D3000FFF775FB204610BD04281000B02B1000F3
:100D4000342A1000F0B58446002004460C4F14E00D
:100D50005CF824600323DD0046FA05F280EA0260B5
:100D60000825002802DA87EA400000E040006D1EF6
:100D7000002DF6DC5B1EEED5641C8C42E8DBF0BD7A
:100D80001B0000800D4880470D480047FEE7FEE746
:100D9000FEE7FEE7FEE7FEE7FEE7FEE7FEE7FEE72B
:100DA000FEE7FEE7FEE7FEE7FEE7FEE7FEE7FEE71B
:100DB000FEE7FEE7FEE7FEE7FEE7FEE7CF0D0000F9
:100DC000C50000004FF0005090F8211011F00C0108
:100DD00005D0042905D0082905D0782104E00F2189
:100DE00002E01E2100E03C2180F828107047704787
:100DF00010B50849042001240023C1F8FC00064A6C
:100E000014601360054BA0221A70C1F8FC01C8677A
:100E100010BD000084E000E0D403002202E400E002
:100E200010B5042000F0AFF8052000F0ACF8062063
:100E300000F0A9F8072000F0A6F8082000F0A3F8B9
:100E400062490020086061492031086060490880DB
:100E50005E4A121D10605D4A2432106088805B4A31
:100E600008321060594A283210600881574A0C3203
:100E70001060564A2C3210608881544A103210603B
:100E8000524A3032106008820621042000F093F8A4
:100E90000621052000F08FF80621084600F08BF8A7
:100EA0000621072000F087F80421082000F083F8CD
:100EB000042000F074F8052000F071F8062000F01E
:100EC0006EF8072000F06BF8082000F068F80420A6
:100ED00000F04DF8052000F04AF8062000F047F831
:100EE000072000F044F8BDE81040082000F03FB8AB
:100EF00000EB80004FF6FF7101EA40013348002209
:100F0000001D02604FF00052918601210160704780
:100F10002E490020091D0860704700EB80004FF645
:100F2000FF7101EA400129480022083002604FF0B9
:100F300000521187012101607047244900200831C7
:100F40000860704700EB80004FF6FF7101EA400136
:100F50001E4800220C3002604FF0005291870121A0
:100F600001607047194900200C310860704700F09B
:100F70001F020121914040094FF0E02202EB800066
:100F8000C0F80011704700F01F0201219140400994
:100F90004FF0E02202EB8000C0F88011704700F0B3
:100FA0001F020121914040094FF0E02202EB800036
:100FB000C0F8801270474907090E002803DA00F0D4
:100FC0000F00044A00E0044A8154704724050022BF
:100FD0003200002014ED00E000E400E05948012157
:100FE0000160002101607047574801210160002124
:100FF0000160704710B5002000F08BF853480022C4
:101000000260FFF7F1FFFFF7E9FF51480260514925
:10101000A0200870002000F088F8BDE810400020F3
:1010200000F06BB84A4801211C38016000210160C2
:10103000704710B50446002000F06BF84348414962
:10104000046001200860002000F06FF8BDE8104047
:10105000002000F052B830B53C4889B00468002C3C
:1010600011D0202168460CF080F83B4800783A4BBC
:1010700000216A465B1C02E0CD5C5554491C81424C
:10108000FADB1146A04709B030BD2E4901201C39BA
:10109000086070473048203000782F4921310978A6
:1010A000401A00F03F0070472C4902780A704278DD
:1010B0004A7082788A70C278CA7002790A7142795D
:1010C0004A7182798A71C079C87170472448006872
:1010D000417882784FF00050437A0374214B1B789B
:1010E000437443891B0A83744389C3740175427531
:1010F000C1798175017AC175704700F01F02012125
:10110000914040094FF0E02202EB8000C0F800114E
:10111000704700F01F020121914040094FF0E0228A
:1011200002EB8000C0F88011704700F01F0201211F
:10113000914040094FF0E02202EB8000C0F880129D
:10114000704700005C840022A00000223C281000B0
:101150007C04002200E400E00004002000020020E3
:10116000442810008828100010B5092000F02AF843
:101170000A2000F027F8092000F030F80A2000F0DB
:101180002DF80521092000F035F805210A2000F08E
:1011900031F81E487F21417081700171002100F8F3
:1011A00048191B49096891F8C810CA0709D08A076D
:1011B00007D510F84A2FC1F38203012199408A43D1
:1011C000027010BD00F01F020121914040094FF054
:1011D000E02202EB8000C0F88011704700F01F028F
:1011E0000121914040094FF0E02202EB8000C0F85D
:1011F000801270474907090E002803DA00F00F003B
:10120000044A00E0044A815470470000480000206E
:101210004428100014ED00E000E400E0704710B531
:10122000A44C072060700020207044F2C000608051
:1012300000BF00BF00BF4CF2C000608000BF00BF15
:1012400000BF4CF2E00060800920FFF70BF844F289
:10125000E000608000BF00BF00BF4FF480406080AE
:1012600010BDF0B500252E464FF00054E02716E0E3
:10127000883401F03F0160702170678000BF00BFBB
:1012800000BFD4F808C043F825C06680883C00BF82
:101290006D1C521E491C3F2901D9401CC0B2002AB6
:1012A000E6DCF0BD2DE9F047824C0026A41C054683
:1012B0002680DFF804920121C9F880104FF4C0584D
:1012C000A4F8008000BF00BF00BF00BF00BF4FF404
:1012D000805727803520FEF7C5FF2680FFF79FFF48
:1012E00000F0A9F85C2000F0B7F82B46012202219B
:1012F0000720FFF7B6FF2B1D012203210620FFF771
:10130000B0FF05F10803012204210520FFF7A9FF22
:1013100005F10C03012203210720FFF7A2FF05F1CD
:101320001003012204210720FFF79BFF00F083F840
:10133000FFF775FF278000BF00BF00BF00BF00BFE1
:1013400000BF00BF00BF00BF00BFA4F8008000BF07
:1013500000BF00BF00BF00BF4FF440602080C9F84D
:101360008060BDE8F0872DE9F0439946079B002691
:1013700003B180260023504C1F4665044FF001083E
:101380001DE000BF85F8890001F03F0C4CEA060C17
:1013900085F888C059F823C0C5F88CC0C4F8B0805F
:1013A000C4F8B070491CC9B2402902D3401CC0B275
:1013B0000021D4F8C0C0BCF1000FFAD15B1C9342ED
:1013C000E0DBBDE8F0834FF0005282F88900002393
:1013D00019B1802082F8880001E082F88830364810
:1013E0000121C0F8AC10C0F8AC3000BFD0F8C0107C
:1013F0000029FBD1704738B50C4605460021F8207E
:10140000FFF7E1FF0020014600902B462246F8201E
:10141000FFF7A9FF38BD38B50C460546012100206D
:10142000FFF7D1FF0120002100902B4622460846FD
:10143000FFF799FF38BD10B51E4C4FF48040A41C37
:1014400020800420FEF70EFF0020208000BF00BF98
:1014500000BF00BF00BF10BD70B5164C2126A41CF4
:10146000268000BF00BF00BF00BF00BF40F02105C5
:10147000258000BF00BF00BF00BF00BF44F22101B4
:10148000084320800420FEF7EDFE258000BF00BF4A
:1014900000BF00BF00BF268000BF00BF00BF00BF6D
:1014A00000BF0020208000BF00BF00BF00BF00BF02
:1014B00070BD00008800002000100022F8B5FD4E2D
:1014C00000252C463570012000F064FA0E2000F053
:1014D00061FA0D2000F05EFA0C2000F05BFA0320A8
:1014E00000F058FA012000F061FA0E2000F05EFAD8
:1014F0000D2000F05BFA0C2000F058FA032000F0F9
:1015000055FA00F084FB6A460221EB4800F0C2FC69
:10151000EA499DF8010008709DF80000422800D0BB
:1015200003250521012000F04DFA05210E2000F0D1
:1015300049FA05210D2000F045FA05210C2000F0A4
:1015400041FA0621032000F03DFA012000F016FACE
:101550000E2000F013FA0D2000F010FA032000F026
:101560000DFAB47074702846F8BD38B520F04040CC
:101570000D46009014460421684600F0C3FFD04990
:101580004978C90602D5012D00D1401C009921647B
:1015900084F83E0038BD2DE9F041C94C06460020D4
:1015A00084F83600C748C84DC0F30E0720464FF0F8
:1015B000E908406A052E06D0062E19D0032E35D034
:1015C000042E49D06CE0BE4A3146FFF7CEFFA06A38
:1015D00060642787607880060028286890F88B0769
:1015E00001DA40F0060084F83D0084F83A8057E0C4
:1015F000B34A3146FFF7B9FFA06A6064B0480421DE
:10160000243000F07FFFAF4901EB8000C0F30E00F3
:101610002087607880060028286890F88B0701DA18
:1016200040F0060084F83D00ED2012E0A44A314667
:10163000FFF79BFFA06A6064278760788006002818
:10164000286890F88B0701DA40F0060084F83D0026
:10165000E52084F83A0023E06178890620D52968DE
:1016600001F2C9310A7804F8302FCA78A2704A789A
:10167000E270897821710121A171914A3146FFF709
:1016800074FF9048F830C0F30E002081286890F86D
:101690008B0720F0060040F00200607384F80A8097
:1016A00084484670BDE8F041854800F047BB70B5FE
:1016B000834C0646363400202070834DE120207193
:1016C000286890F888176171363C012E1DD17F493A
:1016D0007F4AC1F30E01218790F8AD17127801F00F
:1016E000F00102F00F021143217690F8B407607602
:1016F0006078C00602D5F12084F83A00704A31467D
:10170000A068FFF732FFE06860646078410794F8F2
:101710003B1002D521F0020105E02A6892F88827E3
:1017200002F00202114384F83B10C10705D094F87F
:101730003A1041F0020184F83A1080070028286826
:1017400090F8BA0701DA20F0030084F83C00594809
:101750004670BDE870405A4800F0B1BA01280AD07E
:10176000022808D0052805D0062803D0042801D077
:10177000032801D10FE79AE7704773B506469DF835
:101780000440544D641C07E055F8242001A930465C
:101790009047012804D0641C072CF5D900207CBD9B
:1017A0009DF804007CBD70B5017800291CD001466D
:1017B0004822434801F087F83E4D6878002813D14D
:1017C00000213F48FFF7D9FF04000DD03E480068D4
:1017D00090F81801000708D500F052FB0120A8700E
:1017E0000A2000F064FA6C7070BD0020287020465A
:1017F000BDE87040B2E7002070478268920005D0D3
:101800000078C00702D001200870704700207047A0
:10181000C269920006D00078000703D50220087044
:101820000120704700207047426A920008D0826A07
:1018300032B10078800603D503200870012070477C
:1018400000207047426A920006D00078C00603D597
:10185000042008700120704700207047426A9200FF
:1018600006D00078800703D5052008700120704756
:1018700000207047826A32B10078400703D5062005
:101880000870012070470020704700200870012078
:1018900070471FB500F08EF901208DF800000B484D
:1018A000019008480290F830039005484168684666
:1018B00088471FBD40281000041000208828100011
:1018C000C42B1000808701204428100000800120D4
:1018D000F6071000E0D400007FB5404C4048617826
:1018E000FFF74BFF10B1FFF739FF7FBD00253D49E2
:1018F0006570A42008733C48006890F81801000740
:1019000002D5A57000F0B7FA207801280DD08DF827
:1019100000503648019000F5F0600290F8300390D6
:101920002F484168684688477FBD02208DF8000037
:10193000EFE72D4810B500684FF0000290F818014D
:101940000107264806D58178012907D002290ED043
:10195000032912D18270BDE810409AE702218170FC
:1019600000F093FABDE81040322000F0A0B9032146
:1019700081704078BDE81040F0E610BD00F01F0215
:101980000121914040094FF0E02202EB8000C0F8B5
:101990000011704700F01F020121914040094FF0F3
:1019A000E02202EB8000C0F88011704700F01F02B7
:1019B0000121914040094FF0E02202EB8000C0F885
:1019C000801270474907090E002803DA00F00F0063
:1019D000074A00E0074A8154704700004028100081
:1019E000C42B1000001000204428100000800120AB
:1019F00014ED00E000E400E0F0B53A2500224FF4D9
:101A000080141146FE4B0020A65CC718521C401CD7
:101A100087F860600C28F7DB01F03F0040F08000A1
:101A200083F83500491CA942EDDBF0BD2DE9F043F8
:101A30000024F34E81462546274600209C4206DAC4
:101A400000EB060819F804C088F860C003E000EB5A
:101A5000060C8CF86070641C401C0C28EEDB5019DE
:101A600000F03F00084340F0800086F835006D1C10
:101A7000032DE2DBBDE8F08300B514233A220021F8
:101A8000E048FFF7D3FFDF4820233D220021143038
:101A90005DF804EBCAE7DC480168D94801F29971A6
:101AA000183011F8122C00F8112C11F8112C00F834
:101AB000102C11F8102C00F80F2C11F80F2C00F836
:101AC0000E2C11F80E2C00F80D2C0A7842704A7872
:101AD00082708A78C270CA7802710A7942714A7932
:101AE00082718A79C271CA7902720A7A42724A7A1A
:101AF00082728A7AC272C54A127802730A7B427372
:101B00004A7B82738A7BC273CA7B0274BF4A521CAF
:101B1000127842744A7C82748A7CC274CA7C0275D0
:101B2000BA4B0A7DDB1E02F0F0021B7803F00F03B4
:101B30001A4342754A7D82758A7DC275CA7D0276D6
:101B40000A7E4276B14A921E12788276AF4A521EBF
:101B50001278C276CA7E02774A7F82778A7FC277FE
:101B6000CA7F80F8202091F8202080F8212091F869
:101B7000212080F8222091F8222080F8232091F85B
:101B8000232080F8242091F8242080F8252091F843
:101B9000252080F8262091F8262080F8272091F82B
:101BA0002F209B490A701E220270332048740B209C
:101BB0008874704797480022026096481C3802607B
:101BC00095480261012101618260816002600160CB
:101BD00002609249A0F574700B68002BFCD1884913
:101BE0000B7B43F020030B730B7B23F040030B7341
:101BF0000B7B23F080030B730B7B23F020030B7311
:101C0000C0F8D823C0F8E02385480270704730B58B
:101C100081480024743004607F48803004607E482E
:101C2000C4600121C160C460046001600460784D3B
:101C30002020AD1D287068707149593D0873A4209B
:101C400008737648183001680029FCD1FFF7B2FF0D
:101C5000FFF721FFFFF710FFFFF7CEFE714804608A
:101C6000704820300460AC8530BD6549026C4A7311
:101C7000130A8B73130CCB73130E0B7492FAA2F22C
:101C8000B2FA82F24A7490F83E208A74406CC874AA
:101C9000020A0A75020C4A75020E8A75820F81F8D3
:101CA000402090FAA0F0B0FA80F0C87570475D4906
:101CB00000220A600A06908501200860704710B56E
:101CC0000446FFF7D2FF5249208F491C08804C4838
:101CD00094F83C20193080F82120227CC270228A9E
:101CE000120A0271A27C8277E27C8274627D427762
:101CF000227D01F8012CA27DC277E27DC274227E92
:101D00000275414A126892F89927027094F83A20B5
:101D10004A7394F83B20543900F8112C627EC27645
:101D20003E4A1938121F1368012BFCD191F861103B
:101D30000173BDE8104041F28830B8E710B50446A1
:101D4000FFF793FF32492C34491CA08908802E48A4
:101D500002682B48193092F8BA3780F8213023787E
:101D6000C37123881B0A0372A378037363881B0A59
:101D7000437323798377637901F8013CE379C3776F
:101D8000237A4375637AC375A37B4B73637C5439A1
:101D900000F80E3C92F8993723F0070300F8193940
:101DA000A37A2C3CDB0702D092F8CE2701E094F80E
:101DB000322080F83620194A121F1368012BFCD1FB
:101DC00091F861100173BDE8104041F288306EE770
:101DD0000D490E4B0A68DB1E92F8892702700A68CB
:101DE000B2F89E27428009681B7801F2A27103F0C5
:101DF0000F03CA7A02F0F0021A4302710A8813E054
:101E000000100020B802100044281000F90710004C
:101E1000530000201C0C0022D0030022040B0022DF
:101E20004128100020050022C280B1F8052002815F
:101E30004A7B8272CA7BC272897C017370473549C2
:101E4000027801F80C2C82784A724288120A8A724F
:101E500002790A7682794A73C288120A8A73027AF0
:101E60008A740289120ACA74827A8A76C27A0A77D6
:101E7000007BC877704727490420153908737047DD
:101E8000244920201539087370472249C02015398C
:101E90000873704770B5204C2368002BFCD11D4699
:101EA00003E0C6185B1C86F880508B42F9D3236888
:101EB000002BFCD102E0C45CD4545B1C8B42FAD3EF
:101EC00070BD10B5002000F08FFD1449002008609F
:101ED00013480078002810D00F48183801680029EE
:101EE000FCD10C481538C078400602D50D490120B8
:101EF0000870BDE81040FFF7EFBC10BD10B5002022
:101F000000F072FD054900200860BDE81040FFF7B1
:101F100010BD0000151000201C0B0022200500221F
:101F200041281000402810000446012005F08DFFD4
:101F300000210F20226805F09DFF01210F2062681B
:101F400005F098FF02210F20A26805F093FF0321FE
:101F50000F20E26805F08EFF0C210F20226905F0AA
:101F600089FF0E210F20626905F084FF0F210846CA
:101F7000A26905F07FFF20210F20E26905F07AFFBA
:101F80003648026821210F2005F074FF33481038CD
:101F9000026822210F2005F06DFF30480C380268DE
:101FA00023210F2005F066FF2C4808380268242101
:101FB0000F2005F05FFF2948001D026825210F2032
:101FC00005F058FF25483438026826210F2005F017
:101FD00051FF22481438026827210F2005F04AFFDC
:101FE0001F4800683021C06AC0F106020F2005F0CA
:101FF00041FFFEE710B5012805D0022805D00328CF
:1020000009D0032102E0012100E00221BDE81040D7
:10201000032005F01ABF0021032005F016FFFEE79C
:1020200010B504460146042005F00FFF012C00D135
:10203000FEE710BD0146062005F007BF10B50446B7
:102040000146072005F001FF24B1012C03D0022C2A
:1020500002D1FEE7FEE7FEE710BD000038ED00E02C
:102060000428100010B5002000F0BEFCBDE81040B0
:10207000FEF7AEB8704710B5002000F0B5FCBDE823
:102080001040FEF7BFB8FEF7D2B91A4810B5016884
:1020900021F004010160002000F0A6FCBDE8104022
:1020A000FEF7D9BF7047704710B5002000F09CFCC8
:1020B000BDE8104005F0B2BD10B5002000F094FC62
:1020C000BDE8104006F0F7B810B5002000F08CFC19
:1020D0000948006890F82901800703D5BDE8104041
:1020E00005F0B0BD10BD704770477047704770472E
:1020F0007047000010ED00E04428100010B54221A8
:102100008A480BF010F8894889498A4A0180428040
:1021100089498180894BC380894C0481894C4481E1
:10212000894C8481894CC481894C0482894C4482C5
:10213000894C8482894CC482894C0483C38742873A
:1021400081878849A0F84010874801688548B1F820
:102150009C274280B1F8A027C280B1F8A517018161
:1021600010BDF0B585B0FF22142168460AF0D3FFF8
:102170006846FFF797F8039803250127072645F2DD
:10218000AA54A04202D00498A04239D1DDE900014E
:10219000884206D00299884203D00198884208D12B
:1021A00000900498A0420FD10098000E012804D09E
:1021B00006E00020FFF73EFF0FE00098C0F3013774
:1021C0000098C0F3032602E00120FFF733FF0398D5
:1021D000A04213D1009800F007056449887920F0E7
:1021E000F30207F0030040EA0610104388716048CC
:1021F000017865F30201017005B0F0BD0220D9E756
:102200000120FFF717FFF9E72DE9F0414FF00056E5
:102210003F2086F82100FEF7D5FDFEF7EBFE524D7C
:1022200028680078A52802D00120FFF7F9FE514860
:10223000006810B10020FFF7F3FE28684FF0000798
:102240004FF0010490F829118A074FF0085104D586
:10225000C1F89873C1F8804301E0C1F8984390F841
:102260002811454A01F00101116090F82811121D52
:10227000C1F34001116090F8C800C10705D0810783
:1022800003D5C0F3820001280FD03C480460001F32
:102290000460001FC0F80040FEF7C0FFFEF7C0FD5D
:1022A000FFF70CF9032806D008E016F8510F20F0CC
:1022B00007003070F0E70020FFF79CFEFEF706FFF6
:1022C000FEF796FDFEF750FFFFF74BFF286890F8EA
:1022D000290181072A4801D5046000E007600460F5
:1022E000BDE8F08110B54FF0005140F283304881D5
:1022F000FFF78AFFFFF702FF22493F2008602249CB
:102300000020086022482149016001F50860214948
:102310000860FDF795FF00F03FF800F053F8FDF777
:1023200096FFFEF7B3FB012010BD00000000012066
:1023300000800120E0AC012060B4012042000120B7
:1023400080870120BA260120F62601206828012076
:10235000A4280120D82D0120142E0120C2250120FF
:10236000FE250120783F10004428100000100020B6
:1023700020000020C810002288040022280A002221
:102380007C0400223827012084281000FC2D100036
:10239000682810006C28100070B5454D00240021FD
:1023A0000120FEF759F845F8240020B1FEF748F95E
:1023B00055F8240010B90020FFF740FE641C072CDC
:1023C000EDDB70BD1FB53A48012100240091001FCC
:1023D000CDE901042346402236A138480394FEF794
:1023E000C9F9012802D00120FFF728FE3048062154
:1023F00000911838CDE901040023402230A1324871
:102400000394FEF7B7F9012802D00120FFF716FE6A
:102410002748052100911438CDE9010400234FF429
:1024200080722AA12C480394FEF7A4F9012802D057
:102430000120FFF703FE1E48022100910838CDE974
:1024400001040023B42225A126480394FEF792F943
:10245000012802D00120FFF7F1FD15480421009169
:102460001038CDE9010400234FF4C8721EA12148A1
:102470000394FEF77FF9012802D00120FFF7DEFD6B
:102480000B48032100910C38CDE9010400234FF4DF
:10249000007219A11A480394FEF76CF9012805D0BF
:1024A00004B00120BDE81040FFF7C8BD1FBD00000B
:1024B0009C3F100054736B5F436D640041CF00007C
:1024C00054736B5F52707400FD81000054736B5F36
:1024D0005353797300000000194F000054736B5F71
:1024E00053530000C171000054736B5F5363616EFE
:1024F00000000000C77B000054736B5F4D74000048
:102500009FB6000070B5034600200246FE4C09E06D
:102510009D5C521C05F00F0604EB1515A65D2D7889
:10252000304428448A42F3DB70BD884200D3084619
:102530007047884200D808467047884200D3084652
:10254000904200D3104670472DE9F047D0F810C0F4
:102550000568046A85FB0C12A1FB041242694368FA
:10256000914683FB02628269E246A6FB0267761807
:10257000D0E9021781FB07C8C069ACFB00C81CEB9F
:10258000060682FB0A2CA2FB011280FB0902A0FBBB
:102590000502401884FB0712A1FB03120818301A29
:1025A0004FEAE071BDE8F0872DE9F04389B00446B9
:1025B0000068009060680190206902906068039054
:1025C00020690490A069059020690690A069079091
:1025D000E06908900D466846FFF7B6FF8046A068A0
:1025E0000190E06804906069079089466846FFF7AB
:1025F000ABFF064660680190A068029020690490D5
:10260000E0680590A0690790606908900F466846E9
:10261000FFF79AFFC5E90401C5E90267C5E900892A
:1026200009B0BDE8F0832DE9FF4F4FF0000A89B0F3
:102630009B465746D146D0465646554654462021DD
:1026400068460AF092FD0B9810E00999824431F92E
:10265000102000FB00F102FB01668844414302FBAD
:10266000009901FB004417440D44401C5845ECDD23
:102670000B99ABEB0100401CCDE9000ACDE90654F3
:10268000CDE90486CDE9027968460A99FFF78CFF07
:102690000DB0BDE8F08F9D480068017B427B41EAA8
:1026A0000221827BC07B41EA024141EA0060400096
:1026B0007047964800680179427941EA022182799F
:1026C000C07941EA024141EA0060704700B5FFF776
:1026D000E2FF4008400000BDF8B50E460446FFF793
:1026E000F5FF0090FFF7D7FF054604216846FFF786
:1026F00009FF04EB40070024DDF8001020462346C4
:102700004FF0010C0CFA03F20A4207D02A4204D01F
:1027100037F8102026F81420641C401C5B1C1E2B6C
:10272000F0DBF8BDC5E7FCB50E460746FFF7CEFF68
:102730000190FFF7BEFF0090FFF7BBFF05460421A5
:1027400001A8FFF7DFFE044604216846FFF7DAFE22
:1027500000EB440007EB40070020009904460346C5
:102760004FF0010C0CFA03F20A4207D02A4204D0BF
:1027700037F8142026F81020401C641C5B1C202B0A
:10278000F0DBFCBD00B5FFF786FF40F0010000BDA7
:102790008FE75F4A520102EB810101F108510860A5
:1027A000704701EB4010801001EB410149001822F5
:1027B00091FBF2F300EB400000F5801002FB1311D7
:1027C000006820F07F40C84000F03F00704701EBF8
:1027D0004010801010B501EB41014900182391FB16
:1027E000F3F403FB141300EB400000F580103F24CA
:1027F00001689C40A1439A400A430270110A41704B
:10280000110C817010BD2DE9F14F82B0FFF7BAFFB6
:102810008046FFF74EFF8446002001900546814622
:1028200007464FF0010A00900AFA07F111EA0C0F6F
:1028300043D04FF0000B5C46012D3DDB3349096866
:10284000097D491EA94237DD5FF000060AFA06F04D
:1028500010EA080F21D039463046FFF7A2FFD4B165
:10286000022C18DB29490A68517D491EA14212DD5C
:10287000484510D1117D029A04FB015332F913200F
:1028800004F1010303FB0153029931F91310511AAA
:1028900000D549428B448146641C761C1D2ED5DB35
:1028A000022D07DB0198B0EB0B0000D540420099E8
:1028B00008440090CDF804B06D1C7F1C202FB3DBC2
:1028C0000098BDE8FE8F03E011F8013B00F8013BE2
:1028D000521EF9D270477CB50D460446FFF7F6FE4E
:1028E0000090FFF7E6FE0190009804214008009058
:1028F0006846FFF707FE0646042101A8FFF702FE1F
:1029000030448200214605E000D500004428100034
:10291000382701202846FFF7D6FF7CBD0B465A49D1
:1029200009684A7D097D521C4A43014652001846F7
:10293000C9E770B5044648210AF017FC0020524B45
:1029400020706070196891F8CD1701F0010140EA1C
:10295000411161701A6892F88C27C2F3001241EAA3
:10296000021161706060FFF70DFFA060FFF7A1FE2C
:10297000464DE06068882082186800F2AC70C17A29
:10298000A174017F2175817A6175017BA175017840
:10299000E1753F494078097800F0F00001F00F013F
:1029A00008432076FFF792FE6062FFF782FEA06286
:1029B000E888A085E085186800F2AD70017F84F892
:1029C0003010817F84F83110C17F84F83210417F4C
:1029D00084F83310417884F83410C17884F83510C5
:1029E00010F8020CE07470BD4FF00051012809D1BD
:1029F0002548006890F81801400703D5254800785D
:102A0000052809D091F821003F280BD05FF03F0046
:102A100081F82100FEF7D6B991F82100312801D0C4
:102A20003120F5E77047184B10B51A68947E64079B
:102A300004D5D28A0468A2EB040202601A68947E6C
:102A4000A40703D5128B0C68121B0A600268002AC7
:102A500000DA002202601C68E48AA24200DD2246FD
:102A600002600A68002A00DA00220A601C68248BCF
:102A7000A24200DD22460A601B689B7EDB0702D073
:102A800003680B60026010BD44281000783F1000FE
:102A9000F60710007F28100070B5FE49024600249A
:102AA0000B685B7D00EB430306E01D8832F8026B88
:102AB000641C354423F8025B0D686D7DA542F4DC8F
:102AC0000C68637D247D00EB830204EB430300EB81
:102AD0004300002306E0048832F8025B5B1C2C44B0
:102AE00020F8024B0C68247D9C42F4DC70BD10B5CC
:102AF00001461022E848FFF7E6FEE648006890F835
:102B0000CD07C00709D0E54C2078012805D1E2485F
:102B10008068FFF7C1FF00202070E14841684FF452
:102B20000060FEF7C7F8002803D0BDE81040FDF7AD
:102B300068BC10BD70B592B006460D461446684696
:102B4000FFF7F7FE14F0050F4FF0010101D08DF8EB
:102B5000001014F0620F2ED0CE48036893F8500195
:102B6000C0070ED193F8020258B993F8E002C007EB
:102B700007D193F86002C00703D193F8B001C007F2
:102B800019D09DF80000C54A40F020008DF80000E3
:102B9000117014F01D0F0ED140F0010003F21D134F
:102BA0008DF8000058788DF8120018788DF817000D
:102BB00098788DF81300ADF82E50ADF81060ADF890
:102BC0002C50AFF2D500B44E03244FF400650190B1
:102BD0006846FEF7E8FD00212846FDF7E0FF0021EA
:102BE0002846FEF716F83078002804D0FFF702FADE
:102BF000641E002CECDC12B070BD10B50446C0079A
:102C000009D04FF4F061A7480AF08DFA4FF4F05163
:102C1000A5480AF088FA14F0420F07D03C21A348D7
:102C20000AF081FA4021A2480AF07DFAA0070AD5ED
:102C3000F021A0480AF077FABDE810404FF4807107
:102C40009D480AF070BA10BD2DE9F0410746914841
:102C5000006890F82010490710D590F82100012550
:102C6000C0F3011085400024944E05E0F18870887F
:102C70003A46FFF75FFF641CAC42F7DBBDE8F0812A
:102C80002DE9FF4F83B08046FFF782FD0190FFF7EB
:102C900079FD009004216846FFF734FC04460421C6
:102CA00001A8FFF72FFC44437A4801264FF48851CE
:102CB000006890F8210000F00707BE4080480AF045
:102CC00054FA0025DFF8F891DFF8F0A1DFF8C8B179
:102CD0001DE000BFBAF8061042460498FFF72AFF2D
:102CE00018F0050F12D07749DBF8040004F019FC46
:102CF000744A0020494607E051F8203032F910C0EC
:102D0000634441F82030401CA042F5DB6D1CB54205
:102D1000E0DB18F0050F0CD00020494607E000BFAB
:102D200051F82020059B3A4123F81020401CA04276
:102D3000F6DB07B0BDE8F08F2DE9F74F554C82B0B8
:102D40009046206890F85011C9070ED190F80212F1
:102D500059B990F8E012C90707D190F86012C90775
:102D600003D190F8B001C0076AD0FFF7AFFC009024
:102D7000FFF7D8FC019004216846FFF7C3FB054626
:102D8000042101A8FFF7BEFB284445002068A146A6
:102D9000264690F82100012400F00707BC40A90056
:102DA00047480AF0E2F9306890F8CF17C90703D016
:102DB00090F8D007401C44430026DFF804A1DFF858
:102DC000FCB016E0DDE90221BBF80200FFF7B2FE1D
:102DD000314851468268002008E000BF51F8203099
:102DE00032F910C0634441F82030401CA842F5DBA2
:102DF000761CA642E6DB324C0021524606E000BFBC
:102E000052F82100384124F81100491CA942F7DB8F
:102E1000D9F8000090F85011C90707D190F8B01107
:102E2000C90703D190F8E002C00709D02046D8F8BE
:102E30000010FFF751FC2046D8F80410FFF773FC90
:102E400005B077E72DE9F043124B89460021D2F80F
:102E500000C0184D1C6816E03CF8113030F81160C5
:102E60009B1B1FB25FF00003C3EB031605EB860646
:102E70005B1C36F811801BB2B84426F81180042B75
:102E8000F2DB491C09B2637D8B42E5DC5668002009
:102E9000094A2EE044281000344010008C2810000D
:102EA000843F100042000120C2070120C2250120FA
:102EB000FE2501200C2C1000FC2C1000783F100087
:102EC000FC2D1000F088012036F8103039F8101071
:102ED000591A0DB25FF0000102EB8113491C33F85F
:102EE000107009B22F4423F810700429F4DB401C41
:102EF00000B2217D8142E7DCBDE8F0832DE9F0419D
:102F0000C44D0746286890F8D000400711D5C24E3E
:102F100000242868002300EB4400B0F80211C4EB41
:102F2000041006EBC0123846FFF7AAFE641C042CFE
:102F3000EFDBA3E62DE9F043B64D814685B0286866
:102F400090F8800340071CD5B44FDFF8D4820024EA
:102F50002868142100EB4400B0F8B26368460AF018
:102F600004F9C4EB041007EB8000009008EB841018
:102F700001906A4631464846FFF7DEFE641C042C89
:102F8000E6DB05B0B8E72DE9F041DFF898820023D1
:102F900004465E1E86B0454632461946D8F8000003
:102FA000FDF76DFB002332461946E868FDF767FB25
:102FB00014F040050AD03C229B499C48FFF783FC53
:102FC0009A4840229A493C30FFF77DFC2046FFF7A3
:102FD00014FE2046FFF738FE14F00C0001D0FFF776
:102FE0008DFF14F0200001D0FFF7A4FF914F14F0E3
:102FF000010605D0798800238F4A3046FFF740FE4E
:10300000F007844E09D0306890F82000000704D5FE
:103010008948FFF7F8FB8949486014F042040CD056
:10302000142168460AF0A1F87F480090804801907A
:10303000F9886A462046FFF77FFE55B1306890F860
:103040008003400705D579496A463C317748FFF748
:10305000F9FE7B490120444608707A490870D8F887
:103060000000FDF7EDFAE068FDF7EAFA06B005E6C4
:10307000F0B468494FF4F0620E68B6F8021181426C
:1030800001D365490FE0644D012100BF06EB410308
:10309000B3F80041B3F8023198422AD807D1C1EB06
:1030A000011005EBC011F0BC6348FFF70CBC9C425B
:1030B0001FD2001B00021A1B90FBF2F35E4CC1EB07
:1030C000011100204FF4707605EBC11101EB4002B5
:1030D000A2F5F06231F91050B2F90020AD1A5D434B
:1030E00002EB252224F81020401CB042EEDBF0BC9D
:1030F0007047491C0429C9DB5349D4E72DE9F04145
:1031000044490968B1F8B22382420FD391F85001C3
:10311000C00703D191F8B001C00760D03C223F49FD
:103120004148FFF7D0FB40223D496DE03B4E3C4D0E
:10313000012400BF01EB4402B2F8B033B2F8B2236D
:1031400090424DD813D191F85001C00703D191F8A6
:10315000B001C00743D0C4EB041006EB80013C2251
:103160003148FFF7B0FB05EB841140224CE093425D
:1031700036D2C01A0002D21A90FBF2F291F8500136
:10318000C00703D191F8B001C00728D0264FC4EB87
:103190000411002006EB810101EB400331F91060BE
:1031A00033F93C3CF61A564303EB262327F810303C
:1031B000401C1E28F0DB1E4E002005EB841100BFD2
:1031C00001EB400331F9104033F9403CE41A544319
:1031D00003EB242326F81030401C2028F0DB4DE5BB
:1031E000641C042CA6DB91F85001C00703D191F8B0
:1031F000B001C007F3D009493C22B4310A48FFF7B7
:1032000062FB07494022C031BDE8F0410848FFF7A2
:103210005ABB000044281000C20701200C2C1000EB
:10322000FC2C10009C3F1000C2250120B83F10006C
:10323000FE250120783F1000420001208C2810005C
:10324000522810007C281000421E01202DE9FC5F4E
:103250000024A146A646A3460226FE4A1268537DD4
:10326000127D5B1E951E2EE002FB06F701EB470C5C
:1032700000EB4707BCF902C0B7F9027000970227BC
:103280001EE000BF06FB0278CDF8048031F918A0DB
:1032900030F91880CDF80480E2450BD0DDE9008CD0
:1032A000BCEB080C01D5CCF1000C644409F1010C15
:1032B0001FFA8CF9DDF80480D4467F1CCDF800801D
:1032C000BD42DFDA761CB342CEDAB9F1000F01D08D
:1032D000B4FBF9F4022639E002FB06F701EB470CD8
:1032E00000EB4707BCF902C0B7F9027000974FF036
:1032F000020728E006FB027931F919A030F919908C
:10330000BAEB0C0C01D5CCF1000C0FFA8CFCDDF8FB
:103310000080BCF1000FA9EB080C06D0BCF1000F37
:1033200001DACCF1000CACEB040CBCF1000F01DABB
:10333000CCF1000C1FFA8CFCF44500D9E646D446CB
:103340007F1CCDF80090BD42D4DA761CB342C3DABC
:10335000012635E006EB420731F917C030F9177046
:1033600000974FF0030728E007FB026931F919A025
:1033700030F91990BAEB0C0C01D5CCF1000C0FFA16
:103380008CFCDDF80080BCF1000FA9EB080C06D026
:10339000BCF1000F01DACCF1000CACEB040CBCF179
:1033A000000F01DACCF1000C1FFA8CFCDC4500D9CF
:1033B000E346D4467F1CCDF80090BB42D4DA761C9D
:1033C000B542C7DA02B05A467146BDE8F05F032045
:1033D00004F00FBE0388934200D90280088890420F
:1033E00000D20A807047F0B587B00646002047F645
:1033F000FF71ADF80810ADF80400ADF81010ADF88D
:1034000014000227934C10E0012508E007FB005050
:1034100001A936F8102002A8FFF7DCFF6D1C206818
:10342000007D411EA942F1DC7F1C2068407DB8422E
:10343000EADC002512E0284405A936F8102004A88B
:10344000FFF7C8FF2068417D007D01FB005005A902
:1034500036F8102004A8FFF7BDFF6D1C2068007D22
:10346000A842E8DC012514E0007D05A9684336F890
:10347000102004A8FFF7AEFF2068691C007D4843B8
:1034800006EB400005A930F8022C04A8FFF7A2FFC4
:103490006D1C2068417D491CA942E5DCBDF8042073
:1034A000BDF80810012004F0A4FDBDF81420BDF8FB
:1034B0001010022004F09DFD07B0F0BD70B50C4661
:1034C0000546FFF790FF21462846BDE87040BDE65F
:1034D00010B5014610226048FFF7F5F95F484168D2
:1034E0008020FDF7E7FB002803D0BDE81040FCF783
:1034F00088BF10BD30B593B004466846FFF719FA8F
:103500000021012C02D0022C08D00EE001208DF801
:1035100000008DF815108DF8141006E020208DF8AD
:1035200032108DF800008DF831109DF80100AFF2D7
:103530005F0140F00C00484D01918DF8010003241B
:103540006846FEF730F900218020FDF728FB0021B6
:103550008020FDF75EFB2878002804D0FEF74AFDA6
:10356000641E002CECDC13B030BD02461621012095
:1035700000FA01F3134201D1491EF9D5491C8840D4
:10358000104370472DE9F05FFFF7FCF80546FFF7A1
:10359000FFF8304C0746206890F88C07C00603D52A
:1035A0002846FFF7E2FF05464FEA55094FF4F06160
:1035B0002B4809F0B8FD4FF01D084FF0000A01201C
:1035C000FFF798FF24480026D0F804B0214800688F
:1035D000047D34E0012000FA06F111EA090F2DD034
:1035E00000250120A840384225D029463046FFF763
:1035F000D8F81849DFF868C009683CF91430B1F808
:103600003421991A3BF91430A3EB020200D5494248
:10361000002A00DA5242914204DD12492CF814309B
:1036200021F814003F2805D2401CC2B2294630467A
:10363000FFF7CDF8641C6D1C202DD2DB761C4645AF
:10364000C8DBFEF7D9F90AF1010ABAF1400FB6DB7F
:10365000012009E04428100044401000843F10007D
:10366000E0AC012060B40120FFF744FFFE48DFF822
:10367000FCB3002500684FF0010A067D0AFA05F147
:1036800011EA090F0FD000240AFA04F0384207D0DB
:103690001BF816002146C2B22846FFF798F8761CA0
:1036A000641C202CF0DB6D1C4545E7DBFEF7A4F91C
:1036B0000120FFF71FFFEE48EC494068BDE8F05FCE
:1036C000FCE62DE9F05FE84A116891F83001C40783
:1036D000E848037803F0F00514D0057000264B7D10
:1036E0000C7DDFF88CA35B1CB046914604FB03F70E
:1036F00083460120FFF7FEFE2046DAF80420D9F8C1
:1037000000100EE091F83E1101F00F012943017005
:10371000BDE8F09F32F91030B1F832C16345F7DBF4
:10372000401C8742F6DC0F2EF2D2761CF6B245EA38
:10373000060108F101088BF80010B8F1100FD8DB72
:10374000E6E710B54FF42E714FF4801009F00DFD2F
:10375000FEF752F9FFF7B5FFFFF714FFC24AC5485D
:103760001268401D017892F8FB2701F0F00102F089
:103770000F0211430170BDE81040012004F0F6BBB8
:103780002DE9F0438DB000214FF6FF70ADF82C10FD
:10379000DFF8E4C2ADF82800ADF80400DFF8D88205
:1037A000B64FDFF8C492ADF80810ADF81800ADF8C8
:1037B0000C10ADF81000ADF814100CF1140C0D46FF
:1037C0000E460124B96804FA06F0084213D0002D11
:1037D0000ADBD9F80000007D801EA84204DB1CF83B
:1037E00005200BA90AA803E01CF8052002A901A8DE
:1037F000FFF7F0FD6D1C761C202EE3D300252E462E
:103800004FEA090C796804FA06F0084213D0002D3B
:103810000ADBDCF80000407D801EA84204DB18F8BB
:10382000052003A906A803E018F8052005A904A8A7
:10383000FFF7D0FD6D1C761C202EE3D38D48BDF81C
:103840002C20801CBDF828100078024492B2ADF8FC
:103850002C20BDF8043001440344ADF80430BDF819
:10386000083089B21844ADF808008248ADF8281035
:10387000401CBDF8183000780344ADF81830BDF88E
:103880000C300344ADF80C30BDF810300344ADF8F3
:103890001030BDF814301844ADF81400042004F0C2
:1038A000A8FBBDF80C20BDF81810052004F0A1FB02
:1038B000BDF80820BDF80410062004F09AFBBDF8FE
:1038C0001420BDF81010072004F093FB0DB0BDE8E4
:1038D000F0832DE9F0476948634B00244669456849
:1038E000D3F800302246012140F6FF7901FA02F7B1
:1038F0002F421FD036F91480B8F1000F05D0C8450B
:1039000007D1076847F0100712E0076847F0200763
:103910000EE0B3F836C1B3F84171E246BC44C44589
:1039200003DBAAEB0707474503DD076847F04007BD
:103930000760641C521C202AD8D300248769D0F861
:103940000860224601FA02F535421DD037F91450BD
:103950002DB14D4507D1056845F0100512E0056809
:1039600045F020050EE0B3F83AC1B3F843A10CEBE3
:103970000A08A84503DBACEB0A0CAC4503DD05687F
:1039800045F040050560641C521C202ADAD3BDE8CE
:10399000F087F0B5394A0020374FD2F8046001466D
:1039A0000446012303FA04F5354203D03D5D854208
:1039B00000D92846641C202CF4D32F4ED2F808706E
:1039C0001436002403FA04F53D4203D0355D8D42E0
:1039D00000D92946641C202CF4D3264B274F5B1CAE
:1039E000244D1B78ED1C1C18224B3F689B1C6E1C41
:1039F0001B784FF0FF0C0B4447F080079C4208D225
:103A00001B1B1844FF2811D985F800C017603170BE
:103A1000F0BDA3420AD2E31A1944FF2901D831703C
:103A200002E086F800C017602870F0BD2870EEE74D
:103A30002DE9F84FDFF830900F4D0F48D9F80010FE
:103A40001435DFF838B091F83011044649064FF0CC
:103A5000010A7CD5342109F088FBFFF79AFFFEF7B5
:103A60001AF8FEF709F80BE04428100060B40120B2
:103A700044401000F6071000B8021000942810000F
:103A8000042003264FF0000800900220FFF732FDCB
:103A9000F00728D04FF0000E724670464F465B4646
:103AA0000AFA00F1D3F804C011EA0C0F13D05969D7
:103AB000D7F800C031F91210BCF838C1614509DAF5
:103AC000215CDDF800C04FF0010E6144FF2900DDEC
:103AD000FF212154521C401C2028E1D3BEF1000FCD
:103AE00001D126F00106B00729D54FF0000E72462D
:103AF00070464F464FEA0B030AFA00F1D3F808C0AC
:103B000011EA0C0F13D09969D7F800C031F91210DF
:103B1000BCF83CC1614509DA295CDDF800C04FF012
:103B2000010E6144FF2900DDFF212954521C401C75
:103B30002028E1D3BEF1000F01D126F0020666B1C4
:103B4000FFF727FFFDF7A7FFFDF796FF00E060E016
:103B500008F10108B8F1640F97DB032600200090FC
:103B60000220FFF7C7FCF00720D00027394638466F
:103B7000CC465A460AFA00F3D2F8048013EA080F3A
:103B80000ED05369DCF8008033F91130B8F8388171
:103B9000434504DD235C13B101275B1E2354491CFC
:103BA000401C2028E6D30FB926F00106B00721D526
:103BB000002739463846CC464FEA0B020AFA00F392
:103BC000D2F8088013EA080F0ED09369DCF8008061
:103BD00033F91130B8F83C81434504DD2B5C13B157
:103BE00001275B1E2B54491C401C2028E6D30FB92B
:103BF00026F00206002E0AD0FFF7CBFEFDF74BFFA2
:103C0000FDF73AFF0098401C00906428A8DBBDE84F
:103C1000F88F7F22342109F07EFAFFF7BAFEFDF714
:103C20003AFFFDF729FF40260327002000900220DD
:103C3000FFF760FCF80731D04FF0000843464046DC
:103C40004FEA0B010AFA00F2D1F804C012EA0C0F95
:103C50001CD04A6940F6FF7C32F91320624506DB2E
:103C6000012E04DD225C4FF00108921B0CE0D9F814
:103C700000C0BCF838C1624507DA225C4FF0010889
:103C80003244FF2A00DDFF2222545B1C401C202806
:103C9000D8D3B8F1000F01D127F00107B80731D50B
:103CA0004FF00008434640464FEA0B010AFA00F283
:103CB000D1F808C012EA0C0F1CD08A6940F6FF7CCC
:103CC00032F91320624506DB012E04DD2A5C4FF039
:103CD0000108921B0CE0D9F800C0BCF83CC1624559
:103CE00007DA2A5C4FF001083244FF2A00DDFF2288
:103CF0002A545B1C401C2028D8D3B8F1000F01D1F6
:103D000027F002076FB1FFF744FEFDF7C4FEFDF791
:103D1000B3FE002E05DD00987610401C009064284C
:103D200085DB0326002000900220FFF7E3FBF0076D
:103D300020D0002739463846CC465A460AFA00F3C6
:103D4000D2F8048013EA080F0ED05369DCF8008023
:103D500033F91130B8F83881434504DD235C13B1E1
:103D600001275B1E2354491C401C2028E6D30FB9B1
:103D700026F00106B00721D5002739463846CC4643
:103D80004FEA0B020AFA00F3D2F8088013EA080F90
:103D90000ED09369DCF8008033F91130B8F83C811B
:103DA000434504DD2B5C13B101275B1E2B54491CDA
:103DB000401C2028E6D30FB926F00206002E3FF45F
:103DC00026AFFFF7E6FDFDF766FEFDF755FE00980E
:103DD000401C00906428A7DB19E72DE9F05FA44F91
:103DE0000024A44D38684FF07F02264690F8301129
:103DF0008B0706D50124490601D42A7004E02E70F1
:103E000002E090F83F11297090F83011DFF86882D5
:103E10004B0709D544F00204480602D488F8002074
:103E200006E088F8006003E090F8401188F8001080
:103E3000002C75D03421914809F097F98E48801CE8
:103E40000670401E0670FDF717FEFDF724FE386869
:103E5000DFF82C92BA4690F83001400661D54FF059
:103E6000100B00260220FFF745FBE00722D0D9E91E
:103E700004730020014605E033F91120824200DD81
:103E80001046491CB942F7DBDAF80010B1F83621C8
:103E9000824202DA2878401E08E0B1F84B118142D4
:103EA00006DB28785844FF2800DDFF20287001E059
:103EB00024F00104A0072AD500200146D9F8187083
:103EC000D9F80C2006E000BF37F91130834200DD3D
:103ED0001846491C9142F7DBDAF80010B1F83A2194
:103EE000824205DA98F80010491E88F800100EE0AA
:103EF000B1F84B11814208DB98F800005844FF28C4
:103F000000DDFF2088F8000001E024F00204002C0E
:103F100006D0FFF73EFDFDF7BEFD761C202EA1DB8F
:103F20000EE4402600270220FFF7E4FAE0071AD04B
:103F3000D9E904C30020014606E000BF33F911208F
:103F4000824200DD1046491C6145F7DBDAF80010BB
:103F5000B1F83611814203DA2878A0EB060010E0B0
:103F600050B124F00104A00725D500200146D9F85E
:103F70000CC0D9F818300DE028783044FF2800DD57
:103F8000FF202870EFE700BF33F91120824200DDE7
:103F90001046491C6145F7DBDAF80010B1F83A1118
:103FA000814205DA98F80010891B88F8001002E0B9
:103FB00070B124F00204002CB2D0012E00DD761086
:103FC000FFF7E7FCFDF767FD7F1C202FABDBA7E7C2
:103FD00098F800003044FF2800DDFF2088F800003A
:103FE000E9E770B5264C00202060FEF76FFB6060AB
:103FF000FEF798FBA0606068042140086060201D07
:10400000FEF780FA2061042104F10800FEF77AFA35
:10401000E0600220FFF76EFA1A482169806800EB21
:1040200041026261E26802EB410100EB4100A061E4
:10403000FFF7D3FE0E4D286890F83001800601D5B9
:10404000FFF7F6FCFFF745FCFFF79AFBFDF723FDB2
:1040500009482968C01C027891F8FB1762F3030134
:1040600001702068BDE8704040F0020003F07EBFA0
:1040700044281000F7071000F8071000B8021000DD
:10408000942810004440100010B5014610229848B2
:10409000FEF719FC974841688020FCF70BFE0028CA
:1040A00003D0BDE81040FCF7ACB910BDF0B5924D9F
:1040B00006460C4628684FF0FF3193B090F8B100E7
:1040C00000F00F00401C8140CF436846FEF731FCF2
:1040D00001208DF800008DF80140286800F58670F9
:1040E00001788DF8121044F005018DF80110029747
:1040F000ADF81060AFF26F01019141788DF81610A4
:1041000080787B4D8DF8170003246846FDF74BFB44
:1041100000218020FCF743FD00218020FCF779FD81
:104120002878002804D0FDF765FF641E002CECDC25
:1041300013B0F0BD2DE9F0476F4D4FF00009DFF8E7
:10414000B081286800F570700478467887781AE0A6
:1041500049462046FFF7AAFFD8F8040007F050F9B7
:104160000146286890F80B2112F00F0000D10120C1
:1041700012094A43B2FBF0F082B22146302003F02C
:1041800058FFE01984B2B442E2DDBDE8F0872DE9C2
:10419000FF5F4FF6FF764FF0000A93460F468046CA
:1041A00034465546DFF850911CE000BF38F8150042
:1041B0005146FFF77BFF4E48406807F021F9D9F8D8
:1041C000001091F80B2112F00F0100D1012112090A
:1041D0004243B2FBF1F080B2A04202D238F815603F
:1041E00004466D1CBD42E1DBABF80060039804801F
:1041F000BDE8FF9F2DE9F0413F4D04468846286801
:1042000088B000F1D20690F8D10006AB00F00F01A3
:10421000491C05AA3046FFF7BAFF2A6892F8D00079
:10422000800721D5BDF814600121ADF8006002F1CE
:10423000F20500234FF4803C6F4607E0E856304417
:10424000604502D227F81100491C5B1C92F8D1008E
:10425000C0F30210401C9842F0DC002904DD06ABDC
:1042600005AA3846FFF793FFBDF814002080BDF87B
:104270001810A8F8001008B0BDE8F0812DE9FC4145
:104280001E4E00235A1E19463068FCF7F8F91C4CE4
:1042900001A968466588FFF7ADFF174F3868B0F889
:1042A000FA10BDF80400814201D9218000E020808D
:1042B000BDF8000060803068FCF7C2F9BDF800006E
:1042C000854207D0386890F8D000400702D5608852
:1042D000FEF7CEFE0B49012008700B490870BDF8AF
:1042E00000202946092003F067FEBDE8FC8100009C
:1042F00054401000843F1000442810009C3F1000E0
:10430000783F1000522810007C2810002DE9F04161
:104310000178C64C01B1217001461022C448FEF755
:10432000D2FAC448016891F8CD27D307C04A01D01A
:10433000D36800E093684A7D6168BF4D4A4300211D
:1043400006E000BF33F811605718491C25F81760C4
:104350000668767D8E42F5DC6268521C62600168F8
:10436000497D01FB02F6002207E08F1806EB020CE4
:1043700033F8177025F81C70521C07687F7D974230
:10438000F3DC6168491C6160006890F8B10000F0DE
:104390000F00401C884205DDBDE8F041A4484838C4
:1043A000FDF701BAA54841688020FCF783FC00288E
:1043B00003D0BDE8F041FCF724B8BDE8F0812DE959
:1043C000FF5FDFF86CB24FF6FF7400258A46A04607
:1043D000ABF1480BA946954E5AE095484838FEF790
:1043E000A8FA944A116891F8CD07C00701D01023AC
:1043F00000E002238BF80030009830F81530ABF85D
:104400002C309BF8013043F004038BF80130AFF2FD
:10441000031301F2C931CBF804300A788BF830204D
:10442000CA788BF832204A788BF8332089788BF859
:1044300034100327C6F804907D4886F80090483869
:10444000FDF7B1F900218020FCF7A9FB00218020B5
:10445000FCF7DFFB307820B1FDF7CCFD7F1E002F8D
:10446000EADC754802F0B5FA7249096891F8C82388
:1044700012F00F0100D101211209424390B2B0FBAA
:10448000F1F0A04203D20099044631F815806D1C6A
:104490005545A2DB0299A1F8008003980480BDE88D
:1044A000FF9F2DE9F0410546624888468CB00068C0
:1044B0000AAB00F2823C90F8812300F2A23490F81B
:1044C000800302F00F01C2F30216C0F3400709AAED
:1044D000491C6046FFF773FFDFB1BDF824300121AE
:1044E0000020ADF800304FF4803C6F46761C07E0AA
:1044F00022561A44624502D227F81120491C401C5A
:10450000B042F5DB012904DD0AAB09AA3846FFF702
:1045100056FFBDF824002880BDF82810A8F8001028
:104520000CB04AE77CB5464E00235A1E1946306847
:10453000FCF7A5F8434C01A96846E588FFF7B1FFF1
:104540003C480168BDF80400B1F8AC23824201D9AF
:10455000A28000E0A080BDF80000E08020818542BC
:1045600005D091F88013490701D5FEF7C7FD3649FC
:1045700001200870354908703068FCF761F8BDF813
:10458000002029460A2003F017FD7CBD2DE9F047E5
:10459000DFF8A080DFF898900025D8F80000A9F196
:1045A000480900F2C33004884688077939E020487A
:1045B0004838FEF7BEF9D8F8000090F8CD07C007DC
:1045C00001D0102100E0022189F80010A9F82C4048
:1045D00099F8011041F0040189F80110AFF2D321DC
:1045E000C9F8041011490020486011484838FDF707
:1045F000DAF800218020FCF7D2FA00218020FCF7B5
:1046000008FB0D4802F0E5F90246962D03DA104842
:1046100020F815206D1C2146312003F00AFDE01919
:1046200084B2B442C3DDBDE8F0870000B0281000BA
:10463000AC4010004428100060A10120843F10000D
:104640009C3F1000783F1000522810007C2810007A
:104650003C2701202DE9F041174604460D4600266F
:1046600009E0E00703D03146384603F023FC761C0E
:104670006D084FEA340454EA0500F2D1BDE8F08138
:1046800030B5034600204FF0FF32012505FA00F453
:104690000C4202D0521C9A4203D0401C2028F5D371
:1046A000002030BDF0B50E460125074605FA06F29A
:1046B000FE4C0F2FD4E9151065D2DFE807F06443F4
:1046C0004B08106464192129323A54585C00304672
:1046D000FFF7D6FF8540A06A0543A56253E0014677
:1046E0003046FFF7CDFF8540206C054325644AE046
:1046F0003046FFF7C5FF8540E06A0543E56242E0CA
:104700003046FFF7BDFF8540206B054325633AE047
:1047100001463046FFF7B4FF8540A06C0543A56411
:1047200031E03046FFF7ACFF8540606B05436563C1
:1047300029E001463046FFF7A3FF8540E06C0543C2
:10474000E56420E03046FFF79BFF8540606A054343
:10475000656218E001463046FFF792FF8540E06B46
:104760000543E5630FE0A06B0243A2630BE0206DFD
:104770000243226507E001463046FFF781FF85408E
:10478000606C054365642068401C2060F0BD10B576
:1047900001461022C648FEF796F8C64841688020B8
:1047A000FCF788FA002803D0BDE81040FBF729BECB
:1047B00010BD10B5FDF76FFF4008400010BD2DE99A
:1047C000F047894605464FF0FF34FDF772FFB74FBB
:1047D00000231946D7F804604FF0010C0CFA01F2DF
:1047E000024200D0641CAC4206D1B9F1010F0AD0DC
:1047F00020EA02030E462021491C2029EED3184648
:104800007E60BDE8F0871346F4E72DE9F04789465E
:1048100005464FF0FF34FFF7CCFFA44F02460020BF
:104820007B6801464FF0010C0CFA01F6164200D0ED
:10483000641CAC4206D1B9F1010F08D022EA06008F
:104840000B461E21491C1E29EED37B60D9E730465A
:10485000F6E72DE9F04196B0044688466846FEF733
:1048600068F812A8FDF7B4FAFFF7A3FF8F4F4008CE
:104870007865FDF71EFF20268F4DB865012C0AD004
:10488000022C22D0032C26D0042C29D0052C30D089
:10489000062C4ED064E0FDF775FF0290FDF778FF1F
:1048A000039001208DF800000C20ADF8100040208E
:1048B0008DF812008DF8166091208DF8170002987F
:1048C000400878650398B8654AE0FFF772FF0990E1
:1048D000FDF7EFFE14E0FDF7ECFE01210A9003E086
:1048E000FDF7E7FE00210A904046FFF78EFF099092
:1048F00007E0FFF75EFF099001214046FFF75FFFE9
:104900000A908DF80060286800F55A7081788DF85B
:104910003010C1788DF8331001788DF8341041785B
:104920008DF835108188ADF82C100089ADF82E0077
:1049300016E0FFF73EFF0990FDF7BBFE0A908DF8E9
:104940000060286800F2613081788DF83010C178FD
:104950008DF8331001788DF8341040788DF83500DB
:1049600000209DF801108DF8140021F030018DF821
:1049700032008DF8150041F008018DF831008DF8F6
:104980000110AFF2F51103260191012C13D0092C6F
:1049900027D00A2C25D000BF8DF852008DF8540086
:1049A0008DF85300022C13D0032C11D0042C0FD0FF
:1049B000052C0DD015E0296891F889178DF84C0069
:1049C00041F003018DF848103C21ADF84A10E3E7AF
:1049D0002868B0F86E13ADF84E10B0F87203ADF859
:1049E000500012A8FDF72BFA314C6846FCF7DBFEAD
:1049F00000218020FCF7D3F800218020FCF709F982
:104A00002078002804D0FDF7F5FA761E002EECDCA5
:104A100016B033E62DE9FC5F00210120FFF719FFF6
:104A200023484768FDF7AEFE0190FDF7B1FE009008
:104A3000042101A8FDF766FD064604216846FDF73E
:104A400061FD844600200546DFF860B0DFF868A00D
:104A500000905CE04FF00008C1465C462846DBF859
:104A60005810FFF70DFE014601208840A16C084256
:104A70004CD101243BE000BF04FB0C51DAF80000EC
:104A800037F9112090F86703B2EB001F2EDA08F116
:104A90000108B9F1000F00D1A146721E944225D140
:104AA000B8F1010F22D1ACF1010207E0B8281000E3
:104AB000BC401000843F100044281000954204D1EF
:104AC000611E0120FFF7EEFD0EE007EB4101B1F999
:104AD0000220B2EB001F05DB35B131F9021CB1EB4E
:104AE000001F01DA002000E002208046641CB4426E
:104AF000C2DBA6EB0901414508D829460220FFF791
:104B0000D1FD01200099A840084300906D1C654527
:104B1000A0DB01253BE000BF4FF0000844462CE03D
:104B2000DBF84030DBF8482000201A4311D0D9468A
:104B30002046DBF85810FFF7A3FD0146012088400E
:104B4000D9F84810084203D1D9F84010084000D0E5
:104B5000012005FB0C4137F91120DAF8001091F81B
:104B60006713B2EB011F07DA30B901200099A040AA
:104B7000084201D108F10108641C6445D0DBB8F19A
:104B8000000F03D0691E0120FFF78CFD6D1CB5429C
:104B9000C2DBBDE8FC9F2DE9F041E34C0020054657
:104BA000E24FDFF88C83A0611EE029460520FFF765
:104BB00050FE21690120BE6800EB410C36F91C1043
:104BC000D8F8000090F87703B1EB001F03D929460D
:104BD0000E20FFF767FD36F91C00A169884202DD4F
:104BE00036F91C00A0616D1C60698542DDD345E586
:104BF0002DE9F04100210620FFF72BFECB480025D0
:104C0000CB4EC94C87680EE0E0683168284437F91C
:104C1000100091F86513B0EB011F03DD29460A204F
:104C2000FFF740FD6D1C20698542EDDB00250EE09D
:104C3000A0683168284437F9100091F86513B0EB8B
:104C4000011F03DD29460B20FFF72CFD6D1C606959
:104C50008542EDDB12E52DE9F041B34C002006461C
:104C6000206237E031460420FFF7F3FDAF4800250E
:104C700087682BE0FDF71DFD01462846FFF700FD84
:104C8000014601208840216C08421ED1A849A06835
:104C90002844096807EB400030F9040C91F87813B8
:104CA000B0EB011F07D931460820FFF7FBFC29466E
:104CB0000920FFF7F7FCA068216A284407EB4000B1
:104CC00030F9040C884200DD20626D1C6069854269
:104CD000D0D3761C20698642C4D3CFE42DE9F041BD
:104CE000914C00200546914FDFF84482E0611AE0C4
:104CF00029460320FFF7ADFDBE68B6F90210D8F8CB
:104D0000000090F87603B1EB001F03D92946072075
:104D1000FFF7C8FCB6F90200E169884202DDB6F986
:104D20000200E0616D1C20698542E1D3A6E42DE913
:104D3000F04100210220FFF78CFD7C487C4D7A4C2D
:104D40008768286890F86003000713D500260EE0F6
:104D5000E0682968304437F9100091F87413B0EB1B
:104D6000011F03D931460320FFF79CFC761C206904
:104D70008642EDDB286890F86003C00613D5002654
:104D80000EE0A0682968304437F9100091F87513D7
:104D9000B0EB011F03D931460420FFF783FC761CDA
:104DA00060698642EDDB69E42DE9FC41614E002338
:104DB0005A1E19463068FBF762FC4FF4801041120E
:104DC00008F0B1F9FCF767FEFCF756FEFCF714FE9D
:104DD000554C00202060FFF7ECFC0090FDF769FCCB
:104DE000019004216846FDF78DFB0546042101A8CA
:104DF000FDF788FB014600EB4500C4E90205C4E964
:104E000004514B4D286890F86003010701D4C00697
:104E100001D5FFF78CFF286890F86003800601D564
:104E2000FFF75CFF286890F86003000601D5FFF7E4
:104E300012FF286890F86003C00701D0FFF7D8FE82
:104E4000286890F86003400601D5FFF7A4FE2868A3
:104E500090F86003800701D5FFF7DCFD206800288B
:104E60005DD0D4E90A359D43E562606AD4E90F1C40
:104E70009843A8436062676C21EA0C01B943E1637F
:104E8000A16B226D9943A943256B22EA0C02A94329
:104E9000A163A16CBA438A43AB43A362226501229A
:104EA0000021FFF7D7FB02220021E06BFFF7D2FBC6
:104EB00003220021A06AFFF7CDFB04220021206C11
:104EC000FFF7C8FB07220021E06AFFF7C3FB0822B7
:104ED0000021206BFFF7BEFB09220021A06CFFF729
:104EE000B9FB0A220021606BFFF7B4FB0B22002103
:104EF000E06CFFF7AFFB0C220021A06BFFF7AAFBD1
:104F00000D220021206DFFF7A5FB0E220021606C11
:104F1000FFF7A0FB3068FBF793FBBDE8FC810021A5
:104F2000084602F0C7FFF5E7B8281000BC401000A3
:104F3000442810009C3F1000584E594CDFF8648103
:104F4000DFF864914FF0FF3A0025307880B10128F6
:104F5000FBD140F27D700021FBF721FEFBF7E2FE62
:104F6000C1071ED000210120FBF753FE3570ECE78E
:104F7000022701210020FDF70CFC00213846FBF739
:104F80000EFE01210846FDF704FCFBF7CBFE80076F
:104F9000DBD5002140F27F70FBF73BFE0120307033
:104FA000D3E701070CD500210820FBF732FE0023D0
:104FB000524619462068FBF762FBFEF7C2FB0DE084
:104FC00041070FD500210420FBF723FE00235246A2
:104FD00019462068FBF753FBFFF703F82068FBF73F
:104FE0002FFBB2E7C1060AD500211020FBF711FE06
:104FF00098F800000028A8D1FFF740F9A5E781063E
:105000000AD500212020FBF704FE98F800000028B4
:105010009BD1FFF787FA98E7C10507D500214FF428
:105020008070FBF7F6FDFFF785F88EE7810507D561
:1050300000214FF40070FBF7ECFDFFF7A7FA84E7BF
:10504000410606D500214020FBF7E3FDFFF7ACFE4B
:105050007BE740058BD500214FF48060FBF7D9FD3D
:10506000124805601248076805603846FDF78BFF57
:10507000A7F54070BF3801D105200AE0F80701D03C
:10508000152006E017F0420F05D0D9F8000040F0D7
:10509000060002F06BFFC9F8005056E71429100013
:1050A0009C3F10005D2810004C281000B42910000F
:1050B00048281000FE490020FF4A0870FD4908708A
:1050C00001211170FD4A1170FD49FE4AC860086156
:1050D000888008708861C86108621268B2F852312D
:1050E0004B81B2F854210A814862887000F0FEBEFC
:1050F00030B50024234605E030F913508D4200DD21
:10510000641C5B1C9342F7DBEE48006890F8610179
:10511000A04201D2012030BD002030BDF0B50025F5
:105120002F462C46DDF814C009E000BF30F91460AA
:10513000B54203DA964201DD3546E7B2641C8C4283
:10514000F4DB25B18CF8007001201D60F0BD00205B
:10515000F0BD30B585B00446DA4D01A8009028684E
:1051600003ABB0F95221017DD748FFF7D7FF80B1DB
:105170002B689DF8040093F88A2102F00F01814208
:1051800001D81B7D1BE0207800EB1210207005B0C9
:1051900030BD02A80090286804ABB0F95421417DCD
:1051A000CA48FFF7BBFF0028F1D02B689DF8080024
:1051B00093F88A2102F00F018142E4D85B7D591AED
:1051C0008142E0DBE3E72DE9FE410446BD4801AB47
:1051D0005022006890F88911B0F9877101F00F082A
:1051E0000E09B0F9855102A90091017DB648FFF77B
:1051F00095FF0198B84203DD2178A1EB08000EE08D
:10520000A84202DA2078801B09E0401BA8EB0601C7
:105210004843791B90FBF1F021783044081A207044
:10522000BDE8FE8130B564290CD00023642407E07A
:1052300030F913504D4395FBF4F520F813505B1CE7
:105240009342F5DB30BD70B5002364250AE0CC5CE9
:10525000642C06D030F91360664396FBF5F420F811
:1052600013405B1C9342F2DB70BD2DE9F047002533
:10527000894629462F462E46A8462B460DE000BFFC
:1052800030F913C039F913400CFB0C660CFB0477A2
:1052900004FB0488654421445B1C9342F0DB87FBDC
:1052A000020485FB013CC71A86FB020385FB0565EA
:1052B00064EB0C04B0EB060C63EB050688FB020301
:1052C00081FB0121851A63EB01086421A7FB01031F
:1052D00004FB0131002207FB02113346624607F04E
:1052E000B1FE0246A2FB070301FB073102FB0411DA
:1052F0002A46434607F0A6FE002C00DA4042BDE8ED
:10530000F08730B547F6F873002405E030F9145003
:10531000AB4200DD2B46641C9442F7DB002405E021
:1053200030F81450ED1A21F81450641C9442F7DB45
:1053300030BD70B503460020024601EBD17408E091
:1053400003EB420633F91250B6F90260AD1B284454
:10535000521CB2EB640FF3DB621008E003EB420572
:1053600033F9124035F9025C641B2044521C8A4216
:10537000F4DB70BDF0B587B00746524C03A800902F
:1053800020689C468E461646017D002504AB0FFA28
:105390008CF27046FFF7C2FE01283BD102A80090B4
:1053A000206805AB32B2417D3846FFF7B7FE0128D1
:1053B00030D1DDE9041081424FF0640203DD504337
:1053C00090FBF1F102E0514391FBF0F1206890F87D
:1053D00092218A421EDD9DF8081019B990F891219A
:1053E000D20716D0427D521E8A4203D190F8911105
:1053F00089070ED59DF80C1019B990F89121520724
:1054000007D5027D521E8A4204D190F8910100070F
:1054100000D4012507B02846F0BDF8B5294C0F4649
:1054200016462168002591F89021530771D5120680
:1054300025D54A7D009291F88B31254A254901F006
:10544000C2FD2068244A017D009190F88C312349E7
:10545000384601F0B8FD0096206890F89311427D1F
:105460000B091F491A4801F03DFD0096206890F88D
:105470009311027D0B091A4917483C3110E0009640
:1054800091F8932113094A7D154901F02BFD0096EF
:10549000206890F89311027D0B09114938463C3180
:1054A00001F020FD20680B49437DB0F89E2119E0F2
:1054B0005B2810005C2810007C2810007D2810005C
:1054C0001829100044281000142E0120D82D012086
:1054D000FC401000C225012038411000FE250120AB
:1054E000E4280120FE4801F0D9FD06462068FD4968
:1054F000037DB0F89C21FA483C3001F0CFFD034613
:10550000F9490022F948012E05D0C261012B13D0C0
:1055100002622846F8BDC669761CC661276897F8FE
:10552000937107F00F07B742F0DAC2610E680125E8
:1055300046F040060E60E9E7036A5B1C03622468DC
:1055400094F8934104F00F049C42E2DA0262086886
:10555000012540F040000860DBE7F0B40446E44871
:105560000B46802100680D4690F8680110B1014695
:10557000C0F58075DD48C088032805D22146F0BCFF
:1055800052001846FDF79FB900200EE033F9106075
:1055900034F910704E4307FB0566F71706EB1766E4
:1055A00046F30F2623F81060401C9042EEDBF0BC5F
:1055B0007047F0B50024CE4D0FE030F8146031F89C
:1055C0001470012B0CD0F61B2F6897F86D717F4279
:1055D00006EBC70620F81460641C9442EDDBF0BDB6
:1055E0003E442F6897F86D71F2E72DE9F843BF4DFF
:1055F00080460026E88898B93C22BE49BE48FDF79F
:1056000062F94022B749BD48FDF75DF9B4483C2135
:10561000B83007F088FDB2484021F43007F083FD30
:10562000E9880127B24C032902D2B548077014E07B
:1056300013D92068B0F86B218A420ED9A849437D5E
:10564000AD4AB831AB4801F09AFC2068A449AB4A96
:10565000037DF431A34801F092FC206890F85011CA
:1056600009070ED5017D0091B0F95231A54A9D4937
:10567000404601F0A8FC20689949027D4039A148C4
:1056800003E09749027D40394046FFF766FF2068F6
:10569000944A90F85011037D09079B4901D5994818
:1056A00000E0404601F06BFC20688E4A9649037D7D
:1056B0008B48403801F063FC206890F85011C9060F
:1056C00010D5027D90F8DC128F48FFF7ABFD216802
:1056D00091F85001C00605D50A7D01F528718A4868
:1056E000FFF7B1FD2268894BDFF81CC2B2F8520106
:1056F000B2F86911127D084404B2002001461CE092
:105700003CF91080A04515DD761C032E13D968786E
:10571000401C40B26870002803DD7D481F7069702E
:105720000770E88847F6FF71884201D2401CE88084
:10573000BDE8F8830026401C00B28242E0DC6970BC
:105740001970EEE72DE9F041694C00231A462168F3
:105750001846704E704F0D7D0EE000BF36F91010E8
:1057600037F910C0B1EB0C0100D5494289B28B4228
:1057700001D20B4682B2401C8542EFDC5908092059
:1057800002F037FC236800210A460846634D644E48
:105790005C7D0CE035F9103036F91070DB1B00D55C
:1057A0005B429BB2994201D2194682B2401C8442AC
:1057B000F0DCBDE8F04149080A2002F01ABC70B5DF
:1057C0004B4A0020034640F2FF711268534D544C7F
:1057D00005E000BF25F8101024F81030401C567D5D
:1057E0008642F7DC00204B4C4B4D04E024F81010AF
:1057F00025F81030401C167D8642F7DC70BD2DE97F
:10580000F0413A4C06460D46A078012844D1606A22
:1058100008B9FFF7D4FF364800224049DFF800C13D
:10582000076812E031F9123036F91200834200DACB
:10583000184621F812003CF9120036F9123098424D
:1058400000DC18462CF81200521C787D9042E9DCEE
:105850000020304B304A12E033F9106035F9101057
:105860008E4200DA314623F8101032F9106035F913
:1058700010108E4200DD314622F81010401C397D98
:105880008142E9DC606A401C6062642804D3FFF74F
:1058900059FF0020A0706062BDE8F0812DE9F34F50
:1058A000134C0026DFF868A0206881B0374690F8D6
:1058B0002010B146C9064FF001053FD590F82510DC
:1058C00018480288914239D2A0F800901648016821
:1058D00041F02201016015484168A80228E000005B
:1058E000E4280120FE2501204C2810001829100072
:1058F00044281000C22501203E2601207A260120DE
:10590000A429100038411000142E01205C2810003A
:105910007C281000E0A0012020A1012068A0012027
:10592000A4A001205028100048281000843F100037
:10593000FBF78FF98AF80050BDE8FE8FDFF8188476
:1059400000234FF0FF3B5A461946D8F80C00FAF7EF
:1059500096FE00235A461946D8F81000FAF78FFE33
:10596000FE48007801281DD0DFF8F4C3BCF806001B
:1059700001280ED920680123FA49427DFA48FFF731
:1059800018FE2068F7490123027D3C31F748FFF7F4
:1059900010FE0020ACF80600F548E046007801282B
:1059A0000CD00DE00298FFF720FEEB4C2069FAF7CF
:1059B00047FEE068BDE8FE4FFAF742BE8AF80050A5
:1059C0009AF80020DDE90101FFF727FD81462068F4
:1059D00090F85101800702D5E648FFF7F4FB2068F4
:1059E00090F85101400702D5E248FFF7B2FB20686A
:1059F000DFF880B390F85011090728D5417D009158
:105A000090F88B31DC4AD849019801F0DCFA206823
:105A1000DA4A017D009190F88C31D449029801F066
:105A2000D2FA9AF80000009020689BF80030D44920
:105A3000427DD14801F056FA9AF8000000902068A3
:105A4000CF499BF80030027D3C31CC4813E09AF8F6
:105A500000100091427D9BF80030C949019801F087
:105A600041FA9AF8000000902068C5499BF8003080
:105A7000027D3C31029801F035FAC2494FF0000B2B
:105A8000B94A81F800B02068BB49437DBC4801F0A9
:105A900076FA2068B54AB949037DB9483C3001F02F
:105AA0006EFADFF8B4A2DAF81000FAF7C9FDDAF8F6
:105AB0000C00FAF7C5FD2068DFF8CCA290F8901131
:105AC00009074FD5A749427D3C39AB48FFF719FC80
:105AD0002068A449427D3C3900F57470FFF7C5FB8E
